:020000040800F2
:100000000050002005120008090C0008110C00081F
:10001000190C0008210C0008290C00080000000041
:10002000000000000000000000000000310C00088B
:100030003D0C000800000000490C0008550C0008A9
:100040004D1200084D1200084D1200084D12000814
:100050004D1200084D1200084D1200084D12000804
:100060004D1200084D120008890C00084D120008BE
:100070004D1200084D1200084D1200084D120008E4
:100080004D1200084D1200084D1200084D120008D4
:100090004D1200084D1200084D120008970C000880
:1000A0004D1200084D1200084D1200084D120008B4
:1000B000610C0008750C00084D1200084D12000874
:1000C0004D1200084D1200084D1200084D12000894
:1000D0004D1200084D1200084D1200084D12000884
:1000E0004D1200084D1200084D12000800000000DB
:1000F0000000000000000000000000000000000000
:0C01000000000000000000005FF808F1A3
:10010C0010B5054C237833B9044B13B10448AFF345
:10011C0000800123237010BD780000200000000037
:10012C00B045000808B5034B1BB103490348AFF3B6
:10013C00008008BD000000007C000020B0450008D5
:10014C0080B582B002AF002003F05CFB0123019369
:10015C00292300932A230A4A00212B2003F002FDB5
:10016C002A21032003F098FC064B012200920ECBAF
:10017C00054803F06BFC03F05DFB00BFBD4680BD82
:10018C0020470008746500084046000880B584B01C
:10019C0002AF0123FB71002003F034FB0123019318
:1001AC00292300932A23734A0021002003F0DAFC50
:1001BC000021552003F070FC6F4B012200920ECBF6
:1001CC005E2003F0B1FB2021552003F065FC6A4B47
:1001DC00012200920ECB762003F0A6FB0B213420DB
:1001EC0003F05AFC654B012200920ECB644803F0DD
:1001FC002DFC3621002003F04FFC5F4B01220092B6
:10020C000ECB604803F022FC03F014FB4FF47A7021
:10021C0001F07AF80023BB7180215B4801F02AFBC6
:10022C000346002B0DD197F90730DBB20133DBB25B
:10023C00FB7197F90730022B01DD0023FB710123C1
:10024C00BB714021504801F015FB0346002B0DD12A
:10025C0097F90730DBB2013BDBB2FB7197F9073042
:10026C00002B01DA0223FB710123BB7110214648DC
:10027C0001F000FB0346002B01D1012376E0202185
:10028C00414801F0F7FA0346002B01D102236DE03F
:10029C00BB79002BBED097F90730022B42D0022B32
:1002AC005EDC002B02D0012B1ED059E00023009302
:1002BC0029232A220021002003F006FC01230193AC
:1002CC00292300932A23314A0021002003F04AFC01
:1002DC000B21342003F0E0FB284B012200920ECBC3
:1002EC002B4803F0B3FB3BE00023009329232A2285
:1002FC000021002003F0E8FB012301932923009344
:10030C002A231C4A0021002003F02CFC0B21342052
:10031C0003F0C2FB194B012200920ECB184803F0DC
:10032C0095FB1DE00023009329232A2200210020A5
:10033C0003F0CAFB01230193292300932A23154AB6
:10034C000021002003F00EFC0B21342003F0A4FB51
:10035C000A4B012200920ECB0F4803F077FB00BF33
:10036C0003F068FA642000F0CFFF53E71846083713
:10037C00BD4680BD18480008686500087465000813
:10038C004C46000854460008000C01401049000877
:10039C0068460008204700087046000880B586B003
:1003AC0002AF0346FB71002003F02CFA0021192048
:1003BC0003F072FB1C4B012200920ECB1B4803F086
:1003CC0045FB1B21042003F067FBFB79184A52F80C
:1003DC002300184B012200920ECB03F037FB0123B4
:1003EC000093402380223121002003F06DFBFB7928
:1003FC00042B13D8FB791A46920013441A46910029
:10040C001A460B461344DBB20233FB73F87B002312
:10041C0000933D237E22332103F056FB03F00AFAAE
:10042C0000BF1037BD4680BD7465000878460008D3
:10043C00000000206865000880B582B002AF002083
:10044C0003F0E0F901230193292300932A23104A96
:10045C0000212B2003F086FB3221012003F01CFB32
:10046C000C4B012200920ECB0B4803F0EFFA03F079
:10047C00E1F902E0642000F047FF0821074801F091
:10048C00F9F90346002BF5D000BF00BFBD4680BD77
:10049C0020470008686500088046000800080140F5
:1004AC0080B586B002AF0123FB73002003F0AAF9DC
:1004BC000021192003F0F0FA544B012200920ECBCC
:1004CC00534803F0C3FA1421002003F0E5FA4F4B14
:1004DC00012200920ECB3C2003F026FA142174204A
:1004EC0003F0DAFA494B012200920ECB3E2003F0C6
:1004FC001BFA1421352003F0CFFA464B1B78381D1C
:10050C00454A0A2103F08AFB404B381D0122009218
:10051C000ECB03F09BFA3521002003F0BDFA3F4BC4
:10052C00012200920ECB3E4803F090FA03F082F9C0
:10053C004FF4FA7000F0E8FE80213A4801F09AF985
:10054C000346002B0ED1334B1B780133DAB2314BFF
:10055C001A70304B1B78122B02D92E4B01221A70B9
:10056C000123FB7340212F4801F084F90346002B33
:10057C000ED1284B1B78013BDAB2264B1A70254B57
:10058C001B78012B02D8234B12221A700123FB7308
:10059C001021244801F06EF90346002B2FD02021A6
:1005AC00204801F067F90346002B2AD0FB7B002B77
:1005BC00C2D00023FB731421352003F06DFA154BC8
:1005CC001B78092B07D9134B1B78381D164A0A21A7
:1005DC0003F024FB06E00F4B1B78381D134A0A214D
:1005EC0003F01CFB094B381D012200920ECB03F0CB
:1005FC002DFA03F01FF9642000F086FE9CE700BF83
:10060C0000E000BF1037BD4680BD00BF7465000818
:10061C0094460008180000209C46000868650008F5
:10062C00A0460008000C0140B4460008B84600087B
:10063C0080B584B002AF0346FB71002003F0E2F8F2
:10064C00012301931C2300931F23374A00213020E0
:10065C0003F088FA1E210E2003F01EFAFB79002B02
:10066C0012D1324B012200920ECB314803F0EEF93D
:10067C003221042003F010FA2E4B012200920ECBF3
:10068C002D4803F0E3F92AE0FB79012B12D1274B1B
:10069C00012200920ECB294803F0D8F93221042014
:1006AC0003F0FAF9234B012200920ECB244803F0FD
:1006BC00CDF914E0FB79022B11D11C4B01220092D5
:1006CC000ECB204803F0C2F93221042003F0E4F9E8
:1006DC00184B012200920ECB1B4803F0B7F93821BE
:1006EC00002003F0D9F9194B012200920ECB1848C7
:1006FC0003F0ACF903F09EF84FF47A7000F004FEAE
:10070C001021144801F0B6F80346002B07D0202125
:10071C00104801F0AFF80346002B00D0F0E700BF03
:10072C000837BD4680BD00BF084A00087465000844
:10073C00BC4600085C650008C8460008DC4600089A
:10074C00E8460008FC4600080847000868650008F1
:10075C001C470008000C014080B588B000AF07F1C1
:10076C00100300221A605A609A60DA60444B9B694D
:10077C00434A43F010039361414B9B6903F0100310
:10078C00FB60FB683E4B9B693D4A43F02003936141
:10079C003B4B9B6903F02003BB60BB68384B9B69E8
:1007AC00374A43F004039361354B9B6903F0040310
:1007BC007B607B68324B9B69314A43F00803936141
:1007CC002F4B9B6903F008033B603B6800224FF4FE
:1007DC0000512C4801F065F80022A6212A4801F0AE
:1007EC0060F800224FF46041284801F05AF84FF4A9
:1007FC0000533B6101237B610023BB610223FB613E
:10080C0007F1100319461F4800F0B0FEA6233B6108
:10081C0001237B610023BB610223FB6107F1100301
:10082C001946194800F0A2FE18233B6100237B6196
:10083C000123BB6107F110031946134800F096FE23
:10084C00F3233B6100237B610123BB6107F11003A0
:10085C0019460E4800F08AFE4FF460433B610123B9
:10086C007B610023BB610223FB6107F11003194676
:10087C00064800F07BFE00BF2037BD4680BD00BFA0
:10088C00001002400010014000080140000C014023
:10089C0080B500AF124B134A1A60114B124A5A60C2
:1008AC000F4B00229A600E4B0022DA600C4B4FF477
:1008BC0080421A610A4B00225A61094B00229A614C
:1008CC00074B0022DA61064B00221A62044801F041
:1008DC0023F80346002B01D000F057F900BF80BD70
:1008EC009400002000540040A086010080B500AFA9
:1008FC00124B134A1A60114B124A5A600F4B0022CA
:10090C009A600E4B0022DA600C4B4FF480421A6155
:10091C000A4B00225A61094B00229A61074B0022B4
:10092C00DA61064B00221A62044800F0F5FF034618
:10093C00002B01D000F029F900BF80BDE800002099
:10094C0000580040A086010080B58CB000AF7860E4
:10095C0007F11C0300221A605A609A60DA607B6807
:10096C001B68324A934233D1314B9B69304A43F076
:10097C00080393612E4B9B6903F00803BB61BB69B1
:10098C004FF44073FB6112233B620323BB6207F1FC
:10099C001C031946274800F0E9FD274B5B68FB62F6
:1009AC00FB6A43F0E063FB62FB6A43F00203FB6209
:1009BC00214AFB6A53601E4BDB691D4A43F400134A
:1009CC00D3611B4BDB6903F400137B617B6929E06A
:1009DC007B681B68194A934224D1154B9B69144AB6
:1009EC0043F008039361124B9B6903F008033B61CE
:1009FC003B694FF44063FB6112233B620323BB62F0
:100A0C0007F11C0319460B4800F0B0FD084BDB69DD
:100A1C00074A43F48003D361054BDB6903F480037D
:100A2C00FB60FB6800BF3037BD4680BD0054004002
:100A3C0000100240000C0140000001400058004032
:100A4C0080B582B000AF00F0FDFB00F059F8FFF765
:100A5C0083FEFFF71DFFFFF749FF00F05FF900F081
:100A6C008FFA00F017FA642000F04EFCFFF768FBD9
:100A7C004FF4FA6000F048FCFFF788FB38603B68E5
:100A8C00012B2FD110211C4800F0F4FE0346012B42
:100A9C0002D00020FFF7CCFD0821174800F0EAFE39
:100AAC000346002B02D00120FFF7C2FD134B1B782D
:100ABC00002B02D10220FFF7BBFD00237B600BE073
:100ACC007B68DBB21846FFF769FC4FF4FA6000F064
:100ADC001BFC7B6801337B607B68052BF0DDFFF72B
:100AEC00ABFC04E03B68022B01D1FFF7D9FC0120E1
:100AFC0000F00AFCC0E700BF00080140180000200D
:100B0C0080B590B000AF07F11803282200211846D9
:100B1C0003F0D4F83B1D00221A605A609A60DA6028
:100B2C001A610123BB614FF48033FB6100233B62EC
:100B3C000123BB6202237B634FF48033BB634FF40E
:100B4C00E013FB6307F11803184601F091FB034611
:100B5C00002B01D000F019F80F237B600223BB603F
:100B6C000023FB604FF480633B6100237B613B1DE2
:100B7C000221184601F0FEFD0346002B01D000F0C7
:100B8C0004F800BF4037BD4680BD80B400AF72B6DC
:100B9C0000BF00BFFDE7000080B485B000AF154B6F
:100BAC009B69144A43F001039361124B9B6903F058
:100BBC000103BB60BB680F4BDB690E4A43F08053EB
:100BCC00D3610C4BDB6903F080537B607B680A4B71
:100BDC005B68FB60FB6823F0E063FB60FB6843F041
:100BEC000073FB60044AFB68536000BF1437BD46BA
:100BFC0080BC7047001002400000014080B400AF80
:100C0C0000BFFDE780B400AF00BFFDE780B400AFCC
:100C1C0000BFFDE780B400AF00BFFDE780B400AFBC
:100C2C0000BFFDE780B400AF00BFBD4680BC70477D
:100C3C0080B400AF00BFBD4680BC704780B400AF2D
:100C4C0000BFBD4680BC704780B500AF00F040FBD4
:100C5C0000BF80BD80B500AF024801F0ACFF00BF03
:100C6C0080BD00BF8801002080B500AF024801F0B4
:100C7C00A2FF00BF80BD00BFD001002080B500AF37
:100C8C00102000F027FE00BF80BD80B500AF2020F3
:100C9C0000F020FE402000F01DFE802000F01AFE27
:100CAC0000BF80BD80B586B000AF7860144A154B8C
:100CBC00D31A7B617B693B61134B1B68002B02D100
:100CCC00114B124A1A60104B1A687B6813443A692C
:100CDC009A4207D202F0FAFF03460C221A604FF038
:100CEC00FF3309E0084B1B68FB60074B1A687B68F5
:100CFC001344054A1360FB6818461837BD4680BD7F
:100D0C0000500020000400003C010020700700206F
:100D1C0080B400AF00BFBD4680BC704780B596B0B4
:100D2C0000AF07F1480300221A605A609A60DA603B
:100D3C0007F1400300221A605A6007F124030022D5
:100D4C001A605A609A60DA601A615A619A613B1DA6
:100D5C0020220021184602F0B1FF4C4B4C4A1A607D
:100D6C004A4B47225A60494B00229A60474B44F643
:100D7C001F62DA60454B00221A61444B00225A6113
:100D8C00424B00229A61414801F06EFE0346002B53
:100D9C0001D0FFF7FAFE4FF48053BB6407F1480310
:100DAC0019463A4802F0BAF80346002B01D0FFF777
:100DBC00ECFE364801F0A7FE0346002B01D0FFF7EE
:100DCC00E4FE00233B6400237B6407F140031946D7
:100DDC002E4802F023FC0346002B01D0FFF7D5FE72
:100DEC0060237B624FF47A73BB620023FB620023A7
:100DFC003B6300237B630023BB630023FB6307F18E
:100E0C00240300221946214801F0C6FF0346002B9B
:100E1C0001D0FFF7BAFE07F12403042219461B4840
:100E2C0001F0BAFF0346002B01D0FFF7AEFE002302
:100E3C00BB6207F1240308221946144801F0ACFFE9
:100E4C000346002B01D0FFF7A0FE00237B6000239C
:100E5C00BB600023FB6000233B6100237B614FF4EC
:100E6C000053BB6100233B623B1D1946074802F04F
:100E7C0033FC0346002B01D0FFF787FE034800F03C
:100E8C0049F900BF5837BD4680BD00BF4001002066
:100E9C00002C014080B58EB000AF07F12803002272
:100EAC001A605A609A60DA6007F1200300221A6017
:100EBC005A603B1D00221A605A609A60DA601A610F
:100ECC005A619A612D4B4FF080421A602B4B47228E
:100EDC005A602A4B00229A60284B4FF47A72DA60DF
:100EEC00264B00221A61254B80229A61234801F07F
:100EFC00BBFD0346002B01D0FFF747FE4FF4805398
:100F0C00BB6207F1280319461C4802F007F8034698
:100F1C00002B01D0FFF739FE184801F0F4FD034611
:100F2C00002B01D0FFF731FE00233B6200237B62D4
:100F3C0007F120031946114802F070FB0346002B01
:100F4C0001D0FFF722FE60237B600223BB600023ED
:100F5C00FB6000237B613B1D00221946074801F012
:100F6C001BFF0346002B01D0FFF70FFE034800F0D8
:100F7C00D1F800BF3837BD4680BD00BF88010020C6
:100F8C0080B58EB000AF07F1280300221A605A60BA
:100F9C009A60DA6007F1200300221A605A603B1D48
:100FAC0000221A605A609A60DA601A615A619A617A
:100FBC002C4B2D4A1A602B4B47225A60294B00228E
:100FCC009A60284B4FF47A72DA60264B00221A6131
:100FDC00244B80229A61234801F046FD0346002BE6
:100FEC0001D0FFF7D2FD4FF48053BB6207F1280309
:100FFC0019461C4801F092FF0346002B01D0FFF765
:10100C00C4FD184801F07FFD0346002B01D0FFF70B
:10101C00BCFD00233B6200237B6207F120031946D1
:10102C00104802F0FBFA0346002B01D0FFF7ADFD90
:10103C0060237B600223BB600023FB6000237B6189
:10104C003B1D00221946074801F0A6FE0346002B63
:10105C0001D0FFF79AFD034800F05CF800BF383769
:10106C00BD4680BDD00100200004004080B586B094
:10107C0000AF78607B681B68234A93420CD1234BEA
:10108C009B69224A43F400639361204B9B6903F4F0
:10109C0000637B617B6932E07B681B68B3F1804F36
:1010AC0014D11A4BDB69194A43F00103D361174B76
:1010BC00DB6903F001033B613B69002200211C202A
:1010CC0000F01DFA1C2000F036FA18E07B681B6853
:1010DC000F4A934213D10D4BDB690C4A43F00203C8
:1010EC00D3610A4BDB6903F00203FB60FB6800224F
:1010FC0000211D2000F003FA1D2000F01CFA00BF97
:10110C001837BD4680BD00BF002C014000100240C6
:10111C000004004080B58AB000AF786007F1180376
:10112C0000221A605A609A60DA607B681B682E4A4B
:10113C00934219D12D4B9B692C4A43F004039361C4
:10114C002A4B9B6903F004037B617B694FF4E063DA
:10115C00BB610223FB6102237B6207F11803194672
:10116C00234800F003FA3AE07B681B68B3F1804F28
:10117C0018D11E4B9B691D4A43F0040393611B4B12
:10118C009B6903F004033B613B690123BB610223B0
:10119C00FB6102237B6207F118031946144800F027
:1011AC00E5F91CE07B681B68124A934217D10F4B80
:1011BC009B690E4A43F0040393610C4B9B6903F04B
:1011CC000403FB60FB684023BB610223FB61022329
:1011DC007B6207F118031946054800F0C7F900BFF8
:1011EC002837BD4680BD00BF002C014000100240D6
:1011FC000008014000040040FFF78AFD0B480C4931
:10120C000C4A002302E0D458C4500433C4188C4256
:10121C00F9D3094A094C002301E013600432A242BD
:10122C00FBD302F059FDFFF70BFC704700000020C8
:10123C0078000020BC650008780000206C070020B6
:10124C00FEE7000080B500AF084B1B68074A43F06F
:10125C0010031360032000F047F90F2000F008F88A
:10126C00FFF79AFC0023184680BD00BF0020024007
:10127C0080B582B000AF7860124B1A68124B1B78A5
:10128C0019464FF47A73B3FBF1F3B2FBF3F3184640
:10129C0000F05FF90346002B01D001230EE07B68C0
:1012AC000F2B0AD8002279684FF0FF3000F027F995
:1012BC00064A7B681360002300E0012318460837B8
:1012CC00BD4680BD1C000020240000202000002012
:1012DC0080B400AF054B1B781A46054B1B681344B2
:1012EC00034A136000BFBD4680BC70472400002039
:1012FC001802002080B400AF024B1B681846BD4694
:10130C0080BC70471802002080B584B000AF7860B4
:10131C00FFF7F0FFB8607B68FB60FB68B3F1FF3F41
:10132C0005D00A4B1B781A46FB681344FB6000BFC0
:10133C00FFF7E0FF0246BB68D31AFA689A42F7D867
:10134C0000BF00BF1037BD4680BD00BF2400002089
:10135C0080B485B000AF78607B6803F00703FB6056
:10136C000C4BDB68BB60BA684FF6FF031340BB60E5
:10137C00FB681A02BB68134343F0BF6343F40033AA
:10138C00BB60044ABB68D36000BF1437BD4680BC49
:10139C00704700BF00ED00E080B400AF044BDB6889
:1013AC001B0A03F007031846BD4680BC704700BFFC
:1013BC0000ED00E080B483B000AF0346FB7197F9F9
:1013CC000730002B0BDBFB7903F01F02064997F962
:1013DC0007305B09012000FA02F241F8232000BF1C
:1013EC000C37BD4680BC704700E100E080B483B090
:1013FC0000AF03463960FB7197F90730002B0ADB0D
:10140C003B68DAB20C4997F907301201D2B20B449F
:10141C0083F800230AE03B68DAB20849FB7903F051
:10142C000F03043B1201D2B20B441A7600BF0C37E7
:10143C00BD4680BC704700BF00E100E000ED00E05D
:10144C0080B489B000AFF860B9607A60FB6803F0D3
:10145C000703FB61FB69C3F10703042B28BF0423BB
:10146C00BB61FB690433062B02D9FB69033B00E02B
:10147C0000237B614FF0FF32BB6902FA03F3DA43BE
:10148C00BB681A407B699A404FF0FF317B6901FAC7
:10149C0003F3D9437B680B40134318462437BD46EE
:1014AC0080BC704780B582B000AF78607B68013B30
:1014BC00B3F1807F01D301230FE00A4A7B68013B23
:1014CC0053600F214FF0FF30FFF790FF054B0022C8
:1014DC009A60044B07221A60002318460837BD4651
:1014EC0080BD00BF10E000E080B582B000AF786036
:1014FC007868FFF72DFF00BF0837BD4680BD80B56B
:10150C0086B000AF0346B9607A60FB7300237B6141
:10151C00FFF742FF78617A68B9687869FFF790FF46
:10152C00024697F90F3011461846FFF75FFF00BFD0
:10153C001837BD4680BD80B582B000AF0346FB7145
:10154C0097F907301846FFF735FF00BF0837BD463F
:10155C0080BD80B582B000AF78607868FFF7A2FFDD
:10156C00034618460837BD4680BD000080B48BB0DA
:10157C0000AF7860396000237B6200233B6269E135
:10158C0001227B6A02FA03F3FB613B681B68FA6970
:10159C001340BB61BA69FB699A4240F058813B68C1
:1015AC005B689A4A93425ED0984A934275D8984A9F
:1015BC00934258D0964A93426FD8964A934252D04F
:1015CC00944A934269D8944A93424CD0924A93429B
:1015DC0063D8924A934246D0904A93425DD8122BDC
:1015EC002AD8122B59D801A252F823F073160008EE
:1015FC004D1600085F160008A1160008A716000873
:10160C00A7160008A7160008A7160008A7160008BA
:10161C00A7160008A7160008A7160008A7160008AA
:10162C00A7160008A7160008A7160008A71600089A
:10163C005516000869160008794A934213D02CE01D
:10164C003B68DB683B6229E03B68DB6804333B6248
:10165C0024E03B68DB6808333B621FE03B68DB68D7
:10166C000C333B621AE03B689B68002B02D10423CD
:10167C003B6213E03B689B68012B05D108233B625E
:10168C007B68FA691A6109E008233B627B68FA6996
:10169C005A6103E000233B6200E000BFBB69FF2BF3
:1016AC0001D87B6801E07B6804337B61BB69FF2B4D
:1016BC0002D87B6A9B0002E07B6A083B9B003B6183
:1016CC007B691A680F213B6901FA03F3DB431A406B
:1016DC00396A3B6901FA03F31A437B691A603B6868
:1016EC005B6803F08053002B00F0B1804D4B9B697D
:1016FC004C4A43F0010393614A4B9B6903F001038D
:10170C00BB60BB68484A7B6A9B08023352F82330A3
:10171C00FB607B6A03F003039B000F2202FA03F3C6
:10172C00DB43FA681340FB607B68404A934213D05A
:10173C007B683F4A93420DD07B683E4A934207D068
:10174C007B683D4A934201D1032306E0042304E065
:10175C00022302E0012300E000237A6A02F0030274
:10176C0092009340FA681343FB602F497B6A9B08F5
:10177C000233FA6841F823203B685B6803F480135A
:10178C00002B06D02D4B9A682C49BB6913438B60F8
:10179C0006E02A4B9A68BB69DB43284913408B60EF
:1017AC003B685B6803F40013002B06D0234BDA680C
:1017BC002249BB691343CB6006E0204BDA68BB6956
:1017CC00DB431E491340CB603B685B6803F400337A
:1017DC00002B06D0194B5A681849BB6913434B6050
:1017EC0006E0164B5A68BB69DB43144913404B6047
:1017FC003B685B6803F48033002B21D00F4B1A68D5
:10180C000E49BB6913430B6021E000BF000032108E
:10181C0000003110000022100000211000001210F6
:10182C0000001110001002400000014000080140AF
:10183C00000C014000100140001401400004014064
:10184C000B4B1A68BB69DB43094913400B607B6A7D
:10185C0001337B623B681A687B6A22FA03F3002B24
:10186C007FF48EAE00BF00BF2C37BD4680BC7047E6
:10187C000004014080B485B000AF78600B467B80DB
:10188C007B689A687B881340002B02D00123FB7382
:10189C0001E00023FB73FB7B18461437BD4680BC6C
:1018AC00704780B483B000AF78600B467B801346E2
:1018BC007B707B78002B03D07A887B681A6103E0FD
:1018CC007B881A047B681A6100BF0C37BD4680BC4C
:1018DC007047000080B582B000AF0346FB80084B18
:1018EC005A69FB881340002B06D0054AFB885361CC
:1018FC00FB88184600F006F800BF0837BD4680BDCF
:10190C000004014080B483B000AF0346FB8000BFED
:10191C000C37BD4680BC704780B584B000AF786092
:10192C007B68002B01D101232BE17B6893F83D30C0
:10193C00DBB2002B06D17B68002283F83C20786850
:10194C00FFF702F87B68242283F83D207B681B6834
:10195C001A687B681B6822F001021A607B681B689E
:10196C001A687B681B6842F400421A607B681B682B
:10197C001A687B681B6822F400421A6001F042F876
:10198C00F8607B685B68814A934207D8FB68804AA1
:10199C00934294BF01230023DBB206E0FB687D4A2F
:1019AC00934294BF01230023DBB2002B01D001230F
:1019BC00E7E0FB68784AA2FB03239B0CBB607B68C7
:1019CC001B685B6823F03F017B681B68BA680A439D
:1019DC005A607B681B681B6A23F03F017B685B685D
:1019EC006A4A934202D8BB68013309E0BB684FF4E2
:1019FC00967202FB03F3694AA2FB03239B09013392
:101A0C007A6812680B4313627B681B68DB6923F4EA
:101A1C004F4222F0FF027B685B685C498B4219D80D
:101A2C00FB68591E7B685B685B00B1FBF3F3591CC8
:101A3C0040F6FC730B40002B0AD0FB68591E7B68E8
:101A4C005B685B00B1FBF3F30133C3F30B0351E0B1
:101A5C0004234FE07B689B68002B11D1FB68581E58
:101A6C007B6859680B465B000B44B0FBF3F3013306
:101A7C00C3F30B03002B0CBF01230023DBB212E0DA
:101A8C00FB68581E7B6859680B469B000B449900F9
:101A9C000B44B0FBF3F30133C3F30B03002B0CBF6C
:101AAC0001230023DBB2002B01D0012322E07B6851
:101ABC009B68002B0ED1FB68581E7B6859680B463F
:101ACC005B000B44B0FBF3F30133C3F30B0343F4A0
:101ADC0000430FE0FB68581E7B6859680B469B005F
:101AEC000B4499000B44B0FBF3F30133C3F30B032A
:101AFC0043F44043796809681343CB617B681B68E6
:101B0C001B6823F0C0017B68DA697B681B6A1A4387
:101B1C007B681B680A431A607B681B689B6823F40C
:101B2C00034323F0FF037A6811697A68D268114382
:101B3C007A6812680B4393607B681B68DB6823F040
:101B4C00FF017B685A697B689B691A437B681B6839
:101B5C000A43DA607B681B681A687B681B6842F072
:101B6C0001021A607B6800221A647B68202283F8C9
:101B7C003D207B6800221A637B68002283F83E209C
:101B8C00002318461037BD4680BD00BFA08601005B
:101B9C007F841E00FF083D0083DE1B43D34D621083
:101BAC0080B588B002AFF860084611461A46034665
:101BBC007B810B463B811346FB80FFF79BFB7861D7
:101BCC00FB6893F83D30DBB2202B40F0D9807B6969
:101BDC000093192301226D49F86800F071F903464E
:101BEC00002B01D00223CCE0FB6893F83C30012B96
:101BFC0001D10223C5E0FB68012283F83C20FB687D
:101C0C001B681B6803F00103012B07D0FB681B68E2
:101C1C001A68FB681B6842F001021A60FB681B68BB
:101C2C001A68FB681B6822F400621A60FB682122A8
:101C3C0083F83D20FB68402283F83E20FB6800229D
:101C4C001A64FB683A6A5A62FB68BA8C5A85FB685C
:101C5C005B8D9AB2FB681A85FB684D4ADA62F8888C
:101C6C003A8979897B690193BB6A00930346F868CA
:101C7C0000F090F80346002B52D0012381E07A69E2
:101C8C00B96AF86800F036FA0346002B0DD0FB68F1
:101C9C001B6C042B07D1FB681B681A68FB681B685C
:101CAC0042F400721A6001236BE0FB685B6A1A78DD
:101CBC00FB681B681A61FB685B6A5A1CFB685A62FA
:101CCC00FB681B8D013B9AB2FB681A85FB685B8D28
:101CDC009BB2013B9AB2FB685A85FB681B685B6937
:101CEC0003F00403042B1BD1FB681B8D002B17D0B6
:101CFC00FB685B6A1A78FB681B681A61FB685B6A95
:101D0C005A1CFB685A62FB681B8D013B9AB2FB683C
:101D1C001A85FB685B8D9BB2013B9AB2FB685A85B6
:101D2C00FB681B8D002BAAD17A69B96AF86800F0A0
:101D3C0029FA0346002B0DD0FB681B6C042B07D132
:101D4C00FB681B681A68FB681B6842F400721A6017
:101D5C00012316E0FB681B681A68FB681B6842F4D9
:101D6C0000721A60FB68202283F83D20FB68002279
:101D7C0083F83E20FB68002283F83C20002300E01F
:101D8C00022318461837BD4680BD00BF0200100064
:101D9C000000FFFF80B588B002AFF860084611461E
:101DAC001A4603467B810B463B811346FB80FB683E
:101DBC001B681A68FB681B6842F480721A607B6AA5
:101DCC0000933B6A00224FF00111F86800F078F89C
:101DDC000346002B0DD0FB681B681B6803F4807353
:101DEC00B3F5807F03D1FB684FF400721A640323B0
:101DFC005FE07B89DBB21A46FB681B6802F0FE02CF
:101E0C001A617B6A3A6A2D49F86800F0D3F80346E8
:101E1C00002B01D001234CE000237B61FB681B6885
:101E2C005B697B61FB681B689B697B617B697A6A78
:101E3C00396AF86800F05EF90346002B0DD0FB6898
:101E4C001B6C042B07D1FB681B681A68FB681B68AA
:101E5C0042F400721A6001232BE0FB88012B05D1A0
:101E6C003B89DAB2FB681B681A6121E03B891B0ACB
:101E7C009BB2DAB2FB681B681A617A6A396AF86835
:101E8C0000F038F90346002B0DD0FB681B6C042BBB
:101E9C0007D1FB681B681A68FB681B6842F4007268
:101EAC001A60012305E03B89DAB2FB681B681A61F2
:101EBC00002318461837BD4680BD00BF0200010044
:101ECC0080B584B000AFF860B9603B601346FB711D
:101EDC0048E03B68B3F1FF3F44D0FFF70BFA0246F2
:101EEC00BB69D31A3A689A4202D33B68002B39D1AA
:101EFC00BB681B0CDBB2012B0DD1FB681B685B694B
:101F0C00DA43BB6813409BB2002B0CBF01230023A8
:101F1C00DBB21A460CE0FB681B689B69DA43BB68B2
:101F2C0013409BB2002B0CBF01230023DBB21A46DB
:101F3C00FB799A4216D1FB6800221A63FB682022B7
:101F4C0083F83D20FB68002283F83E20FB681B6C65
:101F5C0043F02002FB681A64FB68002283F83C20E3
:101F6C00012323E0BB681B0CDBB2012B0DD1FB68FA
:101F7C001B685B69DA43BB6813409BB2002B0CBF38
:101F8C0001230023DBB21A460CE0FB681B689B693B
:101F9C00DA43BB6813409BB2002B0CBF0123002318
:101FAC00DBB21A46FB799A4293D0002318461037BD
:101FBC00BD4680BD80B584B000AFF860B9607A6072
:101FCC003B6071E0FB681B685B6903F48063B3F5ED
:101FDC00806F23D1FB681B681A68FB681B6842F48E
:101FEC0000721A60FB681B686FF480625A61FB68B0
:101FFC0000221A63FB68202283F83D20FB68002234
:10200C0083F83E20FB681B6C43F00402FB681A64E7
:10201C00FB68002283F83C20012367E07B68B3F166
:10202C00FF3F41D0FFF766F902463B68D31A7A6846
:10203C009A4202D37B68002B36D1BB681B0CDBB2F7
:10204C00012B0CD1FB681B685B69DA43BB6813403E
:10205C009BB2002B14BF01230023DBB20BE0FB6807
:10206C001B689B69DA43BB6813409BB2002B14BFFF
:10207C0001230023DBB2002B16D0FB6800221A636D
:10208C00FB68202283F83D20FB68002283F83E2069
:10209C00FB681B6C43F02002FB681A64FB6800228F
:1020AC0083F83C20012321E0BB681B0CDBB2012B25
:1020BC000CD1FB681B685B69DA43BB6813409BB2AD
:1020CC00002B14BF01230023DBB20BE0FB681B6861
:1020DC009B69DA43BB6813409BB2002B14BF0123EE
:1020EC000023DBB2002B7FF46DAF002318461037B2
:1020FC00BD4680BD80B584B000AFF860B9607A6031
:10210C0034E0F86800F086F80346002B01D0012378
:10211C0034E0BB68B3F1FF3F28D0FFF7EBF8024681
:10212C007B68D31ABA689A4202D3BB68002B1DD1C4
:10213C00FB681B685B6903F08003802B16D0FB687F
:10214C0000221A63FB68202283F83D20FB680022E2
:10215C0083F83E20FB681B6C43F02002FB681A647A
:10216C00FB68002283F83C20012307E0FB681B6816
:10217C005B6903F08003802BC3D100231846103712
:10218C00BD4680BD80B584B000AFF860B9607A60A0
:10219C0034E0F86800F03EF80346002B01D0012330
:1021AC0034E0BB68B3F1FF3F28D0FFF7A3F8024639
:1021BC007B68D31ABA689A4202D3BB68002B1DD134
:1021CC00FB681B685B6903F00403042B16D0FB68E7
:1021DC0000221A63FB68202283F83D20FB68002252
:1021EC0083F83E20FB681B6C43F02002FB681A64EA
:1021FC00FB68002283F83C20012307E0FB681B6886
:10220C005B6903F00403042BC3D100231846103779
:10221C00BD4680BD80B483B000AF78607B681B681E
:10222C005B6903F48063B3F5806F1BD17B681B681B
:10223C006FF480625A617B6800221A637B682022EB
:10224C0083F83D207B68002283F83E207B681B6C62
:10225C0043F004027B681A647B68002283F83C20FC
:10226C00012300E0002318460C37BD4680BC7047A4
:10227C0080B586B000AF78607B68002B01D101235C
:10228C0072E27B681B6803F00103002B00F087806F
:10229C00924B5B6803F00C03042B0CD08F4B5B68E8
:1022AC0003F00C03082B12D18C4B5B6803F48033C6
:1022BC00B3F5803F0BD1894B1B6803F40033002B23
:1022CC006CD07B685B68002B68D101234CE27B6887
:1022DC005B68B3F5803F06D1804B1B687F4A43F4A3
:1022EC00803313602EE07B685B68002B0CD17B4B3A
:1022FC001B687A4A23F480331360784B1B68774A47
:10230C0023F4802313601DE07B685B68B3F5A02F7A
:10231C000CD1724B1B68714A43F4802313606F4BD2
:10232C001B686E4A43F4803313600BE06B4B1B68E5
:10233C006A4A23F480331360684B1B68674A23F4A2
:10234C00802313607B685B68002B13D0FEF7D2FFF1
:10235C00386108E0FEF7CEFF02463B69D31A642BC6
:10236C0001D9032300E25D4B1B6803F40033002BFF
:10237C00F0D014E0FEF7BEFF386108E0FEF7BAFFBC
:10238C0002463B69D31A642B01D90323ECE1534B6E
:10239C001B6803F40033002BF0D100E000BF7B6816
:1023AC001B6803F00203002B63D04C4B5B6803F0FB
:1023BC000C03002B0BD0494B5B6803F00C03082B70
:1023CC001CD1464B5B6803F48033002B16D1434B76
:1023DC001B6803F00203002B05D07B681B69012BE3
:1023EC0001D00123C0E13D4B1B6823F0F8027B6850
:1023FC005B69DB00394913430B603AE07B681B696E
:10240C00002B20D0364B01221A60FEF773FF386187
:10241C0008E0FEF76FFF02463B69D31A022B01D985
:10242C000323A1E12D4B1B6803F00203002BF0D01A
:10243C002A4B1B6823F0F8027B685B69DB00274999
:10244C0013430B6015E0264B00221A60FEF752FF77
:10245C00386108E0FEF74EFF02463B69D31A022BA7
:10246C0001D9032380E11D4B1B6803F00203002BF1
:10247C00F0D17B681B6803F00803002B3AD07B6813
:10248C009B69002B19D0174B01221A60FEF732FF03
:10249C00386108E0FEF72EFF02463B69D31A022B87
:1024AC0001D9032360E10D4B5B6A03F00203002B9F
:1024BC00F0D0012000F0BAFA1CE00A4B00221A609E
:1024CC00FEF718FF38610FE0FEF714FF02463B6978
:1024DC00D31A022B08D9032346E100BF0010024097
:1024EC000000424280044242924B5B6A03F00203BA
:1024FC00002BE9D17B681B6803F00403002B00F070
:10250C00A6800023FB758B4BDB6903F08053002BFB
:10251C000DD1884BDB69874A43F08053D361854BDF
:10252C00DB6903F08053BB60BB680123FB75824BF6
:10253C001B6803F48073002B18D17F4B1B687E4AF9
:10254C0043F480731360FEF7D5FE386108E0FEF7A4
:10255C00D1FE02463B69D31A642B01D9032303E154
:10256C00754B1B6803F48073002BF0D07B68DB6821
:10257C00012B06D16F4B1B6A6E4A43F001031362A9
:10258C002DE07B68DB68002B0CD16A4B1B6A694A17
:10259C0023F001031362674B1B6A664A23F00403A2
:1025AC0013621CE07B68DB68052B0CD1614B1B6A4A
:1025BC00604A43F0040313625E4B1B6A5D4A43F0AE
:1025CC00010313620BE05B4B1B6A5A4A23F00103B5
:1025DC001362584B1B6A574A23F0040313627B683F
:1025EC00DB68002B15D0FEF785FE38610AE0FEF79C
:1025FC0081FE02463B69D31A41F28832934201D9DB
:10260C000323B1E04B4B1B6A03F00203002BEED00B
:10261C0014E0FEF76FFE38610AE0FEF76BFE02462F
:10262C003B69D31A41F28832934201D903239BE0D0
:10263C00404B1B6A03F00203002BEED1FB7D012BF8
:10264C0005D13C4BDB693B4A23F08053D3617B685B
:10265C00DB69002B00F08780364B5B6803F00C03C2
:10266C00082B61D07B68DB69022B46D1334B0022EF
:10267C001A60FEF73FFE386108E0FEF73BFE0246AB
:10268C003B69D31A022B01D903236DE0294B1B683C
:10269C0003F00073002BF0D17B681B6AB3F5803F0D
:1026AC0008D1244B5B6823F400327B689B6821497A
:1026BC0013434B601F4B5B6823F474127B68196ADD
:1026CC007B685B6A0B431B4913434B601B4B01221A
:1026DC001A60FEF70FFE386108E0FEF70BFE0246AB
:1026EC003B69D31A022B01D903233DE0114B1B6824
:1026FC0003F00073002BF0D035E0104B00221A6071
:10270C00FEF7F8FD386108E0FEF7F4FD02463B6980
:10271C00D31A022B01D9032326E0064B1B6803F0C6
:10272C000073002BF0D11EE07B68DB69012B07D115
:10273C00012319E00010024000700040600042428A
:10274C000B4B5B68FB60FB6803F480327B681B6A95
:10275C009A4206D1FB6803F470127B685B6A9A425A
:10276C0001D0012300E0002318461837BD4680BD78
:10277C000010024080B584B000AF786039607B688F
:10278C00002B01D10123D0E06A4B1B6803F0070337
:10279C003A689A4210D9674B1B6823F007026549C7
:1027AC003B6813430B60634B1B6803F007033A68E9
:1027BC009A4201D00123B8E07B681B6803F0020346
:1027CC00002B20D07B681B6803F00403002B05D082
:1027DC00594B5B68584A43F4E06353607B681B6851
:1027EC0003F00803002B05D0534B5B68524A43F4AB
:1027FC0060535360504B5B6823F0F0027B689B681E
:10280C004D4913434B607B681B6803F00103002B9D
:10281C0040D07B685B68012B07D1474B1B6803F4E6
:10282C000033002B15D101237FE07B685B68022B02
:10283C0007D1414B1B6803F00073002B09D1012316
:10284C0073E03D4B1B6803F00203002B01D1012305
:10285C006BE0394B5B6823F003027B685B6836499D
:10286C0013434B60FEF746FDF8600AE0FEF742FDAD
:10287C000246FB68D31A41F28832934201D90323F2
:10288C0053E02D4B5B6803F00C027B685B689B008C
:10289C009A42EBD1274B1B6803F007033A689A4224
:1028AC0010D2244B1B6823F0070222493B681343C8
:1028BC000B60204B1B6803F007033A689A4201D067
:1028CC00012332E07B681B6803F00403002B08D063
:1028DC00194B5B6823F4E0627B68DB681649134391
:1028EC004B607B681B6803F00803002B09D0124B6C
:1028FC005B6823F460527B681B69DB000E49134351
:10290C004B6000F021F802460B4B5B681B0903F08F
:10291C000F030A49CB5C22FA03F3094A1360094BF3
:10292C001B681846FEF7A4FC002318461037BD465A
:10293C0080BD00BF0020024000100240784A000811
:10294C001C0000202000002080B487B000AF0023C2
:10295C00FB600023BB6000237B6100237B600023B2
:10296C003B611E4B5B68FB60FB6803F00C03042BA4
:10297C0002D0082B03D027E0194B3B6127E0FB6802
:10298C009B0C03F00F03174AD35C7B60FB6803F4CA
:10299C008033002B10D0114B5B685B0C03F00103F0
:1029AC00114AD35CBB607B680D4A03FB02F2BB6827
:1029BC00B2FBF3F37B6104E07B680C4A02FB03F38C
:1029CC007B617B693B6102E0054B3B6100BF3B696E
:1029DC0018461C37BD4680BC704700BF0010024033
:1029EC0000127A00904A0008A04A000800093D0035
:1029FC0080B400AF024B1B681846BD4680BC7047C4
:102A0C001C00002080B500AFFFF7F2FF0246054B1B
:102A1C005B681B0A03F007030349CB5C22FA03F340
:102A2C00184680BD00100240884A000880B485B06A
:102A3C0000AF78600A4B1B680A4AA2FB03235B0AAF
:102A4C007A6802FB03F3FB6000BFFB685A1EFA6056
:102A5C00002BF9D100BF00BF1437BD4680BC7047B6
:102A6C001C000020D34D621080B582B000AF78609E
:102A7C007B68002B01D1012341E07B6893F83D304A
:102A8C00DBB2002B06D17B68002283F83C207868EF
:102A9C00FEF7ECFA7B68022283F83D207B681A680B
:102AAC007B6804331946104600F02CFB7B6801222E
:102ABC0083F846207B68012283F83E207B68012244
:102ACC0083F83F207B68012283F840207B68012239
:102ADC0083F841207B68012283F842207B68012225
:102AEC0083F843207B68012283F844207B68012211
:102AFC0083F845207B68012283F83D20002318468B
:102B0C000837BD4680BD80B582B000AF78607B6869
:102B1C00002B01D1012341E07B6893F83D30DBB2FF
:102B2C00002B06D17B68002283F83C20786800F0EB
:102B3C0039F87B68022283F83D207B681A687B6831
:102B4C0004331946104600F0DDFA7B68012283F845
:102B5C0046207B68012283F83E207B68012283F8A3
:102B6C003F207B68012283F840207B68012283F898
:102B7C0041207B68012283F842207B68012283F884
:102B8C0043207B68012283F844207B68012283F870
:102B9C0045207B68012283F83D2000231846083726
:102BAC00BD4680BD80B483B000AF786000BF0C37E9
:102BBC00BD4680BC704780B584B000AF78607B6840
:102BCC001B68DB68FB607B681B681B69BB60BB68B0
:102BDC0003F00203002B20D0FB6803F00203002B50
:102BEC001BD07B681B686FF002021A617B680122A4
:102BFC001A777B681B689B6903F00303002B03D0D7
:102C0C00786800F064FA05E0786800F057FA7868A4
:102C1C0000F066FA7B6800221A77BB6803F00403A5
:102C2C00002B20D0FB6803F00403002B1BD07B6827
:102C3C001B686FF004021A617B6802221A777B68AA
:102C4C001B689B6903F44073002B03D0786800F079
:102C5C003EFA05E0786800F031FA786800F040FA46
:102C6C007B6800221A77BB6803F00803002B20D086
:102C7C00FB6803F00803002B1BD07B681B686FF00C
:102C8C0008021A617B6804221A777B681B68DB696F
:102C9C0003F00303002B03D0786800F018FA05E06A
:102CAC00786800F00BFA786800F01AFA7B6800225A
:102CBC001A77BB6803F01003002B20D0FB6803F0DD
:102CCC001003002B1BD07B681B686FF010021A617D
:102CDC007B6808221A777B681B68DB6903F44073F6
:102CEC00002B03D0786800F0F2F905E0786800F06A
:102CFC00E5F9786800F0F4F97B6800221A77BB6874
:102D0C0003F00103002B0CD0FB6803F00103002B34
:102D1C0007D07B681B686FF001021A61786800F0BD
:102D2C00C4F9BB6803F08003002B0CD0FB6803F0E4
:102D3C008003002B07D07B681B686FF080021A6140
:102D4C00786800F023FDBB6803F04003002B0CD027
:102D5C00FB6803F04003002B07D07B681B686FF007
:102D6C0040021A61786800F0C4F9BB6803F02003D4
:102D7C00002B0CD0FB6803F02003002B07D07B68E2
:102D8C001B686FF020021A61786800F0F6FC00BF37
:102D9C001037BD4680BD000080B586B000AFF8602E
:102DAC00B9607A600023FB75FB6893F83C30012B0B
:102DBC0001D10223AEE0FB68012283F83C207B6842
:102DCC000C2B00F29F8001A252F823F00D2E00086C
:102DDC00112F0008112F0008112F00084D2E00088C
:102DEC00112F0008112F0008112F00088F2E00083A
:102DFC00112F0008112F0008112F0008CF2E0008EA
:102E0C00FB681B68B968184600F0EAF9FB681B6898
:102E1C009A69FB681B6842F008029A61FB681B68A0
:102E2C009A69FB681B6822F004029A61FB681B68B4
:102E3C009969BB681A69FB681B680A439A6164E06C
:102E4C00FB681B68B968184600F030FAFB681B6811
:102E5C009A69FB681B6842F400629A61FB681B6804
:102E6C009A69FB681B6822F480629A61FB681B6894
:102E7C009969BB681B691A02FB681B680A439A6153
:102E8C0043E0FB681B68B968184600F079FAFB68E8
:102E9C001B68DA69FB681B6842F00802DA61FB68A0
:102EAC001B68DA69FB681B6822F00402DA61FB68B4
:102EBC001B68D969BB681A69FB681B680A43DA612D
:102ECC0023E0FB681B68B968184600F0C3FAFB687E
:102EDC001B68DA69FB681B6842F40062DA61FB6804
:102EEC001B68DA69FB681B6822F48062DA61FB6894
:102EFC001B68D969BB681B691A02FB681B680A430B
:102F0C00DA6102E00123FB7500BFFB68002283F845
:102F1C003C20FB7D18461837BD4680BD80B584B07B
:102F2C0000AF786039600023FB737B6893F83C300A
:102F3C00012B01D10223B4E07B68012283F83C20F1
:102F4C007B68022283F83D207B681B689B68BB6012
:102F5C00BB6823F07703BB60BB6823F47F43BB6083
:102F6C007B681B68BA689A603B681B68B3F5005FA6
:102F7C003ED0B3F5005F00F28780B3F5805F00F0C0
:102F8C008680B3F5805F7FD8702B1AD0702B7BD8DE
:102F9C00602B50D0602B77D8502B3CD0502B73D853
:102FAC00402B58D0402B6FD8302B64D0302B6BD8A3
:102FBC00202B60D0202B67D8002B5CD0102B5AD044
:102FCC0062E07B6818683B6899683B685A683B68A4
:102FDC00DB6800F004FB7B681B689B68BB60BB680C
:102FEC0043F07703BB607B681B68BA689A604FE05C
:102FFC007B6818683B6899683B685A683B68DB6873
:10300C0000F0EDFA7B681B689A687B681B6842F4D9
:10301C0080429A603CE07B6818683B6859683B6862
:10302C00DB681A4600F064FA7B681B68502118466E
:10303C0000F0BBFA2CE07B6818683B6859683B6869
:10304C00DB681A4600F082FA7B681B686021184620
:10305C0000F0ABFA1CE07B6818683B6859683B6869
:10306C00DB681A4600F044FA7B681B68402118465E
:10307C0000F09BFA0CE07B681A683B681B681946E9
:10308C00104600F092FA03E00123FB7300E000BF4E
:10309C007B68012283F83D207B68002283F83C206A
:1030AC00FB7B18461037BD4680BD80B483B000AFA3
:1030BC00786000BF0C37BD4680BC704780B483B0CD
:1030CC0000AF786000BF0C37BD4680BC704780B441
:1030DC0083B000AF786000BF0C37BD4680BC704732
:1030EC0080B483B000AF786000BF0C37BD4680BCA5
:1030FC00704780B483B000AF786000BF0C37BD461A
:10310C0080BC704780B485B000AF786039607B6854
:10311C001B68FB607B682F4A93420BD07B68B3F132
:10312C00804F07D07B682C4A934203D07B682B4A94
:10313C00934208D1FB6823F07003FB603B685B682B
:10314C00FA681343FB607B68224A93420BD07B687E
:10315C00B3F1804F07D07B681F4A934203D07B6842
:10316C001E4A934208D1FB6823F44073FB603B6812
:10317C00DB68FA681343FB60FB6823F080023B6852
:10318C005B691343FB607B68FA681A603B689A685A
:10319C007B68DA623B681A687B689A627B680D4AC6
:1031AC00934203D13B681A697B681A637B680122DE
:1031BC005A617B681B6903F00103002B05D07B6807
:1031CC001B6923F001027B681A6100BF1437BD46EE
:1031DC0080BC7047002C01400004004000080040F7
:1031EC0080B487B000AF786039607B681B6A7B6104
:1031FC007B681B6A23F001027B681A627B685B6840
:10320C003B617B689B69FB60FB6823F07003FB6090
:10321C00FB6823F00303FB603B681B68FA681343ED
:10322C00FB607B6923F002037B613B689B687A69D6
:10323C0013437B617B681C4A93420CD17B6923F05E
:10324C0008037B613B68DB687A6913437B617B69AC
:10325C0023F004037B617B68134A934211D13B69D1
:10326C0023F480733B613B6923F400733B613B683F
:10327C005B693A6913433B613B689B693A69134349
:10328C003B617B683A695A607B68FA689A613B6873
:10329C005A687B685A637B687A691A6200BF1C376C
:1032AC00BD4680BC704700BF002C014080B487B085
:1032BC0000AF786039607B681B6A7B617B681B6A36
:1032CC0023F010027B681A627B685B683B617B6849
:1032DC009B69FB60FB6823F4E043FB60FB6823F411
:1032EC004073FB603B681B681B02FA681343FB606E
:1032FC007B6923F020037B613B689B681B017A6927
:10330C0013437B617B681D4A93420DD17B6923F08B
:10331C0080037B613B68DB681B017A6913437B612B
:10332C007B6923F040037B617B68144A934213D181
:10333C003B6923F480633B613B6923F400633B618D
:10334C003B685B699B003A6913433B613B689B6933
:10335C009B003A6913433B617B683A695A607B680E
:10336C00FA689A613B685A687B689A637B687A69E9
:10337C001A6200BF1C37BD4680BC7047002C014050
:10338C0080B487B000AF786039607B681B6A7B6162
:10339C007B681B6A23F480727B681A627B685B68AB
:1033AC003B617B68DB69FB60FB6823F07003FB60AF
:1033BC00FB6823F00303FB603B681B68FA6813434C
:1033CC00FB607B6923F400737B613B689B681B0289
:1033DC007A6913437B617B681D4A93420DD17B69EB
:1033EC0023F400637B613B68DB681B027A6913433F
:1033FC007B617B6923F480637B617B68144A934215
:10340C0013D13B6923F480533B613B6923F4005394
:10341C003B613B685B691B013A6913433B613B6849
:10342C009B691B013A6913433B617B683A695A609B
:10343C007B68FA68DA613B685A687B68DA637B6898
:10344C007A691A6200BF1C37BD4680BC704700BF4A
:10345C00002C014080B487B000AF786039607B6885
:10346C001B6A3B617B681B6A23F480527B681A627F
:10347C007B685B687B617B68DB69FB60FB6823F4C2
:10348C00E043FB60FB6823F44073FB603B681B6804
:10349C001B02FA681343FB603B6923F400533B6146
:1034AC003B689B681B033A6913433B617B680F4A7B
:1034BC00934209D17B6923F480437B613B685B6950
:1034CC009B017A6913437B617B687A695A607B68DC
:1034DC00FA68DA613B685A687B681A647B683A69F7
:1034EC001A6200BF1C37BD4680BC7047002C0140DF
:1034FC0080B487B000AFF860B9607A60FB681B6A73
:10350C007B61FB681B6A23F00102FB681A62FB6893
:10351C009B693B613B6923F0F0033B617B681B01BA
:10352C003A6913433B617B6923F00A037B617A6937
:10353C00BB6813437B61FB683A699A61FB687A69E3
:10354C001A6200BF1C37BD4680BC704780B487B080
:10355C0000AFF860B9607A60FB681B6A7B61FB683E
:10356C001B6A23F01002FB681A62FB689B693B61C3
:10357C003B6923F470433B617B681B033A6913433B
:10358C003B617B6923F0A0037B61BB681B017A69FB
:10359C0013437B61FB683A699A61FB687A691A622A
:1035AC0000BF1C37BD4680BC704780B485B000AFEF
:1035BC00786039607B689B68FB60FB6823F0700364
:1035CC00FB603A68FB68134343F00703FB607B68BE
:1035DC00FA689A6000BF1437BD4680BC704780B44F
:1035EC0087B000AFF860B9607A603B60FB689B689D
:1035FC007B617B6923F47F437B613B681A027B68A8
:10360C001A43BB6813437A6913437B61FB687A697D
:10361C009A6000BF1C37BD4680BC704780B485B033
:10362C0000AF786039607B6893F83C30012B01D196
:10363C00022346E07B68012283F83C207B6802224F
:10364C0083F83D207B681B685B68FB607B681B68AC
:10365C009B68BB60FB6823F07003FB603B681B68D6
:10366C00FA681343FB607B681B68FA685A607B68D6
:10367C001B68164A93420ED07B681B68B3F1804FCF
:10368C0009D07B681B68124A934204D07B681B6884
:10369C00104A93420CD1BB6823F08003BB603B689B
:1036AC005B68BA681343BB607B681B68BA689A6036
:1036BC007B68012283F83D207B68002283F83C2044
:1036CC00002318461437BD4680BC7047002C0140BF
:1036DC00000400400008004080B485B000AF786062
:1036EC0039600023FB607B6893F83C30012B01D1DF
:1036FC0002233DE07B68012283F83C20FB6823F029
:10370C00FF023B68DB681343FB60FB6823F44072E9
:10371C003B689B681343FB60FB6823F480623B6847
:10372C005B681343FB60FB6823F400623B681B6817
:10373C001343FB60FB6823F480523B681B69134303
:10374C00FB60FB6823F400523B685B691343FB602E
:10375C00FB6823F480423B68DB691343FB607B68A6
:10376C001B68FA685A647B68002283F83C200023AB
:10377C0018461437BD4680BC704780B483B000AF88
:10378C00786000BF0C37BD4680BC704780B483B0F6
:10379C0000AF786000BF0C37BD4680BC704700009E
:1037AC0080B586B004AF0346FB714FF0FF33029334
:1037BC0001230193FB1D0093012300227821034870
:1037CC00FEF7EEF900BF0837BD4680BD940000201F
:1037DC0080B586B004AF786039603B689BB24FF01F
:1037EC00FF32029201937B680093012340227821DF
:1037FC000348FEF7D5F900BF0837BD4680BD00BFB2
:10380C009400002080B582B000AF0346FB71FB79B9
:10381C00002B01D1002300E0FF234FF480621946F6
:10382C00034800F04BFA00BF0837BD4680BD00BF0F
:10383C001C02002080B582B000AF0023FB7116E0A3
:10384C00FB79503BDBB21846FFF7AAFF0020FFF7CD
:10385C00A7FF1020FFF7A4FFFB79DB01084A1344F4
:10386C0080211846FFF7B4FFFB790133FB71FB791C
:10387C00072BE5D900BF00BF0837BD4680BD00BF90
:10388C001C02002080B483B000AF0346FB710B46D2
:10389C00BB7113467B7197F90730002B3DDBBB796D
:1038AC003F2B3AD87B79012B1AD1FA79BB79DB08FB
:1038BC00D8B20346DB0113441A4AD35C5AB2BB7923
:1038CC0003F00703012101FA03F35BB2134359B26E
:1038DC00FA790346DB011344C9B2124AD1541DE0F4
:1038EC00FA79BB79DB08D8B20346DB0113440D4AE5
:1038FC00D35C5AB2BB7903F00703012101FA03F33D
:10390C005BB2DB435BB2134059B2FA790346DB017D
:10391C001344C9B2034AD15400E000BF0C37BD4672
:10392C0080BC70471C02002090B589B000AF0446E3
:10393C00384680E80E002346FB73FB7B1F2B02D915
:10394C00FB7B7E2B01D9002379E0BB68002B05D0D3
:10395C00BA68FB7B203B13441B7800E03B78FB757B
:10396C00394B1B881A46FB7D1344802B06DC364BE7
:10397C005B881A467B781344402B01DD00235EE004
:10398C000023FB614DE07A68FB7B203B797801FBDF
:10399C0003F31946FB690B445B0013441B883B6122
:1039AC000023BB6136E03A69BB6902FA03F303F406
:1039BC000043002B13D0244B1B88DAB2BB69DBB25B
:1039CC001344D8B2204B5B88DAB2FB69DBB21344E8
:1039DC00DBB297F830201946FFF754FF17E01A4B6B
:1039EC001B88DAB2BB69DBB21344D8B2164B5B88C6
:1039FC00DAB2FB69DBB21344D9B297F83030002B42
:103A0C000CBF01230023DBB21A46FFF73BFFBB6957
:103A1C000133BB61FB7DBA699A42C4D3FB690133A4
:103A2C00FB617B781A46FB699342ACD3064B1A8830
:103A3C00FB7D9BB213449AB2034B1A80FB7B184656
:103A4C002437BD4690BD00BF1C06002080B586B053
:103A5C0002AFF860384680E80E0013E0FB68187877
:103A6C003B7E00933B460ECBFFF75EFF03461A46A8
:103A7C00FB681B789A4202D0FB681B7808E0FB6855
:103A8C000133FB60FB681B78002BE7D1FB681B78CC
:103A9C0018461037BD4680BD80B483B000AF0346D6
:103AAC000A46FB711346BB71FB799AB2054B1A801F
:103ABC00BB799AB2034B5A8000BF0C37BD4680BC11
:103ACC00704700BF1C06002090B585B000AF0446BF
:103ADC00084611461A462346FB710346BB710B463A
:103AEC007B7113463B71FA797B79934228BF13465D
:103AFC007B737A79FB79934238BF13463B73BA795F
:103B0C003B79934228BF1346FB723A79BB799342B7
:103B1C0038BF1346BB72FB7AFB7317E07B7BBB731E
:103B2C0009E097F82020F97BBB7B1846FFF7AAFE2B
:103B3C00BB7B0133BB73BA7B3B7B9A4203D897F9AF
:103B4C000E30002BEDDAFB7B0133FB73FA7BBB7A77
:103B5C009A4203D8FB7B3F2BE0D900BF00BF143740
:103B6C00BD4690BD80B584B000AF3A601A4603469E
:103B7C00FB710B46BB7113467B717B790733002BB2
:103B8C0000DA0733DB107B810023FB7397F90730D6
:103B9C00002B3EDBBB793F2B3BD80023BB7333E0C0
:103BAC0000237B7326E07B7B03F00703002B03D001
:103BBC00FB7B5B00FB730DE0BB7BB7F90A2002FBC0
:103BCC0003F37A7BD208D2B213441A463B681344EF
:103BDC001B78FB7397F90F30002B08DAFA797B7B93
:103BEC001344DBB23A7FB9791846FFF74BFE7B7B67
:103BFC0001337B737A7B7B799A42D4D3BB7B0133C1
:103C0C00BB73BB790133BB71BA7B3B7E9A42C7D382
:103C1C0000E000BF1037BD4680BD00000CB430B5CD
:103C2C00184B0C1E1D689DB008DA8B234FF0FF302B
:103C3C002B601DB0BDE8304002B070474FF40273EA
:103C4C00ADF814304FF000031B930CBF234604F166
:103C5C00FF33049307934FF6FF7302900690ADF871
:103C6C001630284621AB209A02A9019300F0BAF92C
:103C7C00431CBCBF8B232B60002CDAD00022029B90
:103C8C001A70D6E728000020884210B501EB020418
:103C9C0002D98442234607D8431EA14208D011F80A
:103CAC00012B03F8012FF8E7014602448A4200D1A8
:103CBC0010BD13F8014D02F8014DF7E7034602441D
:103CCC00934200D1704703F8011BF9E7014B1868C8
:103CDC00704700BF2800002070B500260C4D0D4C1D
:103CEC00641BA410A64209D100F05CFC00260A4D0E
:103CFC000A4C641BA410A64205D170BD55F8043BB8
:103D0C0098470136EEE755F8043B98470136F2E741
:103D1C00B4650008B4650008B4650008B86500080F
:103D2C00704770470A44914200F1FF3300D170474D
:103D3C0010B511F8014B914203F8014FF9D110BDA8
:103D4C0038B50546002940D051F8043C0C1F002B17
:103D5C00B8BFE41800F0DEF81C4A136833B963608E
:103D6C0014602846BDE8384000F0DAB8A34208D900
:103D7C00206821188B4201BF19685B680918216003
:103D8C00EDE71A465B680BB1A342FAD911685018DB
:103D9C00A0420BD120680144501883421160E0D13D
:103DAC0018685B68084410605360DAE702D90C238A
:103DBC002B60D6E7206821188B4201BF19685B681D
:103DCC000918216063605460CBE738BD6807002098
:103DDC0070B50F4E0C463168054611B900F08EFBDC
:103DEC0030602146284600F089FB431C03D14FF07C
:103DFC00FF34204670BDC41C24F00304A042F8D04C
:103E0C00211A284600F07AFB0130F2D1EFE700BF0F
:103E1C00640700202DE9F843CD1C25F00305083577
:103E2C000C2D38BF0C25002D064601DBA94204D908
:103E3C000C2333600020BDE8F883DFF8D48000F059
:103E4C0069F8D8F800301C4644BB29463046FFF7C9
:103E5C00BFFF431C044658D1D8F800402746002F1A
:103E6C0043D1002C4BD023683946304604EB030970
:103E7C0000F044FB814542D1216830466D1A294639
:103E8C00FFF7A6FF01303AD023682B442360D8F803
:103E9C0000305A6862BBC8F800700FE02268521BF1
:103EAC0020D40B2A17D96119A342256018BF596079
:103EBC00636808BFC8F8001062514B60304600F0D0
:103ECC002FF804F10B00231D20F00700C21A1CBFB1
:103EDC001B1AA350AFE76268A3420CBFC8F80020BE
:103EEC005A60EBE723466468AEE73C467F68B6E76A
:103EFC001A465B68A342FBD100235360DEE70C2318
:103F0C003046336000F00CF894E70560D6E700BF4C
:103F1C00680700200148FFF703BF00BF60070020BF
:103F2C000148FFF7FEBE00BF600700202DE9F047F7
:103F3C001F468E688246BE420C4690460B682DD8B2
:103F4C00B1F90C2012F4906F26D06569096905EB64
:103F5C004505A3EB010905EBD5757B1C4B446D1096
:103F6C009D4238BF1D46530527D52946FFF752FF02
:103F7C00064660B34A462169FFF7D4FEA38923F4B1
:103F8C00906343F08003A38126614E4426603E4635
:103F9C006561A5EB0905A560BE4200D93E463246D7
:103FAC0041462068FFF770FE0020A3689B1BA360AE
:103FBC00236833442360BDE8F0872A4600F0BCFA3E
:103FCC0006460028E0D150462169FFF7B9FE0C23C4
:103FDC00CAF80030A3894FF0FF3043F04003A381AF
:103FEC00E9E700002DE9F04F98468B8907461B0640
:103FFC000D4614469DB010D50B6973B94021FFF7DF
:10400C0009FF2860286130B90C233B604FF0FF306A
:10401C001DB0BDE8F08F40236B6100230993202372
:10402C008DF8293030234FF00109CDF80C80DFF8E2
:10403C0098818DF82A3023469A4613F8012B0AB141
:10404C00252AF9D1BAEB040B0BD05B462246294644
:10405C003846FFF76BFF013000F0A780099A5A44ED
:10406C0009929AF80030002B00F09F8000234FF04B
:10407C00FF32CDE905230AF1010A049307938DF869
:10408C0053301A935446052214F8011B4E4800F085
:10409C0045FA049AD8B9D00644BF20238DF8533082
:1040AC00110744BF2B238DF853309AF800302A2B7C
:1040BC0015D0544600204FF00A0C079A214611F8EF
:1040CC00013B303B092B4BD9B0B1079214E0A0EB6C
:1040DC00080309FA03F31343A2460493D2E7039BA4
:1040EC00191D1B680391002BBBBF5B4242F00202FF
:1040FC0007930793B8BF049223782E2B0AD16378C9
:10410C002A2B32D1039B02341A1D1B68039243EAFB
:10411C00E3730593DFF8B4A003225046217800F036
:10412C00FDF938B14022049BA0EB0A0082401343F6
:10413C000134049314F8011B062225488DF828102D
:10414C0000F0ECF9002836D0224B1BBB039B073345
:10415C0023F0070308330393099B334409936AE75D
:10416C000C4601200CFB0232A8E700234FF00A0C8E
:10417C00194601340593204610F8012B303A092AD0
:10418C0003D9002BC6D00591C4E7044601230CFBD0
:10419C000121F0E703AB00932A4638460E4B04A9E5
:1041AC00AFF30080421C0646D6D1AB895B063FF5C7
:1041BC002DAF09982CE703AB00932A463846064BE3
:1041CC0004A900F07DF8EDE780650008866500081D
:1041DC008A65000800000000393F00082DE9F0470F
:1041EC00164698468A680B6907469342B8BF134631
:1041FC00336091F843200C46DDF820900AB101336E
:10420C0033602368990642BF3368023333602568F4
:10421C0015F0060506D104F1190AE36832689B1AF9
:10422C00AB422BDC94F843302268003B18BF0123CF
:10423C00920630D44146384604F14302C847013057
:10424C0023D02368226903F00603042B14BF002536
:10425C0033684FF0000608BFE56804F11A0408BF84
:10426C00ED1A54F8123C08BF25EAE5759342C4BF19
:10427C009B1AED18B5421AD1002008E001235246D2
:10428C0041463846C847013003D14FF0FF30BDE8F6
:10429C00F0870135C1E73020E11881F843005A1C42
:1042AC0094F845102244023382F84310C2E70123EC
:1042BC00224641463846C8470130E6D00136D9E798
:1042CC002DE9FF470F7E9146782F80460C469A4683
:1042DC000C9E01F1430207D8622F0AD8002F00F080
:1042EC00D180582F00F0B88004F1420684F8427057
:1042FC003AE0A7F16303152BF6D801A151F823F08E
:10430C006543000879430008F5420008F5420008AF
:10431C00F5420008F542000879430008F542000810
:10432C00F5420008F5420008F54200087744000801
:10433C00A343000831440008F5420008F542000888
:10434C0099440008F5420008A3430008F542000810
:10435C00F54200083944000833681A1D1B683260A6
:10436C0004F1420684F8423001239CE03368206853
:10437C00191D3160060601D51D6803E04506FBD505
:10438C00B3F90050002D03DA2D236D4284F843302D
:10439C000A23584811E021683368080653F8045B77
:1043AC0002D4490648BFADB26F2F336014BF0A2345
:1043BC0008235048002184F843106668002EA6603C
:1043CC0005DB21682E4321F0040121604BD01646F9
:1043DC00B5FBF3F103FB1157C75D06F8017D2F46C2
:1043EC00BB420D46F4D9082B0BD12368DF0708D547
:1043FC00236961689942DEBF302306F8013C06F15F
:10440C00FF36921B22614B4621464046CDF800A058
:10441C0003AAFFF7E3FE01304AD14FF0FF3004B09E
:10442C00BDE8F087236843F02003236078273248E7
:10443C0084F84570236831681F0651F8045B02D478
:10444C005F0648BFADB23160D90744BF43F02003CB
:10445C0023601DB11023ADE72648E9E7236823F05C
:10446C0020032360F6E71646BDE733682568181D60
:10447C00616930602E061B6801D5196002E0680680
:10448C00FBD51980002316462361BCE73368002155
:10449C001A1D32601E686268304600F03FF808B1A1
:1044AC00801B606063682361002384F84330AAE7B3
:1044BC003246494640462369D0470130ADD0236887
:1044CC009B0713D4E068039B9842B8BF1846A6E735
:1044DC000123324649464046D04701309DD0013534
:1044EC00E36803995B1AAB42F2DCEBE7002504F1BD
:1044FC001906F5E791650008A265000838B5002398
:10450C00054D044608462B60FCF7CCFB431C02D13E
:10451C002B6803B1236038BD5C070020034610B53F
:10452C00C9B202449342184601D1002003E004783A
:10453C0001338C42F6D110BD2DE9F04107461446EB
:10454C000D4621B91146BDE8F041FFF763BC2AB90D
:10455C00FFF7F6FB25462846BDE8F08100F01AF877
:10456C008442064602D8B4EB500FF4D821463846A4
:10457C00FFF750FC804608B94546ECE7B4422246AA
:10458C00294628BF3246FFF7CDFB29463846FFF7B0
:10459C00D7FBF1E751F8043C181F002BBCBF0B589C
:1045AC00C0187047F8B500BFF8BC08BC9E467047F1
:0C45BC00F8B500BFF8BC08BC9E46704774
:1045C800202020504F534954494F4E494E472020F0
:1045D80020000000202043555454494E47205041A4
:1045E800434B45542000000044495350454E53491D
:1045F8004E4720434F464645450000002020414491
:1046080044494E472057415445522020200000007D
:1046180020202020204D4958494E47202020202086
:10462800200000002020202046494E495348494E8A
:1046380047202020200000004361666665204D6108
:104648006B6572004D656469756D00002A204272C1
:104658006577202F20232053657474696E670000E6
:1046680020536D616C6C0000204C6172676500001E
:1046780042524557494E4700454E4A4F5920594FD7
:10468800555220434F464645450000005041434B94
:1046980045545300257500002A20456E7465722024
:1046A8002F2023206261636B000000002575200025
:1046B800202575004C4F57205741544552000000A3
:1046C80020524546494C4C205741544552205441AC
:1046D8004E4B2000504C41434520435550000000AC
:1046E800494E534552542043555020544F2053545B
:1046F800415254004E4F20434F4646454500000066
:104708004C4F414420434F46464545205041434B7A
:10471800455453002300000000218C000000007362
:104728009C00000000631C00000000E3180000006B
:1047380000639C00000000738C0000000031CE0074
:1047480000000030C60000000031CE0000000071FB
:104758008C00000000218C00000000000000000018
:104768000000000000003FFFFFFF00003FFFFFFFC9
:1047780000003FFFFFFF00003FFFFFFFFC003FFF7F
:10478800FFFFFF003FFFFFFFFF003FFFFFFF8780A6
:104798003FFFFFFF03803FFFFFFF03803FFFFFFF57
:1047A80003803FFFFFFF03803FFFFFFF03803FFFC2
:1047B800FFFF07803FFFFFFF07003FFFFFFF0F00DE
:1047C8003FFFFFFF0E001FFFFFFF1E001FFFFFFF41
:1047D800FC001FFFFFFFF8000FFFFFFFF0000FFFB7
:1047E800FFFC000007FFFFF8000003FFFFF80000D0
:1047F80003FFFFF0000001FFFFE00000007FFFC0A3
:104808000000001FFE000000000000000000000083
:1048180000218C00000000739C00000000631C0055
:10482800000000E31800000000639C000000007313
:104838008C0000000031CE0000000030C6000000EF
:104848000031CE00000000718C00000000218C00B7
:1048580000000000000000000000000000003FFF12
:10486800FFFF00003FFFFFFF0000380000070000C7
:1048780038000007FC0038000007FF003800000778
:10488800FF003800000787803800000703803800E1
:10489800000703803FFFFFFF03803FFFFFFF038008
:1048A8003FFFFFFF03803FFFFFFF07803FFFFFFF42
:1048B80007003FFFFFFF0F003FFFFFFF0E001FFF36
:1048C800FFFF1E001FFFFFFFFC001FFFFFFFF80098
:1048D8000FFFFFFFF0000FFFFFFC000007FFFFF8CE
:1048E800000003FFFFF8000003FFFFF0000001FFD6
:1048F800FFE00000007FFFC00000001FFE00000076
:10490800000000000000000000218C00000000737F
:104918009C00000000631C00000000E31800000079
:1049280000639C00000000738C0000000031CE0082
:1049380000000030C60000000031CE000000007109
:104948008C00000000218C00000000000000000026
:104958000000000000003FFFFFFF00003FFFFFFFD7
:10496800000038000007000038000007FC0038008D
:104978000007FF0038000007FF00380000078780A5
:10498800380000070380380000070380380000075C
:1049980003803800000703803800000703803800D0
:1049A80000070780380000070700380000070F00DD
:1049B800380000070E00180000071E001FFFFFFF49
:1049C800FC001FFFFFFFF8000FFFFFFFF0000FFFC5
:1049D800FFFC000007FFFFF8000003FFFFF80000DE
:1049E80003FFFFF0000001FFFFE00000007FFFC0B1
:1049F8000000001FFE000000000000000000000092
:104A08000000000000010000000380000007C00053
:104A1800000EE000000C6000001C70000018300060
:104A2800003838000073980000638C0000E38E00A3
:104A380000C3860001C387000383830003038380C8
:104A480007038180060300C00E0000E00C00006030
:104A58001C03007018038030300100387000001CFF
:104A68007FFFFFFC3FFFFFF81FFFFFF00000000083
:104A78000000000000000000010203040607080906
:104A880000000000010203040203040506070809E8
:104A98000A0B0C0D0E0F10100102000000000000A0
:104AA80000000000000000000000000000000000FE
:104AB800001000100010001000100010000000107E
:104AC8000000000000280028002800000000000066
:104AD800000000000000000000240024007C0024E6
:104AE8000048007C004800480000000000380054DE
:104AF8000050003800140054005400380010000022
:104B08000020005400580030002800540014000809
:104B180000000000001000280028001000340048A1
:104B280000480034000000000010001000100000D1
:104B38000000000000000000000000000008001055
:104B48000020002000200020002000200010000885
:104B580000200010000800080008000800080008ED
:104B6800001000200010003800100028000000008D
:104B7800000000000000000000000000001000100D
:104B8800007C001000100000000000000000000081
:104B980000000000000000000000001000100010DD
:104BA80000000000000000000000003800000000C5
:104BB80000000000000000000000000000000000ED
:104BC800000000100000000000080008001000109D
:104BD80000100010002000200000000000380044F1
:104BE8000044005400440044004400380000000021
:104BF80000100030005000100010001000100010CD
:104C080000000000003800440044000400080010C0
:104C18000020007C00000000003800440004001858
:104C280000040004004400380000000000080018D8
:104C3800002800280048007C000800080000000048
:104C4800007C004000400078000400040044003864
:104C58000000000000380044004000780044004490
:104C68000044003800000000007C00040008001028
:104C78000010002000200020000000000038004440
:104C8800004400380044004400440038000000009C
:104C98000038004400440044003C0004004400384C
:104CA80000000000000000000010000000000000EC
:104CB80000000010000000000000000000000010CC
:104CC80000000000000000100010001000000000AC
:104CD800000C003000400030000C00000000000014
:104CE800000000000000007C0000007C00000000C4
:104CF8000000000000000000006000180004001818
:104D080000600000000000000038004400040008B3
:104D180000100010000000100000000000380044DF
:104D2800004C0054005C00400040003800000000C7
:104D380000100028002800280028007C00440044B7
:104D4800000000000078004400440078004400445B
:104D58000044007800000000003800440040004093
:104D68000040004000440038000000000070004887
:104D78000044004400440044004800700000000063
:104D8800007C00400040007C004000400040007C67
:104D980000000000007C0040004000780040004017
:104DA800004000400000000000380044004000407F
:104DB800005C004400440038000000000044004447
:104DC8000044007C0044004400440044000000000B
:104DD80000380010001000100010001000100038FB
:104DE80000000000000400040004000400040004A3
:104DF80000440038000000000044004800500060F3
:104E080000500048004800440000000000400040F6
:104E180000400040004000400040007C00000000CE
:104E28000044006C006C00540044004400440044FA
:104E38000000000000440064006400540054004C6A
:104E4800004C0044000000000038004400440044C6
:104E5800004400440044003800000000007800448A
:104E6800004400440078004000400040000000007A
:104E78000038004400440044004400440054003812
:104E88000004000000780044004400440078004812
:104E98000048004400000000003800440040003092
:104EA800000800040044003800000000007C0010E6
:104EB800001000100010001000100010000000008A
:104EC80000440044004400440044004400440038C6
:104ED8000000000000440044004400280028002886
:104EE800001000100000000000440044005400546A
:104EF8000054006C0028002800000000004400282E
:104F080000280010001000280028004400000000BD
:104F18000044004400280028001000100010001071
:104F280000000000007C00040008001000100020B1
:104F38000040007C00000000001800100010001065
:104F480000100010001000100010001800200020B1
:104F580000100010001000100008000800000000F9
:104F68000030001000100010001000100010001099
:104F78000010003000100028002800440000000045
:104F88000000000000000000000000000000000019
:104F98000000000000000000000000FE00200010DB
:104FA80000000000000000000000000000000000F9
:104FB8000000000000380044003C0044004C00346D
:104FC8000000000000400040005800640044004415
:104FD8000064005800000000000000000038004491
:104FE80000400040004400380000000000040004B5
:104FF8000034004C00440044004C00340000000021
:105008000000000000380044007C004000440038E4
:1050180000000000000C0010007C001000100010C0
:105028000010001000000000000000000034004CD8
:1050380000440044004C0034000400780040004064
:10504800005800640044004400440044000000008C
:105058000010000000700010001000100010001078
:105068000000000000100000007000100010001088
:1050780000100010001000E0004000400048005000
:10508800006000500048004400000000007000105C
:1050980000100010001000100010001000000000A8
:1050A80000000000007800540054005400540054DC
:1050B80000000000000000000058006400440044A4
:1050C80000440044000000000000000000380044D4
:1050D80000440044004400380000000000000000C4
:1050E8000058006400440044006400580040004038
:1050F800000000000034004C00440044004C003420
:105108000004000400000000005800640040004053
:10511800004000400000000000000000003800448B
:105128000030000800440038000000000020002083
:105138000078002000200020002000180000000057
:10514800000000000044004400440044004C0034C7
:10515800000000000000000000440044002800286F
:105168000028001000000000000000000054005457
:105178000054006C00280028000000000000000017
:10518800004400280010001000280044000000001F
:10519800000000000044004400280028001000100F
:1051A8000010006000000000007C000800100020D3
:1051B8000040007C000000000018001000100010E3
:1051C800002000200010001000100018001000102F
:1051D8000010001000100010001000100010001047
:1051E8000030001000100010000800080010001027
:1051F800001000300000000000000074004C0000A7
:105208000000000000000000000000000000000096
:105218000000000000000000000000000000000086
:105228000000000000000000000000000000000C6A
:10523800000C000C000C000C000C000C000C000C06
:10524800000C000C0000000C000C00000000000026
:105258000000001B001B001B001B001B00000000BF
:105268000000000000000000000000000000000036
:105278000000000000008019801980198019C07F83
:10528800C07F80190033C07FC07F003300330033F4
:1052980000330000000000000000001E003F807581
:1052A80080650074003C001E0007800580658065ED
:1052B8008075003F001E000400040000000000701C
:1052C80000D840D8C0D880D900730006000C801BD5
:1052D800C036C066C046C00680030000000000005B
:1052E8000000001E003F003300330033001E000C96
:1052F800C03CC066806380618063C03E801C000043
:10530800000000000000000C000C000C000C000C59
:105318000000000000000000000000000000000085
:1053280000000000000000008000000100030006EB
:1053380000060004000C000C000C000C000C000C13
:105348000004000600060003000180000020001091
:105358000018000C000C00040006000600060006F9
:10536800000600060004000C000C001800100020C5
:105378000000000C002D003F001E0033000000005C
:105388000000000000000000000000000000000015
:1053980000000000000000000000000C000C000CE1
:1053A800000CC0FFC0FF000C000C000C000C00003B
:1053B80000000000000000000000000000000000E5
:1053C80000000000000000000000000000000000D5
:1053D8000000000C000C000400040008000000009D
:1053E8000000000000000000000000000000001E97
:1053F800001E000000000000000000000000000087
:105408000000000000000000000000000000000094
:1054180000000000000000000000000C000C00006C
:10542800000000000000000300030003000600065F
:1054380000060006000C000C000C000C00180018F8
:1054480000180000000000000000001E003F0033AC
:10545800806180618061806D806D80618061806124
:105468000033003F001E000000000000000000069E
:10547800000E001E00360026000600060006000684
:1054880000060006000600060006000000000000F6
:105498000000001E003F807380618061800100036E
:1054A8000006000C001800300060807F807F00003C
:1054B800000000000000001C003E006300630003C1
:1054C800000E000E00038001800180618073003FA0
:1054D800001E00000000000000000006000E000E84
:1054E800001E001E0016003600360066807F807F92
:1054F8000006000600060000000000000000007F13
:10550800007F006000600060006E007F80638001A3
:10551800800180618073003F001E000000000000D1
:105528000000001E003F803380610060006E007F35
:1055380080738061806180618033003F001E0000BD
:10554800000000000000807F807F800100030003CE
:1055580000060006000C000C000C000800180018DB
:1055680000180000000000000000001E003F8063DB
:10557800806180610021001E003F80618061806140
:105588008061003F001E0000000000000000001EB7
:10559800003F00738061806180618073803F801D5F
:1055A800800180610073003F001E000000000000C1
:1055B80000000000000000000000000C000C0000CB
:1055C80000000000000000000000000C000C0000BB
:1055D80000000000000000000000000000000000C3
:1055E800000C000C00000000000000000000000C8F
:1055F800000C000400040008000000000000000087
:1056080080008003000E003800600038000E800320
:105618008000000000000000000000000000000002
:10562800000000000000807F807F00000000807F75
:10563800807F000000000000000000000000000063
:10564800000000000000000000400070001C00077F
:1056580080010007001C00700040000000000000EE
:10566800000000000000001F803FC071C060C00043
:10567800C00180030007000E000C000C0000000CA5
:10568800000C0000000000000000001E003F8031F8
:1056980080718063806F806D806D806F806700602F
:1056A8000032003E001C0000000000000000000E58
:1056B800000E001B001B001B001B80318031803F47
:1056C800803F8031C060C060C06000000000000002
:1056D8000000007C007E0063006300630063007EBE
:1056E800007E0063806180618063007F007E00002F
:1056F800000000000000001E003F80318061006053
:105708000060006000600060006080618031003FE0
:10571800001E0000000000000000007C007F006305
:1057280080638061806180618061806180610063E5
:105738000063007E007C0000000000000000807F05
:10574800807F0060006000600060007F007F006074
:10575800006000600060807F807F00000000000023
:105768000000807F807F0060006000600060007F34
:10577800007F006000600060006000600060000062
:10578800000000000000001E003F803180610060C2
:105798000060006080638063806180618031803F49
:1057A800001E000000000000000080618061806130
:1057B800806180618061807F807F8061806180619D
:1057C8008061806180610000000000000000003FEF
:1057D800003F000C000C000C000C000C000C000C2E
:1057E800000C000C000C003F003F0000000000000F
:1057F800000080018001800180018001800180011A
:1058080080018001806180618073003F001E00007C
:10581800000000000000C060806100630066006650
:10582800006C0078007C006600660063806180611F
:10583800C060000000000000000000600060006020
:105848000060006000600060006000600060006050
:105858000060807F807F0000000000000000C071B1
:10586800C071C07BC07AC06AC06AC06EC064C060C4
:10587800C060C060C060C060C06000000000000080
:10588800000080718071807980798079806D806D69
:10589800806D8065806780678067806380630000B3
:1058A800000000000000001E003F0033806180619E
:1058B8008061806180618061806180610033003F28
:1058C800001E0000000000000000007E007F8063D2
:1058D8008061806180618063007F007E006000607D
:1058E8000060006000600000000000000000001E72
:1058F800003F0033806180618061806180618061E8
:10590800806580670033803F401E00000000000073
:105918000000007E007F8063806180618063007F7B
:10592800007E00660063006380618061C0600000E3
:10593800000000000000000E001F803180310030A0
:105948000038001E00078003806180618031003FBD
:10595800001E0000000000000000C0FFC0FF000C97
:10596800000C000C000C000C000C000C000C000CCF
:10597800000C000C000C000000000000000080611A
:105988008061806180618061806180618061806107
:10599800806180618073003F001E000000000000ED
:1059A8000000C060C060C060803180318031001B61
:1059B800001B001B001B000E000E000E0004000060
:1059C800000000000000C0C0C0C0C0C0C0C0C0C04F
:1059D800C0CC804C804C805E805280528073806145
:1059E80080610000000000000000C0C0806080618D
:1059F8000033003B001E000C000C001E001F003B83
:105A080080718061C0C00000000000000000C0C0BC
:105A18008061806100330033001E001E000C000C02
:105A2800000C000C000C000C000C00000000000032
:105A38000000803F803F8001000300030006000C47
:105A4800000C0018001800300060807F807F000084
:105A580000000000000F000F000C000C000C000CF0
:105A6800000C000C000C000C000C000C000C000CCE
:105A7800000C000C000F000F0000001800180018A0
:105A8800000C000C000C000C0006000600060006C6
:105A9800000300030003000000000000001E001EB9
:105AA80000060006000600060006000600060006BE
:105AB800000600060006000600060006001E001E7E
:105AC8000000000C000C001E00120033003380613F
