:020000040800F2
:10000000005000204D1F0008511900085919000820
:100010006119000869190008711900080000000042
:100020000000000000000000000000007919000836
:100030008519000800000000911900089D190008AA
:10004000951F0008951F0008951F0008951F0008C0
:10005000951F0008951F0008951F0008951F0008B0
:10006000951F0008951F0008D1190008951F00086A
:10007000951F0008951F0008951F0008951F000890
:10008000951F0008951F0008951F0008951F000880
:10009000951F0008951F0008951F0008DF1900082C
:1000A000951F0008951F0008951F0008951F000860
:1000B000A9190008BD190008951F0008951F000820
:1000C000951F0008951F0008951F0008951F000840
:1000D000951F0008951F0008951F0008951F000830
:1000E000951F0008951F0008951F000800000000DC
:1000F0000000000000000000000000000000000000
:0C01000000000000000000005FF808F1A3
:10010C0010B5054C237833B9044B13B10448AFF345
:10011C0000800123237010BD780000200000000037
:10012C00A858000808B5034B1BB103490348AFF3AB
:10013C00008008BD000000007C000020A8580008CA
:10014C0080F0004002E000BF81F0004142001FBF80
:10015C005FEA410392EA030F7FEA226C7FEA236C89
:10016C006AD04FEA1262D2EB1363C1BFD21841407E
:10017C0048404140B8BF5B42192B88BF704710F014
:10018C00004F40F4000020F07F4018BF404211F0B7
:10019C00004F41F4000121F07F4118BF494292EA1F
:1001AC00030F3FD0A2F1010241FA03FC10EB0C004B
:1001BC00C3F1200301FA03F100F0004302D54942D8
:1001CC0060EB4000B0F5000F13D3B0F1807F06D385
:1001DC0040084FEA310102F10102FE2A51D2B1F17D
:1001EC00004F40EBC25008BF20F0010040EA030072
:1001FC007047490040EB0000013A28BFB0F5000FF2
:10020C00EDD2B0FA80FCACF1080CB2EB0C0200FAA7
:10021C000CF0AABF00EBC25052421843BCBFD040F6
:10022C001843704792F0000F81F4000106BF80F470
:10023C0000000132013BB5E74FEA41037FEA226C33
:10024C0018BF7FEA236C21D092EA030F04D092F0FE
:10025C00000F08BF0846704790EA010F1CBF002032
:10026C00704712F07F4F04D1400028BF40F000408F
:10027C00704712F100723CBF00F50000704700F0AF
:10028C00004343F0FE4040F4000070477FEA2262D6
:10029C0016BF08467FEA23630146420206BF5FEAA7
:1002AC00412390EA010F40F4800070474FF00003A7
:1002BC0004E000BF10F0004348BF40425FEA000C6E
:1002CC0008BF704743F0964301464FF000001CE016
:1002DC0050EA010208BF70474FF000030AE000BF6C
:1002EC0050EA010208BF704711F0004302D54042AA
:1002FC0061EB41015FEA010C02BF8446014600201C
:10030C0043F0B64308BFA3F18053A3F50003BCFA36
:10031C008CF2083AA3EBC25310DB01FA02FC6344E3
:10032C0000FA02FCC2F12002BCF1004F20FA02F2EA
:10033C0043EB020008BF20F00100704702F12002DD
:10034C0001FA02FCC2F1200250EA4C0021FA02F23E
:10035C0043EB020008BF20EADC7070474FF0FF0C43
:10036C001CEAD0521EBF1CEAD15392EA0C0F93EA3E
:10037C000C0F6FD01A4480EA010C400218BF5FEAE0
:10038C0041211ED04FF0006343EA501043EA511153
:10039C00A0FB01310CF00040B1F5000F3EBF49004D
:1003AC0041EAD3715B0040EA010062F17F02FD2A51
:1003BC001DD8B3F1004F40EBC25008BF20F0010034
:1003CC00704790F0000F0CF0004C08BF49024CEA4B
:1003DC00502040EA51207F3AC2BFD2F1FF0340EADD
:1003EC00C250704740F400004FF00003013A5DDC4E
:1003FC0012F1190FDCBF00F000407047C2F100028F
:10040C00410021FA02F1C2F1200200FA02FC5FEA7B
:10041C00310040F1000053EA4C0308BF20EADC70C5
:10042C00704792F0000F00F0004C02BF400010F437
:10043C00000F013AF9D040EA0C0093F0000F01F0E4
:10044C00004C02BF490011F4000F013BF9D041EA06
:10045C000C018FE70CEAD15392EA0C0F18BF93EA08
:10046C000C0F0AD030F0004C18BF31F0004CD8D132
:10047C0080EA010000F00040704790F0000F17BFB9
:10048C0090F0004F084691F0000F91F0004F14D0FF
:10049C0092EA0C0F01D142020FD193EA0C0F03D157
:1004AC004B0218BF084608D180EA010000F000405A
:1004BC0040F0FE4040F40000704740F0FE4040F435
:1004CC00400070474FF0FF0C1CEAD0521EBF1CEAD4
:1004DC00D15392EA0C0F93EA0C0F69D0A2EB0302F2
:1004EC0080EA010C49024FEA402037D04FF080538C
:1004FC0043EA111143EA10130CF000408B4238BF51
:10050C005B0042F17D024FF4000C8B4224BF5B1A5E
:10051C0040EA0C00B3EB510F24BFA3EB510340EAAC
:10052C005C00B3EB910F24BFA3EB910340EA9C005A
:10053C00B3EBD10F24BFA3EBD10340EADC001B01CA
:10054C0018BF5FEA1C1CE0D1FD2A3FF650AF8B426E
:10055C0040EBC25008BF20F0010070470CF0004C7B
:10056C004CEA50207F32C2BFD2F1FF0340EAC250A6
:10057C00704740F400004FF00003013A37E792F067
:10058C00000F00F0004C02BF400010F4000F013AC5
:10059C00F9D040EA0C0093F0000F01F0004C02BFC0
:1005AC00490011F4000F013BF9D041EA0C0195E729
:1005BC000CEAD15392EA0C0F08D142027FF47DAFC2
:1005CC0093EA0C0F7FF470AF084676E793EA0C0FB2
:1005DC0004D14B023FF44CAF08466EE730F0004CB0
:1005EC0018BF31F0004CCAD130F000427FF45CAF40
:1005FC0031F000437FF43CAF5FE700BF4FF0FF3CAE
:10060C0006E000BF4FF0010C02E000BF4FF0010C00
:10061C004DF804CD4FEA40024FEA41037FEA226CC9
:10062C0018BF7FEA236C11D001B052EA530C18BFEB
:10063C0090EA010F58BFB2EB030088BFC81738BF50
:10064C006FEAE17018BF40F0010070477FEA226C3E
:10065C0002D15FEA402C05D17FEA236CE4D15FEA3A
:10066C00412CE1D05DF8040B704700BF844608466E
:10067C006146FFE70FB5FFF7C9FF002848BF10F12F
:10068C00000F0FBD4DF808EDFFF7F4FF0CBF012074
:10069C0000205DF808FB00BF4DF808EDFFF7EAFFFE
:1006AC0034BF012000205DF808FB00BF4DF808EDB9
:1006BC00FFF7E0FF94BF012000205DF808FB00BFAE
:1006CC004DF808EDFFF7D2FF94BF012000205DF834
:1006DC0008FB00BF4DF808EDFFF7C8FF34BF012041
:1006EC0000205DF808FB00BF4FEA40024FEA4103CF
:1006FC007FEA226C02D15FEA402C08D17FEA236C9E
:10070C0002D15FEA412C02D14FF0000070474FF04C
:10071C000100704742000ED2B2F1FE4F0BD34FF0E6
:10072C009E03B3EB126209D44FEA002343F000435B
:10073C0023FA02F070474FF00000704712F1610F7E
:10074C0001D1420202D14FF0FF3070474FF0000050
:10075C00704700BF80B582B002AF002004F014F9DE
:10076C0001230193292300932A230A4A00212B20D9
:10077C0004F0BAFA2A21032004F050FA064B0122A5
:10078C0000920ECB054804F023FA04F015F900BFD3
:10079C00BD4680BD185A00086C780008385900080E
:1007AC0080B584B002AF0123FB71002004F0ECF89B
:1007BC0001230193292300932A23734A002100204B
:1007CC0004F092FA0021552004F028FA6F4B012214
:1007DC0000920ECB5E2004F069F92021552004F024
:1007EC001DFA6A4B012200920ECB762004F05EF9C2
:1007FC000B21342004F012FA654B012200920ECB2F
:10080C00644804F0E5F93621002004F007FA5F4B48
:10081C00012200920ECB604804F0DAF904F0CCF817
:10082C004FF47A7001F014FC0023BB7180215B48FB
:10083C0001F0C4FE0346002B0DD197F90730DBB253
:10084C000133DBB2FB7197F90730022B01DD00237A
:10085C00FB710123BB714021504801F0AFFE0346F0
:10086C00002B0DD197F90730DBB2013BDBB2FB71EA
:10087C0097F90730002B01DA0223FB710123BB71BE
:10088C001021464801F09AFE0346002B01D10123AA
:10089C0076E02021414801F091FE0346002B01D166
:1008AC0002236DE0BB79002BBED097F90730022BE9
:1008BC0042D0022B5EDC002B02D0012B1ED059E063
:1008CC000023009329232A220021002004F0BEF9E2
:1008DC0001230193292300932A23314A002100206C
:1008EC0004F002FA0B21342004F098F9284B012271
:1008FC0000920ECB2B4804F06BF93BE000230093E5
:10090C0029232A220021002004F0A0F901230193BD
:10091C00292300932A231C4A0021002004F0E4F927
:10092C000B21342004F07AF9194B012200920ECBE2
:10093C00184804F04DF91DE00023009329232A22C6
:10094C000021002004F082F9012301932923009354
:10095C002A23154A0021002004F0C6F90B2134206B
:10096C0004F05CF90A4B012200920ECB0F4804F004
:10097C002FF900BF04F020F8642001F069FB53E765
:10098C0018460837BD4680BD105B0008607800082B
:10099C006C780008445900084C590008000C0140C0
:1009AC00085C000860590008185A000868590008CB
:1009BC0080B586B002AF0346FB71002003F0E4FF64
:1009CC000021192004F02AF91C4B012200920ECBB5
:1009DC001B4804F0FDF81B21042004F01FF9FB79DF
:1009EC00184A52F82300184B012200920ECB04F047
:1009FC00EFF801230093402380223121002004F0E2
:100A0C0025F9FB79042B13D8FB791A469200134471
:100A1C001A4691001A460B461344DBB20233FB73A1
:100A2C00F87B002300933D237E22332104F00EF942
:100A3C0003F0C2FF00BF1037BD4680BD6C780008C4
:100A4C0070590008000000206078000880B582B062
:100A5C0002AF002003F098FF012301932923009398
:100A6C002A23104A00212B2004F03EF932210120C8
:100A7C0004F0D4F80C4B012200920ECB0B4804F07E
:100A8C00A7F803F099FF02E0642001F0E1FA0821D5
:100A9C00074801F093FD0346002BF5D000BF00BFC3
:100AAC00BD4680BD185A00086078000878590008C7
:100ABC000008014080B586B002AF0123FB73002013
:100ACC0003F062FF0021192004F0A8F8544B012216
:100ADC0000920ECB534804F07BF81421002004F054
:100AEC009DF84F4B012200920ECB3C2003F0DEFF11
:100AFC001421742004F092F8494B012200920ECB81
:100B0C003E2003F0D3FF1421352004F087F8464B28
:100B1C001B78381D454A0A2104F072F9404B381DE8
:100B2C00012200920ECB04F053F83521002004F082
:100B3C0075F83F4B012200920ECB3E4804F048F86A
:100B4C0003F03AFF4FF4FA7001F082FA80213A4830
:100B5C0001F034FD0346002B0ED1334B1B780133CF
:100B6C00DAB2314B1A70304B1B78122B02D92E4B48
:100B7C0001221A700123FB7340212F4801F01EFD46
:100B8C000346002B0ED1284B1B78013BDAB2264BC7
:100B9C001A70254B1B78012B02D8234B12221A708A
:100BAC000123FB731021244801F008FD0346002BA0
:100BBC002FD02021204801F001FD0346002B2AD024
:100BCC00FB7B002BC2D00023FB731421352004F0D7
:100BDC0025F8154B1B78092B07D9134B1B78381D9F
:100BEC00164A0A2104F00CF906E00F4B1B78381D4D
:100BFC00134A0A2104F004F9094B381D0122009212
:100C0C000ECB03F0E5FF03F0D7FE642001F020FAD1
:100C1C009CE700BF00E000BF1037BD4680BD00BFA1
:100C2C006C7800088C5900081800002094590008B2
:100C3C006078000898590008000C0140AC59000875
:100C4C00B059000880B584B002AF0346FB71002098
:100C5C0003F09AFE012301931C2300931F23374AB0
:100C6C000021302004F040F81E210E2003F0D6FFA6
:100C7C00FB79002B12D1324B012200920ECB314862
:100C8C0003F0A6FF3221042003F0C8FF2E4B0122F3
:100C9C0000920ECB2D4803F09BFF2AE0FB79012B31
:100CAC0012D1274B012200920ECB294803F090FF62
:100CBC003221042003F0B2FF234B012200920ECB11
:100CCC00244803F085FF14E0FB79022B11D11C4B57
:100CDC00012200920ECB204803F07AFF322104202F
:100CEC0003F09CFF184B012200920ECB1B4803F023
:100CFC006FFF3821002003F091FF194B0122009265
:100D0C000ECB184803F064FF03F056FE4FF47A70D4
:100D1C0001F09EF91021144801F050FC0346002B01
:100D2C0007D02021104801F049FC0346002B00D0CD
:100D3C00F0E700BF0837BD4680BD00BF005D00086E
:100D4C006C780008B459000854780008C0590008A1
:100D5C00D4590008E0590008F4590008005A00085A
:100D6C0060780008145A0008000C014080B588B067
:100D7C0000AF07F1100300221A605A609A60DA6023
:100D8C00444B9B69434A43F010039361414B9B696D
:100D9C0003F01003FB60FB683E4B9B693D4A43F03C
:100DAC00200393613B4B9B6903F02003BB60BB6842
:100DBC00384B9B69374A43F004039361354B9B696D
:100DCC0003F004037B607B68324B9B69314A43F030
:100DDC00080393612F4B9B6903F008033B603B684E
:100DEC0000224FF400512C4801F0FFFB0022A621F9
:100DFC002A4801F0FAFB00224FF46041284801F028
:100E0C00F4FB4FF400533B6101237B610023BB6176
:100E1C000223FB6107F1100319461F4801F04AFA3F
:100E2C00A6233B6101237B610023BB610223FB6191
:100E3C0007F110031946194801F03CFA18233B61DD
:100E4C0000237B610123BB6107F110031946134892
:100E5C0001F030FAF3233B6100237B610123BB617A
:100E6C0007F1100319460E4801F024FA4FF46043C1
:100E7C003B6101237B610023BB610223FB6107F112
:100E8C0010031946064801F015FA00BF2037BD467D
:100E9C0080BD00BF0010024000100140000801405E
:100EAC00000C014080B500AF124B134A1A60114B75
:100EBC00124A5A600F4B00229A600E4B0022DA60E5
:100ECC000C4B4FF480421A610A4B00225A61094BB9
:100EDC0000229A61074B0022DA61064B00221A624B
:100EEC00044801F0BDFB0346002B01D000F008FACA
:100EFC0000BF80BD9400002000540040A08601007B
:100F0C0080B500AF124B134A1A60114B124A5A604B
:100F1C000F4B00229A600E4B0022DA600C4B4FF400
:100F2C0080421A610A4B00225A61094B00229A61D5
:100F3C00074B0022DA61064B00221A62044801F0CA
:100F4C008FFB0346002B01D000F0DAF900BF80BD07
:100F5C00E800002000580040A086010080B58CB04D
:100F6C0000AF786007F11C0300221A605A609A6087
:100F7C00DA607B681B68324A934233D1314B9B69F0
:100F8C00304A43F0080393612E4B9B6903F008032E
:100F9C00BB61BB694FF44073FB6112233B620323BB
:100FAC00BB6207F11C031946274801F083F9274B54
:100FBC005B68FB62FB6A43F0E063FB62FB6A43F035
:100FCC000203FB62214AFB6A53601E4BDB691D4A1C
:100FDC0043F40013D3611B4BDB6903F400137B61F7
:100FEC007B6929E07B681B68194A934224D1154B15
:100FFC009B69144A43F008039361124B9B6903F0FD
:10100C0008033B613B694FF44063FB6112233B6275
:10101C000323BB6207F11C0319460B4801F04AF984
:10102C00084BDB69074A43F48003D361054BDB694A
:10103C0003F48003FB60FB6800BF3037BD4680BD06
:10104C000054004000100240000C01400000014020
:10105C000058004080B500AF0021134802F050FC4E
:10106C000421114802F04CFC08210F4802F048FC06
:10107C000E4B4FF496625A630C4B40F6FC029A638B
:10108C000A4B4FF4E162DA634FF4FA6000F0E0FFD0
:10109C00064B00225A63054B00229A63034B002235
:1010AC00DA6300BF80BD00BF08020020002C0140A5
:1010BC0080B590B000AF1B4BFB614FF080433B629F
:1010CC0000237B62184BBB620223BB85164B3B6330
:1010DC000423BB86154BBB630123BB87002387F816
:1010EC003E30012387F83F30114B7B60114BBB60C6
:1010FC000F4BFB604FF4C8433B614FF4D2737B61E1
:10110C0043F69823BB613A1D07F11C0319460A48A4
:10111C0000F0A2F9084800F0F3F900BF4037BD46D3
:10112C0080BD00BF5002002000080140000C0140AF
:10113C0000803B4500409C463C01002080B500AF40
:10114C004FF4D2720B4B5A630A4800F011FA034663
:10115C0083F00103DBB2002B0AD102E0054800F05A
:10116C0073FA044800F04EFA0346002BF6D100E067
:10117C0000BF80BD3C01002080B582B000AF00F004
:10118C0005FF00F059F8FFF7F1FDFFF78BFEFFF7B5
:10119C00B7FE00F067FC00F097FD00F01FFD03F0B8
:1011AC0089FBFFF7D7FAFFF755FFFFF781FFFFF732
:1011BC00F7FA38603B68012B31D110211C4801F043
:1011CC00FDF90346012B02D00020FFF73BFD08215F
:1011DC00174801F0F3F90346002B02D00120FFF76A
:1011EC0031FD144B1B78002B02D10220FFF72AFD96
:1011FC0000237B600BE07B68DBB21846FFF7D8FB63
:10120C004FF4FA6000F024FF7B6801337B607B684D
:10121C00052BF0DDFFF792FFFFF718FC04E03B68AD
:10122C00022B01D1FFF746FC012000F011FFBEE7B5
:10123C00000801401800002080B590B000AF07F105
:10124C00180328220021184603F02AFE3B1D002219
:10125C001A605A609A60DA601A610123BB614FF41C
:10126C008033FB6100233B620123BB6202237B635F
:10127C004FF48033BB634FF4E013FB6307F11803A7
:10128C00184601F099FE0346002B01D000F038F807
:10129C000F237B600223BB600023FB604FF4806351
:1012AC003B6100237B613B1D0221184602F006F9CD
:1012BC000346002B01D000F023F800BF4037BD4699
:1012CC0080BD000080B582B000AF78607B681B6881
:1012DC00B3F1804F02D1074800F0E4FA7B681B6839
:1012EC00054A934202D1054800F0DCFA00BF0837EA
:1012FC00BD4680BD3C01002000040040A001002040
:10130C0080B400AF72B600BF00BFFDE780B483B0FD
:10131C0000AF78600B46FB707B689B680C2B45D844
:10132C0001A252F823F000BF69130008B91300089A
:10133C00B9130008B91300087D130008B91300088D
:10134C00B9130008B913000891130008B913000869
:10135C00B9130008B9130008A5130008FB78002B7B
:10136C0001D0022200E000227B685B685A631EE019
:10137C00FB78002B01D0022200E000227B685B6826
:10138C009A6314E0FB78002B01D0022200E00022CB
:10139C007B685B68DA630AE0FB78002B01D00222E1
:1013AC0000E000227B685B681A6400E000BF00BFAD
:1013BC000C37BD4680BC704780B584B000AF7860F8
:1013CC007B6893F94C30002B03DD7B6893F822305B
:1013DC0007E07B6893F82230012B14BF0123002314
:1013EC00DBB2FB737B68D8687B681B8AFA7B194677
:1013FC0001F0FBF800BF1037BD4680BD80B584B04E
:10140C0000AF786012497868FFF746F90346002B65
:10141C0001D00F4B7B6079680E48FFF753F80346F9
:10142C001846FFF777F90346FB60FB683B2B01D8A6
:10143C003C23FB60FB684FF6E852934202D94FF60F
:10144C00E853FB60FB6818461037BD4680BD00BFF3
:10145C000000204100247449B0B584B000AFF8609E
:10146C00B9607A60FA68BB6814461D460FCD0FC48C
:10147C000FCD0FC42B682360FB687A6803F124043A
:10148C0015460FCD0FC495E8030084E80300FB68F4
:10149C00002283F83C20FB68002283F83D20FB6887
:1014AC0000221A64FB6800225A64FB6800229A64CA
:1014BC00FB68012283F84C20FB684FF000021A6590
:1014CC007B681A68FB685A65FB684FF47A729A65F8
:1014DC00FB680022DA65FB68012283F86020FB6858
:1014EC005B68FA68926DDA620021F868FFF70EFF0C
:1014FC000021F86800F01DF800BF1037BD46B0BDE4
:10150C0080B582B000AF78607B6893F8603083F070
:10151C000103DBB2002B08D17B681A687B689B68DF
:10152C001946104602F08EFA00E000BF0837BD469F
:10153C0080BD80B584B000AF78600B46FB707B68D3
:10154C0093F82330002B05D0FB7883F00103DBB23A
:10155C00FB7301E0FB78FB737B6858697B681B8B22
:10156C00FA7B194601F041F800BF1037BD4680BD2B
:10157C0080B582B000AF78607B6893F8603083F000
:10158C000103DBB2002B05D1786800F03BF8034671
:10159C00002B01D000231DE07B68002283F83D2046
:1015AC007B681A6C7B689A647B68FF2283F84C20FA
:1015BC007B68DA6A7B685A657B68022283F83C2078
:1015CC0000F03CFD02467B68DA6501217868FFF784
:1015DC00B0FF012318460837BD4680BD80B582B0E8
:1015EC0000AF78607B684FF000021A657B680022C0
:1015FC0083F83C2000217868FFF788FE00BF08378D
:10160C00BD4680BD80B483B000AF78607B6893F832
:10161C003C30DBB2012B0BD07B6893F83C30DBB257
:10162C00022B05D07B6893F83C30DBB2032B01D145
:10163C00012300E0002303F00103DBB218460C3752
:10164C00BD4680BC7047000090B589B000AF786093
:10165C004FF00003FB617868FFF7D4FF034683F07B
:10166C000103DBB2002B40F0158100F0E7FC0246D1
:10167C007B68DB6DD21A7B689B6B9A420BD97B68BB
:10168C00042283F83C207B68012283F83D20786893
:10169C00FFF7A4FFFFE07B6893F83C30DBB2022B32
:1016AC003ED17B68DA697B681B8C1946104600F0CA
:1016BC0085FF0346002B1CD17B6800221A647B68D3
:1016CC005A6B7B685A647B68012283F84C207B68D8
:1016DC004FF000021A657B685A6A7B685A657B6812
:1016EC00032283F83C2000F0A9FC02467B68DA65F3
:1016FC0016E07B689A6C7B681B6CD31ABB617B68A9
:10170C001B6BBA699A420BDB7B68042283F83C2082
:10171C007B68022283F83D207868FFF75FFFBAE010
:10172C007B6893F83C30DBB2022B07D17B68DB6A19
:10173C00FB617B68FF2283F84C204FE07B685A6C7E
:10174C007B681B6CD31A7B617B69002B0CD17B688B
:10175C004FF000021A657B68002283F83C200021C0
:10176C007868FFF7D3FD96E07B69002B01DB012243
:10177C0001E04FF0FF327B6883F84C207B689B6A5A
:10178C0019461846FEF7E2FC03461C467B69002B03
:10179C00B8BF5B421846FEF78DFD0346194620463E
:1017AC00FEF7DCFD0346184603F0EEFF38613B699B
:1017BC00FB617B685B6D1946F869FEF78BFF03468E
:1017CC00002B02D07B685B6DFB613449F869FEF736
:1017DC0063FF0346002B01D0304BFB617B689B6A97
:1017EC002F491846FEF7BAFD0346FB607B681B6D5C
:1017FC001946F869FEF76EFF0346002B16D07B687E
:10180C001B6DF9681846FEF7A1FC03461A467B6867
:10181C001A657B681B6D1946F869FEF73DFF034698
:10182C00002B22D07B68FA691A651EE07B681B6D61
:10183C001946F869FEF730FF0346002B15D07B687C
:10184C001B6DF9681846FEF77FFC03461A467B6849
:10185C001A657B681B6D1946F869FEF73BFF03465A
:10186C00002B02D07B68FA691A657B681B6D1846E1
:10187C00FFF7C4FD02467B689A657B685B687A68F3
:10188C00926DDA627868FFF797FD01217868FFF7AF
:10189C003DFD00E000BF2437BD4690BD0000204157
:1018AC006F12833A80B582B000AF78607868FFF72A
:1018BC00A9FE034683F00103DBB2002B04D0002108
:1018CC007868FFF723FD07E07B681B6C7A6892F958
:1018DC004C201A447B681A640837BD4680BD000052
:1018EC0080B485B000AF154B9B69144A43F00103DB
:1018FC009361124B9B6903F00103BB60BB680F4BF8
:10190C00DB690E4A43F08053D3610C4BDB6903F067
:10191C0080537B607B680A4B5B68FB60FB6823F041
:10192C00E063FB60FB6843F00073FB60044AFB68F8
:10193C00536000BF1437BD4680BC70470010024096
:10194C000000014080B400AF00BFFDE780B400AFE1
:10195C0000BFFDE780B400AF00BFFDE780B400AF6F
:10196C0000BFFDE780B400AF00BFFDE780B400AF5F
:10197C0000BFBD4680BC704780B400AF00BFBD4601
:10198C0080BC704780B400AF00BFBD4680BC7047C0
:10199C0080B500AF00F040FB00BF80BD80B500AF4C
:1019AC00024802F03FF900BF80BD00BF500200208A
:1019BC0080B500AF024802F035F900BF80BD00BF12
:1019CC009802002080B500AF102000F027FE00BF69
:1019DC0080BD80B500AF202000F020FE402000F03C
:1019EC001DFE802000F01AFE00BF80BD80B586B0C1
:1019FC0000AF7860144A154BD31A7B617B693B614D
:101A0C00134B1B68002B02D1114B124A1A60104B5E
:101A1C001A687B6813443A699A4207D203F048FA71
:101A2C0003460C221A604FF0FF3309E0084B1B6889
:101A3C00FB60074B1A687B681344054A1360FB680C
:101A4C0018461837BD4680BD005000200004000029
:101A5C00040200203808002080B400AF00BFBD464F
:101A6C0080BC704780B596B000AF07F148030022E8
:101A7C001A605A609A60DA6007F1400300221A601B
:101A8C005A6007F1240300221A605A609A60DA60E7
:101A9C001A615A619A613B1D20220021184603F0FD
:101AAC00FFF94C4B4C4A1A604A4B47225A60494B3F
:101ABC0000229A60474B44F61F62DA60454B0022C5
:101ACC001A61444B00225A61424B00229A614148F0
:101ADC0001F06EFE0346002B01D0FFF711FC4FF412
:101AEC008053BB6407F1480319463A4802F04CFA9C
:101AFC000346002B01D0FFF703FC364801F0A7FE8C
:101B0C000346002B01D0FFF7FBFB00233B640023B3
:101B1C007B6407F1400319462E4802F0D1FD0346C1
:101B2C00002B01D0FFF7ECFB60237B624FF47A7340
:101B3C00BB620023FB6200233B6300237B63002317
:101B4C00BB630023FB6307F12403002219462148E1
:101B5C0002F058F90346002B01D0FFF7D1FB07F137
:101B6C002403042219461B4802F04CF90346002BAF
:101B7C0001D0FFF7C5FB0023BB6207F12403082249
:101B8C001946144802F03EF90346002B01D0FFF72A
:101B9C00B7FB00237B600023BB600023FB600023AA
:101BAC003B6100237B614FF40053BB6100233B621C
:101BBC003B1D1946074802F0E1FD0346002B01D0FE
:101BCC00FFF79EFB034800F049F900BF5837BD46AC
:101BDC0080BD00BF08020020002C014080B58EB0F3
:101BEC0000AF07F1280300221A605A609A60DA608D
:101BFC0007F1200300221A605A603B1D00221A6074
:101C0C005A609A60DA601A615A619A612D4B4FF0F2
:101C1C0080421A602B4B47225A602A4B00229A6052
:101C2C00284B4FF47A72DA60264B00221A61254B4E
:101C3C0080229A61234801F0BBFD0346002B01D0A2
:101C4C00FFF75EFB4FF48053BB6207F12803194684
:101C5C001C4802F099F90346002B01D0FFF750FB0A
:101C6C00184801F0F4FD0346002B01D0FFF748FBA8
:101C7C0000233B6200237B6207F1200319461148C5
:101C8C0002F01EFD0346002B01D0FFF739FB602349
:101C9C007B600223BB600023FB6000237B613B1D48
:101CAC0000221946074802F0ADF80346002B01D07C
:101CBC00FFF726FB034800F0D1F800BF3837BD46CC
:101CCC0080BD00BF5002002080B58EB000AF07F180
:101CDC00280300221A605A609A60DA6007F1200328
:101CEC0000221A605A603B1D00221A605A609A60EA
:101CFC00DA601A615A619A612C4B2D4A1A602B4B8F
:101D0C0047225A60294B00229A60284B4FF47A7272
:101D1C00DA60264B00221A61244B80229A612348F8
:101D2C0001F046FD0346002B01D0FFF7E9FA4FF412
:101D3C008053BB6207F1280319461C4802F024F9B2
:101D4C000346002B01D0FFF7DBFA184801F07FFDAA
:101D5C000346002B01D0FFF7D3FA00233B6200238C
:101D6C007B6207F120031946104802F0A9FC0346D8
:101D7C00002B01D0FFF7C4FA60237B600223BB6009
:101D8C000023FB6000237B613B1D002219460748A2
:101D9C0002F038F80346002B01D0FFF7B1FA0348E4
:101DAC0000F05CF800BF3837BD4680BD98020020BB
:101DBC000004004080B586B000AF78607B681B687B
:101DCC00234A93420CD1234B9B69224A43F4006370
:101DDC009361204B9B6903F400637B617B6932E068
:101DEC007B681B68B3F1804F14D11A4BDB69194A1D
:101DFC0043F00103D361174BDB6903F001033B6133
:101E0C003B69002200211C2000F01DFA1C2000F070
:101E1C0036FA18E07B681B680F4A934213D10D4BBE
:101E2C00DB690C4A43F00203D3610A4BDB6903F014
:101E3C000203FB60FB68002200211D2000F003FA66
:101E4C001D2000F01CFA00BF1837BD4680BD00BF36
:101E5C00002C0140001002400004004080B58AB004
:101E6C0000AF786007F1180300221A605A609A607C
:101E7C00DA607B681B682E4A934219D12D4B9B6903
:101E8C002C4A43F0040393612A4B9B6903F004032F
:101E9C007B617B694FF4E063BB610223FB6102232E
:101EAC007B6207F118031946234800F003FA3AE065
:101EBC007B681B68B3F1804F18D11E4B9B691D4A80
:101ECC0043F0040393611B4B9B6903F004033B61D8
:101EDC003B690123BB610223FB6102237B6207F197
:101EEC0018031946144800F0E5F91CE07B681B68E0
:101EFC00124A934217D10F4B9B690E4A43F00403CD
:101F0C0093610C4B9B6903F00403FB60FB6840235B
:101F1C00BB610223FB6102237B6207F118031946A4
:101F2C00054800F0C7F900BF2837BD4680BD00BF8B
:101F3C00002C014000100240000801400004004049
:101F4C00FFF78AFD0B480C490C4A002302E0D458D9
:101F5C00C4500433C4188C42F9D3094A094C0023E9
:101F6C0001E013600432A242FBD302F0A7FFFFF79B
:101F7C0003F970470000002078000020BC780008AE
:101F8C007800002034080020FEE7000080B500AF88
:101F9C00084B1B68074A43F010031360032000F042
:101FAC0047F90F2000F008F8FFF79AFC00231846B9
:101FBC0080BD00BF0020024080B582B000AF7860C9
:101FCC00124B1A68124B1B7819464FF47A73B3FBF9
:101FDC00F1F3B2FBF3F3184600F05FF90346002B64
:101FEC0001D001230EE07B680F2B0AD80022796800
:101FFC004FF0FF3000F027F9064A7B68136000238E
:10200C0000E0012318460837BD4680BD1C000020A7
:10201C00240000202000002080B400AF054B1B786A
:10202C001A46054B1B681344034A136000BFBD4698
:10203C0080BC704724000020E002002080B400AF78
:10204C00024B1B681846BD4680BC7047E00200205E
:10205C0080B584B000AF7860FFF7F0FFB8607B68A4
:10206C00FB60FB68B3F1FF3F05D00A4B1B781A46A7
:10207C00FB681344FB6000BFFFF7E0FF0246BB6840
:10208C00D31AFA689A42F7D800BF00BF1037BD4682
:10209C0080BD00BF2400002080B485B000AF786004
:1020AC007B6803F00703FB600C4BDB68BB60BA6812
:1020BC004FF6FF031340BB60FB681A02BB68134367
:1020CC0043F0BF6343F40033BB60044ABB68D36086
:1020DC0000BF1437BD4680BC704700BF00ED00E068
:1020EC0080B400AF044BDB681B0A03F007031846EF
:1020FC00BD4680BC704700BF00ED00E080B483B0EB
:10210C0000AF0346FB7197F90730002B0BDBFB7913
:10211C0003F01F02064997F907305B09012000FA0A
:10212C0002F241F8232000BF0C37BD4680BC70473B
:10213C0000E100E080B483B000AF03463960FB716E
:10214C0097F90730002B0ADB3B68DAB20C4997F998
:10215C0007301201D2B20B4483F800230AE03B682B
:10216C00DAB20849FB7903F00F03043B1201D2B237
:10217C000B441A7600BF0C37BD4680BC704700BFBD
:10218C0000E100E000ED00E080B489B000AFF86041
:10219C00B9607A60FB6803F00703FB61FB69C3F16C
:1021AC000703042B28BF0423BB61FB690433062BF4
:1021BC0002D9FB69033B00E000237B614FF0FF3247
:1021CC00BB6902FA03F3DA43BB681A407B699A4095
:1021DC004FF0FF317B6901FA03F3D9437B680B4065
:1021EC00134318462437BD4680BC704780B582B077
:1021FC0000AF78607B68013BB3F1807F01D3012392
:10220C000FE00A4A7B68013B53600F214FF0FF300F
:10221C00FFF790FF054B00229A60044B07221A60CF
:10222C00002318460837BD4680BD00BF10E000E013
:10223C0080B582B000AF78607868FFF72DFF00BFE3
:10224C000837BD4680BD80B586B000AF0346B96087
:10225C007A60FB7300237B61FFF742FF78617A6839
:10226C00B9687869FFF790FF024697F90F3011466D
:10227C001846FFF75FFF00BF1837BD4680BD80B51D
:10228C0082B000AF0346FB7197F907301846FFF791
:10229C0035FF00BF0837BD4680BD80B582B000AFAA
:1022AC0078607868FFF7A2FF034618460837BD46EA
:1022BC0080BD000080B48BB000AF78603960002323
:1022CC007B6200233B6269E101227B6A02FA03F321
:1022DC00FB613B681B68FA691340BB61BA69FB6917
:1022EC009A4240F058813B685B689A4A93425ED0B0
:1022FC00984A934275D8984A934258D0964A93423A
:10230C006FD8964A934252D0944A934269D8944AD1
:10231C0093424CD0924A934263D8924A934246D00D
:10232C00904A93425DD8122B2AD8122B59D801A26D
:10233C0052F823F0BB23000895230008A7230008BC
:10234C00E9230008EF230008EF230008EF2300081F
:10235C00EF230008EF230008EF230008EF23000809
:10236C00EF230008EF230008EF230008EF230008F9
:10237C00EF230008EF2300089D230008B123000879
:10238C00794A934213D02CE03B68DB683B6229E02E
:10239C003B68DB6804333B6224E03B68DB68083352
:1023AC003B621FE03B68DB680C333B621AE03B6826
:1023BC009B68002B02D104233B6213E03B689B68B3
:1023CC00012B05D108233B627B68FA691A6109E08D
:1023DC0008233B627B68FA695A6103E000233B6285
:1023EC0000E000BFBB69FF2B01D87B6801E07B6874
:1023FC0004337B61BB69FF2B02D87B6A9B0002E034
:10240C007B6A083B9B003B617B691A680F213B6927
:10241C0001FA03F3DB431A40396A3B6901FA03F30F
:10242C001A437B691A603B685B6803F08053002B8E
:10243C0000F0B1804D4B9B694C4A43F00103936112
:10244C004A4B9B6903F00103BB60BB68484A7B6A3B
:10245C009B08023352F82330FB607B6A03F00303C2
:10246C009B000F2202FA03F3DB43FA681340FB6074
:10247C007B68404A934213D07B683F4A93420DD00D
:10248C007B683E4A934207D07B683D4A934201D118
:10249C00032306E0042304E0022302E0012300E00E
:1024AC0000237A6A02F0030292009340FA68134305
:1024BC00FB602F497B6A9B080233FA6841F82320A2
:1024CC003B685B6803F48013002B06D02D4B9A6895
:1024DC002C49BB6913438B6006E02A4B9A68BB6995
:1024EC00DB43284913408B603B685B6803F40013A3
:1024FC00002B06D0234BDA682249BB691343CB600F
:10250C0006E0204BDA68BB69DB431E491340CB6005
:10251C003B685B6803F40033002B06D0194B5A68F8
:10252C001849BB6913434B6006E0164B5A68BB69EC
:10253C00DB43144913404B603B685B6803F4803306
:10254C00002B21D00F4B1A680E49BB6913430B604B
:10255C0021E000BF000032100000311000002210FA
:10256C000000211000001210000011100010024099
:10257C000000014000080140000C01400010014027
:10258C0000140140000401400B4B1A68BB69DB438B
:10259C00094913400B607B6A01337B623B681A6804
:1025AC007B6A22FA03F3002B7FF48EAE00BF00BFD0
:1025BC002C37BD4680BC70470004014080B485B008
:1025CC0000AF78600B467B807B689A687B881340F1
:1025DC00002B02D00123FB7301E00023FB73FB7B78
:1025EC0018461437BD4680BC704780B483B000AF2A
:1025FC0078600B467B8013467B707B78002B03D076
:10260C007A887B681A6103E07B881A047B681A61FC
:10261C0000BF0C37BD4680BC7047000080B582B04F
:10262C0000AF0346FB80084B5A69FB881340002B14
:10263C0006D0054AFB885361FB88184600F006F863
:10264C0000BF0837BD4680BD0004014080B483B094
:10265C0000AF0346FB8000BF0C37BD4680BC704703
:10266C0080B584B000AF78607B68002B01D101236A
:10267C002BE17B6893F83D30DBB2002B06D17B68F5
:10268C00002283F83C207868FEF768FC7B682422E3
:10269C0083F83D207B681B681A687B681B6822F0F6
:1026AC0001021A607B681B681A687B681B6842F41D
:1026BC0000421A607B681B681A687B681B6822F4EE
:1026CC0000421A6001F042F8F8607B685B68814A4E
:1026DC00934207D8FB68804A934294BF012300239E
:1026EC00DBB206E0FB687D4A934294BF01230023D2
:1026FC00DBB2002B01D00123E7E0FB68784AA2FB98
:10270C0003239B0CBB607B681B685B6823F03F0159
:10271C007B681B68BA680A435A607B681B681B6A33
:10272C0023F03F017B685B686A4A934202D8BB681E
:10273C00013309E0BB684FF4967202FB03F3694A5C
:10274C00A2FB03239B0901337A6812680B431362C3
:10275C007B681B68DB6923F44F4222F0FF027B6825
:10276C005B685C498B4219D8FB68591E7B685B68B7
:10277C005B00B1FBF3F3591C40F6FC730B40002BD0
:10278C000AD0FB68591E7B685B685B00B1FBF3F3F6
:10279C000133C3F30B0351E004234FE07B689B68C8
:1027AC00002B11D1FB68581E7B6859680B465B00E7
:1027BC000B44B0FBF3F30133C3F30B03002B0CBF3F
:1027CC0001230023DBB212E0FB68581E7B685968BA
:1027DC000B469B000B4499000B44B0FBF3F3013305
:1027EC00C3F30B03002B0CBF01230023DBB2002B24
:1027FC0001D0012322E07B689B68002B0ED1FB6883
:10280C00581E7B6859680B465B000B44B0FBF3F316
:10281C000133C3F30B0343F400430FE0FB68581E72
:10282C007B6859680B469B000B4499000B44B0FB2A
:10283C00F3F30133C3F30B0343F4404379680968A2
:10284C001343CB617B681B681B6823F0C0017B685A
:10285C00DA697B681B6A1A437B681B680A431A6037
:10286C007B681B689B6823F4034323F0FF037A689F
:10287C0011697A68D26811437A6812680B439360C5
:10288C007B681B68DB6823F0FF017B685A697B68F7
:10289C009B691A437B681B680A43DA607B681B6878
:1028AC001A687B681B6842F001021A607B68002280
:1028BC001A647B68202283F83D207B6800221A630F
:1028CC007B68002283F83E20002318461037BD4653
:1028DC0080BD00BFA08601007F841E00FF083D0064
:1028EC0083DE1B43D34D621080B588B002AFF86015
:1028FC00084611461A4603467B810B463B8113461C
:10290C00FB80FFF79BFB7861FB6893F83D30DBB2F3
:10291C00202B40F0D9807B690093192301226D494B
:10292C00F86800F071F90346002B01D00223CCE0CB
:10293C00FB6893F83C30012B01D10223C5E0FB6806
:10294C00012283F83C20FB681B681B6803F0010321
:10295C00012B07D0FB681B681A68FB681B6842F0E8
:10296C0001021A60FB681B681A68FB681B6822F47A
:10297C0000621A60FB68212283F83D20FB6840222C
:10298C0083F83E20FB6800221A64FB683A6A5A629C
:10299C00FB68BA8C5A85FB685B8D9AB2FB681A850A
:1029AC00FB684D4ADA62F8883A8979897B69019328
:1029BC00BB6A00930346F86800F090F80346002BBE
:1029CC0052D0012381E07A69B96AF86800F036FACE
:1029DC000346002B0DD0FB681B6C042B07D1FB6846
:1029EC001B681A68FB681B6842F400721A600123AA
:1029FC006BE0FB685B6A1A78FB681B681A61FB6802
:102A0C005B6A5A1CFB685A62FB681B8D013B9AB2CD
:102A1C00FB681A85FB685B8D9BB2013B9AB2FB6825
:102A2C005A85FB681B685B6903F00403042B1BD1FC
:102A3C00FB681B8D002B17D0FB685B6A1A78FB6850
:102A4C001B681A61FB685B6A5A1CFB685A62FB685C
:102A5C001B8D013B9AB2FB681A85FB685B8D9BB2A0
:102A6C00013B9AB2FB685A85FB681B8D002BAAD1DF
:102A7C007A69B96AF86800F029FA0346002B0DD080
:102A8C00FB681B6C042B07D1FB681B681A68FB687E
:102A9C001B6842F400721A60012316E0FB681B6885
:102AAC001A68FB681B6842F400721A60FB682022EB
:102ABC0083F83D20FB68002283F83E20FB6800224F
:102ACC0083F83C20002300E0022318461837BD464B
:102ADC0080BD00BF020010000000FFFF80B588B071
:102AEC0002AFF860084611461A4603467B810B4636
:102AFC003B811346FB80FB681B681A68FB681B68EC
:102B0C0042F480721A607B6A00933B6A00224FF099
:102B1C000111F86800F078F80346002B0DD0FB6823
:102B2C001B681B6803F48073B3F5807F03D1FB68CB
:102B3C004FF400721A6403235FE07B89DBB21A4600
:102B4C00FB681B6802F0FE021A617B6A3A6A2D4927
:102B5C00F86800F0D3F80346002B01D001234CE0B9
:102B6C0000237B61FB681B685B697B61FB681B68EE
:102B7C009B697B617B697A6A396AF86800F05EF957
:102B8C000346002B0DD0FB681B6C042B07D1FB6894
:102B9C001B681A68FB681B6842F400721A600123F8
:102BAC002BE0FB88012B05D13B89DAB2FB681B6853
:102BBC001A6121E03B891B0A9BB2DAB2FB681B68E5
:102BCC001A617A6A396AF86800F038F90346002B02
:102BDC000DD0FB681B6C042B07D1FB681B681A68B3
:102BEC00FB681B6842F400721A60012305E03B8904
:102BFC00DAB2FB681B681A61002318461837BD4609
:102C0C0080BD00BF0200010080B584B000AFF86049
:102C1C00B9603B601346FB7148E03B68B3F1FF3F82
:102C2C0044D0FFF70BFA0246BB69D31A3A689A42B2
:102C3C0002D33B68002B39D1BB681B0CDBB2012BD8
:102C4C000DD1FB681B685B69DA43BB6813409BB210
:102C5C00002B0CBF01230023DBB21A460CE0FB68EF
:102C6C001B689B69DA43BB6813409BB2002B0CBFFB
:102C7C0001230023DBB21A46FB799A4216D1FB687A
:102C8C0000221A63FB68202283F83D20FB68002297
:102C9C0083F83E20FB681B6C43F02002FB681A642F
:102CAC00FB68002283F83C20012323E0BB681B0C4B
:102CBC00DBB2012B0DD1FB681B685B69DA43BB6887
:102CCC0013409BB2002B0CBF01230023DBB21A462E
:102CDC000CE0FB681B689B69DA43BB6813409BB232
:102CEC00002B0CBF01230023DBB21A46FB799A425E
:102CFC0093D0002318461037BD4680BD80B584B0F4
:102D0C0000AFF860B9607A603B6071E0FB681B68EB
:102D1C005B6903F48063B3F5806F23D1FB681B6898
:102D2C001A68FB681B6842F400721A60FB681B6827
:102D3C006FF480625A61FB6800221A63FB682022E0
:102D4C0083F83D20FB68002283F83E20FB681B6C57
:102D5C0043F00402FB681A64FB68002283F83C20F1
:102D6C00012367E07B68B3F1FF3F41D0FFF766F9C1
:102D7C0002463B68D31A7A689A4202D37B68002BCE
:102D8C0036D1BB681B0CDBB2012B0CD1FB681B686A
:102D9C005B69DA43BB6813409BB2002B14BF012361
:102DAC000023DBB20BE0FB681B689B69DA43BB6852
:102DBC0013409BB2002B14BF01230023DBB2002B6A
:102DCC0016D0FB6800221A63FB68202283F83D2092
:102DDC00FB68002283F83E20FB681B6C43F020024A
:102DEC00FB681A64FB68002283F83C20012321E075
:102DFC00BB681B0CDBB2012B0CD1FB681B685B693D
:102E0C00DA43BB6813409BB2002B14BF0123002391
:102E1C00DBB20BE0FB681B689B69DA43BB681340B1
:102E2C009BB2002B14BF01230023DBB2002B7FF4D9
:102E3C006DAF002318461037BD4680BD80B584B0F9
:102E4C0000AFF860B9607A6034E0F86800F086F89A
:102E5C000346002B01D0012334E0BB68B3F1FF3FE4
:102E6C0028D0FFF7EBF802467B68D31ABA689A426F
:102E7C0002D3BB68002B1DD1FB681B685B6903F098
:102E8C008003802B16D0FB6800221A63FB6820227B
:102E9C0083F83D20FB68002283F83E20FB681B6C06
:102EAC0043F02002FB681A64FB68002283F83C2084
:102EBC00012307E0FB681B685B6903F08003802B30
:102ECC00C3D1002318461037BD4680BD80B584B0F1
:102EDC0000AFF860B9607A6034E0F86800F03EF852
:102EEC000346002B01D0012334E0BB68B3F1FF3F54
:102EFC0028D0FFF7A3F802467B68D31ABA689A4227
:102F0C0002D3BB68002B1DD1FB681B685B6903F007
:102F1C000403042B16D0FB6800221A63FB682022E2
:102F2C0083F83D20FB68002283F83E20FB681B6C75
:102F3C0043F02002FB681A64FB68002283F83C20F3
:102F4C00012307E0FB681B685B6903F00403042B97
:102F5C00C3D1002318461037BD4680BD80B483B062
:102F6C0000AF78607B681B685B6903F48063B3F522
:102F7C00806F1BD17B681B686FF480625A617B6821
:102F8C0000221A637B68202283F83D207B68002294
:102F9C0083F83E207B681B6C43F004027B681A6448
:102FAC007B68002283F83C20012300E000231846B4
:102FBC000C37BD4680BC704780B586B000AF7860DA
:102FCC007B68002B01D1012372E27B681B6803F044
:102FDC000103002B00F08780924B5B6803F00C031D
:102FEC00042B0CD08F4B5B6803F00C03082B12D115
:102FFC008C4B5B6803F48033B3F5803F0BD1894B6A
:10300C001B6803F40033002B6CD07B685B68002BCF
:10301C0068D101234CE27B685B68B3F5803F06D135
:10302C00804B1B687F4A43F4803313602EE07B682F
:10303C005B68002B0CD17B4B1B687A4A23F48033E2
:10304C001360784B1B68774A23F4802313601DE0D0
:10305C007B685B68B3F5A02F0CD1724B1B68714A6F
:10306C0043F4802313606F4B1B686E4A43F4803328
:10307C0013600BE06B4B1B686A4A23F480331360BC
:10308C00684B1B68674A23F4802313607B685B687A
:10309C00002B13D0FEF7D2FF386108E0FEF7CEFF0D
:1030AC0002463B69D31A642B01D9032300E25D4B22
:1030BC001B6803F40033002BF0D014E0FEF7BEFFC6
:1030CC00386108E0FEF7BAFF02463B69D31A642B5D
:1030DC0001D90323ECE1534B1B6803F40033002BA1
:1030EC00F0D100E000BF7B681B6803F00203002BEB
:1030FC0063D04C4B5B6803F00C03002B0BD0494B9B
:10310C005B6803F00C03082B1CD1464B5B6803F483
:10311C008033002B16D1434B1B6803F00203002BAA
:10312C0005D07B681B69012B01D00123C0E13D4B0D
:10313C001B6823F0F8027B685B69DB003949134399
:10314C000B603AE07B681B69002B20D0364B0122C8
:10315C001A60FEF773FF386108E0FEF76FFF024656
:10316C003B69D31A022B01D90323A1E12D4B1B6818
:10317C0003F00203002BF0D02A4B1B6823F0F8025B
:10318C007B685B69DB00274913430B6015E0264B1A
:10319C0000221A60FEF752FF386108E0FEF74EFF7E
:1031AC0002463B69D31A022B01D9032380E11D4B44
:1031BC001B6803F00203002BF0D17B681B6803F043
:1031CC000803002B3AD07B689B69002B19D0174B56
:1031DC0001221A60FEF732FF386108E0FEF72EFF7D
:1031EC0002463B69D31A022B01D9032360E10D4B34
:1031FC005B6A03F00203002BF0D0012000F0BAFA56
:10320C001CE00A4B00221A60FEF718FF38610FE031
:10321C00FEF714FF02463B69D31A022B08D903238D
:10322C0046E100BF001002400000424280044242CE
:10323C00924B5B6A03F00203002BE9D17B681B689D
:10324C0003F00403002B00F0A6800023FB758B4BCE
:10325C00DB6903F08053002B0DD1884BDB69874A67
:10326C0043F08053D361854BDB6903F08053BB6023
:10327C00BB680123FB75824B1B6803F48073002B26
:10328C0018D17F4B1B687E4A43F480731360FEF7A2
:10329C00D5FE386108E0FEF7D1FE02463B69D31A31
:1032AC00642B01D9032303E1754B1B6803F4807372
:1032BC00002BF0D07B68DB68012B06D16F4B1B6AAF
:1032CC006E4A43F0010313622DE07B68DB68002B30
:1032DC000CD16A4B1B6A694A23F001031362674BDA
:1032EC001B6A664A23F0040313621CE07B68DB68EC
:1032FC00052B0CD1614B1B6A604A43F0040313622B
:10330C005E4B1B6A5D4A43F0010313620BE05B4B9F
:10331C001B6A5A4A23F001031362584B1B6A574A23
:10332C0023F0040313627B68DB68002B15D0FEF7D7
:10333C0085FE38610AE0FEF781FE02463B69D31A2E
:10334C0041F28832934201D90323B1E04B4B1B6A03
:10335C0003F00203002BEED014E0FEF76FFE386191
:10336C000AE0FEF76BFE02463B69D31A41F2883243
:10337C00934201D903239BE0404B1B6A03F00203E9
:10338C00002BEED1FB7D012B05D13C4BDB693B4A7D
:10339C0023F08053D3617B68DB69002B00F08780BE
:1033AC00364B5B6803F00C03082B61D07B68DB6940
:1033BC00022B46D1334B00221A60FEF73FFE3861D8
:1033CC0008E0FEF73BFE02463B69D31A022B01D9FB
:1033DC0003236DE0294B1B6803F00073002BF0D125
:1033EC007B681B6AB3F5803F08D1244B5B6823F4E0
:1033FC0000327B689B68214913434B601F4B5B6811
:10340C0023F474127B68196A7B685B6A0B431B4953
:10341C0013434B601B4B01221A60FEF70FFE386101
:10342C0008E0FEF70BFE02463B69D31A022B01D9CA
:10343C0003233DE0114B1B6803F00073002BF0D00D
:10344C0035E0104B00221A60FEF7F8FD386108E0F9
:10345C00FEF7F4FD02463B69D31A022B01D9032374
:10346C0026E0064B1B6803F00073002BF0D11EE026
:10347C007B68DB69012B07D1012319E000100240A6
:10348C0000700040600042420B4B5B68FB60FB68C5
:10349C0003F480327B681B6A9A4206D1FB6803F402
:1034AC0070127B685B6A9A4201D0012300E0002312
:1034BC0018461837BD4680BD0010024080B584B058
:1034CC0000AF786039607B68002B01D10123D0E01C
:1034DC006A4B1B6803F007033A689A4210D9674B92
:1034EC001B6823F0070265493B6813430B60634B71
:1034FC001B6803F007033A689A4201D00123B8E035
:10350C007B681B6803F00203002B20D07B681B68D0
:10351C0003F00403002B05D0594B5B68584A43F465
:10352C00E06353607B681B6803F00803002B05D035
:10353C00534B5B68524A43F460535360504B5B6887
:10354C0023F0F0027B689B684D4913434B607B680A
:10355C001B6803F00103002B40D07B685B68012BD8
:10356C0007D1474B1B6803F40033002B15D1012303
:10357C007FE07B685B68022B07D1414B1B6803F033
:10358C000073002B09D1012373E03D4B1B6803F042
:10359C000203002B01D101236BE0394B5B6823F054
:1035AC0003027B685B68364913434B60FEF746FDAC
:1035BC00F8600AE0FEF742FD0246FB68D31A41F2BE
:1035CC008832934201D9032353E02D4B5B6803F0FF
:1035DC000C027B685B689B009A42EBD1274B1B6803
:1035EC0003F007033A689A4210D2244B1B6823F06D
:1035FC00070222493B6813430B60204B1B6803F006
:10360C0007033A689A4201D0012332E07B681B68B9
:10361C0003F00403002B08D0194B5B6823F4E06221
:10362C007B68DB68164913434B607B681B6803F0AF
:10363C000803002B09D0124B5B6823F460527B68A3
:10364C001B69DB000E4913434B6000F021F8024666
:10365C000B4B5B681B0903F00F030A49CB5C22FA86
:10366C0003F3094A1360094B1B681846FEF7A4FCC8
:10367C00002318461037BD4680BD00BF0020024015
:10368C0000100240705D00081C000020200000208B
:10369C0080B487B000AF0023FB600023BB60002325
:1036AC007B6100237B6000233B611E4B5B68FB60EE
:1036BC00FB6803F00C03042B02D0082B03D027E08B
:1036CC00194B3B6127E0FB689B0C03F00F03174A77
:1036DC00D35C7B60FB6803F48033002B10D0114B60
:1036EC005B685B0C03F00103114AD35CBB607B6825
:1036FC000D4A03FB02F2BB68B2FBF3F37B6104E0FF
:10370C007B680C4A02FB03F37B617B693B6102E043
:10371C00054B3B6100BF3B6918461C37BD4680BC5E
:10372C00704700BF0010024000127A00885D00084C
:10373C00985D000800093D0080B400AF024B1B6887
:10374C001846BD4680BC70471C00002080B500AFF9
:10375C00FFF7F2FF0246054B5B681B0A03F00703F9
:10376C000349CB5C22FA03F3184680BD00100240DB
:10377C00805D000880B485B000AF78600A4B1B6890
:10378C000A4AA2FB03235B0A7A6802FB03F3FB6081
:10379C0000BFFB685A1EFA60002BF9D100BF00BFB6
:1037AC001437BD4680BC70471C000020D34D6210FE
:1037BC0080B582B000AF78607B68002B01D101230B
:1037CC0041E07B6893F83D30DBB2002B06D17B687F
:1037DC00002283F83C207868FEF7ECFA7B68022222
:1037EC0083F83D207B681A687B68043319461046C1
:1037FC0000F0B6FC7B68012283F846207B6801222E
:10380C0083F83E207B68012283F83F207B680122ED
:10381C0083F840207B68012283F841207B680122D9
:10382C0083F842207B68012283F843207B680122C5
:10383C0083F844207B68012283F845207B680122B1
:10384C0083F83D20002318460837BD4680BD80B55F
:10385C0082B000AF78607B68002B01D1012341E07E
:10386C007B6893F83D30DBB2002B06D17B680022DD
:10387C0083F83C20786800F039F87B68022283F8E2
:10388C003D207B681A687B6804331946104600F0AB
:10389C0067FC7B68012283F846207B68012283F851
:1038AC003E207B68012283F83F207B68012283F84D
:1038BC0040207B68012283F841207B68012283F839
:1038CC0042207B68012283F843207B68012283F825
:1038DC0044207B68012283F845207B68012283F811
:1038EC003D20002318460837BD4680BD80B483B008
:1038FC0000AF786000BF0C37BD4680BC704700003D
:10390C0080B584B000AF786039603B68002B09D17A
:10391C007B6893F83E30DBB2012B14BF01230023EC
:10392C00DBB222E03B68042B09D17B6893F83F3073
:10393C00DBB2012B14BF01230023DBB215E03B6883
:10394C00082B09D17B6893F84030DBB2012B14BFF4
:10395C0001230023DBB208E07B6893F84130DBB233
:10396C00012B14BF01230023DBB2002B01D0012358
:10397C005EE03B68002B04D17B68022283F83E207A
:10398C0013E03B68042B04D17B68022283F83F20B0
:10399C000BE03B68082B04D17B68022283F84020A3
:1039AC0003E07B68022283F841207B681B680122BC
:1039BC003968184600F060FE7B681B681E4A93420B
:1039CC0007D17B681B685A6C7B681B6842F4004209
:1039DC005A647B681B68184A93420ED07B681B683C
:1039EC00B3F1804F09D07B681B68144A934204D012
:1039FC007B681B68124A934211D17B681B689B68D9
:103A0C0003F00703FB60FB68062B10D07B681B6878
:103A1C001A687B681B6842F001021A6007E07B6839
:103A2C001B681A687B681B6842F001021A6000234D
:103A3C0018461037BD4680BD002C014000040040E4
:103A4C000008004080B584B000AF78603960002376
:103A5C00FB733B68002B09D17B6893F83E30DBB2DB
:103A6C00012B14BF01230023DBB222E03B68042BA3
:103A7C0009D17B6893F83F30DBB2012B14BF0123D3
:103A8C000023DBB215E03B68082B09D17B6893F867
:103A9C004030DBB2012B14BF01230023DBB208E062
:103AAC007B6893F84130DBB2012B14BF0123002358
:103ABC00DBB2002B01D00123A9E03B68002B04D121
:103ACC007B68022283F83E2013E03B68042B04D170
:103ADC007B68022283F83F200BE03B68082B04D163
:103AEC007B68022283F8402003E07B68022283F883
:103AFC0041203B680C2B41D801A252F823F000BFA7
:103B0C00413B0008893B0008893B0008893B0008C1
:103B1C00533B0008893B0008893B0008893B00089F
:103B2C00653B0008893B0008893B0008893B00087D
:103B3C00773B00087B681B68DA687B681B6842F07F
:103B4C000202DA601DE07B681B68DA687B681B6820
:103B5C0042F00402DA6014E07B681B68DA687B6868
:103B6C001B6842F00802DA600BE07B681B68DA68BD
:103B7C007B681B6842F01002DA6002E00123FB73E1
:103B8C0000BFFB7B002B41D17B681B68012239688D
:103B9C00184600F071FD7B681B681F4A934207D1E1
:103BAC007B681B685A6C7B681B6842F400425A6441
:103BBC007B681B68184A93420ED07B681B68B3F174
:103BCC00804F09D07B681B68144A934204D07B68F1
:103BDC001B68134A934211D17B681B689B6803F0E6
:103BEC000703BB60BB68062B10D07B681B681A6888
:103BFC007B681B6842F001021A6007E07B681B6857
:103C0C001A687B681B6842F001021A60FB7B18463D
:103C1C001037BD4680BD00BF002C014000040040A1
:103C2C000008004080B584B000AF78607B681B68EA
:103C3C00DB68FB607B681B681B69BB60BB6803F0BF
:103C4C000203002B20D0FB6803F00203002B1BD0D7
:103C5C007B681B686FF002021A617B6801221A777D
:103C6C007B681B689B6903F00303002B03D0786807
:103C7C0000F063FA05E0786800F056FA7868FDF712
:103C8C0021FB7B6800221A77BB6803F00403002B2E
:103C9C0020D0FB6803F00403002B1BD07B681B684F
:103CAC006FF004021A617B6802221A777B681B682A
:103CBC009B6903F44073002B03D0786800F03DFA45
:103CCC0005E0786800F030FA7868FDF7FBFA7B685D
:103CDC0000221A77BB6803F00803002B20D0FB6886
:103CEC0003F00803002B1BD07B681B686FF00802E5
:103CFC001A617B6804221A777B681B68DB6903F006
:103D0C000303002B03D0786800F017FA05E07868FD
:103D1C0000F00AFA7868FDF7D5FA7B6800221A776A
:103D2C00BB6803F01003002B20D0FB6803F01003DA
:103D3C00002B1BD07B681B686FF010021A617B682C
:103D4C0008221A777B681B68DB6903F44073002B2D
:103D5C0003D0786800F0F1F905E0786800F0E4F938
:103D6C007868FDF7AFFA7B6800221A77BB6803F01E
:103D7C000103002B0CD0FB6803F00103002B07D0D0
:103D8C007B681B686FF001021A61786800F0C3F958
:103D9C00BB6803F08003002B0CD0FB6803F080039E
:103DAC00002B07D07B681B686FF080021A61786863
:103DBC0000F03EFDBB6803F04003002B0CD0FB6809
:103DCC0003F04003002B07D07B681B686FF04002A8
:103DDC001A61786800F0BAF9BB6803F02003002B75
:103DEC000CD0FB6803F02003002B07D07B681B680A
:103DFC006FF020021A61786800F011FD00BF1037D7
:103E0C00BD4680BD80B586B000AFF860B9607A6001
:103E1C000023FB75FB6893F83C30012B01D1022386
:103E2C00AEE0FB68012283F83C207B680C2B00F28F
:103E3C009F8001A252F823F0793E00087D3F0008D4
:103E4C007D3F00087D3F0008B93E00087D3F00081B
:103E5C007D3F00087D3F0008FB3E00087D3F0008C9
:103E6C007D3F00087D3F00083B3F0008FB681B6856
:103E7C00B968184600F0E2F9FB681B689A69FB68A0
:103E8C001B6842F008029A61FB681B689A69FB6820
:103E9C001B6822F004029A61FB681B689969BB6875
:103EAC001A69FB681B680A439A6164E0FB681B682B
:103EBC00B968184600F028FAFB681B689A69FB6819
:103ECC001B6842F400629A61FB681B689A69FB6884
:103EDC001B6822F480629A61FB681B689969BB6855
:103EEC001B691A02FB681B680A439A6143E0FB6872
:103EFC001B68B968184600F071FAFB681B68DA6930
:103F0C00FB681B6842F00802DA61FB681B68DA691F
:103F1C00FB681B6822F00402DA61FB681B68D96934
:103F2C00BB681A69FB681B680A43DA6123E0FB680B
:103F3C001B68B968184600F0BBFAFB681B68DA69A5
:103F4C00FB681B6842F40062DA61FB681B68DA6983
:103F5C00FB681B6822F48062DA61FB681B68D96914
:103F6C00BB681B691A02FB681B680A43DA6102E032
:103F7C000123FB7500BFFB68002283F83C20FB7D0E
:103F8C0018461837BD4680BD80B584B000AF786048
:103F9C0039600023FB737B6893F83C30012B01D113
:103FAC000223B4E07B68012283F83C207B68022268
:103FBC0083F83D207B681B689B68BB60BB6823F063
:103FCC007703BB60BB6823F47F43BB607B681B68D3
:103FDC00BA689A603B681B68B3F5005F3ED0B3F5D6
:103FEC00005F00F28780B3F5805F00F08680B3F548
:103FFC00805F7FD8702B1AD0702B7BD8602B50D061
:10400C00602B77D8502B3CD0502B73D8402B58D0EA
:10401C00402B6FD8302B64D0302B6BD8202B60D03A
:10402C00202B67D8002B5CD0102B5AD062E07B6819
:10403C0018683B6899683B685A683B68DB6800F015
:10404C00FCFA7B681B689B68BB60BB6843F077031A
:10405C00BB607B681B68BA689A604FE07B68186825
:10406C003B6899683B685A683B68DB6800F0E5FA86
:10407C007B681B689A687B681B6842F480429A6074
:10408C003CE07B6818683B6859683B68DB681A46FB
:10409C0000F05CFA7B681B685021184600F0B3FAFC
:1040AC002CE07B6818683B6859683B68DB681A46EB
:1040BC0000F07AFA7B681B686021184600F0A3FABE
:1040CC001CE07B6818683B6859683B68DB681A46DB
:1040DC0000F03CFA7B681B684021184600F093FA0C
:1040EC000CE07B681A683B681B681946104600F0A8
:1040FC008AFA03E00123FB7300E000BF7B68012216
:10410C0083F83D207B68002283F83C20FB7B18461B
:10411C001037BD4680BD80B483B000AF786000BF5F
:10412C000C37BD4680BC704780B483B000AF78605C
:10413C0000BF0C37BD4680BC704780B483B000AF65
:10414C00786000BF0C37BD4680BC704780B483B02C
:10415C0000AF786000BF0C37BD4680BC70470000D4
:10416C0080B485B000AF786039607B681B68FB60F9
:10417C007B682F4A93420BD07B68B3F1804F07D0FA
:10418C007B682C4A934203D07B682B4A934208D11C
:10419C00FB6823F07003FB603B685B68FA681343B1
:1041AC00FB607B68224A93420BD07B68B3F1804F53
:1041BC0007D07B681F4A934203D07B681E4A934208
:1041CC0008D1FB6823F44073FB603B68DB68FA683A
:1041DC001343FB60FB6823F080023B685B6913436D
:1041EC00FB607B68FA681A603B689A687B68DA62E5
:1041FC003B681A687B689A627B680D4A934203D1CC
:10420C003B681A697B681A637B6801225A617B6878
:10421C001B6903F00103002B05D07B681B6923F09D
:10422C0001027B681A6100BF1437BD4680BC704721
:10423C00002C0140000400400008004080B487B00E
:10424C0000AF786039607B681B6A7B617B681B6A96
:10425C0023F001027B681A627B685B683B617B68B8
:10426C009B69FB60FB6823F07003FB60FB6823F029
:10427C000303FB603B681B68FA681343FB607B69B4
:10428C0023F002037B613B689B687A6913437B6173
:10429C007B681C4A93420CD17B6923F008037B6139
:1042AC003B68DB687A6913437B617B6923F0040309
:1042BC007B617B68134A934211D13B6923F4807371
:1042CC003B613B6923F400733B613B685B693A6972
:1042DC0013433B613B689B693A6913433B617B68C1
:1042EC003A695A607B68FA689A613B685A687B68DD
:1042FC005A637B687A691A6200BF1C37BD4680BC62
:10430C00704700BF002C014080B487B000AF7860CC
:10431C0039607B681B6A7B617B681B6A23F0100227
:10432C007B681A627B685B683B617B689B69FB609E
:10433C00FB6823F4E043FB60FB6823F44073FB60F1
:10434C003B681B681B02FA681343FB607B6923F014
:10435C0020037B613B689B681B017A6913437B617B
:10436C007B681D4A93420DD17B6923F080037B61EE
:10437C003B68DB681B017A6913437B617B6923F023
:10438C0040037B617B68144A934213D13B6923F44D
:10439C0080633B613B6923F400633B613B685B6971
:1043AC009B003A6913433B613B689B699B003A69EC
:1043BC0013433B617B683A695A607B68FA689A617F
:1043CC003B685A687B689A637B687A691A6200BF9B
:1043DC001C37BD4680BC7047002C014080B487B0B0
:1043EC0000AF786039607B681B6A7B617B681B6AF5
:1043FC0023F480727B681A627B685B683B617B6824
:10440C00DB69FB60FB6823F07003FB60FB6823F047
:10441C000303FB603B681B68FA681343FB607B6912
:10442C0023F400737B613B689B681B027A6913431E
:10443C007B617B681D4A93420DD17B6923F4006339
:10444C007B613B68DB681B027A6913437B617B6988
:10445C0023F480637B617B68144A934213D13B69DC
:10446C0023F480533B613B6923F400533B613B686D
:10447C005B691B013A6913433B613B689B691B01F8
:10448C003A6913433B617B683A695A607B68FA6806
:10449C00DA613B685A687B68DA637B687A691A620E
:1044AC0000BF1C37BD4680BC704700BF002C0140CC
:1044BC0080B487B000AF786039607B681B6A3B6161
:1044CC007B681B6A23F480527B681A627B685B688A
:1044DC007B617B68DB69FB60FB6823F4E043FB607A
:1044EC00FB6823F44073FB603B681B681B02FA6893
:1044FC001343FB603B6923F400533B613B689B68AF
:10450C001B033A6913433B617B680F4A934209D101
:10451C007B6923F480437B613B685B699B017A690F
:10452C0013437B617B687A695A607B68FA68DA614D
:10453C003B685A687B681A647B683A691A6200BFE8
:10454C001C37BD4680BC7047002C014080B487B03E
:10455C0000AFF860B9607A60FB681B6A7B61FB682E
:10456C001B6A23F00102FB681A62FB689B693B61C2
:10457C003B6923F0F0033B617B681B013A691343F1
:10458C003B617B6923F00A037B617A69BB68134347
:10459C007B61FB683A699A61FB687A691A6200BFB1
:1045AC001C37BD4680BC704780B487B000AFF86044
:1045BC00B9607A60FB681B6A7B61FB681B6A23F03D
:1045CC001002FB681A62FB689B693B613B6923F430
:1045DC0070433B617B681B033A6913433B617B6906
:1045EC0023F0A0037B61BB681B017A6913437B61D9
:1045FC00FB683A699A61FB687A691A6200BF1C37DA
:10460C00BD4680BC704780B485B000AF786039601F
:10461C007B689B68FB60FB6823F07003FB603A6867
:10462C00FB68134343F00703FB607B68FA689A60EE
:10463C0000BF1437BD4680BC704780B487B000AF54
:10464C00F860B9607A603B60FB689B687B617B6952
:10465C0023F47F437B613B681A027B681A43BB6877
:10466C0013437A6913437B61FB687A699A6000BFD4
:10467C001C37BD4680BC704780B487B000AFF86073
:10468C00B9607A60BB6803F01F03012202FA03F3DE
:10469C007B61FB681A6A7B69DB431A40FB681A6210
:1046AC00FB681A6ABB6803F01F03796801FA03F30D
:1046BC001A43FB681A6200BF1C37BD4680BC7047AA
:1046CC0080B485B000AF786039607B6893F83C307B
:1046DC00012B01D1022346E07B68012283F83C20A8
:1046EC007B68022283F83D207B681B685B68FB605B
:1046FC007B681B689B68BB60FB6823F07003FB60E6
:10470C003B681B68FA681343FB607B681B68FA689C
:10471C005A607B681B68164A93420ED07B681B68F4
:10472C00B3F1804F09D07B681B68124A934204D0C6
:10473C007B681B68104A93420CD1BB6823F0800342
:10474C00BB603B685B68BA681343BB607B681B68E3
:10475C00BA689A607B68012283F83D207B6800224E
:10476C0083F83C20002318461437BD4680BC7047A4
:10477C00002C0140000400400008004080B485B0CB
:10478C0000AF786039600023FB607B6893F83C30A5
:10479C00012B01D102233DE07B68012283F83C20F0
:1047AC00FB6823F0FF023B68DB681343FB60FB688C
:1047BC0023F440723B689B681343FB60FB6823F453
:1047CC0080623B685B681343FB60FB6823F4006208
:1047DC003B681B681343FB60FB6823F480523B6807
:1047EC001B691343FB60FB6823F400523B685B6955
:1047FC001343FB60FB6823F480423B68DB69134383
:10480C00FB607B681B68FA685A647B68002283F83B
:10481C003C20002318461437BD4680BC704780B43A
:10482C0083B000AF786000BF0C37BD4680BC7047CA
:10483C0080B483B000AF786000BF0C37BD4680BC3D
:10484C00704780B400AF00BFBD4680BC704700000D
:10485C0080B586B004AF0346FB714FF0FF33029373
:10486C0001230193FB1D00930123002278210348AF
:10487C00FEF73AF800BF0837BD4680BD9400002013
:10488C0080B586B004AF786039603B689BB24FF05E
:10489C00FF32029201937B6800930123402278211E
:1048AC000348FEF721F800BF0837BD4680BD00BFA6
:1048BC009400002080B500AFFFF7C3FF6420FDF724
:1048CC00C7FB002000F07EFA2020FFF7C1FF00207C
:1048DC00FFF7BEFFB020FFF7BBFFC820FFF7B8FF04
:1048EC000020FFF7B5FF1020FFF7B2FF4020FFF7C5
:1048FC00AFFFFF2000F053FAA120FFF7A9FFA6207D
:10490C00FFF7A6FFA820FFF7A3FF3F20FFF7A0FFAC
:10491C00A420FFF79DFFD320FFF79AFF0020FFF79D
:10492C0097FFD520FFF794FFF020FFF791FFD920D8
:10493C00FFF78EFF2220FFF78BFFDA20FFF788FFAF
:10494C001220FFF785FFDB20FFF782FF2020FFF707
:10495C007FFF8D20FFF77CFF1420FFF779FF0120EC
:10496C0000F030FA002000F00FF800F025F8054BAD
:10497C0000221A80034B00225A80024B01221A712A
:10498C0000BF80BDE406002080B582B000AF0346B6
:10499C00FB71FB79002B01D1002300E0FF234FF4C6
:1049AC0080621946034800F07BFA00BF0837BD4609
:1049BC0080BD00BFE402002080B582B000AF0023B0
:1049CC00FB7116E0FB79503BDBB21846FFF740FF5A
:1049DC000020FFF73DFF1020FFF73AFFFB79DB01CA
:1049EC00084A134480211846FFF74AFFFB7901332C
:1049FC00FB71FB79072BE5D900BF00BF0837BD461B
:104A0C0080BD00BFE402002080B483B000AF034639
:104A1C00FB710B46BB7113467B7197F90730002B6A
:104A2C003DDBBB793F2B3AD87B79012B1AD1FA7934
:104A3C00BB79DB08D8B20346DB0113441A4AD35CBA
:104A4C005AB2BB7903F00703012101FA03F35BB2FD
:104A5C00134359B2FA790346DB011344C9B2124A23
:104A6C00D1541DE0FA79BB79DB08D8B20346DB01DF
:104A7C0013440D4AD35C5AB2BB7903F007030121EE
:104A8C0001FA03F35BB2DB435BB2134059B2FA7920
:104A9C000346DB011344C9B2034AD15400E000BF02
:104AAC000C37BD4680BC7047E402002090B589B03D
:104ABC0000AF0446384680E80E002346FB73FB7BB0
:104ACC001F2B02D9FB7B7E2B01D9002379E0BB681D
:104ADC00002B05D0BA68FB7B203B13441B7800E00D
:104AEC003B78FB75394B1B881A46FB7D1344802B96
:104AFC0006DC364B5B881A467B781344402B01DD71
:104B0C0000235EE00023FB614DE07A68FB7B203BD9
:104B1C00797801FB03F31946FB690B445B001344E2
:104B2C001B883B610023BB6136E03A69BB6902FA22
:104B3C0003F303F40043002B13D0244B1B88DAB28D
:104B4C00BB69DBB21344D8B2204B5B88DAB2FB6989
:104B5C00DBB21344DBB297F830201946FFF754FF51
:104B6C0017E01A4B1B88DAB2BB69DBB21344D8B21C
:104B7C00164B5B88DAB2FB69DBB21344D9B297F8F7
:104B8C003030002B0CBF01230023DBB21A46FFF799
:104B9C003BFFBB690133BB61FB7DBA699A42C4D34D
:104BAC00FB690133FB617B781A46FB699342ACD3FA
:104BBC00064B1A88FB7D9BB213449AB2034B1A80A6
:104BCC00FB7B18462437BD4690BD00BFE406002091
:104BDC0080B586B002AFF860384680E80E0013E06E
:104BEC00FB6818783B7E00933B460ECBFFF75EFFCD
:104BFC0003461A46FB681B789A4202D0FB681B7866
:104C0C0008E0FB680133FB60FB681B78002BE7D1E5
:104C1C00FB681B7818461037BD4680BD80B483B046
:104C2C0000AF03460A46FB711346BB71FB799AB27F
:104C3C00054B1A80BB799AB2034B5A8000BF0C37D4
:104C4C00BD4680BC704700BFE406002090B585B01F
:104C5C0000AF0446084611461A462346FB7103462C
:104C6C00BB710B467B7113463B71FA797B7993428E
:104C7C0028BF13467B737A79FB79934238BF13466E
:104C8C003B73BA793B79934228BF1346FB723A794E
:104C9C00BB79934238BF1346BB72FB7AFB7317E0A8
:104CAC007B7BBB7309E097F82020F97BBB7B184614
:104CBC00FFF7AAFEBB7B0133BB73BA7B3B7B9A42EB
:104CCC0003D897F90E30002BEDDAFB7B0133FB7325
:104CDC00FA7BBB7A9A4203D8FB7B3F2BE0D900BF0F
:104CEC0000BF1437BD4690BD80B584B000AF3A60AC
:104CFC001A460346FB710B46BB7113467B717B79DD
:104D0C000733002B00DA0733DB107B810023FB73A6
:104D1C0097F90730002B3EDBBB793F2B3BD80023A8
:104D2C00BB7333E000237B7326E07B7B03F007032C
:104D3C00002B03D0FB7B5B00FB730DE0BB7BB7F957
:104D4C000A2002FB03F37A7BD208D2B213441A4630
:104D5C003B6813441B78FB7397F90F30002B08DA70
:104D6C00FA797B7B1344DBB23A7FB9791846FFF7AB
:104D7C004BFE7B7B01337B737A7B7B799A42D4D35A
:104D8C00BB7B0133BB73BB790133BB71BA7B3B7EFD
:104D9C009A42C7D300E000BF1037BD4680BD80B536
:104DAC0084B000AF0346FB718123FB73FB7B184679
:104DBC00FFF74EFDFB791846FFF74AFD00BF103791
:104DCC00BD4680BD80B584B000AF0346FB71FB7956
:104DDC00002B05D0AF23FB73084B01225A7104E062
:104DEC00AE23FB73054B00225A71FB7B1846FFF771
:104DFC002FFD00BF1037BD4680BD00BFE40600206C
:104E0C000CB430B5184B0C1E1D689DB008DA8B2302
:104E1C004FF0FF302B601DB0BDE8304002B0704742
:104E2C004FF40273ADF814304FF000031B930CBF1A
:104E3C00234604F1FF33049307934FF6FF7302905C
:104E4C000690ADF81630284621AB209A02A90193A2
:104E5C0000F0BAF9431CBCBF8B232B60002CDAD0BA
:104E6C000022029B1A70D6E728000020884210B559
:104E7C0001EB020402D98442234607D8431EA14207
:104E8C0008D011F8012B03F8012FF8E70146024472
:104E9C008A4200D110BD13F8014D02F8014DF7E71D
:104EAC0003460244934200D1704703F8011BF9E713
:104EBC00014B1868704700BF2800002070B5002611
:104ECC000C4D0D4C641BA410A64209D100F0E6FC5D
:104EDC0000260A4D0A4C641BA410A64205D170BDD5
:104EEC0055F8043B98470136EEE755F8043B9847D4
:104EFC000136F2E7B4780008B4780008B4780008FA
:104F0C00B8780008704770470A44914200F1FF33AB
:104F1C0000D1704710B511F8014B914203F8014FC5
:104F2C00F9D110BD38B50546002940D051F8043CE4
:104F3C000C1F002BB8BFE41800F0DEF81C4A1368F5
:104F4C0033B9636014602846BDE8384000F0DAB825
:104F5C00A34208D9206821188B4201BF19685B68ED
:104F6C0009182160EDE71A465B680BB1A342FAD928
:104F7C0011685018A0420BD120680144501883428C
:104F8C001160E0D118685B68084410605360DAE780
:104F9C0002D90C232B60D6E7206821188B4201BF65
:104FAC0019685B680918216063605460CBE738BDF1
:104FBC003008002070B50F4E0C463168054611B90B
:104FCC0000F08EFB30602146284600F089FB431C24
:104FDC0003D14FF0FF34204670BDC41C24F00304F1
:104FEC00A042F8D0211A284600F07AFB0130F2D109
:104FFC00EFE700BF2C0800202DE9F843CD1C25F06D
:10500C00030508350C2D38BF0C25002D064601DB99
:10501C00A94204D90C2333600020BDE8F883DFF8E3
:10502C00D48000F069F8D8F800301C4644BB2946FF
:10503C003046FFF7BFFF431C044658D1D8F8004058
:10504C002746002F43D1002C4BD0236839463046DD
:10505C0004EB030900F044FB814542D12168304642
:10506C006D1A2946FFF7A6FF01303AD023682B446E
:10507C002360D8F800305A6862BBC8F800700FE0A3
:10508C002268521B20D40B2A17D96119A342256020
:10509C0018BF5960636808BFC8F8001062514B60B4
:1050AC00304600F02FF804F10B00231D20F0070010
:1050BC00C21A1CBF1B1AA350AFE76268A3420CBFF5
:1050CC00C8F800205A60EBE723466468AEE73C461C
:1050DC007F68B6E71A465B68A342FBD10023536096
:1050EC00DEE70C233046336000F00CF894E70560E3
:1050FC00D6E700BF300800200148FFF703BF00BF10
:10510C00280800200148FFF7FEBE00BF2808002039
:10511C002DE9F0471F468E688246BE420C469046EB
:10512C000B682DD8B1F90C2012F4906F26D065695C
:10513C00096905EB4505A3EB010905EBD5757B1C4E
:10514C004B446D109D4238BF1D46530527D529464B
:10515C00FFF752FF064660B34A462169FFF7D4FEBB
:10516C00A38923F4906343F08003A38126614E440A
:10517C0026603E466561A5EB0905A560BE4200D9D7
:10518C003E46324641462068FFF770FE0020A36879
:10519C009B1BA360236833442360BDE8F0872A4639
:1051AC0000F0BCFA06460028E0D150462169FFF712
:1051BC00B9FE0C23CAF80030A3894FF0FF3043F03E
:1051CC004003A381E9E700002DE9F04F98468B8955
:1051DC0007461B060D4614469DB010D50B6973B9D6
:1051EC004021FFF709FF2860286130B90C233B6090
:1051FC004FF0FF301DB0BDE8F08F40236B610023F2
:10520C00099320238DF8293030234FF00109CDF874
:10521C000C80DFF898818DF82A3023469A4613F8D3
:10522C00012B0AB1252AF9D1BAEB040B0BD05B4642
:10523C00224629463846FFF76BFF013000F0A78065
:10524C00099A5A4409929AF80030002B00F09F807A
:10525C0000234FF0FF32CDE905230AF1010A049334
:10526C0007938DF853301A935446052214F8011BFA
:10527C004E4800F045FA049AD8B9D00644BF202312
:10528C008DF85330110744BF2B238DF853309AF807
:10529C0000302A2B15D0544600204FF00A0C079AE8
:1052AC00214611F8013B303B092B4BD9B0B1079289
:1052BC0014E0A0EB080309FA03F31343A24604938A
:1052CC00D2E7039B191D1B680391002BBBBF5B42EC
:1052DC0042F0020207930793B8BF049223782E2B57
:1052EC000AD163782A2B32D1039B02341A1D1B6816
:1052FC00039243EAE3730593DFF8B4A0032250460C
:10530C00217800F0FDF938B14022049BA0EB0A0093
:10531C00824013430134049314F8011B06222548E0
:10532C008DF8281000F0ECF9002836D0224B1BBB6E
:10533C00039B073323F0070308330393099B334480
:10534C0009936AE70C4601200CFB0232A8E7002304
:10535C004FF00A0C194601340593204610F8012B26
:10536C00303A092A03D9002BC6D00591C4E704466C
:10537C0001230CFB0121F0E703AB00932A463846CE
:10538C000E4B04A9AFF30080421C0646D6D1AB8964
:10539C005B063FF52DAF09982CE703AB00932A462B
:1053AC003846064B04A900F07DF8EDE77878000844
:1053BC007E78000882780008000000001D5100086B
:1053CC002DE9F047164698468A680B6907469342C2
:1053DC00B8BF1346336091F843200C46DDF820909B
:1053EC000AB1013333602368990642BF3368023334
:1053FC003360256815F0060506D104F1190AE36837
:10540C0032689B1AAB422BDC94F843302268003B89
:10541C0018BF0123920630D44146384604F14302AA
:10542C00C847013023D02368226903F00603042BFC
:10543C0014BF002533684FF0000608BFE56804F17F
:10544C001A0408BFED1A54F8123C08BF25EAE5759A
:10545C009342C4BF9B1AED18B5421AD1002008E044
:10546C000123524641463846C847013003D14FF01C
:10547C00FF30BDE8F0870135C1E73020E11881F835
:10548C0043005A1C94F845102244023382F843100E
:10549C00C2E70123224641463846C8470130E6D0D0
:1054AC000136D9E72DE9FF470F7E9146782F8046CC
:1054BC000C469A460C9E01F1430207D8622F0AD87B
:1054CC00002F00F0D180582F00F0B88004F1420674
:1054DC0084F842703AE0A7F16303152BF6D801A1CA
:1054EC0051F823F0495500085D550008D9540008BF
:1054FC00D9540008D9540008D95400085D55000847
:10550C00D9540008D9540008D9540008D9540008BB
:10551C005B5600088755000815560008D95400083A
:10552C00D95400087D560008D95400088755000846
:10553C00D9540008D95400081D56000833681A1DA8
:10554C001B68326004F1420684F8423001239CE06F
:10555C0033682068191D3160060601D51D6803E00B
:10556C004506FBD5B3F90050002D03DA2D236D420F
:10557C0084F843300A23584811E021683368080640
:10558C0053F8045B02D4490648BFADB26F2F3360A9
:10559C0014BF0A2308235048002184F8431066687E
:1055AC00002EA66005DB21682E4321F0040121604A
:1055BC004BD01646B5FBF3F103FB1157C75D06F84C
:1055CC00017D2F46BB420D46F4D9082B0BD1236825
:1055DC00DF0708D5236961689942DEBF302306F8DE
:1055EC00013C06F1FF36921B22614B462146404698
:1055FC00CDF800A003AAFFF7E3FE01304AD14FF02B
:10560C00FF3004B0BDE8F087236843F0200323602B
:10561C007827324884F84570236831681F0651F8A2
:10562C00045B02D45F0648BFADB23160D90744BFFA
:10563C0043F0200323601DB11023ADE72648E9E7B2
:10564C00236823F020032360F6E71646BDE7336892
:10565C002568181D616930602E061B6801D519601C
:10566C0002E06806FBD51980002316462361BCE7CF
:10567C00336800211A1D32601E686268304600F0E3
:10568C003FF808B1801B606063682361002384F8D5
:10569C004330AAE73246494640462369D047013099
:1056AC00ADD023689B0713D4E068039B9842B8BF26
:1056BC001846A6E70123324649464046D0470130FA
:1056CC009DD00135E36803995B1AAB42F2DCEBE742
:1056DC00002504F11906F5E7897800089A78000886
:1056EC0038B50023054D044608462B60FCF77EF9BF
:1056FC00431C02D12B6803B1236038BD2408002061
:10570C00034610B5C9B202449342184601D1002099
:10571C0003E0047801338C42F6D110BD2DE9F04141
:10572C00074614460D4621B91146BDE8F041FFF776
:10573C0063BC2AB9FFF7F6FB25462846BDE8F08185
:10574C0000F01AF88442064602D8B4EB500FF4D895
:10575C0021463846FFF750FC804608B94546ECE731
:10576C00B4422246294628BF3246FFF7CDFB2946D4
:10577C003846FFF7D7FBF1E751F8043C181F002B14
:10578C00BCBF0B58C018704738B5054600F016F86A
:10579C00294604462846FAF7A7FF68B9002128468F
:1057AC00FAF77AFF40B1FFF783FB21230021036056
:1057BC000846FAF787FE0446204638BD20F0004222
:1057CC00B2F1FF4F2DE9F041034604460AD30146DE
:1057DC00FAF7C4FD01462046FAF7B8FC0446204609
:1057EC00BDE8F081002AFAD0002806DA0146FAF763
:1057FC00ABFC0146FAF766FEF0E710F0FF413CD037
:10580C00C2150024192026464FF08071C3F31603ED
:10581C00A2F17F0543F40003D20758BF5B006D1063
:10582C005B0072189A42CFBF1A46561864189A1A1F
:10583C0001384FEA42034FEA5101F2D1BAB1154E89
:10584C00154F30683968FAF77FFCD6F800800146AE
:10585C004046FAF72BFF50B130683968FAF776FCFE
:10586C00366801463046FAF717FF70B102346410FF
:10587C0004F17C5404EBC554B1E75B0018020A46F2
:10588C0001F10101F9D55242BBE7013424F00104C6
:10589C00EDE700BFB0780008AC780008F8B500BFA1
:1058AC00F8BC08BC9E467047F8B500BFF8BC08BCF5
:0458BC009E4670474D
:1058C000202020504F534954494F4E494E472020E5
:1058D00020000000202043555454494E4720504199
:1058E000434B45542000000044495350454E534912
:1058F0004E4720434F464645450000002020414486
:1059000044494E4720574154455220202000000072
:1059100020202020204D4958494E4720202020207B
:10592000200000002020202046494E495348494E7F
:1059300047202020200000004361666665204D61FD
:105940006B6572004D656469756D00002A204272B6
:105950006577202F20232053657474696E670000DB
:1059600020536D616C6C0000204C61726765000013
:1059700042524557494E4700454E4A4F5920594FCC
:10598000555220434F464645450000005041434B89
:1059900045545300257500002A20456E7465722019
:1059A0002F2023206261636B00000000257520001A
:1059B000202575004C4F5720574154455200000098
:1059C00020524546494C4C205741544552205441A1
:1059D0004E4B2000504C41434520435550000000A1
:1059E000494E534552542043555020544F20535450
:1059F000415254004E4F20434F464645450000005B
:105A00004C4F414420434F46464545205041434B6F
:105A1000455453002300000000218C000000007357
:105A20009C00000000631C00000000E31800000060
:105A300000639C00000000738C0000000031CE0069
:105A400000000030C60000000031CE0000000071F0
:105A50008C00000000218C0000000000000000000D
:105A60000000000000003FFFFFFF00003FFFFFFFBE
:105A700000003FFFFFFF00003FFFFFFFFC003FFF74
:105A8000FFFFFF003FFFFFFFFF003FFFFFFF87809B
:105A90003FFFFFFF03803FFFFFFF03803FFFFFFF4C
:105AA00003803FFFFFFF03803FFFFFFF03803FFFB7
:105AB000FFFF07803FFFFFFF07003FFFFFFF0F00D3
:105AC0003FFFFFFF0E001FFFFFFF1E001FFFFFFF36
