:020000040800F2
:1000000000500020C1350008CD2F0008D52F000872
:10001000DD2F0008E52F0008ED2F0008000000008C
:1000200000000000000000000000000061800008E7
:10003000F52F000800000000418200080130000890
:100040000936000809360008093600080936000894
:100050000936000809360008093600080936000884
:10006000093600080936000845300008093600083E
:100070000936000809360008093600080936000864
:100080000936000809360008093600080936000854
:100090000936000809360008093600085330000800
:1000A0000936000809360008093600080936000834
:1000B0001D300008313000080936000809360008F4
:1000C0000936000809360008093600080936000814
:1000D0000936000809360008093600080936000804
:1000E000093600080936000809360008000000003B
:1000F0000000000000000000000000000000000000
:0C01000000000000000000005FF808F1A3
:1001100010B5054C237833B9044B13B10448AFF341
:1001200000800123237010BD90000020000000001B
:100130000492000808B5034B1BB103490348AFF311
:10014000008008BD00000000940000200492000818
:10015000034613F8012B002AFBD1181A0138704707
:1001600080F0004002E000BF81F0004142001FBF6C
:100170005FEA410392EA030F7FEA226C7FEA236C75
:100180006AD04FEA1262D2EB1363C1BFD21841406A
:1001900048404140B8BF5B42192B88BF704710F000
:1001A000004F40F4000020F07F4018BF404211F0A3
:1001B000004F41F4000121F07F4118BF494292EA0B
:1001C000030F3FD0A2F1010241FA03FC10EB0C0037
:1001D000C3F1200301FA03F100F0004302D54942C4
:1001E00060EB4000B0F5000F13D3B0F1807F06D371
:1001F00040084FEA310102F10102FE2A51D2B1F169
:10020000004F40EBC25008BF20F0010040EA03005D
:100210007047490040EB0000013A28BFB0F5000FDD
:10022000EDD2B0FA80FCACF1080CB2EB0C0200FA93
:100230000CF0AABF00EBC25052421843BCBFD040E2
:100240001843704792F0000F81F4000106BF80F45C
:1002500000000132013BB5E74FEA41037FEA226C1F
:1002600018BF7FEA236C21D092EA030F04D092F0EA
:10027000000F08BF0846704790EA010F1CBF00201E
:10028000704712F07F4F04D1400028BF40F000407B
:10029000704712F100723CBF00F50000704700F09B
:1002A000004343F0FE4040F4000070477FEA2262C2
:1002B00016BF08467FEA23630146420206BF5FEA93
:1002C000412390EA010F40F4800070474FF0000393
:1002D00004E000BF10F0004348BF40425FEA000C5A
:1002E00008BF704743F0964301464FF000001CE002
:1002F00050EA010208BF70474FF000030AE000BF58
:1003000050EA010208BF704711F0004302D5404295
:1003100061EB41015FEA010C02BF84460146002007
:1003200043F0B64308BFA3F18053A3F50003BCFA22
:100330008CF2083AA3EBC25310DB01FA02FC6344CF
:1003400000FA02FCC2F12002BCF1004F20FA02F2D6
:1003500043EB020008BF20F00100704702F12002C9
:1003600001FA02FCC2F1200250EA4C0021FA02F22A
:1003700043EB020008BF20EADC7070474FF0FF0C2F
:100380001CEAD0521EBF1CEAD15392EA0C0F93EA2A
:100390000C0F6FD01A4480EA010C400218BF5FEACC
:1003A00041211ED04FF0006343EA501043EA51113F
:1003B000A0FB01310CF00040B1F5000F3EBF490039
:1003C00041EAD3715B0040EA010062F17F02FD2A3D
:1003D0001DD8B3F1004F40EBC25008BF20F0010020
:1003E000704790F0000F0CF0004C08BF49024CEA37
:1003F000502040EA51207F3AC2BFD2F1FF0340EAC9
:10040000C250704740F400004FF00003013A5DDC39
:1004100012F1190FDCBF00F000407047C2F100027A
:10042000410021FA02F1C2F1200200FA02FC5FEA67
:10043000310040F1000053EA4C0308BF20EADC70B1
:10044000704792F0000F00F0004C02BF400010F423
:10045000000F013AF9D040EA0C0093F0000F01F0D0
:10046000004C02BF490011F4000F013BF9D041EAF2
:100470000C018FE70CEAD15392EA0C0F18BF93EAF4
:100480000C0F0AD030F0004C18BF31F0004CD8D11E
:1004900080EA010000F00040704790F0000F17BFA5
:1004A00090F0004F084691F0000F91F0004F14D0EB
:1004B00092EA0C0F01D142020FD193EA0C0F03D143
:1004C0004B0218BF084608D180EA010000F0004046
:1004D00040F0FE4040F40000704740F0FE4040F421
:1004E000400070474FF0FF0C1CEAD0521EBF1CEAC0
:1004F000D15392EA0C0F93EA0C0F69D0A2EB0302DE
:1005000080EA010C49024FEA402037D04FF0805377
:1005100043EA111143EA10130CF000408B4238BF3C
:100520005B0042F17D024FF4000C8B4224BF5B1A4A
:1005300040EA0C00B3EB510F24BFA3EB510340EA98
:100540005C00B3EB910F24BFA3EB910340EA9C0046
:10055000B3EBD10F24BFA3EBD10340EADC001B01B6
:1005600018BF5FEA1C1CE0D1FD2A3FF650AF8B425A
:1005700040EBC25008BF20F0010070470CF0004C67
:100580004CEA50207F32C2BFD2F1FF0340EAC25092
:10059000704740F400004FF00003013A37E792F053
:1005A000000F00F0004C02BF400010F4000F013AB1
:1005B000F9D040EA0C0093F0000F01F0004C02BFAC
:1005C000490011F4000F013BF9D041EA0C0195E715
:1005D0000CEAD15392EA0C0F08D142027FF47DAFAE
:1005E00093EA0C0F7FF470AF084676E793EA0C0F9E
:1005F00004D14B023FF44CAF08466EE730F0004C9C
:1006000018BF31F0004CCAD130F000427FF45CAF2B
:1006100031F000437FF43CAF5FE700BF4FF0FF3C99
:1006200006E000BF4FF0010C02E000BF4FF0010CEC
:100630004DF804CD4FEA40024FEA41037FEA226CB5
:1006400018BF7FEA236C11D001B052EA530C18BFD7
:1006500090EA010F58BFB2EB030088BFC81738BF3C
:100660006FEAE17018BF40F0010070477FEA226C2A
:1006700002D15FEA402C05D17FEA236CE4D15FEA26
:10068000412CE1D05DF8040B704700BF844608465A
:100690006146FFE70FB5FFF7C9FF002848BF10F11B
:1006A000000F0FBD4DF808EDFFF7F4FF0CBF012060
:1006B00000205DF808FB00BF4DF808EDFFF7EAFFEA
:1006C00034BF012000205DF808FB00BF4DF808EDA5
:1006D000FFF7E0FF94BF012000205DF808FB00BF9A
:1006E0004DF808EDFFF7D2FF94BF012000205DF820
:1006F00008FB00BF4DF808EDFFF7C8FF34BF01202D
:1007000000205DF808FB00BF4FEA40024FEA4103BA
:100710007FEA226C02D15FEA402C08D17FEA236C89
:1007200002D15FEA412C02D14FF0000070474FF038
:100730000100704742000ED2B2F1FE4F0BD34FF0D2
:100740009E03B3EB126209D44FEA002343F0004347
:1007500023FA02F070474FF00000704712F1610F6A
:1007600001D1420202D14FF0FF3070474FF000003C
:10077000704700BF80B483B000AF0346FB71FB79C4
:10078000002B02D0012B02D003E0054B02E0054B09
:1007900000E0054B18460C37BD4680BC704700BFD3
:1007A00020970008A89700083098000880B483B00C
:1007B00000AF03460A46FB711346BB71BB793F2B62
:1007C00001D900230FE0FA79BB791344402B03D9F8
:1007D000BB79C3F14003FB71BA79FB791344DBB2F7
:1007E000C3F14003DBB218460C37BD4680BC7047EE
:1007F00090B587B002AF0446084611461A46234614
:10080000FB710346BB710B467B7113463B71BB7991
:100810001B211846FFF7CAFF0346FB737B79184676
:10082000FFF7A8FF0246F97BF87997F8203001938B
:1008300000921B23282201F041FE3B7983F0010343
:10084000DBB2002B1ED1BB790D2B03D9BB790D3B3D
:10085000DBB200E00023BB73FB790B337B73BB7B04
:100860000C211846FFF7A2FF03463B73397B787BC8
:1008700097F820300193054B00930C23122201F0CE
:100880001DFE00E000BF1437BD4690BDB8980008BB
:1008900080B586B002AF03460A46FB711346BB71B2
:1008A0002123FB730123BB73BB7B3E211846FFF75B
:1008B0007DFF03467B7301F0B5FD797BF87BFB7907
:1008C0000193074B00933E233E2201F0F7FDBB79D5
:1008D000002B01D001F0B4FF00BF1037BD4680BD32
:1008E0003095000880B582B000AF78607B681B68E7
:1008F000B3F1804F02D1074802F012FB7B681B68FE
:10090000054A934202D1054802F00AFB00BF0837AE
:10091000BD4680BDAC000020000400401001002056
:1009200080B584B000AF0346FB80FB88184600F01A
:10093000D2F90346FB73FB7B032B12D802F0BEFEF9
:10094000B860FB7B094A52F82330BA68D31A1D2BD2
:1009500007D9FB7B0549BA6841F82320044AFB7B91
:10096000137000BF1037BD4680BD00BF7C01002062
:100970000000002080B485B000AFF860B9607A60F4
:10098000FB68064A1A60BB68054A1A607B688022C9
:100990001A6000BF1437BD4680BC7047C4010020F8
:1009A00018020020B0B5A2B000AF0023C7F8803015
:1009B0000023C7F8843007F180030121184605F0B1
:1009C000D1FA0346344A13600023BB670023FB6758
:1009D00007F178030121184605F0C4FA03462F4AAF
:1009E000136000233B6700237B6707F1700301213D
:1009F000184605F0B7FA0346294A1360294B07F158
:100A000054041D460FCD0FC495E8070084E8070085
:100A100007F154030021184605F044FA0346224A20
:100A20001360224B07F138041D460FCD0FC495E823
:100A3000070084E8070007F138030021184605F095
:100A400031FA03461A4A13601A4B07F11C041D467B
:100A50000FCD0FC495E8070084E8070007F11C03D9
:100A60000021184605F01EFA0346134A1360134B83
:100A70003C461D460FCD0FC495E8070084E80700EB
:100A80003B460021184605F00DFA03460C4A136058
:100A900000BF8837BD46B0BDB8010020BC010020B2
:100AA000C0010020A0920008A8010020C492000804
:100AB000AC010020E8920008B0010020109300086B
:100AC000B401002080B584B000AF03463960FB71EB
:100AD000FB79072B09D8FB79C3F10703FB73FB7B79
:100AE0003968184601F028FE00E000BF1037BD4607
:100AF00080BD80B584B000AF7860396015222021B8
:100B0000786807F067FE7B68153300221A703B682F
:100B1000002B16D03868FFF71BFBF860FB68152B1D
:100B200001D91523FB60FB68C3F115035B08BB60AB
:100B30007A68BB681344FA683968184607F07EFE85
:100B400000E000BF1037BD4680BD80B588B000AF63
:100B500003463960FB7107F1080339681846FFF74F
:100B6000C8FF07F10802FB7911461846FFF7AAFFF4
:100B700000BF2037BD4680BD80B584B000AF0346BE
:100B8000FB710B46BB7113467B71BB790121184683
:100B9000FFF70CFE0346FB737A79F97BFB79184665
:100BA00001F04CFC00BF1037BD4680BD90B585B04C
:100BB00000AF0446084611461A462346FB71034619
:100BC000BB710B467B7113463B717B79002B49D07F
:100BD0003B79002B46D00023FB731BE0FA79FB7BAB
:100BE0001344DBB297F82020B9791846FFF7C4FF09
:100BF000FA79FB7B1344D8B2BA793B791344DBB260
:100C0000013BDBB297F820201946FFF7B5FFFB7BCD
:100C10000133FB73FA7B7B799A42DFD30023FB73AA
:100C20001BE0BA79FB7B1344D9B297F82020FB79FB
:100C30001846FFF7A1FFFA797B791344DBB2013B39
:100C4000D8B2BA79FB7B1344DBB297F8202019465F
:100C5000FFF792FFFB7B0133FB73FA7B3B799A42F0
:100C6000DFD300E000BF1437BD4690BD90B585B01E
:100C700000AF0446084611461A462346FB71034658
:100C8000BB710B467B7113463B710023BB7319E0AC
:100C90000023FB730FE0FA79FB7B1344D8B2BA79D7
:100CA000BB7B1344DBB297F820201946FFF764FFA3
:100CB000FB7B0133FB73FA7B7B799A42EBD3BB7BE3
:100CC0000133BB73BA7B3B799A42E1D300BF00BFCB
:100CD0001437BD4690BD80B483B000AF0346FB809F
:100CE000FB88802B01D100230FE0FB88402B01D132
:100CF00001230AE0FB88102B01D1022305E0FB88C9
:100D0000202B01D1032300E0042318460C37BD46F5
:100D100080BC704780B586B000AF07F108030022A1
:100D20001A605A609A60DA60154B9B69144A43F066
:100D300008039361124B9B6903F008037B607B6897
:100D4000F023BB600F4BFB6001233B6107F10803FD
:100D500019460D4802F0CAFD002205210A2002F0C2
:100D60008EFD0A2002F0A7FD00220521172002F0C7
:100D700086FD172002F09FFD00BF1837BD4680BDDD
:100D80000010024000002110000C014080B400AFB0
:100D900000BFBD4680BC704780B483B000AF03463F
:100DA000FB71084B1B78DBB2FA799A4204D1054BF0
:100DB00004221A70012300E0002318460C37BD46B8
:100DC00080BC70470000002080B500AF10210548AE
:100DD00002F010FF0346012B0CBF01230023DBB2FE
:100DE000184680BD0008014080B500AF08210548C5
:100DF00002F000FF0346002B0CBF01230023DBB2EF
:100E0000184680BD0008014080B400AF054B1B7838
:100E1000122B01D9122301E0024B1B781846BD4664
:100E200080BC70472C00002080B483B000AF034624
:100E3000FB71FB79122B01D91223FB71034AFB7959
:100E4000137000BF0C37BD4680BC70472C000020DB
:100E500080B483B000AF0346FB71FB79002B02D056
:100E6000012B02D003E0002302E0012300E0022373
:100E700018460C37BD4680BC7047000080B500AFF7
:100E800000224FF480410F4802F0CBFE00224FF4C5
:100E900000410C4802F0C5FE00224FF40051094801
:100EA00002F0BFFE084801F0C1FE084801F0BEFE96
:100EB0000021054801F033FE0021044801F02FFE17
:100EC00000BF80BD000C0140AC00002010010020DC
:100ED00080B400AF064B00225A63054B00229A6390
:100EE000034B0022DA6300BFBD4680BC704700BFE1
:100EF000002C014080B500AF06F026FB0346114AE6
:100F00001360104B1B68104A1360104B01221A70BB
:100F10000F4B00221A700F4B00221A700E4B00224A
:100F20001A700E4801F096FE0D4801F093FEFFF78F
:100F3000A5FFFFF7CDFF0B4B1B68184605F092F895
:100F400000BF80BD98010020A00100209C0100206E
:100F5000A4010020A5010020A6010020AC00002073
:100F600010010020C001002080B500AF074B002217
:100F70001A70074B00221A70064B00221A70FFF7F6
:100F80007DFFFFF7A5FF00BF80BD00BF9C010020D3
:100F9000A4010020A501002080B500AF054B1B680F
:100FA000002B04D0034B1B68184606F09BF800BFCB
:100FB00080BD00BFA801002080B500AF054B1B68B5
:100FC000002B04D0034B1B68184606F051F900BFF4
:100FD00080BD00BFA801002080B500AFFFF7DCFF97
:100FE00007E0094B4FF080521A60BFF34F8FBFF3F9
:100FF0006F8F064801F045FE0346002BF1D1FFF745
:10100000DBFF00BF80BD00BF04ED00E0AC000020AE
:1010100080B582B000AF01F013FC0346FB71FB7991
:10102000002B01D1FB790FE001F01AF8084801F01C
:10103000BBF9034683F00103DBB2002B01D001238F
:1010400002E001F0FDFB034618460837BD4680BDAF
:101050001804002080B588B002AF01F0E3F9154B09
:101060001B781A46144B53F822303846134A16217F
:1010700007F07AFB0F4B1B781846FFF7E9FE034693
:101080001A460123009301230D210020FFF7B0FB36
:101090003A4602230F21362001F00EFB0123084AB5
:1010A0003221002001F008FBFFF7B2FF00BF183724
:1010B000BD4680BD01000020080000202C930008E0
:1010C0003093000880B500AF00210120FFF7E0FB5E
:1010D00003490720FFF739FDFFF79AFF00BF80BDE6
:1010E0004493000880B584B000AFF860B9607A60BE
:1010F000FB7001F097F9FB68002B03D0F968012021
:10110000FFF723FDBB68002B03D0B9680320FFF76E
:101110001CFD7B68002B03D079680520FFF715FDC7
:10112000FFF776FF00BF1037BD4680BD80B586B0A3
:1011300002AF0346FB71FB79642B01D96423FB7179
:10114000FB795A2202FB03F30D4AA2FB03235B093E
:10115000FB73012300930A235C2232211320FFF743
:1011600025FDFB7B002B07D0FA7B0123009308238E
:1011700033211420FFF77AFD00BF1037BD4680BD34
:101180001F85EB5180B500AF01F04CF902230D4AE9
:101190000021182001F090FA0B4B1B78DBB21A46A5
:1011A0000A4B53F8223019460320FFF7CEFC084BB8
:1011B0001B78DBB21846FFF7B9FFFFF729FF00BF26
:1011C00080BD00BF5C930008A40100201400002033
:1011D000A501002080B582B002AF01F023F90B49D0
:1011E0000120FFF7B2FC0A4B1B781846FFF730FED0
:1011F00003461A460123009301230D212820FFF7FF
:10120000F7FAFFF705FF00BFBD4680BD64930008F5
:101210000100002080B584B000AF1E4B1B78002B6E
:1012200001D11D4B00E01D4BFB601A4B1B78012BBD
:1012300001D11B4B00E01B4BBB60164B1B78022BF4
:1012400001D1194B00E0194B7B6001F0EBF8184914
:101250000720FFF77AFC0123FA680C21002001F037
:101260002BFA0123BA681821002001F025FA012386
:101270007A682421002001F01FFA01230D4A32214F
:101280000F2001F019FAFFF7C3FE00BF1037BD466B
:1012900080BD00BF8D010020789300089093000866
:1012A000A8930008C0930008D8930008F0930008A2
:1012B000089400081494000880B586B000AF01F0CF
:1012C000B1F80E490720FFF740FC0D4B1B7838465C
:1012D0000C4A162107F048FA3A46022318211A2030
:1012E00001F0EAF90123084A32210F2001F0E4F964
:1012F000FFF78EFE00BF1837BD4680BD289400085A
:1013000003000020389400081494000890B589B0B8
:1013100002AF01F087F81D490720FFF716FC1C4BB0
:101320001B7838461B4A162107F01EFA3A4601235D
:101330000E21002001F0C0F9FFF746FD0346002B07
:1013400001D0154C00E0154CFFF74EFD0346002B75
:1013500001D0114B00E0124B384600932346114A4E
:10136000162107F001FA3A4601231C21002001F062
:10137000A3F901230C4A3221462001F09DF9FFF721
:1013800047FE00BF1C37BD4690BD00BF409400081B
:10139000020000204C9400085C940008349200087D
:1013A00060940008649400087894000880B500AF49
:1013B00001F038F806490720FFF7C7FB0123054A6B
:1013C00032210F2001F078F9FFF722FE00BF80BD27
:1013D000809400081494000880B582B000AF0346E2
:1013E000FB710D4AFB79137006F0AEF803460B4A09
:1013F00013600B4B01221A70FB79062B01D1FFF70A
:1014000079FDFB79062B02D0064B00221A7000BF33
:101410000837BD4680BD00BF8C0100209001002030
:10142000040000209C01002080B582B002AF534B25
:101430001B780B2B00F29E8001A252F823F000BF14
:1014400071140008771400087D1400088B1400083C
:10145000CD1400080F150008511500085715000895
:101460005D15000863150008691500086F15000870
:10147000FFF728FE7FE0FFF7EDFD7CE00123404A07
:1014800040494148FFF72EFE75E000F0CBFF0123F5
:1014900001933E4B00931C231F222421302001F096
:1014A0000DF802233A4A22210F2001F005F9012309
:1014B000384A36210E2001F0FFF80123364A002178
:1014C000762001F0F9F8FFF7A3FD54E000F0AAFF41
:1014D000012301932D4B00931C231F222421302034
:1014E00000F0ECFF02232D4A22210F2001F0E4F846
:1014F00001232B4A36210A2001F0DEF80123264A77
:101500000021762001F0D8F8FFF782FD33E000F0EB
:1015100089FF012301931D4B00931C231F222421CB
:10152000302000F0CBFF02231E4A22210F2001F0C1
:10153000C3F801231C4A36210A2001F0BDF801231B
:10154000154A0021762001F0B7F8FFF761FD12E09F
:10155000FFF718FE0FE0FFF73DFE0CE0FFF75AFE25
:1015600009E0FFF7A9FE06E0FFF720FF03E0FFF721
:10157000CDFE00E000BF00BFBD4680BD8C01002055
:101580008C94000898940008AC940008DC9800083B
:10159000B8940008C4940008D8940008DC940008AB
:1015A000E8940008FC9400080895000880B582B013
:1015B00000AF05F0C9FF7860AB4B1B687A68D31A9F
:1015C0003B60AA4B1B780B2B00F2CB8101A252F897
:1015D00023F000BF0516000817160008991600082A
:1015E000E116000801170008211700083717000846
:1015F000A7170008C91700088D180008131900085C
:101600004F1900083B68B3F5FA6FC0F0AC810120B8
:10161000FFF7E2FEA7E10120FFF7BEFB0346002B28
:101620000ED0934B1B78002B04D0914B1B78013BC1
:10163000DBB200E002238E4A13708E4B01221A7037
:101640000020FFF7A9FB0346002B10D0884B1B7826
:10165000591C894BA3FB01235A0813465B00134412
:10166000CA1AD2B2824B1A70824B01221A7003201E
:10167000FFF792FB0346002B03D00820FFF7ACFED8
:1016800086E10220FFF788FB0346002B00F06D8106
:101690000220FFF7A1FE68E1FFF796FB034683F007
:1016A0000103DBB2002B03D00320FFF795FE6FE1AF
:1016B000FFF79AFB034683F00103DBB2002B03D054
:1016C0000420FFF789FE63E16C4B1B78002B03D1EC
:1016D0000520FFF781FE5BE10620FFF77DFE57E165
:1016E000FFF772FB0346002B06D10320FFF754FBE4
:1016F0000346002B00F03B810120FFF76DFE36E131
:10170000FFF772FB0346002B06D10320FFF744FBD3
:101710000346002B00F02D810120FFF75DFE28E13C
:101720000320FFF739FB0346002B00F02481012042
:10173000FFF752FE1FE10320FFF72EFB0346002BAD
:1017400005D0FFF711FC0120FFF746FE20E1494BD1
:1017500001221A704A4B1B78DBB2092B17D1474B79
:101760001B78002B0AD0454B1B78013BDAB2434B68
:101770001A70424B1B781846FFF756FBFFF7F4FB35
:101780000720FFF729FE0220FFF706FBF5E03C4BA0
:101790001B78DBB20A2B40F0F080FFF7E5FB01205D
:1017A000FFF71AFEE9E00220FFF7F6FA0346002BE6
:1017B00006D10320FFF7F0FA0346002B00F0DF808C
:1017C0000120FFF709FEDAE00020FFF7E5FA034603
:1017D000002B0CD02B4B1B78002B08D0294B1B78EF
:1017E000013BDAB2274B1A70224B01221A700120FA
:1017F000FFF7D2FA0346002B0CD0224B1B78012BAB
:1018000008D8204B1B780133DAB21E4B1A70194BE3
:1018100001221A700320FFF7BFFA0346002B03D002
:101820000120FFF7D9FDB3E00220FFF7B5FA034628
:10183000002B00F0A680134B1B78002B07D10F4B19
:101840001A78114B1A700920FFF7C6FD99E00D4B6D
:101850001B78012B03D10A20FFF7BEFD91E00B207E
:10186000FFF7BAFD8DE000BF900100208C01002041
:101870000100002004000020ABAAAAAA0200002058
:101880009C0100208D010020030000200020FFF7B4
:1018900083FA0346002B0CD03F4B1B78112B08D842
:1018A0003D4B1B780133DAB23B4B1A703B4B0122A4
:1018B0001A700120FFF770FA0346002B0CD0364B4C
:1018C0001B78002B08D0344B1B78013BDAB2324B2B
:1018D0001A70324B01221A700320FFF75DFA03469B
:1018E000002B03D00820FFF777FD51E00220FFF71F
:1018F00053FA0346002B46D0274B1A78284B1A7010
:10190000274B1B781846FFF78FFA0820FFF764FD76
:1019100039E00320FFF740FA0346002B03D00820EC
:10192000FFF75AFD31E00220FFF736FA0346002B9D
:101930002BD000231B4A1C491C48FFF7D3FB40F265
:10194000DC5004F0FBFA0820FFF746FD1DE0032001
:10195000FFF722FA0346002B19D00820FFF73CFDC1
:1019600015E000BF14E000BF12E000BF10E000BFB0
:101970000EE000BF0CE000BF0AE000BF08E000BFBF
:1019800006E000BF04E000BF02E000BF00E000BFCF
:1019900000BF0837BD4680BD0300002004000020C2
:1019A000020000208C9400081C9500088094000818
:1019B00080B584B000AF786000213C4803F0A2FA03
:1019C00004213A4803F09EFA0821384803F09AFAB5
:1019D000374B00225A63364B00229A63344B002265
:1019E000DA6300224FF48041324802F01AF90022F3
:1019F0004FF400412F4802F014F900224FF4005137
:101A00002C4802F00EF9FFF785F94FF47A7004F0D4
:101A100095FA294800F0C8FC03461A46274B1A706D
:101A2000274B284ADA62FFF7EFF903461A46264B9E
:101A30001A70264B04221A700020FFF7CDFCFFF726
:101A4000A5F9FFF7B3FD05F07FFDF860204B1B689B
:101A5000FA68D31A772B8CBF01230023FB721D4B2E
:101A60001B78002B12D1FB7A002B1AD01A4B1B7853
:101A7000012B0BD0184B1B78062B07D0164B1B786D
:101A8000072B03D0144B1B780B2B0AD1FFF7CCFC90
:101A9000104B00221A700E4AFB6813600F4AFB6855
:101AA0001360142004F04AFAC9E700BFCC080020F4
:101AB000002C0140000C014018040020740100209B
:101AC000AC00002000007A4402000020000000204A
:101AD00094010020040000208C01002078010020E7
:101AE00080B594B000AF7860C82004F027FA2E4B80
:101AF0007B624FF08043BB620023FB622B4B3B6356
:101B00000223BB86294BBB630423BB87284B3B6462
:101B10000123A7F84430002387F84630012387F8D3
:101B20004730244BFB60244B3B61244B7B614FF4DB
:101B3000C843BB614FF4D273FB6143F698233B6209
:101B400007F10C0207F1240319461D4800F07AFF43
:101B50001B4800F0CBFF01F0B1FDF864184801F01C
:101B600090F80346002B14D001F0A8FDB864BA6CBD
:101B7000FB6C9A4204D0124801F0A4F8BB6CFB64E1
:101B8000104B4FF080521A60BFF34F8FBFF36F8F2F
:101B9000E4E70B4801F096F8012004F0CFF901F0DA
:101BA0008DFDF864DAE700BF140900200008014049
:101BB000000C014000007A4400409C4600401C4656
:101BC000AC00002004ED00E080B594B000AF786078
:101BD000C82004F0B3F92D4B7B622D4BBB62002370
:101BE000FB622C4B3B632023BB862A4BBB638023C9
:101BF000BB87294B3B640223A7F84430002387F8B6
:101C00004630012387F84730244BFB60244B3B616F
:101C1000244B7B614FF4C843BB610523FB6143F652
:101C200098233B6207F10C0207F1240319461E4872
:101C300000F008FF1C4800F059FF01F03FFDF86478
:101C4000194801F01EF80346002B14D001F036FDB0
:101C5000B864BA6CFB6C9A4204D0134801F032F8B5
:101C6000BB6CFB64114B4FF080521A60BFF34F8F77
:101C7000BFF36F8FE4E70C4801F024F8012004F073
:101C80005DF901F01BFDF864DAE700BF5C09002094
:101C90000004004000080140000C01400060EA46DA
:101CA00000409C460000FA441001002004ED00E0D2
:101CB00080B500AF044B4FF41672DA6340F2A460B3
:101CC00004F03CF900BF80BD002C014080B500AF9E
:101CD000064B40F63402DA6340F2DC5004F02EF991
:101CE000024B0022DA6300BF80BD00BF002C014020
:101CF00080B500AF064B40F6FC02DA634FF47A7011
:101D000004F01CF9024B0022DA6300BF80BD00BF63
:101D1000002C014080B500AF084B40F6FC025A632E
:101D20004FF4617004F00AF9044B4FF496625A6361
:101D30004FF4617004F002F900BF80BD002C014037
:101D400080B500AF154B40F6FC029A634FF4FA7071
:101D500004F0F4F8114B4FF4C8629A634FF4FA7030
:101D600004F0ECF8FFF7D6FF0C4B40F2E2429A6326
:101D70004FF4FA7004F0E2F8FFF7CCFF074B40F69F
:101D8000FC029A634FF4FA7004F0D8F8034B002277
:101D90005A63024B00229A6300BF80BD002C0140B1
:101DA00080B582B000AF0121154800F0B8FE144B99
:101DB0001B6C3B6000237B601AE0124B4FF41672E1
:101DC000DA633B68463319460D4800F0C7FEFFF75B
:101DD00003F90C4B4FF44872DA633B68463B1946F3
:101DE000074800F0BBFEFFF7F7F87B6801337B6024
:101DF0007B68312BE1DD00BF00BF0837BD4680BDE9
:101E0000AC000020002C014080B584B000AF7860A9
:101E10004FF4FA6004F092F8364B1B680021184624
:101E200004F0D2F8334B1B684FF0FF31184604F032
:101E3000CBF8314B00221A70304B12221A70304B03
:101E40001B78C3F11203FB60FB68002B01DA00234F
:101E5000FB60FB68112B01DD1123FB6040F2355262
:101E6000FB6802FB03F34FF4D2721344BB60254AB4
:101E7000BB685363234800F0A3FEFFF7ADF81E4B89
:101E800001221A701D4B0A221A70642004F056F8C1
:101E9000FFF72EFF194B0A221A70642004F04EF847
:101EA000FFF74EFF154B14221A70642004F046F819
:101EB000FFF7FEFE114B1E221A70642004F03EF85C
:101EC000FFF76EFF0D4B28221A70642004F036F8DD
:101ED000FFF7FCFE094B32221A70642004F02EF842
:101EE000094B09221A70054B64221A700A2004F06B
:101EF00025F897E7C0010020A4010020A5010020DB
:101F000002000020AC0000209C01002080B588B0B9
:101F100000AF07F1100300221A605A609A60DA607D
:101F20004A4B9B69494A43F010039361474B9B69B5
:101F300003F01003FB60FB68444B9B69434A43F08A
:101F400020039361414B9B6903F02003BB60BB6896
:101F50003E4B9B693D4A43F0040393613B4B9B69B5
:101F600003F004037B607B68384B9B69374A43F07E
:101F700008039361354B9B6903F008033B603B68A2
:101F800000224FF40051324801F04BFE0022A621FE
:101F9000304801F046FE00224FF460412E4801F027
:101FA00040FE4FF400533B6101237B610023BB6182
:101FB0000223FB6107F110031946254801F096FC46
:101FC000A6233B6101237B610023BB610223FB61EC
:101FD00007F1100319461F4801F088FC18233B61E4
:101FE00000237B610123BB6107F1100319461948E7
:101FF00001F07CFC03233B6100237B610123BB6177
:1020000007F110031946144801F070FC4FF46043C7
:102010003B6101237B610023BB610223FB6107F16C
:10202000100319460C4801F061FCF0233B610B4B97
:102030007B610123BB6107F110031946064801F0DB
:1020400055FC00BF2037BD4680BD00BF00100240D8
:102050000010014000080140000C01400000111078
:1020600080B500AF124B134A1A60114B124A5A60E6
:102070000F4B00229A600E4B0022DA600C4B4FF49B
:1020800080421A610A4B00225A61094B00229A6170
:10209000074B0022DA61064B00221A62044801F065
:1020A000F1FD0346002B01D000F00FF900BF80BD09
:1020B0001804002000540040A086010080B500AF45
:1020C000124B134A1A60114B124A5A600F4B0022EE
:1020D0009A600E4B0022DA600C4B4FF480421A617A
:1020E0000A4B00225A61094B00229A61074B0022D9
:1020F000DA61064B00221A62044801F0C3FD034670
:10210000002B01D000F0E1F800BF80BD6C0400207E
:1021100000580040A086010080B58CB000AF786008
:1021200007F11C0300221A605A609A60DA607B682B
:102130001B68324A934233D1314B9B69304A43F09A
:10214000080393612E4B9B6903F00803BB61BB69D5
:102150004FF44073FB6112233B620323BB6207F120
:102160001C031946274801F0C1FB274B5B68FB6243
:10217000FB6A43F0E063FB62FB6A43F00203FB622D
:10218000214AFB6A53601E4BDB691D4A43F400136E
:10219000D3611B4BDB6903F400137B617B6929E08E
:1021A0007B681B68194A934224D1154B9B69144ADA
:1021B00043F008039361124B9B6903F008033B61F2
:1021C0003B694FF44063FB6112233B620323BB6214
:1021D00007F11C0319460B4801F088FB084BDB692B
:1021E000074A43F48003D361054BDB6903F48003A2
:1021F000FB60FB6800BF3037BD4680BD0054004027
:1022000000100240000C0140000001400058004056
:1022100080B500AF01F0FAF900F012F8FFF776FE92
:10222000FFF71EFFFFF74AFF00F05CFF01F08CF89C
:1022300001F014F8FEF7B6FB03F02DFE00BFFDE73A
:1022400080B590B000AF07F118032822002118468E
:1022500006F0C0FA3B1D00221A605A609A60DA60EC
:102260001A610123BB614FF48033FB6100233B62A1
:102270000123BB6202237B634FF48033BB634FF4C3
:10228000E013FB6307F11803184602F097F90346C1
:10229000002B01D000F019F80F237B600223BB60F4
:1022A0000023FB604FF480633B6100237B613B1D97
:1022B0000221184602F004FC0346002B01D000F076
:1022C00004F800BF4037BD4680BD80B400AF72B691
:1022D00000BF00BFFDE7000080B485B000AF03463B
:1022E000FB710023FB6016E00F49FA6813465B00A0
:1022F00013445B000B441B78FA799A4208D1FA68C0
:1023000013465B0013445B00074A1344013306E0A5
:10231000FB680133FB60FB68462BE5D9034B18468D
:102320001437BD4680BC70474C990008F19A0008EC
:1023300080B483B000AF03460A46FB711346BB71FD
:10234000BB793F2B01D900230FE0FA79BB79134405
:10235000402B03D9BB79C3F14003FB71BA79FB79F8
:102360001344DBB2C3F14003DBB218460C37BD4661
:1023700080BC704780B586B002AF0346FB71002376
:102380003B73FB797B73074B186807F10C026423DE
:1023900000930223782101F0B9FD03461846103757
:1023A000BD4680BDC004002080B584B000AF786019
:1023B000184A7B681360174B1B68002B01D1002360
:1023C00024E00023FB600EE0134AFB6813441B78F3
:1023D0001846FFF7CFFF0346002B01D0002315E07E
:1023E000FB680133FB60FB68182BEDD900F01AF88D
:1023F0000A4B00221A700A4B00221A7000F020FAD1
:102400000346002B0CBF01230023DBB21846103714
:10241000BD4680BDC0040020F89A0008C408002012
:10242000C508002080B500AF4FF48062002102484B
:1024300006F0D0F900BF80BDC404002080B485B090
:1024400000AF0346FB710B46BB7113467B7197F9D6
:102450000730002B2BDBBB793F2B28D8BB79DB085F
:10246000DBB2DB019AB2FB799BB21344FB81BB79EF
:1024700003F00703012202FA03F37B737B79002B3D
:1024800009D0FB890C4AD15CFB897A7B0A43D1B223
:10249000094AD1540CE0FB89074AD15C7B7BDB43C2
:1024A000DAB2FB890A40D1B2034AD15400E000BF3E
:1024B0001437BD4680BC7047C404002090B587B077
:1024C00000AF0446084611461A462346FB710346F0
:1024D000BB710B467B7113463B71BB6A002B67D007
:1024E0007B79002B64D03B79002B61D07B7907335B
:1024F000DB087B750023FB7555E03A79FB7DD31A29
:10250000DBB2013B3B750023BB7545E03B7D9BB2D5
:102510007A7D92B202FB03F39BB2BA7DD208D2B2AB
:1025200013447B82BB7D03F00703802222FA03F36E
:102530007B747B8ABA6A13441A787B7C1340DBB2C3
:10254000002B14BF012300233B7497F82C30002B81
:102550000CD03B7C002B14BF01230023DBB283F0A3
:102560000103DBB203F00103DBB205E03B7C002B8F
:1025700014BF01230023DBB2FB73FA79BB7D134444
:10258000D8B2BA79FB7D1344DBB2FA7B1946FFF768
:1025900055FFBB7D0133BB75BA7D7B799A42B5D3BC
:1025A000FB7D0133FB75FA7D3B799A42A5D300E0B0
:1025B00000BF1C37BD4690BD90B587B000AF044644
:1025C000084611461A462346FB710346BB710B466B
:1025D0007B7113463B713B79022B01D1022300E052
:1025E0000123FB74FB7C1A46D200D31ABB7497F903
:1025F0000730002B5CDBBB793F2B59D8BA7CBB7909
:1026000011461846FFF794FE03467B747B79184603
:10261000FFF762FEF8600023FB7545E00023BB7501
:102620003CE0FB7DFA6813441B781A46BB7D22FA16
:1026300003F303F00103002B2DD000237B7526E06C
:1026400000233B751CE0FB7DFA7C02FB03F3DAB24E
:10265000FB791344DAB27B7D1344D8B2BB7DFA7C9C
:1026600002FB03F3DAB27B7C1344DAB23B7D134402
:10267000DBB201221946FFF7E1FE3B7D01333B75DA
:102680003A7DFB7C9A42DED37B7D01337B757A7D7C
:10269000FB7C9A42D4D3BB7D0133BB75BB7D062B3B
:1026A000BFD9FB7D0133FB75FB7D042BB6D900E060
:1026B00000BF1C37BD4690BD80B584B000AF3A6006
:1026C0001A460346FB710B46BB7113467B713B6890
:1026D000002B2BD07B79022B01D1022300E00123B8
:1026E000BB73BB7B1A46520013445B007B73FB79C0
:1026F000FB7312E03B681A787B79B979F87BFFF7B6
:102700005BFFFA7B7B7B1344802B11D8FA7B7B7BAE
:102710001344FB733B6801333B603B681B78002B21
:1027200007D097F90F30002BE4DA02E000BF00E099
:1027300000BF1037BD4680BD80B586B000AF0346F0
:102740003960FB71FB79072B72D8FB79C3F1070362
:102750003B753B7D9BB2DB017B827B8A374A13440E
:1027600080220021184606F035F80023FB825BE04A
:1027700020237B753B68002B0AD0FB8A3A68134400
:102780001B78002B04D0FB8A3A6813441B787B75B6
:102790007B7D1846FFF7A0FDF860FB8A1A465200C1
:1027A00013445B009AB27B8A13447B817B895A1D58
:1027B0007B8A80339A423DD2FB681A787B8902F08B
:1027C0007F02D1B21D4AD154FB6801331A787B894C
:1027D000013302F07F02D1B2184AD154FB680233B0
:1027E0001A787B89023302F07F02D1B2134AD154A6
:1027F000FB6803331A787B89033302F07F02D1B27E
:102800000E4AD154FB6804331A787B89043302F0F2
:102810007F02D1B2094AD1547B890533074A00218E
:10282000D154FB8A0133FB82FB8A142BA0D902E02E
:1028300000BF00E000BF1837BD4680BDC4040020C3
:1028400080B5A4B002AF2A4B1B68002B01D1012335
:1028500049E040233B70002387F887303EE097F83B
:102860008730503BDBB21846FFF784FD0346002B50
:1028700001D0012337E00020FFF77CFD0346002B49
:1028800001D001232FE01020FFF774FD0346002B39
:1028900001D0012327E097F887309BB2DB01A7F82E
:1028A0008430B7F88430134A99183B4601338022AC
:1028B000184605F0C3FF0E4B18683A466423009390
:1028C0008123782101F022FB0346002B01D0012354
:1028D00009E097F88730013387F8873097F8873019
:1028E000072BBCD9002318468837BD4680BD00BFE2
:1028F000C0040020C404002080B483B000AF78601E
:102900000B46FB707B689B680C2B45D801A252F8E4
:1029100023F000BF492900089929000899290008D7
:10292000992900085D2900089929000899290008BB
:102930009929000871290008992900089929000897
:102940009929000885290008FB78002B01D0022274
:1029500000E000227B685B685A631EE0FB78002B76
:1029600001D0022200E000227B685B689A6314E0D9
:10297000FB78002B01D0022200E000227B685B681C
:10298000DA630AE0FB78002B01D0022200E000228B
:102990007B685B681A6400E000BF00BF0C37BD466F
:1029A00080BC704780B584B000AF78607B6893F9D5
:1029B0004C30002B03DD7B6893F8223007E07B6806
:1029C00093F82230012B14BF01230023DBB2FB73E9
:1029D0007B68D8687B681B8AFA7B194601F021F96D
:1029E00000BF1037BD4680BD80B584B000AF7860B1
:1029F00012497868FDF760FE0346002B01D00F4BAB
:102A00007B6079680E48FDF76DFD03461846FDF7BB
:102A100091FE0346FB60FB683B2B01D83C23FB6027
:102A2000FB684FF6E852934202D94FF6E853FB6039
:102A3000FB6818461037BD4680BD00BF000020412E
:102A400000247449B0B584B000AFF860B9607A6012
:102A5000FA68BB6814461D460FCD0FC40FCD0FC4D6
:102A60002B682360FB687A6803F1240415460FCDB8
:102A70000FC495E8030084E80300FB68002283F894
:102A80003C20FB68002283F83D20FB6800221A648A
:102A9000FB6800225A64FB6800229A64FB680122EA
:102AA00083F84C20FB684FF000021A657B681A68B7
:102AB000FB685A65FB684FF47A729A65FB680022DE
:102AC000DA65FB68012283F86020FB685B68FA68BE
:102AD000926DDA620021F868FFF70EFF0021F868B6
:102AE00000F01DF800BF1037BD46B0BD80B582B004
:102AF00000AF78607B6893F8603083F00103DBB24D
:102B0000002B08D17B681A687B689B6819461046C1
:102B100002F09AFA00E000BF0837BD4680BD80B5DC
:102B200084B000AF78600B46FB707B6893F823306D
:102B3000002B05D0FB7883F00103DBB2FB7301E0CF
:102B4000FB78FB737B6858697B681B8BFA7B1946A3
:102B500001F067F800BF1037BD4680BD80B582B078
:102B600000AF786039607B6893F8603083F00103D0
:102B7000DBB2002B05D1786800F083F80346002B08
:102B800001D0002318E07B68002283F83D207B6899
:102B90003A685A647B685A6A7B685A657B68012286
:102BA00083F83C2000F08AFD02467B68DA6501214B
:102BB0007868FFF7B4FF012318460837BD4680BD8B
:102BC00080B582B000AF78607B6893F8603083F0A6
:102BD0000103DBB2002B05D1786800F052F8034600
:102BE000002B01D000231DE07B68002283F83D20EC
:102BF0007B681A6C7B689A647B68FF2283F84C20A0
:102C00007B68DA6A7B685A657B68022283F83C201D
:102C100000F054FD02467B68DA6501217868FFF711
:102C20007EFF012318460837BD4680BD80B582B0BF
:102C300000AF78607B684FF000021A657B68002265
:102C400083F83C2000217868FFF756FE00BF083764
:102C5000BD4680BD80B483B000AF78607B68002241
:102C600083F83D207B6893F83C30DBB2042B03D122
:102C70007B68002283F83C2000BF0C37BD4680BC37
:102C8000704780B483B000AF78607B6893F83C30C5
:102C9000DBB2012B0BD07B6893F83C30DBB2022B0C
:102CA00005D07B6893F83C30DBB2032B01D10123C4
:102CB00000E0002303F00103DBB218460C37BD46E9
:102CC00080BC704790B589B000AF78604FF00003CA
:102CD000FB617868FFF7D5FF034683F00103DBB2A1
:102CE000002B40F0158100F0E9FC02467B68DB6DAB
:102CF000D21A7B689B6B9A420BD97B68042283F8BB
:102D00003C207B68012283F83D207868FFF78EFF26
:102D1000FFE07B6893F83C30DBB2022B3ED17B684E
:102D2000DA697B681B8C1946104600F063FF034686
:102D3000002B1CD17B6800221A647B685A6B7B686D
:102D40005A647B68012283F84C207B684FF00002B4
:102D50001A657B685A6A7B685A657B68032283F828
:102D60003C2000F0ABFC02467B68DA6516E07B682D
:102D70009A6C7B681B6CD31ABB617B681B6BBA694E
:102D80009A420BDB7B68042283F83C207B6802229A
:102D900083F83D207868FFF749FFBAE07B6893F835
:102DA0003C30DBB2022B07D17B68DB6AFB617B68BE
:102DB000FF2283F84C204FE07B685A6C7B681B6CC9
:102DC000D31A7B617B69002B0CD17B684FF000022A
:102DD0001A657B68002283F83C2000217868FFF7A1
:102DE0008BFD96E07B69002B01DB012201E04FF0B7
:102DF000FF327B6883F84C207B689B6A1946184633
:102E0000FDF7B4F903461C467B69002BB8BF5B4253
:102E10001846FDF75FFA034619462046FDF7AEFA5D
:102E20000346184606F064F938613B69FB617B682C
:102E30005B6D1946F869FDF75DFC0346002B02D077
:102E40007B685B6DFB613449F869FDF735FC03462F
:102E5000002B01D0304BFB617B689B6A2F491846E1
:102E6000FDF78CFA0346FB607B681B6D1946F86919
:102E7000FDF740FC0346002B16D07B681B6DF968FC
:102E80001846FDF773F903461A467B681A657B6896
:102E90001B6D1946F869FDF70FFC0346002B22D085
:102EA0007B68FA691A651EE07B681B6D1946F86934
:102EB000FDF702FC0346002B15D07B681B6DF968FB
:102EC0001846FDF751F903461A467B681A657B6878
:102ED0001B6D1946F869FDF70DFC0346002B02D067
:102EE0007B68FA691A657B681B6D1846FFF77CFDE5
:102EF00002467B689A657B685B687A68926DDA62E5
:102F00007868FFF74FFD01217868FFF7F5FC00E0D6
:102F100000BF2437BD4690BD000020416F12833AA8
:102F200080B582B000AF78607868FFF7AAFE0346EC
:102F300083F00103DBB2002B04D000217868FFF797
:102F4000DBFC07E07B681B6C7A6892F94C201A4422
:102F50007B681A640837BD4680BD000080B584B028
:102F600000AF184B9B69174A43F001039361154B5F
:102F70009B6903F00103BB60BB68124BDB69114A1C
:102F800043F08053D3610F4BDB6903F080537B60C8
:102F90007B6800220F216FF0010000F070FC0A4BEB
:102FA0005B68FB60FB6823F0E063FB60FB6843F059
:102FB0000073FB60044AFB68536000BF1037BD46D6
:102FC00080BD00BF001002400000014080B400AF8F
:102FD00000BFFDE780B400AF00BFFDE780B400AFE5
:102FE00000BFFDE780B400AF00BFFDE780B400AFD5
:102FF00000BFFDE780B400AF00BFBD4680BC704796
:1030000080B500AF00F048FB04F0A8FD0346012B9B
:1030100001D005F039F900BF80BD000080B500AFD8
:10302000024802F001F900BF80BD00BF1409002072
:1030300080B500AF024802F0F7F800BF80BD00BFC6
:103040005C09002080B500AF102000F003FE00BF37
:1030500080BD80B500AF202000F0FCFD402000F0D6
:10306000F9FD802000F0F6FD00BF80BD80B586B080
:1030700000AF7860144A154BD31A7B617B693B61C2
:10308000134B1B68002B02D1114B124A1A60104BD4
:103090001A687B6813443A699A4207D205F0A2FB8A
:1030A00003460C221A604FF0FF3309E0084B1B68FF
:1030B000FB60074B1A687B681344054A1360FB6882
:1030C00018461837BD4680BD00500020000400009F
:1030D000C8080020F842002080B400AF00BFBD4601
:1030E00080BC704780B596B000AF07F1480300225E
:1030F0001A605A609A60DA6007F1400300221A6091
:103100005A6007F1240300221A605A609A60DA605C
:103110001A615A619A613B1D20220021184605F070
:1031200059FB4C4B4C4A1A604A4B47225A60494B58
:1031300000229A60474B44F61F62DA60454B00223A
:103140001A61444B00225A61424B00229A61414865
:1031500001F030FE0346002B01D0FFF7B6F84FF424
:103160008053BB6407F1480319463A4802F00EFA4F
:103170000346002B01D0FFF7A8F8364801F069FE9E
:103180000346002B01D0FFF7A0F800233B64002387
:103190007B6407F1400319462E4802F093FD034675
:1031A000002B01D0FFF791F860237B624FF47A7314
:1031B000BB620023FB6200233B6300237B6300238D
:1031C000BB630023FB6307F1240300221946214857
:1031D00002F01AF90346002B01D0FFF776F807F149
:1031E0002403042219461B4802F00EF90346002B63
:1031F00001D0FFF76AF80023BB6207F1240308221D
:103200001946144802F000F90346002B01D0FFF7DD
:103210005CF800237B600023BB600023FB6000237D
:103220003B6100237B614FF40053BB6100233B6291
:103230003B1D1946074802F0A3FD0346002B01D0B1
:10324000FFF743F8034800F049F900BF5837BD467F
:1032500080BD00BFCC080020002C014080B58EB09E
:1032600000AF07F1280300221A605A609A60DA6002
:1032700007F1200300221A605A603B1D00221A60E9
:103280005A609A60DA601A615A619A612D4B4FF068
:1032900080421A602B4B47225A602A4B00229A60C8
:1032A000284B4FF47A72DA60264B00221A61254BC4
:1032B00080229A61234801F07DFD0346002B01D056
:1032C000FFF703F84FF48053BB6207F12803194658
:1032D0001C4802F05BF90346002B01D0FEF7F5FF16
:1032E000184801F0B6FD0346002B01D0FEF7EDFFB4
:1032F00000233B6200237B6207F12003194611483B
:1033000002F0E0FC0346002B01D0FEF7DEFF602355
:103310007B600223BB600023FB6000237B613B1DBD
:1033200000221946074802F06FF80346002B01D02F
:10333000FEF7CBFF034800F0D1F800BF3837BD4699
:1033400080BD00BF1409002080B58EB000AF07F12A
:10335000280300221A605A609A60DA6007F120039D
:1033600000221A605A603B1D00221A605A609A605F
:10337000DA601A615A619A612C4B2D4A1A602B4B04
:1033800047225A60294B00229A60284B4FF47A72E8
:10339000DA60264B00221A61244B80229A6123486E
:1033A00001F008FD0346002B01D0FEF78EFF4FF41D
:1033B0008053BB6207F1280319461C4802F0E6F867
:1033C0000346002B01D0FEF780FF184801F041FDB5
:1033D0000346002B01D0FEF778FF00233B62002359
:1033E0007B6207F120031946104802F06BFC03468C
:1033F000002B01D0FEF769FF60237B600223BB60D6
:103400000023FB6000237B613B1D00221946074817
:1034100001F0FAFF0346002B01D0FEF756FF0348E8
:1034200000F05CF800BF3837BD4680BD5C09002065
:103430000004004080B586B000AF78607B681B68F0
:10344000234A93420CD1234B9B69224A43F40063E5
:103450009361204B9B6903F400637B617B6932E0DD
:103460007B681B68B3F1804F14D11A4BDB69194A92
:1034700043F00103D361174BDB6903F001033B61A8
:103480003B69002205211C2000F0F9F91C2000F006
:1034900012FA18E07B681B680F4A934213D10D4B58
:1034A000DB690C4A43F00203D3610A4BDB6903F08A
:1034B0000203FB60FB68002205211D2000F0DFF9FC
:1034C0001D2000F0F8F900BF1837BD4680BD00BFD1
:1034D000002C0140001002400004004080B58AB07A
:1034E00000AF786007F1180300221A605A609A60F2
:1034F000DA607B681B682E4A934219D12D4B9B6979
:103500002C4A43F0040393612A4B9B6903F00403A4
:103510007B617B694FF4E063BB610223FB610223A3
:103520007B6207F118031946234800F0DFF93AE0FF
:103530007B681B68B3F1804F18D11E4B9B691D4AF5
:1035400043F0040393611B4B9B6903F004033B614D
:103550003B690123BB610223FB6102237B6207F10C
:1035600018031946144800F0C1F91CE07B681B6879
:10357000124A934217D10F4B9B690E4A43F0040342
:1035800093610C4B9B6903F00403FB60FB684023D1
:10359000BB610223FB6102237B6207F1180319461A
:1035A000054800F0A3F900BF2837BD4680BD00BF25
:1035B000002C0140001002400008014000040040BF
:1035C000FFF78AFD0B480C490C4A002302E0D4584F
:1035D000C4500433C4188C42F9D3094A094C00235F
:1035E00001E013600432A242FBD305F001F9FEF7BB
:1035F0000FFE704700000020900000208C9B000808
:1036000090000020F4420020FEE7000080B500AFEB
:10361000084B1B68074A43F010031360032000F0B7
:1036200023F90F2000F008F8FFF798FC0023184654
:1036300080BD00BF0020024080B582B000AF78603E
:10364000124B1A68124B1B7819464FF47A73B3FB6E
:10365000F1F3B2FBF3F3184600F03BF90346002BFD
:1036600001D001230EE07B680F2B0AD80022796875
:103670004FF0FF3000F003F9064A7B681360002327
:1036800000E0012318460837BD4680BD3000002009
:10369000380000203400002080B400AF054B1B78B8
:1036A0001A46054B1B681344034A136000BFBD460E
:1036B00080BC704738000020A409002080B400AF0F
:1036C000024B1B681846BD4680BC7047A409002009
:1036D00080B485B000AF78607B6803F00703FB60BF
:1036E0000C4BDB68BB60BA684FF6FF031340BB604E
:1036F000FB681A02BB68134343F0BF6343F4003313
:10370000BB60044ABB68D36000BF1437BD4680BCB1
:10371000704700BF00ED00E080B400AF044BDB68F1
:103720001B0A03F007031846BD4680BC704700BF64
:1037300000ED00E080B483B000AF0346FB7197F961
:103740000730002B0BDBFB7903F01F02064997F9CA
:1037500007305B09012000FA02F241F8232000BF84
:103760000C37BD4680BC704700E100E080B483B0F8
:1037700000AF03463960FB7197F90730002B0ADB75
:103780003B68DAB20C4997F907301201D2B20B4408
:1037900083F800230AE03B68DAB20849FB7903F0BA
:1037A0000F03043B1201D2B20B441A7600BF0C3750
:1037B000BD4680BC704700BF00E100E000ED00E0C6
:1037C00080B489B000AFF860B9607A60FB6803F03C
:1037D0000703FB61FB69C3F10703042B28BF042324
:1037E000BB61FB690433062B02D9FB69033B00E094
:1037F00000237B614FF0FF32BB6902FA03F3DA4327
:10380000BB681A407B699A404FF0FF317B6901FA2F
:1038100003F3D9437B680B40134318462437BD4656
:1038200080BC704780B582B000AF78607B68013B98
:10383000B3F1807F01D301230FE00A4A7B68013B8B
:1038400053600F214FF0FF30FFF790FF054B002230
:103850009A60044B07221A60002318460837BD46B9
:1038600080BD00BF10E000E080B582B000AF78609E
:103870007868FFF72DFF00BF0837BD4680BD80B5D3
:1038800086B000AF0346B9607A60FB7300237B61AA
:10389000FFF742FF78617A68B9687869FFF790FFAF
:1038A000024697F90F3011461846FFF75FFF00BF39
:1038B0001837BD4680BD80B582B000AF0346FB71AE
:1038C00097F907301846FFF735FF00BF0837BD46A8
:1038D00080BD80B582B000AF78607868FFF7A2FF46
:1038E000034618460837BD4680BD000080B48BB043
:1038F00000AF7860396000237B6200233B6269E19E
:1039000001227B6A02FA03F3FB613B681B68FA69D8
:103910001340BB61BA69FB699A4240F058813B6829
:103920005B689A4A93425ED0984A934275D8984A07
:10393000934258D0964A93426FD8964A934252D0B7
:10394000944A934269D8944A93424CD0924A934203
:1039500063D8924A934246D0904A93425DD8122B44
:103960002AD8122B59D801A252F823F0E7390008BF
:10397000C1390008D3390008153A00081B3A00087D
:103980001B3A00081B3A00081B3A00081B3A0008C3
:103990001B3A00081B3A00081B3A00081B3A0008B3
:1039A0001B3A00081B3A00081B3A00081B3A0008A3
:1039B000C9390008DD390008794A934213D02CE058
:1039C0003B68DB683B6229E03B68DB6804333B62B1
:1039D00024E03B68DB6808333B621FE03B68DB6840
:1039E0000C333B621AE03B689B68002B02D1042336
:1039F0003B6213E03B689B68012B05D108233B62C7
:103A00007B68FA691A6109E008233B627B68FA69FE
:103A10005A6103E000233B6200E000BFBB69FF2B5B
:103A200001D87B6801E07B6804337B61BB69FF2BB5
:103A300002D87B6A9B0002E07B6A083B9B003B61EB
:103A40007B691A680F213B6901FA03F3DB431A40D3
:103A5000396A3B6901FA03F31A437B691A603B68D0
:103A60005B6803F08053002B00F0B1804D4B9B69E5
:103A70004C4A43F0010393614A4B9B6903F00103F5
:103A8000BB60BB68484A7B6A9B08023352F823300C
:103A9000FB607B6A03F003039B000F2202FA03F32F
:103AA000DB43FA681340FB607B68404A934213D0C3
:103AB0007B683F4A93420DD07B683E4A934207D0D1
:103AC0007B683D4A934201D1032306E0042304E0CE
:103AD000022302E0012300E000237A6A02F00302DD
:103AE00092009340FA681343FB602F497B6A9B085E
:103AF0000233FA6841F823203B685B6803F48013C3
:103B0000002B06D02D4B9A682C49BB6913438B6060
:103B100006E02A4B9A68BB69DB43284913408B6057
:103B20003B685B6803F40013002B06D0234BDA6874
:103B30002249BB691343CB6006E0204BDA68BB69BE
:103B4000DB431E491340CB603B685B6803F40033E2
:103B5000002B06D0194B5A681849BB6913434B60B8
:103B600006E0164B5A68BB69DB43144913404B60AF
:103B70003B685B6803F48033002B21D00F4B1A683D
:103B80000E49BB6913430B6021E000BF00003210F7
:103B9000000031100000221000002110000012105F
:103BA0000000111000100240000001400008014018
:103BB000000C0140001001400014014000040140CD
:103BC0000B4B1A68BB69DB43094913400B607B6AE6
:103BD00001337B623B681A687B6A22FA03F3002B8D
:103BE0007FF48EAE00BF00BF2C37BD4680BC70474F
:103BF0000004014080B485B000AF78600B467B8044
:103C00007B689A687B881340002B02D00123FB73EA
:103C100001E00023FB73FB7B18461437BD4680BCD4
:103C2000704780B483B000AF78600B467B8013464A
:103C30007B707B78002B03D07A887B681A6103E065
:103C40007B881A047B681A6100BF0C37BD4680BCB4
:103C50007047000080B582B000AF0346FB80084B80
:103C60005A69FB881340002B06D0054AFB88536134
:103C7000FB881846FCF754FE00BF0837BD4680BDE0
:103C80000004014080B584B000AF78607B68002BF1
:103C900001D101232BE17B6893F83D30DBB2002B8F
:103CA00006D17B68002283F83C207868FEF734FA5E
:103CB0007B68242283F83D207B681B681A687B6838
:103CC0001B6822F001021A607B681B681A687B6817
:103CD0001B6842F400421A607B681B681A687B68A4
:103CE0001B6822F400421A6001F032F8F8607B6829
:103CF0005B68814A934207D8FB68804A934294BF2D
:103D000001230023DBB206E0FB687D4A934294BFA7
:103D100001230023DBB2002B01D00123E7E0FB6885
:103D2000784AA2FB03239B0CBB607B681B685B6823
:103D300023F03F017B681B68BA680A435A607B68BE
:103D40001B681B6A23F03F017B685B686A4A9342E9
:103D500002D8BB68013309E0BB684FF4967202FBDE
:103D600003F3694AA2FB03239B0901337A681268B3
:103D70000B4313627B681B68DB6923F44F4222F01C
:103D8000FF027B685B685C498B4219D8FB68591E4F
:103D90007B685B685B00B1FBF3F3591C40F6FC7376
:103DA0000B40002B0AD0FB68591E7B685B685B00E8
:103DB000B1FBF3F30133C3F30B0351E004234FE0F2
:103DC0007B689B68002B11D1FB68581E7B68596883
:103DD0000B465B000B44B0FBF3F30133C3F30B035F
:103DE000002B0CBF01230023DBB212E0FB68581E3E
:103DF0007B6859680B469B000B4499000B44B0FB51
:103E0000F3F30133C3F30B03002B0CBF0123002397
:103E1000DBB2002B01D0012322E07B689B68002BE2
:103E20000ED1FB68581E7B6859680B465B000B443B
:103E3000B0FBF3F30133C3F30B0343F400430FE090
:103E4000FB68581E7B6859680B469B000B44990021
:103E50000B44B0FBF3F30133C3F30B0343F44043D0
:103E6000796809681343CB617B681B681B6823F082
:103E7000C0017B68DA697B681B6A1A437B681B6830
:103E80000A431A607B681B689B6823F4034323F092
:103E9000FF037A6811697A68D26811437A681268F8
:103EA0000B4393607B681B68DB6823F0FF017B6832
:103EB0005A697B689B691A437B681B680A43DA600E
:103EC0007B681B681A687B681B6842F001021A60F5
:103ED0007B6800221A647B68202283F83D207B687F
:103EE00000221A637B68002283F83E2000231846D4
:103EF0001037BD4680BD00BFA08601007F841E0034
:103F0000FF083D0083DE1B43D34D621080B588B0AF
:103F100002AFF8607A601A460B467B8113463B81FC
:103F2000FFF7CCFB7861FB6893F83D30DBB2202BC8
:103F300040F0E0807B690093192301227049F86802
:103F400000F064F90346002B01D00223D3E0FB68A4
:103F500093F83C30012B01D10223CCE0FB68012215
:103F600083F83C20FB681B681B6803F00103012BEE
:103F700007D0FB681B681A68FB681B6842F00102E7
:103F80001A60FB681B681A68FB681B6822F40062F1
:103F90001A60FB68212283F83D20FB68102283F819
:103FA0003E20FB6800221A64FB687A685A62FB684C
:103FB0003A895A85FB685B8D9AB2FB681A85FB6863
:103FC000504ADA6279897B693A6AF86800F09CF8AD
:103FD0000346002B01D001238DE000233B61FB68E9
:103FE0001B685B693B61FB681B689B693B613B69C4
:103FF00066E07A69396AF86800F022FA0346002B15
:104000000DD0FB681B6C042B07D1FB681B681A687A
:10401000FB681B6842F400721A6001236BE0FB68C6
:104020005B6A1A78FB681B681A61FB685B6A5A1C3A
:10403000FB685A62FB685B8D9BB2013B9AB2FB68DE
:104040005A85FB681B8D013B9AB2FB681A85FB6899
:104050001B685B6903F00403042B1BD1FB681B8DF9
:10406000002B17D0FB685B6A1A78FB681B681A6123
:10407000FB685B6A5A1CFB685A62FB685B8D9BB2EB
:10408000013B9AB2FB685A85FB681B8D013B9AB2D3
:10409000FB681A857A69396AF86800F019FA0346EC
:1040A000002B0DD0FB681B6C042B07D1FB681B6831
:1040B0001A68FB681B6842F400721A6001231AE058
:1040C000FB681B8D002B94D1FB681B681A68FB688A
:1040D0001B6842F400721A60FB68202283F83D20BE
:1040E000FB68002283F83E20FB68002283F83C2016
:1040F000002300E0022318461837BD4680BD00BFEC
:10410000020010000000FFFF80B588B002AFF86029
:104110007A603B600B467B81FB68DB6A7B617B6975
:10412000082B06D07B69012B03D07B6913F5803FF8
:1041300008D1FB681B681A68FB681B6842F4807230
:104140001A600BE0FB681B6B122B07D1FB681B6826
:104150001A68FB681B6842F480721A603B6800931F
:104160007B6800224FF00111F86800F04FF8034619
:10417000002B0DD0FB681B681B6803F48073B3F53C
:10418000807F03D1FB684FF400721A64032335E08B
:10419000FB681B69B3F5804F08D17B89DBB21A46F7
:1041A000FB681B6802F0FE021A611BE07B89DB11D1
:1041B000DBB203F00603DBB263F00F03DAB2FB6895
:1041C0001B681A613B687A680E49F86800F098F835
:1041D0000346002B01D0012310E07B89DAB2FB6893
:1041E0001B681A613B687A680749F86800F088F82C
:1041F0000346002B01D0012300E0002318461837A6
:10420000BD4680BD080001000200010080B584B0F9
:1042100000AFF860B9603B601346FB7148E03B6853
:10422000B3F1FF3F44D0FFF749FA0246BB69D31A06
:104230003A689A4202D33B68002B39D1BB681B0C09
:10424000DBB2012B0DD1FB681B685B69DA43BB68ED
:1042500013409BB2002B0CBF01230023DBB21A4694
:104260000CE0FB681B689B69DA43BB6813409BB298
:10427000002B0CBF01230023DBB21A46FB799A42C4
:1042800016D1FB6800221A63FB68202283F83D20C8
:10429000FB68002283F83E20FB681B6C43F0200281
:1042A000FB681A64FB68002283F83C20012323E0AA
:1042B000BB681B0CDBB2012B0DD1FB681B685B6973
:1042C000DA43BB6813409BB2002B0CBF01230023D1
:1042D000DBB21A460CE0FB681B689B69DA43BB68DB
:1042E00013409BB2002B0CBF01230023DBB21A4604
:1042F000FB799A4293D0002318461037BD4680BD03
:1043000080B584B000AFF860B9607A603B6071E05E
:10431000FB681B685B6903F48063B3F5806F23D18E
:10432000FB681B681A68FB681B6842F400721A601D
:10433000FB681B686FF480625A61FB6800221A6395
:10434000FB68202283F83D20FB68002283F83E2092
:10435000FB681B6C43F00402FB681A64FB680022D4
:1043600083F83C20012367E07B68B3F1FF3F41D035
:10437000FFF7A4F902463B68D31A7A689A4202D33F
:104380007B68002B36D1BB681B0CDBB2012B0CD138
:10439000FB681B685B69DA43BB6813409BB2002B68
:1043A00014BF01230023DBB20BE0FB681B689B6991
:1043B000DA43BB6813409BB2002B14BF01230023D8
:1043C000DBB2002B16D0FB6800221A63FB682022A8
:1043D00083F83D20FB68002283F83E20FB681B6CBD
:1043E00043F02002FB681A64FB68002283F83C203B
:1043F000012321E0BB681B0CDBB2012B0CD1FB6855
:104400001B685B69DA43BB6813409BB2002B14BF87
:1044100001230023DBB20BE0FB681B689B69DA43D6
:10442000BB6813409BB2002B14BF01230023DBB2F7
:10443000002B7FF46DAF002318461037BD4680BDBA
:1044400080B584B000AFF860B9607A6034E0F86895
:1044500000F086F80346002B01D0012334E0BB684E
:10446000B3F1FF3F28D0FFF729F902467B68D31A42
:10447000BA689A4202D3BB68002B1DD1FB681B6847
:104480005B6903F08003802B16D0FB6800221A635F
:10449000FB68202283F83D20FB68002283F83E2041
:1044A000FB681B6C43F02002FB681A64FB68002267
:1044B00083F83C20012307E0FB681B685B6903F07D
:1044C0008003802BC3D1002318461037BD4680BD22
:1044D00080B584B000AFF860B9607A6034E0F86805
:1044E00000F03EF80346002B01D0012334E0BB6806
:1044F000B3F1FF3F28D0FFF7E1F802467B68D31AFB
:10450000BA689A4202D3BB68002B1DD1FB681B68B6
:104510005B6903F00403042B16D0FB6800221A63C6
:10452000FB68202283F83D20FB68002283F83E20B0
:10453000FB681B6C43F02002FB681A64FB680022D6
:1045400083F83C20012307E0FB681B685B6903F0EC
:104550000403042BC3D1002318461037BD4680BD89
:1045600080B483B000AF78607B681B685B6903F43C
:104570008063B3F5806F1BD17B681B686FF480622A
:104580005A617B6800221A637B68202283F83D20F1
:104590007B68002283F83E207B681B6C43F004029A
:1045A0007B681A647B68002283F83C20012300E0CA
:1045B000002318460C37BD4680BC704780B586B0D6
:1045C00000AF78607B68002B01D1012372E27B6829
:1045D0001B6803F00103002B00F08780924B5B689F
:1045E00003F00C03042B0CD08F4B5B6803F00C031F
:1045F000082B12D18C4B5B6803F48033B3F5803FFA
:104600000BD1894B1B6803F40033002B6CD07B6803
:104610005B68002B68D101234CE27B685B68B3F5D3
:10462000803F06D1804B1B687F4A43F48033136080
:104630002EE07B685B68002B0CD17B4B1B687A4AB1
:1046400023F480331360784B1B68774A23F480236C
:1046500013601DE07B685B68B3F5A02F0CD1724B33
:104660001B68714A43F4802313606F4B1B686E4ACA
:1046700043F4803313600BE06B4B1B686A4A23F4EE
:1046800080331360684B1B68674A23F480231360F0
:104690007B685B68002B13D0FFF710F8386108E0E7
:1046A000FFF70CF802463B69D31A642B01D90323A8
:1046B00000E25D4B1B6803F40033002BF0D014E0E4
:1046C000FEF7FCFF386108E0FEF7F8FF02463B69A1
:1046D000D31A642B01D90323ECE1534B1B6803F479
:1046E0000033002BF0D100E000BF7B681B6803F0B3
:1046F0000203002B63D04C4B5B6803F00C03002BD0
:104700000BD0494B5B6803F00C03082B1CD1464BC4
:104710005B6803F48033002B16D1434B1B6803F016
:104720000203002B05D07B681B69012B01D00123FC
:10473000C0E13D4B1B6823F0F8027B685B69DB003E
:10474000394913430B603AE07B681B69002B20D08A
:10475000364B01221A60FEF7B1FF386108E0FEF720
:10476000ADFF02463B69D31A022B01D90323A1E115
:104770002D4B1B6803F00203002BF0D02A4B1B6863
:1047800023F0F8027B685B69DB00274913430B6069
:1047900015E0264B00221A60FEF790FF386108E012
:1047A000FEF78CFF02463B69D31A022B01D9032383
:1047B00080E11D4B1B6803F00203002BF0D17B68E6
:1047C0001B6803F00803002B3AD07B689B69002B21
:1047D00019D0174B01221A60FEF770FF386108E00C
:1047E000FEF76CFF02463B69D31A022B01D9032363
:1047F00060E10D4B5B6A03F00203002BF0D0012057
:1048000000F0BAFA1CE00A4B00221A60FEF756FFCD
:1048100038610FE0FEF752FF02463B69D31A022BC4
:1048200008D9032346E100BF0010024000004242C5
:1048300080044242924B5B6A03F00203002BE9D1F1
:104840007B681B6803F00403002B00F0A6800023A4
:10485000FB758B4BDB6903F08053002B0DD1884B2C
:10486000DB69874A43F08053D361854BDB6903F0F2
:104870008053BB60BB680123FB75824B1B6803F44C
:104880008073002B18D17F4B1B687E4A43F48073E2
:104890001360FEF713FF386108E0FEF70FFF0246D2
:1048A0003B69D31A642B01D9032303E1754B1B68C1
:1048B00003F48073002BF0D07B68DB68012B06D1FA
:1048C0006F4B1B6A6E4A43F0010313622DE07B6855
:1048D000DB68002B0CD16A4B1B6A694A23F0010389
:1048E0001362674B1B6A664A23F0040313621CE0E1
:1048F0007B68DB68052B0CD1614B1B6A604A43F077
:10490000040313625E4B1B6A5D4A43F001031362AA
:104910000BE05B4B1B6A5A4A23F001031362584BAE
:104920001B6A574A23F0040313627B68DB68002B81
:1049300015D0FEF7C3FE38610AE0FEF7BFFE02465F
:104940003B69D31A41F28832934201D90323B1E083
:104950004B4B1B6A03F00203002BEED014E0FEF772
:10496000ADFE38610AE0FEF7A9FE02463B69D31AA4
:1049700041F28832934201D903239BE0404B1B6AEA
:1049800003F00203002BEED1FB7D012B05D13C4B44
:10499000DB693B4A23F08053D3617B68DB69002BE2
:1049A00000F08780364B5B6803F00C03082B61D066
:1049B0007B68DB69022B46D1334B00221A60FEF77D
:1049C0007DFE386108E0FEF779FE02463B69D31AA6
:1049D000022B01D903236DE0294B1B6803F0007300
:1049E000002BF0D17B681B6AB3F5803F08D1244BC4
:1049F0005B6823F400327B689B68214913434B605A
:104A00001F4B5B6823F474127B68196A7B685B6ACE
:104A10000B431B4913434B601B4B01221A60FEF7EB
:104A20004DFE386108E0FEF749FE02463B69D31AA5
:104A3000022B01D903233DE0114B1B6803F00073E7
:104A4000002BF0D035E0104B00221A60FEF736FE46
:104A5000386108E0FEF732FE02463B69D31A022BAA
:104A600001D9032326E0064B1B6803F00073002BDB
:104A7000F0D11EE07B68DB69012B07D1012319E02F
:104A80000010024000700040600042420B4B5B6827
:104A9000FB60FB6803F480327B681B6A9A4206D194
:104AA000FB6803F470127B685B6A9A4201D00123B1
:104AB00000E0002318461837BD4680BD00100240B4
:104AC00080B584B000AF786039607B68002B01D17D
:104AD0000123D0E06A4B1B6803F007033A689A424F
:104AE00010D9674B1B6823F0070265493B681343E5
:104AF0000B60634B1B6803F007033A689A4201D0CE
:104B00000123B8E07B681B6803F00203002B20D070
:104B10007B681B6803F00403002B05D0594B5B68CE
:104B2000584A43F4E06353607B681B6803F0080352
:104B3000002B05D0534B5B68524A43F460535360DB
:104B4000504B5B6823F0F0027B689B684D49134330
:104B50004B607B681B6803F00103002B40D07B682F
:104B60005B68012B07D1474B1B6803F40033002B14
:104B700015D101237FE07B685B68022B07D1414B95
:104B80001B6803F00073002B09D1012373E03D4B38
:104B90001B6803F00203002B01D101236BE0394BAA
:104BA0005B6823F003027B685B68364913434B6004
:104BB000FEF784FDF8600AE0FEF780FD0246FB6820
:104BC000D31A41F28832934201D9032353E02D4B8B
:104BD0005B6803F00C027B685B689B009A42EBD138
:104BE000274B1B6803F007033A689A4210D2244B04
:104BF0001B6823F0070222493B6813430B60204BDC
:104C00001B6803F007033A689A4201D0012332E09F
:104C10007B681B6803F00403002B08D0194B5B680A
:104C200023F4E0627B68DB68164913434B607B68C2
:104C30001B6803F00803002B09D0124B5B6823F4B8
:104C400060527B681B69DB000E4913434B6000F028
:104C500021F802460B4B5B681B0903F00F030A495E
:104C6000CB5C22FA03F3094A1360094B1B68184610
:104C7000FEF7E2FC002318461037BD4680BD00BF9A
:104C80000020024000100240149B00083000002069
:104C90003400002080B487B000AF0023FB60002305
:104CA000BB6000237B6100237B6000233B611E4BC4
:104CB0005B68FB60FB6803F00C03042B02D0082B3D
:104CC00003D027E0194B3B6127E0FB689B0C03F006
:104CD0000F03174AD35C7B60FB6803F48033002B1F
:104CE00010D0114B5B685B0C03F00103114AD35CDD
:104CF000BB607B680D4A03FB02F2BB68B2FBF3F3B7
:104D00007B6104E07B680C4A02FB03F37B617B69F7
:104D10003B6102E0054B3B6100BF3B6918461C3715
:104D2000BD4680BC704700BF0010024000127A00F0
:104D30002C9B00083C9B000800093D0080B400AF9C
:104D4000024B1B681846BD4680BC704730000020EF
:104D500080B500AFFFF7F2FF0246054B5B681B0A08
:104D600003F007030349CB5C22FA03F3184680BD26
:104D700000100240249B000880B485B000AF78602A
:104D80000A4B1B680A4AA2FB03235B0A7A6802FBF0
:104D900003F3FB6000BFFB685A1EFA60002BF9D1D9
:104DA00000BF00BF1437BD4680BC704730000020F4
:104DB000D34D621080B582B000AF78607B68002B65
:104DC00001D1012341E07B6893F83D30DBB2002B39
:104DD00006D17B68002283F83C207868FEF72AFB26
:104DE0007B68022283F83D207B681A687B68043365
:104DF0001946104600F0B6FC7B68012283F8462075
:104E00007B68012283F83E207B68012283F83F20E3
:104E10007B68012283F840207B68012283F84120CF
:104E20007B68012283F842207B68012283F84320BB
:104E30007B68012283F844207B68012283F84520A7
:104E40007B68012283F83D20002318460837BD46C1
:104E500080BD80B582B000AF78607B68002B01D147
:104E6000012341E07B6893F83D30DBB2002B06D193
:104E70007B68002283F83C20786800F039F87B6872
:104E8000022283F83D207B681A687B680433194648
:104E9000104600F067FC7B68012283F846207B689F
:104EA000012283F83E207B68012283F83F207B6843
:104EB000012283F840207B68012283F841207B682F
:104EC000012283F842207B68012283F843207B681B
:104ED000012283F844207B68012283F845207B6807
:104EE000012283F83D20002318460837BD4680BDC7
:104EF00080B483B000AF786000BF0C37BD4680BC83
:104F00007047000080B584B000AF786039603B68BE
:104F1000002B09D17B6893F83E30DBB2012B14BF24
:104F200001230023DBB222E03B68042B09D17B681C
:104F300093F83F30DBB2012B14BF01230023DBB217
:104F400015E03B68082B09D17B6893F84030DBB251
:104F5000012B14BF01230023DBB208E07B6893F828
:104F60004130DBB2012B14BF01230023DBB2002B45
:104F700001D001235EE03B68002B04D17B68022254
:104F800083F83E2013E03B68042B04D17B680222A7
:104F900083F83F200BE03B68082B04D17B6802229A
:104FA00083F8402003E07B68022283F841207B687D
:104FB0001B6801223968184600F060FE7B681B6898
:104FC0001E4A934207D17B681B685A6C7B681B683A
:104FD00042F400425A647B681B68184A93420ED020
:104FE0007B681B68B3F1804F09D07B681B68144A4B
:104FF000934204D07B681B68124A934211D17B68AC
:105000001B689B6803F00703FB60FB68062B10D04E
:105010007B681B681A687B681B6842F001021A6093
:1050200007E07B681B681A687B681B6842F0010216
:105030001A60002318461037BD4680BD002C014081
:10504000000400400008004080B584B000AF7860E4
:1050500039600023FB733B68002B09D17B6893F810
:105060003E30DBB2012B14BF01230023DBB222E070
:105070003B68042B09D17B6893F83F30DBB2012BEE
:1050800014BF01230023DBB215E03B68082B09D1D4
:105090007B6893F84030DBB2012B14BF012300235F
:1050A000DBB208E07B6893F84130DBB2012B14BF20
:1050B00001230023DBB2002B01D00123A9E03B68D0
:1050C000002B04D17B68022283F83E2013E03B686A
:1050D000042B04D17B68022283F83F200BE03B685D
:1050E000082B04D17B68022283F8402003E07B6810
:1050F000022283F841203B680C2B41D801A252F8D0
:1051000023F000BF39510008815100088151000887
:10511000815100084B51000881510008815100085D
:10512000815100085D51000881510008815100083B
:10513000815100086F5100087B681B68DA687B6842
:105140001B6842F00202DA601DE07B681B68DA68C7
:105150007B681B6842F00402DA6014E07B681B681D
:10516000DA687B681B6842F00802DA600BE07B6853
:105170001B68DA687B681B6842F01002DA6002E0A4
:105180000123FB7300BFFB7B002B41D17B681B68B5
:1051900001223968184600F071FD7B681B681F4AC0
:1051A000934207D17B681B685A6C7B681B6842F48A
:1051B00000425A647B681B68184A93420ED07B6891
:1051C0001B68B3F1804F09D07B681B68144A934277
:1051D00004D07B681B68134A934211D17B681B681B
:1051E0009B6803F00703BB60BB68062B10D07B688D
:1051F0001B681A687B681B6842F001021A6007E0AE
:105200007B681B681A687B681B6842F001021A60A1
:10521000FB7B18461037BD4680BD00BF002C014007
:10522000000400400008004080B584B000AF786002
:105230007B681B68DB68FB607B681B681B69BB6065
:10524000BB6803F00203002B20D0FB6803F00203CD
:10525000002B1BD07B681B686FF002021A617B6811
:1052600001221A777B681B689B6903F00303002BFC
:1052700003D0786800F063FA05E0786800F056FA29
:105280007868FBF72FFB7B6800221A77BB6803F076
:105290000403002B20D0FB6803F00403002B1BD079
:1052A0007B681B686FF004021A617B6802221A7720
:1052B0007B681B689B6903F44073002B03D07868FC
:1052C00000F03DFA05E0786800F030FA7868FBF706
:1052D00009FB7B6800221A77BB6803F00803002BE8
:1052E00020D0FB6803F00803002B1BD07B681B68F1
:1052F0006FF008021A617B6804221A777B681B68CA
:10530000DB6903F00303002B03D0786800F017FA81
:1053100005E0786800F00AFA7868FBF7E3FA7B6842
:1053200000221A77BB6803F01003002B20D0FB6823
:1053300003F01003002B1BD07B681B686FF010027A
:105340001A617B6808221A777B681B68DB6903F4A3
:105350004073002B03D0786800F0F1F905E078681D
:1053600000F0E4F97868FBF7BDFA7B6800221A7751
:10537000BB6803F00103002B0CD0FB6803F00103B2
:10538000002B07D07B681B686FF001021A617868F8
:1053900000F0C3F9BB6803F08003002B0CD0FB685E
:1053A00003F08003002B07D07B681B686FF080023E
:1053B0001A61786800F03EFDBB6803F04003002BE3
:1053C0000CD0FB6803F04003002B07D07B681B6800
:1053D0006FF040021A61786800F0BAF9BB6803F018
:1053E0002003002B0CD0FB6803F02003002B07D018
:1053F0007B681B686FF020021A61786800F011FD6D
:1054000000BF1037BD4680BD80B586B000AFF860E4
:10541000B9607A600023FB75FB6893F83C30012B80
:1054200001D10223AEE0FB68012283F83C207B68B7
:105430000C2B00F29F8001A252F823F07154000857
:10544000755500087555000875550008B1540008D9
:10545000755500087555000875550008F354000887
:105460007555000875550008755500083355000836
:10547000FB681B68B968184600F0E2F9FB681B6816
:105480009A69FB681B6842F008029A61FB681B6816
:105490009A69FB681B6822F004029A61FB681B682A
:1054A0009969BB681A69FB681B680A439A6164E0E2
:1054B000FB681B68B968184600F028FAFB681B688F
:1054C0009A69FB681B6842F400629A61FB681B687A
:1054D0009A69FB681B6822F480629A61FB681B680A
:1054E0009969BB681B691A02FB681B680A439A61C9
:1054F00043E0FB681B68B968184600F071FAFB6866
:105500001B68DA69FB681B6842F00802DA61FB6815
:105510001B68DA69FB681B6822F00402DA61FB6829
:105520001B68D969BB681A69FB681B680A43DA61A2
:1055300023E0FB681B68B968184600F0BBFAFB68FB
:105540001B68DA69FB681B6842F40062DA61FB6879
:105550001B68DA69FB681B6822F48062DA61FB6809
:105560001B68D969BB681B691A02FB681B680A4380
:10557000DA6102E00123FB7500BFFB68002283F8BB
:105580003C20FB7D18461837BD4680BD80B584B0F1
:1055900000AF786039600023FB737B6893F83C3080
:1055A000012B01D10223B4E07B68012283F83C2067
:1055B0007B68022283F83D207B681B689B68BB6088
:1055C000BB6823F07703BB60BB6823F47F43BB60F9
:1055D0007B681B68BA689A603B681B68B3F5005F1C
:1055E0003ED0B3F5005F00F28780B3F5805F00F036
:1055F0008680B3F5805F7FD8702B1AD0702B7BD854
:10560000602B50D0602B77D8502B3CD0502B73D8C8
:10561000402B58D0402B6FD8302B64D0302B6BD818
:10562000202B60D0202B67D8002B5CD0102B5AD0B9
:1056300062E07B6818683B6899683B685A683B6819
:10564000DB6800F0FCFA7B681B689B68BB60BB688A
:1056500043F07703BB607B681B68BA689A604FE0D1
:105660007B6818683B6899683B685A683B68DB68E8
:1056700000F0E5FA7B681B689A687B681B6842F457
:1056800080429A603CE07B6818683B6859683B68D8
:10569000DB681A4600F05CFA7B681B6850211846EC
:1056A00000F0B3FA2CE07B6818683B6859683B68E7
:1056B000DB681A4600F07AFA7B681B68602118469E
:1056C00000F0A3FA1CE07B6818683B6859683B68E7
:1056D000DB681A4600F03CFA7B681B6840211846DC
:1056E00000F093FA0CE07B681A683B681B68194667
:1056F000104600F08AFA03E00123FB7300E000BFCC
:105700007B68012283F83D207B68002283F83C20DF
:10571000FB7B18461037BD4680BD80B483B000AF18
:10572000786000BF0C37BD4680BC704780B483B042
:1057300000AF786000BF0C37BD4680BC704780B4B6
:1057400083B000AF786000BF0C37BD4680BC7047A7
:1057500080B483B000AF786000BF0C37BD4680BC1A
:105760007047000080B485B000AF786039607B6816
:105770001B68FB607B682F4A93420BD07B68B3F1B8
:10578000804F07D07B682C4A934203D07B682B4A1A
:10579000934208D1FB6823F07003FB603B685B68B1
:1057A000FA681343FB607B68224A93420BD07B6804
:1057B000B3F1804F07D07B681F4A934203D07B68C8
:1057C0001E4A934208D1FB6823F44073FB603B6898
:1057D000DB68FA681343FB60FB6823F080023B68D8
:1057E0005B691343FB607B68FA681A603B689A68E0
:1057F0007B68DA623B681A687B689A627B680D4A4C
:10580000934203D13B681A697B681A637B68012263
:105810005A617B681B6903F00103002B05D07B688C
:105820001B6923F001027B681A6100BF1437BD4673
:1058300080BC7047002C014000040040000800407C
:1058400080B487B000AF786039607B681B6A7B6189
:105850007B681B6A23F001027B681A627B685B68C5
:105860003B617B689B69FB60FB6823F07003FB6016
:10587000FB6823F00303FB603B681B68FA68134373
:10588000FB607B6923F002037B613B689B687A695C
:1058900013437B617B681C4A93420CD17B6923F0E4
:1058A00008037B613B68DB687A6913437B617B6932
:1058B00023F004037B617B68134A934211D13B6957
:1058C00023F480733B613B6923F400733B613B68C5
:1058D0005B693A6913433B613B689B693A691343CF
:1058E0003B617B683A695A607B68FA689A613B68F9
:1058F0005A687B685A637B687A691A6200BF1C37F2
:10590000BD4680BC704700BF002C014080B487B00A
:1059100000AF786039607B681B6A7B617B681B6ABB
:1059200023F010027B681A627B685B683B617B68CE
:105930009B69FB60FB6823F4E043FB60FB6823F496
:105940004073FB603B681B681B02FA681343FB60F3
:105950007B6923F020037B613B689B681B017A69AC
:1059600013437B617B681D4A93420DD17B6923F011
:1059700080037B613B68DB681B017A6913437B61B1
:105980007B6923F040037B617B68144A934213D107
:105990003B6923F480633B613B6923F400633B6113
:1059A0003B685B699B003A6913433B613B689B69B9
:1059B0009B003A6913433B617B683A695A607B6894
:1059C000FA689A613B685A687B689A637B687A696F
:1059D0001A6200BF1C37BD4680BC7047002C0140D6
:1059E00080B487B000AF786039607B681B6A7B61E8
:1059F0007B681B6A23F480727B681A627B685B6831
:105A00003B617B68DB69FB60FB6823F07003FB6034
:105A1000FB6823F00303FB603B681B68FA681343D1
:105A2000FB607B6923F400737B613B689B681B020E
:105A30007A6913437B617B681D4A93420DD17B6970
:105A400023F400637B613B68DB681B027A691343C4
:105A50007B617B6923F480637B617B68144A93429A
:105A600013D13B6923F480533B613B6923F400531A
:105A70003B613B685B691B013A6913433B613B68CF
:105A80009B691B013A6913433B617B683A695A6021
:105A90007B68FA68DA613B685A687B68DA637B681E
:105AA0007A691A6200BF1C37BD4680BC704700BFD0
:105AB000002C014080B487B000AF786039607B680B
:105AC0001B6A3B617B681B6A23F480527B681A6205
:105AD0007B685B687B617B68DB69FB60FB6823F448
