:020000040800F2
:1000000000500020953000088D2A0008952A00082D
:100010009D2A0008A52A0008AD2A0008000000005B
:1000200000000000000000000000000071CA00088D
:10003000B52A00080000000051CC0008C12A0008C1
:10004000DD300008DD300008DD300008DD3000085C
:10005000DD300008DD300008DD300008DD3000084C
:10006000DD300008DD300008192B0008DD30000805
:10007000DD300008DD300008DD300008DD3000082C
:10008000DD300008DD300008DD300008DD3000081C
:10009000DD2A0008DD300008DD300008272B0008CD
:1000A000DD300008DD300008DD300008DD300008FC
:1000B000F12A0008052B0008DD300008DD300008BB
:1000C000DD300008DD300008DD300008DD300008DC
:1000D000DD300008DD300008DD300008DD300008CC
:1000E000DD300008DD300008DD30000800000000D1
:1000F0000000000000000000000000000000000000
:0C01000000000000000000005FF808F1A3
:1001100010B5054C237833B9044B13B10448AFF341
:1001200000800123237010BD0402002000000000A5
:1001300080E4000808B5034B1BB103490348AFF343
:10014000008008BD000000000802002080E40008D4
:10015000034613F8012B002AFBD1181A0138704707
:1001600080F0004002E000BF81F0004142001FBF6C
:100170005FEA410392EA030F7FEA226C7FEA236C75
:100180006AD04FEA1262D2EB1363C1BFD21841406A
:1001900048404140B8BF5B42192B88BF704710F000
:1001A000004F40F4000020F07F4018BF404211F0A3
:1001B000004F41F4000121F07F4118BF494292EA0B
:1001C000030F3FD0A2F1010241FA03FC10EB0C0037
:1001D000C3F1200301FA03F100F0004302D54942C4
:1001E00060EB4000B0F5000F13D3B0F1807F06D371
:1001F00040084FEA310102F10102FE2A51D2B1F169
:10020000004F40EBC25008BF20F0010040EA03005D
:100210007047490040EB0000013A28BFB0F5000FDD
:10022000EDD2B0FA80FCACF1080CB2EB0C0200FA93
:100230000CF0AABF00EBC25052421843BCBFD040E2
:100240001843704792F0000F81F4000106BF80F45C
:1002500000000132013BB5E74FEA41037FEA226C1F
:1002600018BF7FEA236C21D092EA030F04D092F0EA
:10027000000F08BF0846704790EA010F1CBF00201E
:10028000704712F07F4F04D1400028BF40F000407B
:10029000704712F100723CBF00F50000704700F09B
:1002A000004343F0FE4040F4000070477FEA2262C2
:1002B00016BF08467FEA23630146420206BF5FEA93
:1002C000412390EA010F40F4800070474FF0000393
:1002D00004E000BF10F0004348BF40425FEA000C5A
:1002E00008BF704743F0964301464FF000001CE002
:1002F00050EA010208BF70474FF000030AE000BF58
:1003000050EA010208BF704711F0004302D5404295
:1003100061EB41015FEA010C02BF84460146002007
:1003200043F0B64308BFA3F18053A3F50003BCFA22
:100330008CF2083AA3EBC25310DB01FA02FC6344CF
:1003400000FA02FCC2F12002BCF1004F20FA02F2D6
:1003500043EB020008BF20F00100704702F12002C9
:1003600001FA02FCC2F1200250EA4C0021FA02F22A
:1003700043EB020008BF20EADC7070474FF0FF0C2F
:100380001CEAD0521EBF1CEAD15392EA0C0F93EA2A
:100390000C0F6FD01A4480EA010C400218BF5FEACC
:1003A00041211ED04FF0006343EA501043EA51113F
:1003B000A0FB01310CF00040B1F5000F3EBF490039
:1003C00041EAD3715B0040EA010062F17F02FD2A3D
:1003D0001DD8B3F1004F40EBC25008BF20F0010020
:1003E000704790F0000F0CF0004C08BF49024CEA37
:1003F000502040EA51207F3AC2BFD2F1FF0340EAC9
:10040000C250704740F400004FF00003013A5DDC39
:1004100012F1190FDCBF00F000407047C2F100027A
:10042000410021FA02F1C2F1200200FA02FC5FEA67
:10043000310040F1000053EA4C0308BF20EADC70B1
:10044000704792F0000F00F0004C02BF400010F423
:10045000000F013AF9D040EA0C0093F0000F01F0D0
:10046000004C02BF490011F4000F013BF9D041EAF2
:100470000C018FE70CEAD15392EA0C0F18BF93EAF4
:100480000C0F0AD030F0004C18BF31F0004CD8D11E
:1004900080EA010000F00040704790F0000F17BFA5
:1004A00090F0004F084691F0000F91F0004F14D0EB
:1004B00092EA0C0F01D142020FD193EA0C0F03D143
:1004C0004B0218BF084608D180EA010000F0004046
:1004D00040F0FE4040F40000704740F0FE4040F421
:1004E000400070474FF0FF0C1CEAD0521EBF1CEAC0
:1004F000D15392EA0C0F93EA0C0F69D0A2EB0302DE
:1005000080EA010C49024FEA402037D04FF0805377
:1005100043EA111143EA10130CF000408B4238BF3C
:100520005B0042F17D024FF4000C8B4224BF5B1A4A
:1005300040EA0C00B3EB510F24BFA3EB510340EA98
:100540005C00B3EB910F24BFA3EB910340EA9C0046
:10055000B3EBD10F24BFA3EBD10340EADC001B01B6
:1005600018BF5FEA1C1CE0D1FD2A3FF650AF8B425A
:1005700040EBC25008BF20F0010070470CF0004C67
:100580004CEA50207F32C2BFD2F1FF0340EAC25092
:10059000704740F400004FF00003013A37E792F053
:1005A000000F00F0004C02BF400010F4000F013AB1
:1005B000F9D040EA0C0093F0000F01F0004C02BFAC
:1005C000490011F4000F013BF9D041EA0C0195E715
:1005D0000CEAD15392EA0C0F08D142027FF47DAFAE
:1005E00093EA0C0F7FF470AF084676E793EA0C0F9E
:1005F00004D14B023FF44CAF08466EE730F0004C9C
:1006000018BF31F0004CCAD130F000427FF45CAF2B
:1006100031F000437FF43CAF5FE700BF4FF0FF3C99
:1006200006E000BF4FF0010C02E000BF4FF0010CEC
:100630004DF804CD4FEA40024FEA41037FEA226CB5
:1006400018BF7FEA236C11D001B052EA530C18BFD7
:1006500090EA010F58BFB2EB030088BFC81738BF3C
:100660006FEAE17018BF40F0010070477FEA226C2A
:1006700002D15FEA402C05D17FEA236CE4D15FEA26
:10068000412CE1D05DF8040B704700BF844608465A
:100690006146FFE70FB5FFF7C9FF002848BF10F11B
:1006A000000F0FBD4DF808EDFFF7F4FF0CBF012060
:1006B00000205DF808FB00BF4DF808EDFFF7EAFFEA
:1006C00034BF012000205DF808FB00BF4DF808EDA5
:1006D000FFF7E0FF94BF012000205DF808FB00BF9A
:1006E0004DF808EDFFF7D2FF94BF012000205DF820
:1006F00008FB00BF4DF808EDFFF7C8FF34BF01202D
:1007000000205DF808FB00BF4FEA40024FEA4103BA
:100710007FEA226C02D15FEA402C08D17FEA236C89
:1007200002D15FEA412C02D14FF0000070474FF038
:100730000100704742000ED2B2F1FE4F0BD34FF0D2
:100740009E03B3EB126209D44FEA002343F0004347
:1007500023FA02F070474FF00000704712F1610F6A
:1007600001D1420202D14FF0FF3070474FF000003C
:10077000704700BF80B483B000AF0346FB71FB79C4
:10078000002B02D0012B02D003E0054B02E0054B09
:1007900000E0054B18460C37BD4680BC704700BFD3
:1007A000BCE9000844EA0008CCEA000880B483B041
:1007B00000AF03460A46FB711346BB71BB793F2B62
:1007C00001D900230FE0FA79BB791344402B03D9F8
:1007D000BB79C3F14003FB71BA79FB791344DBB2F7
:1007E000C3F14003DBB218460C37BD4680BC7047EE
:1007F00090B587B002AF0446084611461A46234614
:10080000FB710346BB710B467B7113463B71BB7991
:100810001B211846FFF7CAFF0346FB737B79184676
:10082000FFF7A8FF0246F97BF87997F8203001938B
:1008300000921B23282201F01FFC3B7983F0010367
:10084000DBB2002B1ED1BB790D2B03D9BB790D3B3D
:10085000DBB200E00023BB73FB790B337B73BB7B04
:100860000C211846FFF7A2FF03463B73397B787BC8
:1008700097F820300193054B00930C23122201F0CE
:10088000FBFB00E000BF1437BD4690BD54EB0008F1
:1008900080B586B002AF03460A46FB711346BB71B2
:1008A0002123FB730123BB73BB7B3E211846FFF75B
:1008B0007DFF03467B7301F093FB797BF87BFB792B
:1008C0000193074B00933E233E2201F0D5FBBB79F9
:1008D000002B01D001F092FD00BF1037BD4680BD56
:1008E000CCE7000880B582B000AF78607B681B68F9
:1008F000B3F1804F02D1074802F072F87B681B68A1
:10090000054A934202D1054802F06AF800BF083751
:10091000BD4680BD2002002000040040840200206B
:1009200080B584B000AF0346FB80FB88184600F01A
:10093000AAF90346FB73FB7B032B12D802F028FCB9
:10094000B860FB7B094A52F82330BA68D31A1D2BD2
:1009500007D9FB7B0549BA6841F82320044AFB7B91
:10096000137000BF1037BD4680BD00BFF0020020ED
:100970000000002080B485B000AFF860B9607A60F4
:10098000FB68064A1A60BB68054A1A607B688022C9
:100990001A6000BF1437BD4680BC70472403002096
:1009A00078030020B0B59AB000AF00233B66002367
:1009B0007B6607F16003012118460AF015FD034626
:1009C000244A13600023BB650023FB6507F158032D
:1009D000012118460AF008FD03461F4A13601F4B09
:1009E00007F13C041D460FCD0FC495E8070084E8CD
:1009F000070007F13C03002118460AF095FC034666
:100A0000174A1360174B07F120041D460FCD0FC482
:100A100095E8070084E8070007F120030021184645
:100A20000AF082FC0346104A1360104B3C1D1D4621
:100A30000FCD0FC495E8070084E807003B1D002197
:100A400018460AF071FC0346094A136000BF683774
:100A5000BD46B0BD1C030020200300201CE500089B
:100A60001003002040E500081403002064E500089E
:100A70001803002080B584B000AF03463960FB71D5
:100A8000FB79072B09D8FB79C3F10703FB73FB7BC9
:100A90003968184601F02EFC00E000BF1037BD4653
:100AA00080BD80B584B000AF786039601522202108
:100AB00078680CF0CDFF7B68153300221A703B6814
:100AC000002B16D03868FFF743FBF860FB68152B46
:100AD00001D91523FB60FB68C3F115035B08BB60FC
:100AE0007A68BB681344FA68396818460CF0E4FF6A
:100AF00000E000BF1037BD4680BD80B588B000AFB4
:100B000003463960FB7107F1080339681846FFF79F
:100B1000C8FF07F10802FB7911461846FFF7AAFF44
:100B200000BF2037BD4680BD80B584B000AF03460E
:100B3000FB710B46BB7113467B71BB7901211846D3
:100B4000FFF734FE0346FB737A79F97BFB7918468D
:100B500001F052FA00BF1037BD4680BD90B585B098
:100B600000AF0446084611461A462346FB71034669
:100B7000BB710B467B7113463B717B79002B49D0CF
:100B80003B79002B46D00023FB731BE0FA79FB7BFB
:100B90001344DBB297F82020B9791846FFF7C4FF59
:100BA000FA79FB7B1344D8B2BA793B791344DBB2B0
:100BB000013BDBB297F820201946FFF7B5FFFB7B1E
:100BC0000133FB73FA7B7B799A42DFD30023FB73FB
:100BD0001BE0BA79FB7B1344D9B297F82020FB794C
:100BE0001846FFF7A1FFFA797B791344DBB2013B8A
:100BF000D8B2BA79FB7B1344DBB297F820201946B0
:100C0000FFF792FFFB7B0133FB73FA7B3B799A4240
:100C1000DFD300E000BF1437BD4690BD90B585B06E
:100C200000AF0446084611461A462346FB710346A8
:100C3000BB710B467B7113463B710023BB7319E0FC
:100C40000023FB730FE0FA79FB7B1344D8B2BA7927
:100C5000BB7B1344DBB297F820201946FFF764FFF3
:100C6000FB7B0133FB73FA7B7B799A42EBD3BB7B33
:100C70000133BB73BA7B3B799A42E1D300BF00BF1B
:100C80001437BD4690BD80B483B000AF0346FB80EF
:100C9000FB88802B01D100230FE0FB88402B01D182
:100CA00001230AE0FB88102B01D1022305E0FB8819
:100CB000202B01D1032300E0042318460C37BD4646
:100CC00080BC704780B586B000AF07F108030022F2
:100CD0001A605A609A60DA60154B9B69144A43F0B7
:100CE00008039361124B9B6903F008037B607B68E8
:100CF000F023BB600F4BFB6001233B6107F108034E
:100D000019460D4802F05CFB002205210A2002F082
:100D100020FB0A2002F039FB00220521172002F0F7
:100D200018FB172002F031FB00BF1837BD4680BD0D
:100D30000010024000002110000C014080B400AF00
:100D400000BFBD4680BC704780B483B000AF03468F
:100D5000FB71084B1B78DBB2FA799A4204D1054B40
:100D600004221A70012300E0002318460C37BD4608
:100D700080BC70470000002080B500AF10210548FE
:100D800002F0A2FC0346012B0CBF01230023DBB2BF
:100D9000184680BD0008014080B500AF0821054815
:100DA00002F092FC0346002B0CBF01230023DBB2B0
:100DB000184680BD0008014080B400AF054B1B7889
:100DC000122B01D9122301E0024B1B781846BD46B5
:100DD00080BC70473000002080B483B000AF034671
:100DE000FB71FB79122B01D91223FB71034AFB79AA
:100DF000137000BF0C37BD4680BC70473000002028
:100E000080B483B000AF0346FB71FB79002B02D0A6
:100E1000012B02D003E0002302E0012300E00223C3
:100E200018460C37BD4680BC7047000080B588B0BE
:100E300002AF01F0D5F8154B1B781A46144B53F846
:100E400022303846134A16210CF0CCFD0F4B1B788C
:100E50001846FFF7D5FF03461A46012300930123E6
:100E60000D210020FFF7C4FC3A4602230F21362053
:100E700001F000FA0123084A3221002001F0FAF9BA
:100E800001F0BCFA00BF1837BD4680BD010000204C
:100E90000C00002080E5000884E5000880B500AF64
:100EA00000210120FFF7F4FC03490720FFF725FE8E
:100EB00001F0A4FA00BF80BD98E5000880B584B0B9
:100EC00000AFF860B9607A60FB7001F089F8FB68E8
:100ED000002B03D0F9680120FFF70FFEBB68002B41
:100EE00003D0B9680320FFF708FE7B68002B03D00E
:100EF00079680520FFF701FE01F080FA00BF103786
:100F0000BD4680BD80B586B002AF0346FB71FB795C
:100F1000642B01D96423FB71FB795A2202FB03F392
:100F20000D4AA2FB03235B09FB73012300930A23F1
:100F30005C2232211320FFF711FEFB7B002B07D030
:100F4000FA7B01230093082333211420FFF766FE68
:100F500000BF1037BD4680BD1F85EB5180B582B004
:100F600000AF0BF017F90246204B1B68D31A3B6009
:100F70001F4B1B683A689A4204D36423FB71052314
:100F8000BB7118E03B68642203FB02F2184B1B683C
:100F9000B2FBF3F3FB713A6813465B0013445B004A
:100FA0001A46134B1B68B2FBF3F3BB71BB79052BDD
:100FB00001D90523BB7101F013F802230D4A00216A
:100FC000182001F057F9BB790B4A52F82330194623
:100FD0000320FFF792FDFB791846FFF793FF01F01E
:100FE0000DFA00BF0837BD4680BD00BF0C030020CE
:100FF00008000020B0E500081800002080B582B08D
:1010000002AF00F0EDFF0B490120FFF776FD0A4B20
:101010001B781846FFF7F4FE03461A460123009397
:1010200001230D212820FFF7E3FB01F0E7F900BFC2
:10103000BD4680BDB8E500080100002080B584B041
:1010400000AF1E4B1B78002B01D11D4B00E01D4B48
:10105000FB601A4B1B78012B01D11B4B00E01B4B93
:10106000BB60164B1B78022B01D1194B00E0194BCA
:101070007B6000F0B5FF18490720FFF73EFD012314
:10108000FA680C21002001F0F5F80123BA68182154
:10109000002001F0EFF801237A682421002001F0FC
:1010A000E9F801230D4A32210F2001F0E3F801F0A5
:1010B000A5F900BF1037BD4680BD00BF0103002069
:1010C000CCE50008E4E50008FCE5000814E60008AB
:1010D0002CE6000844E600085CE6000868E6000824
:1010E00080B586B000AF00F07BFF0E490720FFF708
:1010F00004FD0D4B1B7838460C4A16210CF072FC8F
:101100003A46022318211A2001F0B4F80123084AB4
:1011100032210F2001F0AEF801F070F900BF18374E
:10112000BD4680BD7CE60008030000208CE6000878
:1011300068E6000890B589B002AF00F051FF1D4984
:101140000720FFF7DAFC1C4B1B7838461B4A162198
:101150000CF048FC3A4601230E21002001F08AF8E9
:10116000FFF70AFE0346002B01D0154C00E0154C9A
:10117000FFF712FE0346002B01D0114B00E0124B8B
:10118000384600932346114A16210CF02BFC3A46B0
:1011900001231C21002001F06DF801230C4A3221AB
:1011A000462001F067F801F029F900BF1C37BD4661
:1011B00090BD00BF94E6000802000020A0E60008F1
:1011C000B0E60008B0E40008B4E60008B8E600089D
:1011D000CCE6000880B500AF00F002FF064907200A
:1011E000FFF78BFC0123054A32210F2001F042F862
:1011F00001F004F900BF80BDD4E6000868E60008ED
:1012000080B582B000AF0346FB71164AFB791370BC
:101210000AF0C0FF0346144A1360144B01221A70EF
:10122000FB79062B1AD1104B1B68114A1360114B26
:101230001B781A46104B33F812301A4613469B009F
:1012400013441B011A460D4B1A600C4B1B68B3F577
:10125000FA5F03D2094B4FF4FA521A6000BF083705
:10126000BD4680BD000300200403002004000020D0
:101270000C03002001000020E8EB0008080000201B
:1012800080B582B002AF534B1B780B2B00F29E80CF
:1012900001A252F823F000BFC9120008CF120008C3
:1012A000D5120008E3120008251300086713000890
:1012B000A9130008AF130008B5130008BB130008FA
:1012C000C1130008C7130008FFF7E8FD7FE0FFF730
:1012D000ADFD7CE00123404A40494148FFF7EEFD67
:1012E00075E000F07DFE012301933E4B00931C232B
:1012F0001F222421302000F0BFFE02233A4A22217F
:101300000F2000F0B7FF0123384A36210E2000F0ED
:10131000B1FF0123364A0021762000F0ABFF01F037
:101320006DF854E000F05CFE012301932D4B009317
:101330001C231F222421302000F09EFE02232D4A70
:1013400022210F2000F096FF01232B4A36210A208C
:1013500000F090FF0123264A0021762000F08AFF4A
:1013600001F04CF833E000F03BFE012301931D4BEC
:1013700000931C231F222421302000F07DFE022335
:101380001E4A22210F2000F075FF01231C4A36213E
:101390000A2000F06FFF0123154A0021762000F09B
:1013A00069FF01F02BF812E0FFF7D8FD0FE0FFF71F
:1013B00025FE0CE0FFF742FE09E0FFF791FE06E094
:1013C000FFF708FF03E0FFF7B5FE00E000BF00BF36
:1013D000BD4680BD00030020E0E60008ECE6000802
:1013E00000E7000878EB00080CE7000818E70008A1
:1013F0002CE7000830E700083CE7000850E7000849
:101400005CE7000880B584B000AF0AF0C3FEF86066
:10141000AA4B1B68FA68D31ABB60A94B1B68FA6811
:10142000D31A7B60A74B1B780B2B00F2C88101A25B
:1014300052F823F06514000877140008F914000826
:10144000411500086115000881150008971500086E
:10145000FB1500081D160008E91600086F170008A4
:10146000AB170008BB68B3F5FA6FC0F0AA81012082
:10147000FFF7C6FEA5E10120FFF766FC0346002B3F
:101480000ED0914B1B78002B04D08F4B1B78013B67
:10149000DBB200E002238C4A13708C4B01221A70DD
:1014A0000020FFF751FC0346002B10D0864B1B7821
:1014B000591C874BA3FB01235A0813465B001344B6
:1014C000CA1AD2B2804B1A70804B01221A700320C4
:1014D000FFF73AFC0346002B03D00820FFF790FEED
:1014E00084E10220FFF730FC0346002B00F06B8103
:1014F0000220FFF785FE66E1FFF73EFC034683F01E
:101500000103DBB2002B03D00320FFF779FE6DE16E
:10151000FFF742FC034683F00103DBB2002B03D04C
:101520000420FFF76DFE61E16A4B1B78002B03D1AD
:101530000520FFF765FE59E10620FFF761FE55E142
:10154000FFF71AFC0346002B06D10320FFF7FCFB34
:101550000346002B00F039810120FFF751FE34E1F2
:10156000FFF71AFC0346002B06D10320FFF7ECFB24
:101570000346002B00F02B810120FFF741FE26E1FE
:101580000320FFF7E1FB0346002B00F0228101203E
:10159000FFF736FE1DE10320FFF7D6FB0346002BC5
:1015A0000FD000224FF480414B4802F0A4F80022F3
:1015B0004FF40041484802F09EF80120FFF720FE5A
:1015C00014E1464B1B687A689A42C0F00481414B93
:1015D0001B78002B0AD03F4B1B78013BDAB23D4B06
:1015E0001A703C4B1B781846FFF7F6FB0720FFF7F5
:1015F00007FE0220FFF7A8FBEDE00220FFF7A4FBA7
:101600000346002B06D10320FFF79EFB0346002B69
:1016100000F0E3800120FFF7F3FDDEE00020FFF79C
:1016200093FB0346002B0CD02D4B1B78002B08D0CE
:101630002B4B1B78013BDAB2294B1A70234B01224A
:101640001A700120FFF780FB0346002B0CD0244BBF
:101650001B78012B08D8224B1B780133DAB2204BC0
:101660001A701A4B01221A700320FFF76DFB034614
:10167000002B03D00120FFF7C3FDB7E00220FFF7E6
:1016800063FB0346002B00F0AA80154B1B78002B50
:1016900007D1104B1A78134B1A700920FFF7B0FDD1
:1016A0009DE00F4B1B78012B03D10A20FFF7A8FD0B
:1016B00095E00B20FFF7A4FD91E000BF040300209C
:1016C0000C03002000030020010000200400002083
:1016D000ABAAAAAA02000020000C014008000020CA
:1016E00001030020030000200020FFF72DFB03462C
:1016F000002B0CD03F4B1B78112B08D83D4B1B788F
:101700000133DAB23B4B1A703B4B01221A700120B5
:10171000FFF71AFB0346002B0CD0364B1B78002B2F
:1017200008D0344B1B78013BDAB2324B1A70324B83
:1017300001221A700320FFF707FB0346002B03D09A
:101740000820FFF75DFD51E00220FFF7FDFA034698
:10175000002B46D0274B1A78284B1A70274B1B7842
:101760001846FFF739FB0820FFF74AFD39E0032050
:10177000FFF7EAFA0346002B03D00820FFF740FDED
:1017800031E00220FFF7E0FA0346002B2BD00023C4
:101790001B4A1C491C48FFF791FB40F2DC5009F042
:1017A0000FFE0820FFF72CFD1DE00320FFF7CCFA09
:1017B0000346002B19D00820FFF722FD15E000BFDB
:1017C00014E000BF12E000BF10E000BF0EE000BF59
:1017D0000CE000BF0AE000BF08E000BF06E000BF69
:1017E00004E000BF02E000BF00E000BF00BF103710
:1017F000BD4680BD03000020040000200200002040
:10180000E0E6000870E70008D4E6000880B584B080
:1018100000AF78604FF47A7009F0D2FD0BF06CFCE9
:1018200000213C4804F0EEFE04213A4804F0EAFEB0
:101830000821384804F0E6FE374B00225A63364B45
:1018400000229A63344B0022DA6300224FF4804175
:10185000324801F050FF00224FF400412F4801F0C0
:101860004AFF00224FF400512C4801F044FFFFF7DB
:1018700029FA2B4800F076FB03461A46294B1A70CA
:10188000284B1B7883F00103DBB2002B04D04FF40C
:101890007A7009F095FDFAE7FFF78EFA03461A46CB
:1018A000214B1A70214B04221A700020FFF7A8FC6C
:1018B000FFF744FAFFF7A6FD0AF06CFCF8601C4B3A
:1018C0001B68FA68D31A772B8CBF01230023FB72A5
:1018D000184B1B78002B0ED1FB7A002B16D0164B21
:1018E0001B78012B07D0144B1B78062B03D0124B0F
:1018F0001B780B2B0AD1FFF7C3FC0E4B00221A708A
:101900000B4AFB6813600D4AFB681360142009F052
:1019100057FDCDE72C0A0020002C0140000C0140AF
:1019200078050020E80200200200002000000020CE
:10193000080300200400002000030020EC02002027
:1019400080B592B000AF7860C82009F039FD1E4B19
:101950007B624FF08043BB620023FB621B4B3B6307
:101960000223BB86194BBB630423BB87184B3B6424
:101970000123A7F84430002387F84630012387F875
:101980004730144BFB60144B3B61144B7B614FF4AD
:10199000C843BB614FF4EB73FB6143F698233B6292
:1019A00007F10C0207F1240319460D4800F028FE48
:1019B0000B4800F079FE0A4800F0E4FE012009F02F
:1019C000FFFC00BFF7E700BF740A002000080140D9
:1019D000000C014000007A4400409C4600401C4638
:1019E0002002002080B592B000AF7860C82009F0D6
:1019F000E7FC1D4B7B621D4BBB620023FB621C4B53
:101A00003B632023BB861A4BBB638023BB87194BE8
:101A10003B640223A7F84430002387F846300123B3
:101A200087F84730144BFB60144B3B61144B7B61D0
:101A30004FF4C843BB610523FB6143F698233B6227
:101A400007F10C0207F1240319460E4800F0D8FDF7
:101A50000C4800F029FE0B4800F094FE012009F02C
:101A6000AFFC00BFF7E700BFBC0A00200004004045
:101A700000080140000C01400060EA4600409C461E
:101A80000000FA448402002080B588B000AF07F15E
:101A9000100300221A605A609A60DA60504B9B690A
:101AA0004F4A43F0100393614D4B9B6903F01003C1
:101AB000FB60FB684A4B9B69494A43F020039361F2
:101AC000474B9B6903F02003BB60BB68444B9B6999
:101AD000434A43F004039361414B9B6903F00403C1
:101AE0007B607B683E4B9B693D4A43F008039361F2
:101AF0003B4B9B6903F008033B603B6800224FF4BB
:101B00000051384801F0F7FD0022A621364801F0C7
:101B1000F2FD00224FF46041344801F0ECFD4FF437
:101B200000533B6101237B610023BB610223FB6106
:101B300007F1100319462B4801F042FCA6233B6134
:101B400001237B610023BB610223FB6107F11003CA
:101B50001946254801F034FC08233B6100237B61D2
:101B60000123BB6107F1100319461F4801F028FC4F
:101B700010233B6100237B610023BB6107F110034D
:101B80001946194801F01CFC03233B6100237B61CB
:101B90000123BB6107F110031946144801F010FC42
:101BA0004FF460433B6101237B610023BB6102234F
:101BB000FB6107F1100319460C4801F001FCF0230A
:101BC0003B610B4B7B610123BB6107F1100319469D
:101BD000064801F0F5FB00BF2037BD4680BD00BFC1
:101BE000001002400010014000080140000C0140BC
:101BF0000000111080B500AF124B134A1A60114B50
:101C0000124A5A600F4B00229A600E4B0022DA6093
:101C10000C4B4FF480421A610A4B00225A61094B67
:101C200000229A61074B0022DA61064B00221A62F9
:101C3000044801F091FD0346002B01D000F024F987
:101C400000BF80BD7805002000540040A086010040
:101C500080B500AF124B134A1A60114B124A5A60FA
:101C60000F4B00229A600E4B0022DA600C4B4FF4AF
:101C700080421A610A4B00225A61094B00229A6184
:101C8000074B0022DA61064B00221A62044801F079
:101C900063FD0346002B01D000F0F6F800BF80BDC5
:101CA000CC05002000580040A086010080B58CB013
:101CB00000AF786007F11C0300221A605A609A6036
:101CC000DA607B681B68324A934233D1314B9B699F
:101CD000304A43F0080393612E4B9B6903F00803DD
:101CE000BB61BB694FF44073FB6112233B6203236A
:101CF000BB6207F11C031946274801F061FB274B23
:101D00005B68FB62FB6A43F0E063FB62FB6A43F0E3
:101D10000203FB62214AFB6A53601E4BDB691D4ACA
:101D200043F40013D3611B4BDB6903F400137B61A5
:101D30007B6929E07B681B68194A934224D1154BC3
:101D40009B69144A43F008039361124B9B6903F0AB
:101D500008033B613B694FF44063FB6112233B6224
:101D60000323BB6207F11C0319460B4801F028FB53
:101D7000084BDB69074A43F48003D361054BDB69F9
:101D800003F48003FB60FB6800BF3037BD4680BDB5
:101D90000054004000100240000C014000000140CF
:101DA0000058004080B500AF01F09AF900F012F839
:101DB000FFF76AFEFFF71EFFFFF74AFF00F0FCFE89
:101DC00001F02CF800F0B4FFFEF7ECFD09F0A5FAE5
:101DD00000BFFDE780B594B000AF07F128032822CB
:101DE000002118460BF034FE07F1140300221A609C
:101DF0005A609A60DA601A613B1D00221A605A60CC
:101E00009A60DA600123BB624FF48033FB620023E7
:101E10003B630123BB6302237B644FF48033BB64C9
:101E20004FF4E013FB6407F12803184603F090FE1B
:101E30000346002B01D000F027F80F237B6102231B
:101E4000BB610023FB614FF480633B6200237B6234
:101E500007F114030221184604F0FCF80346002B96
:101E600001D000F011F810237B6000233B613B1D83
:101E7000184604F069FA0346002B01D000F004F87C
:101E800000BF5037BD4680BD80B400AF72B600BF02
:101E900000BFFDE780B485B000AF0346FB710023AF
:101EA000FB6016E00F49FA6813465B0013445B00C1
:101EB0000B441B78FA799A4208D1FA6813465B0002
:101EC00013445B00074A1344013306E0FB68013307
:101ED000FB60FB68462BE5D9034B18461437BD461B
:101EE00080BC7047F0EB000895ED000880B483B02B
:101EF00000AF03460A46FB711346BB71BB793F2B0B
:101F000001D900230FE0FA79BB791344402B03D9A0
:101F1000BB79C3F14003FB71BA79FB791344DBB29F
:101F2000C3F14003DBB218460C37BD4680BC704796
:101F300080B586B002AF0346FB7100233B73FB798B
:101F40007B73074B186807F10C026423009302238C
:101F5000782101F045FD034618461037BD4680BD87
:101F60002006002080B584B000AF7860184A7B68F6
:101F70001360174B1B68002B01D1002324E00023C2
:101F8000FB600EE0134AFB6813441B781846FFF70A
:101F9000CFFF0346002B01D0002315E0FB6801337F
:101FA000FB60FB68182BEDD900F01AF80A4B0022F1
:101FB0001A700A4B00221A7000F020FA0346002B18
:101FC0000CBF01230023DBB218461037BD4680BD8D
:101FD000200600209CED0008240A0020250A00208D
:101FE00080B500AF4FF48062002102480BF030FD55
:101FF00000BF80BD2406002080B485B000AF03463A
:10200000FB710B46BB7113467B7197F90730002BB0
:102010002BDBBB793F2B28D8BB79DB08DBB2DB019C
:102020009AB2FB799BB21344FB81BB7903F007039F
:10203000012202FA03F37B737B79002B09D0FB8921
:102040000C4AD15CFB897A7B0A43D1B2094AD1544C
:102050000CE0FB89074AD15C7B7BDB43DAB2FB896E
:102060000A40D1B2034AD15400E000BF1437BD4644
:1020700080BC70472406002090B587B000AF0446AE
:10208000084611461A462346FB710346BB710B46B0
:102090007B7113463B71BB6A002B67D07B79002BA9
:1020A00064D03B79002B61D07B790733DB087B75EB
:1020B0000023FB7555E03A79FB7DD31ADBB2013B77
:1020C0003B750023BB7545E03B7D9BB27A7D92B2A8
:1020D00002FB03F39BB2BA7DD208D2B213447B82D7
:1020E000BB7D03F00703802222FA03F37B747B8A13
:1020F000BA6A13441A787B7C1340DBB2002B14BFFE
:10210000012300233B7497F82C30002B0CD03B7C30
:10211000002B14BF01230023DBB283F00103DBB2E9
:1021200003F00103DBB205E03B7C002B14BF01236D
:102130000023DBB2FB73FA79BB7D1344D8B2BA79C2
:10214000FB7D1344DBB2FA7B1946FFF755FFBB7DDD
:102150000133BB75BA7D7B799A42B5D3FB7D0133E0
:10216000FB75FA7D3B799A42A5D300E000BF1C378E
:10217000BD4690BD90B587B000AF044608461146F5
:102180001A462346FB710346BB710B467B7113460F
:102190003B713B79022B01D1022300E00123FB7448
:1021A000FB7C1A46D200D31ABB7497F90730002B78
:1021B0005CDBBB793F2B59D8BA7CBB7911461846FA
:1021C000FFF794FE03467B747B791846FFF762FEA7
:1021D000F8600023FB7545E00023BB753CE0FB7D08
:1021E000FA6813441B781A46BB7D22FA03F303F006
:1021F0000103002B2DD000237B7526E000233B75C7
:102200001CE0FB7DFA7C02FB03F3DAB2FB7913449A
:10221000DAB27B7D1344D8B2BB7DFA7C02FB03F3B8
:10222000DAB27B7C1344DAB23B7D1344DBB2012289
:102230001946FFF7E1FE3B7D01333B753A7DFB7CA0
:102240009A42DED37B7D01337B757A7DFB7C9A429B
:10225000D4D3BB7D0133BB75BB7D062BBFD9FB7DC2
:102260000133FB75FB7D042BB6D900E000BF1C37A2
:10227000BD4690BD80B584B000AF3A601A460346B3
:10228000FB710B46BB7113467B713B68002B2BD057
:102290007B79022B01D1022300E00123BB73BB7BBE
:1022A0001A46520013445B007B73FB79FB7312E008
:1022B0003B681A787B79B979F87BFFF75BFFFA7B8B
:1022C0007B7B1344802B11D8FA7B7B7B1344FB73FD
:1022D0003B6801333B603B681B78002B07D097F9C4
:1022E0000F30002BE4DA02E000BF00E000BF10373F
:1022F000BD4680BD80B586B000AF03463960FB7136
:10230000FB79072B72D8FB79C3F107033B753B7D43
:102310009BB2DB017B827B8A374A134480220021F7
:1023200018460BF095FB0023FB825BE020237B75B6
:102330003B68002B0AD0FB8A3A6813441B78002BB9
:1023400004D0FB8A3A6813441B787B757B7D184662
:10235000FFF7A0FDF860FB8A1A46520013445B00A9
:102360009AB27B8A13447B817B895A1D7B8A803396
:102370009A423DD2FB681A787B8902F07F02D1B283
:102380001D4AD154FB6801331A787B89013302F06E
:102390007F02D1B2184AD154FB6802331A787B8984
:1023A000023302F07F02D1B2134AD154FB680333E7
:1023B0001A787B89033302F07F02D1B20E4AD154DE
:1023C000FB6804331A787B89043302F07F02D1B2B0
:1023D000094AD1547B890533074A0021D154FB8A2D
:1023E0000133FB82FB8A142BA0D902E000BF00E07E
:1023F00000BF1837BD4680BD2406002080B5A4B0BC
:1024000002AF2A4B1B68002B01D1012349E0402376
:102410003B70002387F887303EE097F88730503BC9
:10242000DBB21846FFF784FD0346002B01D00123E1
:1024300037E00020FFF77CFD0346002B01D001238D
:102440002FE01020FFF774FD0346002B01D001237D
:1024500027E097F887309BB2DB01A7F88430B7F804
:102460008430134A99183B460133802218460BF0FA
:1024700023FB0E4B18683A4664230093812378218E
:1024800001F0AEFA0346002B01D0012309E097F8D2
:102490008730013387F8873097F88730072BBCD90E
:1024A000002318468837BD4680BD00BF20060020A7
:1024B0002406002080B483B000AF78600B46FB7028
:1024C0007B689B680C2B45D801A252F823F000BF13
:1024D0000525000855250008552500085525000844
:1024E0001925000855250008552500085525000820
:1024F0002D250008552500085525000855250008FC
:1025000041250008FB78002B01D0022200E00022C8
:102510007B685B685A631EE0FB78002B01D00222C7
:1025200000E000227B685B689A6314E0FB78002B74
:1025300001D0022200E000227B685B68DA630AE0D7
:10254000FB78002B01D0022200E000227B685B6850
:102550001A6400E000BF00BF0C37BD4680BC704766
:1025600080B584B000AF78607B6893F94C30002B65
:1025700003DD7B6893F8223007E07B6893F8223014
:10258000012B14BF01230023DBB2FB737B68D868E7
:102590007B681B8AFA7B194601F0ADF800BF103743
:1025A000BD4680BD80B584B000AF786012497868C0
:1025B000FEF782F80346002B01D00F4B7B60796851
:1025C0000E48FDF78FFF03461846FEF7B3F80346A3
:1025D000FB60FB683B2B01D83C23FB60FB684FF69C
:1025E000E852934202D94FF6E853FB60FB68184665
:1025F0001037BD4680BD00BF000020410024744953
:10260000B0B584B000AFF860B9607A60FA68BB68B2
:1026100014461D460FCD0FC40FCD0FC42B68236089
:10262000FB687A6803F1240415460FCD0FC495E8C2
:10263000030084E80300FB68002283F83C20FB6869
:10264000002283F83D20FB6800221A64FB68002208
:102650005A64FB6800229A64FB68012283F84C20CC
:10266000FB684FF000021A657B681A68FB685A65C0
:10267000FB684FF47A729A65FB680022DA65FB68A2
:10268000012283F86020FB685B68FA68926DDA6269
:102690000021F868FFF70EFF0021F86800F01DF830
:1026A00000BF1037BD46B0BD80B582B000AF7860C6
:1026B0007B6893F8603083F00103DBB2002B08D114
:1026C0007B681A687B689B681946104604F03CF8E2
:1026D00000E000BF0837BD4680BD80B584B000AFC4
:1026E00078600B46FB707B6893F82330002B05D095
:1026F000FB7883F00103DBB2FB7301E0FB78FB7333
:102700007B6858697B681B8BFA7B194600F0F3FFE6
:1027100000BF1037BD4680BD80B582B000AF786085
:102720007B684FF000021A657B68002283F83C202A
:1027300000217868FFF7BEFE00BF0837BD4680BDA8
:1027400080B483B000AF78607B6893F83C30DBB234
:10275000012B0BD07B6893F83C30DBB2022B05D009
:102760007B6893F83C30DBB2032B01D1012300E0FE
:10277000002303F00103DBB218460C37BD4680BCD2
:102780007047000090B589B000AF78604FF000034B
:10279000FB617868FFF7D4FF034683F00103DBB2E7
:1027A000002B40F0158100F0F3FC02467B68DB6DE6
:1027B000D21A7B689B6B9A420BD97B68042283F800
:1027C0003C207B68012283F83D207868FFF7A4FF56
:1027D000FFE07B6893F83C30DBB2022B3ED17B6894
:1027E000DA697B681B8C1946104600F06DFF0346C2
:1027F000002B1CD17B6800221A647B685A6B7B68B3
:102800005A647B68012283F84C207B684FF00002F9
:102810001A657B685A6A7B685A657B68032283F86D
:102820003C2000F0B5FC02467B68DA6516E07B6868
:102830009A6C7B681B6CD31ABB617B681B6BBA6993
:102840009A420BDB7B68042283F83C207B680222DF
:1028500083F83D207868FFF75FFFBAE07B6893F864
:102860003C30DBB2022B07D17B68DB6AFB617B6803
:10287000FF2283F84C204FE07B685A6C7B681B6C0E
:10288000D31A7B617B69002B0CD17B684FF000026F
:102890001A657B68002283F83C2000217868FFF7E6
:1028A00009FE96E07B69002B01DB012201E04FF07D
:1028B000FF327B6883F84C207B689B6A1946184678
:1028C000FDF754FC03461C467B69002BB8BF5B42F6
:1028D0001846FDF7FFFC034619462046FDF74EFD5E
:1028E000034618460BF042FD38613B69FB617B688B
:1028F0005B6D1946F869FDF7FDFE0346002B02D01B
:102900007B685B6DFB613449F869FDF7D5FE0346D2
:10291000002B01D0304BFB617B689B6A2F49184626
:10292000FDF72CFD0346FB607B681B6D1946F869BB
:10293000FDF7E0FE0346002B16D07B681B6DF9689F
:102940001846FDF713FC03461A467B681A657B6838
:102950001B6D1946F869FDF7AFFE0346002B22D028
:102960007B68FA691A651EE07B681B6D1946F86979
:10297000FDF7A2FE0346002B15D07B681B6DF9689E
:102980001846FDF7F1FB03461A467B681A657B681B
:102990001B6D1946F869FDF7ADFE0346002B02D00A
:1029A0007B68FA691A657B681B6D1846FFF7FAFDAC
:1029B00002467B689A657B685B687A68926DDA622A
:1029C0007868FFF7CDFD01217868FFF773FD00E01F
:1029D00000BF2437BD4690BD000020416F12833AEE
:1029E00080B582B000AF78607868FFF7A9FE034633
:1029F00083F00103DBB2002B04D000217868FFF7DD
:102A000059FD07E07B681B6C7A6892F94C201A44E8
:102A10007B681A640837BD4680BD000080B584B06D
:102A200000AF184B9B69174A43F001039361154BA4
:102A30009B6903F00103BB60BB68124BDB69114A61
:102A400043F08053D3610F4BDB6903F080537B600D
:102A50007B6800220F216FF0010000F07AFC0A4B26
:102A60005B68FB60FB6823F0E063FB60FB6843F09E
:102A70000073FB60044AFB68536000BF1037BD461B
:102A800080BD00BF001002400000014080B400AFD4
:102A900000BFFDE780B400AF00BFFDE780B400AF2A
:102AA00000BFFDE780B400AF00BFFDE780B400AF1A
:102AB00000BFFDE780B400AF00BFBD4680BC7047DB
:102AC00080B500AF00F052FB09F06EFE0346012B0B
:102AD00001D00AF0E1F800BF80BD000080B500AF72
:102AE000024801F0F1FB00BF80BD00BF2031002093
:102AF00080B500AF024803F017FF00BF80BD00BFE4
:102B0000740A002080B500AF024803F00DFF00BF3B
:102B100080BD00BFBC0A002080B500AF102000F0CF
:102B200003FE00BF80BD80B500AF202000F0FCFD9B
:102B3000402000F0F9FD802000F0F6FD00BF80BDD0
:102B400080B586B000AF7860144A154BD31A7B610C
:102B50007B693B61134B1B68002B02D1114B124A5E
:102B60001A60104B1A687B6813443A699A4207D27C
:102B70000AF076FF03460C221A604FF0FF3309E09B
:102B8000084B1B68FB60074B1A687B681344054AB7
:102B90001360FB6818461837BD4680BD0050002002
:102BA00000040000280A00206037002080B400AF35
:102BB00000BFBD4680BC704780B596B000AF07F13E
:102BC000480300221A605A609A60DA6007F14003F5
:102BD00000221A605A6007F1240300221A605A602A
:102BE0009A60DA601A615A619A613B1D20220021C5
:102BF00018460AF02DFF4C4B4C4A1A604A4B4722AC
:102C00005A60494B00229A60474B44F61F62DA60D3
:102C1000454B00221A61444B00225A61424B00226C
:102C20009A61414803F046FC0346002B01D0FFF7B0
:102C30002BF94FF48053BB6407F1480319463A4817
:102C400004F024F80346002B01D0FFF71DF93648A5
:102C500003F07FFC0346002B01D0FFF715F900239A
:102C60003B6400237B6407F1400319462E4804F0BF
:102C7000A9FB0346002B01D0FFF706F960237B6216
:102C80004FF47A73BB620023FB6200233B63002393
:102C90007B630023BB630023FB6307F12403002253
:102CA0001946214803F030FF0346002B01D0FFF7FF
:102CB000EBF807F12403042219461B4803F024FF14
:102CC0000346002B01D0FFF7DFF80023BB6207F1BA
:102CD000240308221946144803F016FF0346002B6C
:102CE00001D0FFF7D1F800237B600023BB600023F5
:102CF000FB6000233B6100237B614FF40053BB6109
:102D000000233B623B1D1946074804F0B9FB03460C
:102D1000002B01D0FFF7B8F8034800F049F900BFD5
:102D20005837BD4680BD00BF2C0A0020002C014052
:102D300080B58EB000AF07F1280300221A605A60F8
:102D40009A60DA6007F1200300221A605A603B1D86
:102D500000221A605A609A60DA601A615A619A61B8
:102D60002D4B4FF080421A602B4B47225A602A4B62
:102D700000229A60284B4FF47A72DA60264B0022C8
:102D80001A61254B80229A61234803F093FB034686
:102D9000002B01D0FFF778F84FF48053BB6207F1A6
:102DA000280319461C4803F071FF0346002B01D08D
:102DB000FFF76AF8184803F0CCFB0346002B01D05C
:102DC000FFF762F800233B6200237B6207F12003D8
:102DD0001946114804F0F6FA0346002B01D0FFF71C
:102DE00053F860237B600223BB600023FB60002359
:102DF0007B613B1D00221946074803F085FE034610
:102E0000002B01D0FFF740F8034800F0D1F800BFD5
:102E10003837BD4680BD00BF740A002080B58EB033
:102E200000AF07F1280300221A605A609A60DA6046
:102E300007F1200300221A605A603B1D00221A602D
:102E40005A609A60DA601A615A619A612C4B2D4A75
:102E50001A602B4B47225A60294B00229A60284B5C
:102E60004FF47A72DA60264B00221A61244B8022DA
:102E70009A61234803F01EFB0346002B01D0FFF7A5
:102E800003F84FF48053BB6207F1280319461C482E
:102E900003F0FCFE0346002B01D0FEF7F5FF1848B7
:102EA00003F057FB0346002B01D0FEF7EDFF002394
:102EB0003B6200237B6207F120031946104804F0AF
:102EC00081FA0346002B01D0FEF7DEFF60237B6012
:102ED0000223BB600023FB6000237B613B1D0022BB
:102EE0001946074803F010FE0346002B01D0FEF7F9
:102EF000CBFF034800F05CF800BF3837BD4680BD0B
:102F0000BC0A00200004004080B586B000AF7860A5
:102F10007B681B68234A93420CD1234B9B69224A4E
:102F200043F400639361204B9B6903F400637B616E
:102F30007B6932E07B681B68B3F1804F14D11A4B78
:102F4000DB69194A43F00103D361174BDB6903F0D6
:102F500001033B613B69002205211C2000F0F9F9C7
:102F60001C2000F012FA18E07B681B680F4A93429D
:102F700013D10D4BDB690C4A43F00203D3610A4BBA
:102F8000DB6903F00203FB60FB68002205211D20C2
:102F900000F0DFF91D2000F0F8F900BF1837BD463A
:102FA00080BD00BF002C0140001002400004004022
:102FB00080B58AB000AF786007F1180300221A606C
:102FC0005A609A60DA607B681B682E4A934219D176
:102FD0002D4B9B692C4A43F0040393612A4B9B6958
:102FE00003F004037B617B694FF4E063BB61022360
:102FF000FB6102237B6207F118031946234800F0A6
:10300000DFF93AE07B681B68B3F1804F18D11E4BA3
:103010009B691D4A43F0040393611B4B9B6903F0BA
:1030200004033B613B690123BB610223FB61022373
:103030007B6207F118031946144800F0C1F91CE03F
:103040007B681B68124A934217D10F4B9B690E4A4B
:1030500043F0040393610C4B9B6903F00403FB6092
:10306000FB684023BB610223FB6102237B6207F103
:1030700018031946054800F0A3F900BF2837BD46DC
:1030800080BD00BF002C014000100240000801403C
:1030900000040040FFF78AFD0B480C490C4A00234E
:1030A00002E0D458C4500433C4188C42F9D3094AFE
:1030B000094C002301E013600432A242FBD30AF062
:1030C000D5FCFEF76FFE70470000002004020020D0
:1030D00030EE00080402002060370020FEE7000008
:1030E00080B500AF084B1B68074A43F0100313601C
:1030F000032000F023F90F2000F008F8FFF78EFC02
:103100000023184680BD00BF0020024080B582B079
:1031100000AF7860124B1A68124B1B7819464FF4B7
:103120007A73B3FBF1F3B2FBF3F3184600F03BF90B
:103130000346002B01D001230EE07B680F2B0AD839
:10314000002279684FF0FF3000F003F9064A7B68EF
:103150001360002300E0012318460837BD4680BDF8
:10316000340000203C0000203800002080B400AF74
:10317000054B1B781A46054B1B681344034A136022
:1031800000BFBD4680BC70473C000020040B0020FF
:1031900080B400AF024B1B681846BD4680BC704728
:1031A000040B002080B485B000AF78607B6803F02A
:1031B0000703FB600C4BDB68BB60BA684FF6FF038C
:1031C0001340BB60FB681A02BB68134343F0BF6344
:1031D00043F40033BB60044ABB68D36000BF1437BC
:1031E000BD4680BC704700BF00ED00E080B400AF7A
:1031F000044BDB681B0A03F007031846BD4680BC7E
:10320000704700BF00ED00E080B483B000AF03461C
:10321000FB7197F90730002B0BDBFB7903F01F02E2
:10322000064997F907305B09012000FA02F241F8DC
:10323000232000BF0C37BD4680BC704700E100E092
:1032400080B483B000AF03463960FB7197F9073053
:10325000002B0ADB3B68DAB20C4997F90730120100
:10326000D2B20B4483F800230AE03B68DAB2084983
:10327000FB7903F00F03043B1201D2B20B441A7620
:1032800000BF0C37BD4680BC704700BF00E100E0C6
:1032900000ED00E080B489B000AFF860B9607A60FA
:1032A000FB6803F00703FB61FB69C3F10703042B11
:1032B00028BF0423BB61FB690433062B02D9FB69D9
:1032C000033B00E000237B614FF0FF32BB6902FA51
:1032D00003F3DA43BB681A407B699A404FF0FF3131
:1032E0007B6901FA03F3D9437B680B40134318460B
:1032F0002437BD4680BC704780B582B000AF78608F
:103300007B68013BB3F1807F01D301230FE00A4AC0
:103310007B68013B53600F214FF0FF30FFF790FFB8
:10332000054B00229A60044B07221A6000231846BE
:103330000837BD4680BD00BF10E000E080B582B018
:1033400000AF78607868FFF72DFF00BF0837BD46F3
:1033500080BD80B586B000AF0346B9607A60FB736C
:1033600000237B61FFF742FF78617A68B96878696A
:10337000FFF790FF024697F90F3011461846FFF706
:103380005FFF00BF1837BD4680BD80B582B000AF7B
:103390000346FB7197F907301846FFF735FF00BF6A
:1033A0000837BD4680BD80B582B000AF78607868D0
:1033B000FFF7A2FF034618460837BD4680BD000050
:1033C00080B48BB000AF7860396000237B6200234B
:1033D0003B6269E101227B6A02FA03F3FB613B680D
:1033E0001B68FA691340BB61BA69FB699A4240F0F5
:1033F00058813B685B689A4A93425ED0984A9342F0
:1034000075D8984A934258D0964A93426FD8964AB4
:10341000934252D0944A934269D8944A93424CD0F2
:10342000924A934263D8924A934246D0904A93423A
:103430005DD8122B2AD8122B59D801A252F823F0AA
:10344000BB34000895340008A7340008E9340008AC
:10345000EF340008EF340008EF340008EF340008C0
:10346000EF340008EF340008EF340008EF340008B0
:10347000EF340008EF340008EF340008EF340008A0
:10348000EF3400089D340008B1340008794A9342B3
:1034900013D02CE03B68DB683B6229E03B68DB68CB
:1034A00004333B6224E03B68DB6808333B621FE087
:1034B0003B68DB680C333B621AE03B689B68002B7F
:1034C00002D104233B6213E03B689B68012B05D1CA
:1034D00008233B627B68FA691A6109E008233B62B2
:1034E0007B68FA695A6103E000233B6200E000BF99
:1034F000BB69FF2B01D87B6801E07B6804337B61EB
:10350000BB69FF2B02D87B6A9B0002E07B6A083B09
:103510009B003B617B691A680F213B6901FA03F349
:10352000DB431A40396A3B6901FA03F31A437B69AA
:103530001A603B685B6803F08053002B00F0B18099
:103540004D4B9B694C4A43F0010393614A4B9B6985
:1035500003F00103BB60BB68484A7B6A9B080233E7
:1035600052F82330FB607B6A03F003039B000F22B9
:1035700002FA03F3DB43FA681340FB607B68404ABE
:10358000934213D07B683F4A93420DD07B683E4AFA
:10359000934207D07B683D4A934201D1032306E062
:1035A000042304E0022302E0012300E000237A6AFE
:1035B00002F0030292009340FA681343FB602F4924
:1035C0007B6A9B080233FA6841F823203B685B68FA
:1035D00003F48013002B06D02D4B9A682C49BB694D
:1035E00013438B6006E02A4B9A68BB69DB4328498A
:1035F00013408B603B685B6803F40013002B06D01C
:10360000234BDA682249BB691343CB6006E0204BA9
:10361000DA68BB69DB431E491340CB603B685B68DB
:1036200003F40033002B06D0194B5A681849BB69C4
:1036300013434B6006E0164B5A68BB69DB431449E1
:1036400013404B603B685B6803F48033002B21D050
:103650000F4B1A680E49BB6913430B6021E000BF92
:103660000000321000003110000022100000211074
:103670000000121000001110001002400000014074
:1036800000080140000C01400010014000140140FE
:10369000000401400B4B1A68BB69DB430949134026
:1036A0000B607B6A01337B623B681A687B6A22FA93
:1036B00003F3002B7FF48EAE00BF00BF2C37BD4656
:1036C00080BC70470004014080B485B000AF7860D2
:1036D0000B467B807B689A687B881340002B02D066
:1036E0000123FB7301E00023FB73FB7B18461437B7
:1036F000BD4680BC704780B483B000AF78600B4695
:103700007B8013467B707B78002B03D07A887B68A4
:103710001A6103E07B881A047B681A6100BF0C37CA
:10372000BD4680BC7047000080B582B000AF034644
:10373000FB80084B5A69FB881340002B06D0054AD2
:10374000FB885361FB881846FDF7EAF800BF08378D
:10375000BD4680BD0004014080B584B000AF7860F4
:103760007B68002B01D101232BE17B6893F83D306E
:10377000DBB2002B06D17B68002283F83C207868FE
:10378000FEF794FA7B68242283F83D207B681B684F
:103790001A687B681B6822F001021A607B681B684C
:1037A0001A687B681B6842F400421A607B681B68D9
:1037B0001A687B681B6822F400421A6002F092FDCE
:1037C000F8607B685B68814A934207D8FB68804A4F
:1037D000934294BF01230023DBB206E0FB687D4ADD
:1037E000934294BF01230023DBB2002B01D00123BD
:1037F000E7E0FB68784AA2FB03239B0CBB607B6875
:103800001B685B6823F03F017B681B68BA680A434A
:103810005A607B681B681B6A23F03F017B685B680A
:103820006A4A934202D8BB68013309E0BB684FF48F
:10383000967202FB03F3694AA2FB03239B0901333F
:103840007A6812680B4313627B681B68DB6923F498
:103850004F4222F0FF027B685B685C498B4219D8BB
:10386000FB68591E7B685B685B00B1FBF3F3591C76
:1038700040F6FC730B40002B0AD0FB68591E7B6896
:103880005B685B00B1FBF3F30133C3F30B0351E05F
:1038900004234FE07B689B68002B11D1FB68581E06
:1038A0007B6859680B465B000B44B0FBF3F30133B4
:1038B000C3F30B03002B0CBF01230023DBB212E088
:1038C000FB68581E7B6859680B469B000B449900A7
:1038D0000B44B0FBF3F30133C3F30B03002B0CBF1A
:1038E00001230023DBB2002B01D0012322E07B68FF
:1038F0009B68002B0ED1FB68581E7B6859680B46ED
:103900005B000B44B0FBF3F30133C3F30B0343F44D
:1039100000430FE0FB68581E7B6859680B469B000C
:103920000B4499000B44B0FBF3F30133C3F30B03D7
:1039300043F44043796809681343CB617B681B6893
:103940001B6823F0C0017B68DA697B681B6A1A4335
:103950007B681B680A431A607B681B689B6823F4BA
:10396000034323F0FF037A6811697A68D268114330
:103970007A6812680B4393607B681B68DB6823F0EE
:10398000FF017B685A697B689B691A437B681B68E7
:103990000A43DA607B681B681A687B681B6842F020
:1039A00001021A607B6800221A647B68202283F877
:1039B0003D207B6800221A637B68002283F83E204A
:1039C000002318461037BD4680BD00BFA086010009
:1039D0007F841E00FF083D0083DE1B43D34D621031
:1039E00080B588B002AFF8607A601A460B467B81DA
:1039F00013463B81FFF7CCFB7861FB6893F83D30C1
:103A0000DBB2202B40F0E0807B6900931923012278
:103A10007049F86800F064F90346002B01D00223D6
:103A2000D3E0FB6893F83C30012B01D10223CCE0BA
:103A3000FB68012283F83C20FB681B681B6803F0CD
:103A40000103012B07D0FB681B681A68FB681B6821
:103A500042F001021A60FB681B681A68FB681B6869
:103A600022F400621A60FB68212283F83D20FB6883
:103A7000102283F83E20FB6800221A64FB687A68F3
:103A80005A62FB683A895A85FB685B8D9AB2FB687B
:103A90001A85FB68504ADA6279897B693A6AF86864
:103AA00000F09CF80346002B01D001238DE0002399
:103AB0003B61FB681B685B693B61FB681B689B693A
:103AC0003B613B6966E07A69396AF86800F022FA7E
:103AD0000346002B0DD0FB681B6C042B07D1FB6841
:103AE0001B681A68FB681B6842F400721A600123A5
:103AF0006BE0FB685B6A1A78FB681B681A61FB68FD
:103B00005B6A5A1CFB685A62FB685B8D9BB2013B87
:103B10009AB2FB685A85FB681B8D013B9AB2FB6821
:103B20001A85FB681B685B6903F00403042B1BD137
:103B3000FB681B8D002B17D0FB685B6A1A78FB684B
:103B40001B681A61FB685B6A5A1CFB685A62FB6857
:103B50005B8D9BB2013B9AB2FB685A85FB681B8D5B
:103B6000013B9AB2FB681A857A69396AF86800F0F5
:103B700019FA0346002B0DD0FB681B6C042B07D1F0
:103B8000FB681B681A68FB681B6842F400721A60C5
:103B900001231AE0FB681B8D002B94D1FB681B6886
:103BA0001A68FB681B6842F400721A60FB682022E6
:103BB00083F83D20FB68002283F83E20FB6800224A
:103BC00083F83C20002300E0022318461837BD4646
:103BD00080BD00BF020010000000FFFF80B588B06C
:103BE00002AFF8607A603B600B467B81FB68DB6A62
:103BF0007B617B69082B06D07B69012B03D07B6935
:103C000013F5803F08D1FB681B681A68FB681B68C6
:103C100042F480721A600BE0FB681B6B122B07D119
:103C2000FB681B681A68FB681B6842F480721A60A4
:103C30003B6800937B6800224FF00111F86800F0A8
:103C40004FF80346002B0DD0FB681B681B6803F47C
:103C50008073B3F5807F03D1FB684FF400721A6460
:103C6000032335E0FB681B69B3F5804F08D17B89DE
:103C7000DBB21A46FB681B6802F0FE021A611BE009
:103C80007B89DB11DBB203F00603DBB263F00F03C9
:103C9000DAB2FB681B681A613B687A680E49F868FB
:103CA00000F098F80346002B01D0012310E07B8937
:103CB000DAB2FB681B681A613B687A680749F868E2
:103CC00000F088F80346002B01D0012300E0002318
:103CD00018461837BD4680BD0800010002000100EB
:103CE00080B584B000AFF860B9603B601346FB71EB
:103CF00048E03B68B3F1FF3F44D0FFF749FA024682
:103D0000BB69D31A3A689A4202D33B68002B39D177
:103D1000BB681B0CDBB2012B0DD1FB681B685B6918
:103D2000DA43BB6813409BB2002B0CBF0123002376
:103D3000DBB21A460CE0FB681B689B69DA43BB6880
:103D400013409BB2002B0CBF01230023DBB21A46A9
:103D5000FB799A4216D1FB6800221A63FB68202285
:103D600083F83D20FB68002283F83E20FB681B6C33
:103D700043F02002FB681A64FB68002283F83C20B1
:103D8000012323E0BB681B0CDBB2012B0DD1FB68C8
:103D90001B685B69DA43BB6813409BB2002B0CBF06
:103DA00001230023DBB21A460CE0FB681B689B6909
:103DB000DA43BB6813409BB2002B0CBF01230023E6
:103DC000DBB21A46FB799A4293D00023184610378B
:103DD000BD4680BD80B584B000AFF860B9607A6040
:103DE0003B6071E0FB681B685B6903F48063B3F5BB
:103DF000806F23D1FB681B681A68FB681B6842F45C
:103E000000721A60FB681B686FF480625A61FB687D
:103E100000221A63FB68202283F83D20FB68002201
:103E200083F83E20FB681B6C43F00402FB681A64B5
:103E3000FB68002283F83C20012367E07B68B3F134
:103E4000FF3F41D0FFF7A4F902463B68D31A7A68D6
:103E50009A4202D37B68002B36D1BB681B0CDBB2C5
:103E6000012B0CD1FB681B685B69DA43BB6813400C
:103E70009BB2002B14BF01230023DBB20BE0FB68D5
:103E80001B689B69DA43BB6813409BB2002B14BFCD
:103E900001230023DBB2002B16D0FB6800221A633B
:103EA000FB68202283F83D20FB68002283F83E2037
:103EB000FB681B6C43F02002FB681A64FB6800225D
:103EC00083F83C20012321E0BB681B0CDBB2012BF3
:103ED0000CD1FB681B685B69DA43BB6813409BB27B
:103EE000002B14BF01230023DBB20BE0FB681B682F
:103EF0009B69DA43BB6813409BB2002B14BF0123BC
:103F00000023DBB2002B7FF46DAF0023184610377F
:103F1000BD4680BD80B584B000AFF860B9607A60FE
:103F200034E0F86800F086F80346002B01D0012346
:103F300034E0BB68B3F1FF3F28D0FFF729F9024610
:103F40007B68D31ABA689A4202D3BB68002B1DD192
:103F5000FB681B685B6903F08003802B16D0FB684D
:103F600000221A63FB68202283F83D20FB680022B0
:103F700083F83E20FB681B6C43F02002FB681A6448
:103F8000FB68002283F83C20012307E0FB681B68E4
:103F90005B6903F08003802BC3D1002318461037E0
:103FA000BD4680BD80B584B000AFF860B9607A606E
:103FB00034E0F86800F03EF80346002B01D00123FE
:103FC00034E0BB68B3F1FF3F28D0FFF7E1F80246C9
:103FD0007B68D31ABA689A4202D3BB68002B1DD102
:103FE000FB681B685B6903F00403042B16D0FB68B5
:103FF00000221A63FB68202283F83D20FB68002220
:1040000083F83E20FB681B6C43F02002FB681A64B7
:10401000FB68002283F83C20012307E0FB681B6853
:104020005B6903F00403042BC3D100231846103747
:10403000BD4680BD80B483B000AF78607B681B68EC
:104040005B6903F48063B3F5806F1BD17B681B68E9
:104050006FF480625A617B6800221A637B682022B9
:1040600083F83D207B68002283F83E207B681B6C30
:1040700043F004027B681A647B68002283F83C20CA
:10408000012300E0002318460C37BD4680BC704772
:1040900080B584B000AF78607B68002B01D101232C
:1040A000E8E07B6893F89132DBB2002B06D17B68A5
:1040B000002283F89022786809F0EAF97B680322ED
:1040C00083F891227B6800225A717B681B6818462E
:1040D00003F05CFA7B6818687B6804330ECB03F04E
:1040E00032FA0346002B05D07B68022283F8912226
:1040F0000123BFE07B681B680021184603F060FACB
:104100000346002B05D07B68022283F8912201230D
:10411000B0E00023FB733EE0FA7B796813469B0016
:104120001344DB000B44113301221A70FA7B7968C7
:1041300013469B001344DB000B441033FA7B1A70C8
:10414000FA7B796813469B001344DB000B4413335E
:1041500000221A70FA7B796813469B001344DB0037
:104160000B44203300221A60FA7B796813469B00C7
:104170001344DB000B44243300221A60FB7B796874
:104180005A1C13469B001344DB000B4400221A60A8
:10419000FB7B0133FB737B681B79FA7B9A42BBD3B1
:1041A0000023FB7344E0FA7B796813469B001344B9
:1041B000DB000B4403F2511300221A70FA7B79687A
:1041C00013469B001344DB000B4403F5A873FA7BF2
:1041D0001A70FA7B796813469B001344DB000B448A
:1041E00003F2531300221A70FA7B796813469B007E
:1041F0001344DB000B4403F5B07300221A60FA7B12
:10420000796813469B001344DB000B4403F5B2733B
:1042100000221A60FA7B796813469B001344DB0086
:104220000B4403F5B47300221A60FB7B0133FB736C
:104230007B681B79FA7B9A42B5D37B6818687B68E8
:1042400004330ECB03F0C8F90346002B05D07B687E
:10425000022283F8912201230CE07B6800225A732A
:104260007B68012283F891227B681B68184605F061
:1042700048FC002318461037BD4680BD80B582B08B
:1042800000AF78607B6893F89032012B01D1022354
:1042900016E07B68012283F890227B681B68184631
:1042A00003F05EF90121786809F065FB7B681B6803
:1042B000184605F01CFC7B68002283F8902200233E
:1042C00018460837BD4680BD80B588B000AF78601D
:1042D0007B681B68184605F01EFCB861BB6903F4D7
:1042E0000043002B03D0786800F01AFB19E1BB698A
:1042F00003F48063002B13D07B681B68B3F8443051
:104300009AB27B681B6822F4806292B2A3F84420C0
:10431000786809F038F90021786800F005F900E1C3
:10432000BB6903F48043002B0CD07B681B68B3F897
:1043300044309AB27B681B6822F4804292B2A3F8A0
:104340004420EEE0BB6903F40053002B0CD07B68E3
:104350001B68B3F844309AB27B681B6822F40052A1
:1043600092B2A3F84420DCE0BB6903F48053002B35
:1043700027D07B681B68B3F840309AB27B681B6813
:1043800022F0040292B2A3F840207B681B68B3F8C5
:1043900040309AB27B681B6822F0080292B2A3F800
:1043A0004020786809F028F97B681B68B3F844302E
:1043B0009AB27B681B6822F4805292B2A3F8442020
:1043C000AFE0BB6903F40063002B00F0838000239F
:1043D000FB7710E07B681B681A46FB7F9B001A4442
:1043E000FB7F128892B25B0020333B4423F8182CE9
:1043F000FB7F0133FB77FB7F072BEBD97B681B68C7
:10440000B3F840309AB27B681B6842F0010292B266
:10441000A3F840207B681B68B3F840309AB27B68F1
:104420001B6822F0010292B2A3F8402000BF7B6813
:104430001B68B3F844309BB203F48063002BF6D0C2
:104440007B681B68B3F844309AB27B681B6822F41F
:10445000806292B2A3F844200023FB770FE0FB7F39
:104460007A6812681146FA7F92000A445B00203392
:104470003B4433F8183C1380FB7F0133FB77FB7F11
:10448000072BECD97B681B68B3F840309AB27B6885
:104490001B6842F0080292B2A3F840207B681B68B8
:1044A000B3F844309AB27B681B6822F4006292B27F
:1044B000A3F844207B681B68B3F840309AB27B684D
:1044C0001B6842F0040292B2A3F84020786809F019
:1044D00079F826E0BB6903F40073002B0FD07B68EA
:1044E0001B68B3F844309AB27B681B6822F40072F0
:1044F00092B2A3F84420786809F037F811E0BB695C
:1045000003F48073002B0CD07B681B68B3F8443035
:104510009AB27B681B6822F4807292B2A3F844209E
:1045200000BF2037BD4680BD80B582B000AF786047
:104530000B46FB707B6893F89032012B01D102236C
:1045400012E07B68012283F890227B68FA785A7324
:104550007B681B68FA781146184605F0B5FA7B6847
:10456000002283F89022002318460837BD4680BDFC
:1045700080B584B000AF7860084611461A460346FD
:10458000FB700B463B801346BB700023FB7297F910
:104590000330002B0EDAFB7803F0070213469B0072
:1045A0001344DB0010337A681344FB60FB6801227C
:1045B0005A700EE0FB7803F0070213469B00134489
:1045C000DB0003F5A8737A681344FB60FB680022E4
:1045D0005A70FB7803F00703DAB2FB681A703A8866
:1045E000FB681A61FB68BA78DA70BB78022B02D1DB
:1045F000FB6800221A717B6893F89032012B01D17D
:1046000002230EE07B68012283F890227B681B68FE
:10461000F968184602F0FEFF7B68002283F89022BA
:10462000FB7A18461037BD4680BD80B584B000AF18
:1046300078600B46FB7097F90330002B0EDAFB789D
:1046400003F0070213469B001344DB0010337A6823
:104650001344FB60FB6801225A700EE0FB7803F004
:10466000070213469B001344DB0003F5A8737A6826
:104670001344FB60FB6800225A70FB7803F00703C9
:10468000DAB2FB681A707B6893F89032012B01D183
:1046900002230EE07B68012283F890227B681B686E
:1046A000F968184603F076FB7B68002283F89022B5
:1046B000002318461037BD4680BD80B586B000AFD8
:1046C000F8607A603B600B46FB72FB7A03F00702EE
:1046D00013469B001344DB0003F5A873FA681344E8
:1046E0007B617B697A685A617B693A689A617B6908
:1046F0000022DA617B6900225A70FB7A03F007031B
:10470000DAB27B691A70FB681B687969184603F096
:104710002DFD002318461837BD4680BD80B483B0F8
:1047200000AF78600B46FB70FB7803F007027968F6
:1047300013469B001344DB000B4403F5B6731B6860
:1047400018460C37BD4680BC704780B586B000AFB8
:10475000F8607A603B600B46FB72FB7A03F007025D
:1047600013469B001344DB001033FA6813447B614B
:104770007B697A685A617B693A689A617B69012230
:1047800083F824207B693A681A627B690022DA6127
:104790007B6901225A70FB7A03F00703DAB27B6966
:1047A0001A70FB681B687969184603F0DFFC002368
:1047B00018461837BD4680BD80B584B000AF78601C
:1047C0000B46FB70FB7803F007037A68127993427B
:1047D00001D901234CE097F90330002B0EDAFB7866
:1047E00003F0070213469B001344DB0010337A6882
:1047F0001344FB60FB6801225A700CE0FA78134600
:104800009B001344DB0003F5A8737A681344FB6034
:10481000FB6800225A70FB6801229A70FB7803F053
:104820000703DAB2FB681A707B6893F89032012BA9
:1048300001D102231CE07B68012283F890227B686F
:104840001B68F968184605F042F8FB7803F0070387
:10485000002B08D17B681A687B6803F5267319461C
:10486000104605F067F97B68002283F89022002348
:1048700018461037BD4680BD80B584B000AF786063
:104880000B46FB70FB7803F00F037A6812799342B2
:1048900001D9012340E097F90330002B0EDAFB78B1
:1048A00003F0070213469B001344DB0010337A68C1
:1048B0001344FB60FB6801225A700EE0FB7803F0A2
:1048C000070213469B001344DB0003F5A8737A68C4
:1048D0001344FB60FB6800225A70FB6800229A7048
:1048E000FB7803F00703DAB2FB681A707B6893F871
:1048F0009032012B01D102230EE07B68012283F864
:1049000090227B681B68F968184605F030F87B68D0
:10491000002283F89022002318461037BD4680BD40
:1049200080B596B000AF7860BBE37B681B68B3F8D6
:104930004430A7F84E30B7F84E30DBB203F00F0327
:1049400087F84D3097F84D30002B40F07581B7F85F
:104950004E3003F01003002B4ED17B681B681B8880
:104960009BB223F4E14323F07003FB817B681A6858
:10497000FB896FEA43436FEA53439BB213807B6822
:1049800010337B657B681B68B3F850309BB21A46C6
:104990007B6D1B78DB00134402335B007A6812687E
:1049A000134403F580631B88C3F309027B6DDA614E
:1049B0007B6D5A697B6DDB691A447B6D5A610021FE
:1049C000786808F0B8FD7B685B7BDBB2002B00F0F9
:1049D00068837B6D9B69002B40F063837B685B7B06
:1049E000DBB263F07F03DAB27B681B68A3F84C206C
:1049F0007B6800225A7354E37B6803F5A8737B65D8
:104A00007B681B681B88A7F84A30B7F84A3003F464
:104A10000063002B34D07B681B68B3F850309BB226
:104A20001A467B6D1B78DB00134406335B007A6803
:104A30001268134403F580631B88C3F309027B6D7E
:104A4000DA617B6818687B6803F526717B6DDA880C
:104A50007B6DDB699BB205F0BEF87B681B681B8829
:104A60009AB240F68F7313403B827B681B683A8A88
:104A700042F0800292B21A80786808F02FFD10E3AD
:104A8000B7F94A30002B80F20C837B681B681B88C7
:104A90009AB240F68F731340FB837B681B68FA8BD6
:104AA00042F0800292B21A807B681B68B3F85030E3
:104AB0009BB21A467B6D1B78DB00134406335B0008
:104AC0007A681268134403F580631B88C3F30902F4
:104AD0007B6DDA617B6DDB69002B19D07B6D5B69C7
:104AE000002B15D07B6818687B6D59697B6DDA885F
:104AF0007B6DDB699BB205F06EF87B6D5A697B6D4F
:104B0000DB691A447B6D5A610021786808F0F8FC73
:104B10007B681B681B88A7F84A30B7F84A3003F453
:104B20000063002B40F0BD82B7F84A3003F44053D5
:104B3000B3F5405F00F0B5827B681B68BB617B68A2
:104B40001B68B3F850309BB21A46BB691344BB6173
:104B5000BB6903F20C437B617B691B889BB2C3F387
:104B600009039AB27B691A807B6D1B693E2B1DD9A4
:104B70007B6D1B695B097B647B6D1B6903F01F0305
:104B8000002B02D17B6C013B7B647B691B889AB252
:104B90007B6C9BB29B029BB213439BB26FEA434375
:104BA0006FEA53439AB27B691A8026E07B6D1B69DA
:104BB000002B0AD17B691B889BB26FEA43436FEAE3
:104BC00053439AB27B691A8017E07B6D1B695B08BF
:104BD0007B647B6D1B6903F00103002B02D07B6CAF
:104BE00001337B647B691B889AB27B6C9BB29B020E
:104BF0009BB213439AB27B691A807B681B681B883F
:104C00009BB223F4804323F070037B827B8A83F47E
:104C100080537B827B8A83F400537B827B681A6893
:104C20007B8A43F07F4343F47F0343F4004343F024
:104C300080039BB2138034E27B681B681A4697F8A6
:104C40004D309B0013441B88A7F84A30B7F94A300F
:104C5000002B80F2FC807B681B681A4697F84D3069
:104C60009B0013441B889AB240F68F731340A7F839
:104C700048307B681B681A4697F84D309B001344F8
:104C8000B7F8482042F0800292B21A8097F84D207F
:104C900013469B001344DB0003F5A8737A681344A2
:104CA0007B657B6D1B7B002B25D17B681B68B3F874
:104CB00050309BB21A467B6D1B78DB0013440633E1
:104CC0005B007A681268134403F580631B88C3F3A2
:104CD0000903A7F85030B7F85030002B00F092804D
:104CE0007B6818687B6D59697B6DDA88B7F850303E
:104CF00004F071FF86E07B6DDB78022B0AD1B7F8F8
:104D00004A301A46796D786800F0D9F90346A7F859
:104D1000503077E07B681B681A467B6D1B789B00E0
:104D200013441B889BB223F4E04323F07003A7F8DD
:104D300052307B681B681A467B6D1B789B001A44B7
:104D4000B7F8523043F07F4343F47F0343F400430A
:104D500043F0C0039BB213807B681B681A467B6DCF
:104D60001B789B0013441B889BB203F48043002BE9
:104D700024D07B681B68B3F850309BB21A467B6D19
:104D80001B78DB00134402335B007A68126813441B
:104D900003F580631B88C3F30903A7F85030B7F805
:104DA0005030002B2ED07B6818687B6D59697B6D65
:104DB0001A89B7F8503004F00EFF23E07B681B68B7
:104DC000B3F850309BB21A467B6D1B78DB0013445E
:104DD00006335B007A681268134403F580631B880E
:104DE000C3F30903A7F85030B7F85030002B09D0AF
:104DF0007B6818687B6D59697B6D5A89B7F85030AC
:104E000004F0E9FE7B6DDA69B7F850301A447B6D27
:104E1000DA617B6D5A69B7F850301A447B6D5A617C
:104E20007B6D9B69002B05D0B7F850207B6D1B690B
:104E30009A4206D27B6D1B781946786808F060FBB1
:104E400005E07B681B68796D184603F08FF9B7F8A9
:104E50004A3003F08003002B00F0238197F84D20A7
:104E600013469B001344DB0010337A6813447B65C0
:104E70007B681B681A4697F84D309B0013441B88CB
:104E80009BB223F4E14323F07003A7F842307B6820
:104E90001B681A4697F84D309B001A44B7F8423009
:104EA0006FEA43436FEA53439BB213807B6DDB7819
:104EB000012B40F0A2807B6D00229A617B6D1B7BF1
:104EC000002B00F09380B7F84A3003F04003002B2A
:104ED00046D07B6D5B78002B26D17B681B687B629C
:104EE0007B681B68B3F850309BB21A467B6A134448
:104EF0007B627B6D1B781A017B6A134403F20443C7
:104F00003B623B6A1B889BB2C3F309039AB23B6ABC
:104F10001A803B6A1B889BB26FEA43436FEA534394
:104F20009AB23B6A1A8061E07B6D5B78012B5DD1A0
:104F30007B681B68FB627B681B68B3F850309BB2D0
:104F40001A46FB6A1344FB627B6D1B781A01FB6AED
:104F5000134403F20443BB62BB6A00221A8045E09B
:104F60007B681B68FB637B6D5B78002B26D17B68BD
:104F70001B687B637B681B68B3F850309BB21A4692
:104F80007B6B13447B637B6D1B781A017B6B134433
:104F900003F20C433B633B6B1B889BB2C3F30903D7
:104FA0009AB23B6B1A803B6B1B889BB26FEA434300
:104FB0006FEA53439AB23B6B1A8017E07B6D5B78C4
:104FC000012B13D17B681B68B3F850309BB21A4693
:104FD000FB6B1344FB637B6D1B781A01FB6B134463
:104FE00003F20C43BB63BB6B00221A807B6D1B7802
:104FF0001946786808F09FFA53E0B7F84A3003F48E
:105000008073002B46D17B681B68B3F850309BB28D
:105010001A467B6D1B78DB00134402335B007A6811
:105020001268134403F580631B88C3F30903A7F8D0
:1050300040307B6D9A69B7F840309A4207D97B6D52
:105040009A69B7F84030D21A7B6D9A6102E07B6DA5
:1050500000229A617B6D9B69002B06D17B6D1B78CA
:105060001946786808F067FA1BE07B6D5A69B7F853
:1050700040301A447B6D5A617B6DDA69B7F8403075
:105080001A447B6DDA617B681B68796D184603F002
:105090006DF806E0B7F84A301A46796D786800F086
:1050A0001BF97B681B68B3F844309BB21BB2002B22
:1050B000FFF63BAC002318465837BD4680BD80B58F
:1050C00088B000AFF860B9601346FB80FB8803F43A
:1050D0008043002B7ED0FB681B68B3F850309BB236
:1050E0001A46BB681B78DB00134402335B00FA6886
:1050F0001268134403F580631B88C3F309037B83A1
:10510000BB689A697B8B9A4206D3BB689A697B8B92
:10511000D21ABB689A6102E0BB6800229A61BB6840
:105120009B69002B23D1FB681B681A46BB681B7860
:105130009B0013441B889BB223F4804323F070032D
:105140003B833B8B83F400533B83FB681B681A460D
:10515000BB681B789B001A443B8B43F07F4343F4AE
:105160007F0343F4004343F080039BB21380FB882A
:1051700003F04003002B1FD0FB681B681A46BB6876
:105180001B789B0013441B889BB223F4E04323F05D
:105190007003FB82FB681B681A46BB681B789B0088
:1051A0001A44FB8A43F07F4343F47F0343F40043F4
:1051B00043F0C0039BB213807B8B002B00F08780F1
:1051C000FB681868BB685969BB681A897B8B04F057
:1051D00002FD7CE0FB681B68B3F850309BB21A46B6
:1051E000BB681B78DB00134406335B00FA68126867
:1051F000134403F580631B88C3F309037B83BB68F7
:105200009A697B8B9A4206D3BB689A697B8BD21AC8
:10521000BB689A6102E0BB6800229A61BB689B6927
:10522000002B23D1FB681B681A46BB681B789B00C8
:1052300013441B889BB223F4804323F07003FB8349
:10524000FB8B83F40053FB83FB681B681A46BB6827
:105250001B789B001A44FB8B43F07F4343F47F038E
:1052600043F4004343F080039BB21380FB8803F0B8
:105270004003002B1FD1FB681B681A46BB681B78D4
:105280009B0013441B889BB223F4E04323F070037C
:10529000BB83FB681B681A46BB681B789B001A44DB
:1052A000BB8B43F07F4343F47F0343F4004343F05D
:1052B000C0039BB213807B8B002B08D0FB6818685F
:1052C000BB685969BB685A897B8B04F084FC7B8B73
:1052D00018462037BD4680BD80B5A4B000AFF86049
:1052E000B9601346FB80FB8803F04003002B00F0FD
:1052F000DD81FB681B68B3F850309BB21A46BB686F
:105300001B78DB00134402335B00FA681268134415
:1053100003F580631B88C3F30903A7F88630BB68D5
:105320009A69B7F886309A4207D9BB689A69B7F884
:105330008630D21ABB689A6102E0BB6800229A618B
:10534000BB689B69002B40F0B980BB685B78002B81
:1053500026D1FB681B68FB62FB681B68B3F8503002
:105360009BB21A46FB6A1344FB62BB681B781A01A6
:10537000FB6A134403F20443BB62BB6A1B889BB203
:10538000C3F309039AB2BB6A1A80BB6A1B889BB23B
:105390006FEA43436FEA53439AB2BB6A1A801AE03A
:1053A000BB685B78012B16D1FB681B687B63FB68CD
:1053B0001B68B3F850309BB21A467B6B13447B6377
:1053C000BB681B781A017B6B134403F204433B63F5
:1053D0003B6B00221A80FB681B687B62BB685B78B2
:1053E000002B26D1FB681B68FB61FB681B68B3F8C8
:1053F00050309BB21A46FB691344FB61BB681B78B3
:105400001A01FB69134403F20C43BB61BB691B889F
:105410009BB2C3F309039AB2BB691A80BB691B88AC
:105420009BB26FEA43436FEA53439AB2BB691A8057
:1054300017E0BB685B78012B13D1FB681B68B3F8DE
:1054400050309BB21A467B6A13447B62BB681B7860
:105450001A017B6A134403F20C433B623B6A00224D
:105460001A80BB681B781946F86808F064F8FB8856
:1054700003F48043002B00F0FC82FB681B681A4693
:10548000BB681B789B0013441B889BB223F4E0434A
:1054900023F07003FB82FB681B681A46BB681B780D
:1054A0009B001A44FB8A43F07F4343F47F0343F499
:1054B000404343F080039BB21380DAE2FB8803F49D
:1054C0008043002B21D0FB681B681A46BB681B7801
:1054D0009B0013441B889BB223F4E04323F070032A
:1054E000A7F88A30FB681B681A46BB681B789B00CC
:1054F0001A44B7F88A3043F07F4343F47F0343F400
:10550000404343F080039BB21380BB6893F8243080
:10551000012B40F0AE82BB685A69B7F886301A4456
:10552000BB685A61BB68DA69B7F886301A44BB6851
:10553000DA61BB681A6ABB681B699A420BD3BB6805
:105540001B69C7F88C30BB681A6AD7F88C30D21A3E
:10555000BB681A6217E0BB681B6A002B08D1B7F85A
:105560008630C7F88C30BB68002283F824200AE01C
:10557000BB68002283F82420BB681B6AC7F88C3004
:10558000BB6800221A62BB685B78002B65D1FB68A0
:105590001B68FB63FB681B68B3F850309BB21A466C
:1055A000FB6B1344FB63BB681B781A01FB6B134452
:1055B00003F20443BB63BB6B1B889BB2C3F30903B9
:1055C0009AB2BB6B1A80D7F88C303E2B1DD9D7F816
:1055D0008C305B09BB64D7F88C3003F01F03002BC1
:1055E00002D1BB6C013BBB64BB6B1B889AB2BB6C2A
:1055F0009BB29B029BB213439BB26FEA43436FEA99
:1056000053439AB2BB6B1A8044E0D7F88C30002B1E
:105610000AD1BB6B1B889BB26FEA43436FEA5343CB
:105620009AB2BB6B1A8035E0D7F88C305B08BB644C
:10563000D7F88C3003F00103002B02D0BB6C013390
:10564000BB64BB6B1B889AB2BB6C9BB29B029BB2C8
:1056500013439AB2BB6B1A801CE0BB685B78012BCA
:1056600018D1FB681B687B64FB681B68B3F850307B
:105670009BB21A467B6C13447B64BB681B781A018F
:105680007B6C134403F204433B64D7F88C309AB22A
:105690003B6C1A80FB681868BB685969BB681A893B
:1056A000D7F88C309BB204F050FAE2E1FB681B683B
:1056B000B3F850309BB21A46BB681B78DB0013442A
:1056C00006335B00FA681268134403F580631B8895
:1056D000C3F30903A7F88630BB689A69B7F8863028
:1056E0009A4207D3BB689A69B7F88630D21ABB686A
:1056F0009A6102E0BB6800229A61BB689B69002B3B
:1057000040F0C080BB685B78002B26D1FB681B682B
:10571000FB67FB681B68B3F850309BB21A46FB6FFF
:105720001344FB67BB681B781A01FB6F134403F239
:105730000443BB67BB6F1B889BB2C3F309039AB2D8
:10574000BB6F1A80BB6F1B889BB26FEA43436FEA43
:1057500053439AB2BB6F1A801AE0BB685B78012B87
:1057600016D1FB681B687B66FB681B68B3F850307A
:105770009BB21A467B6E13447B66BB681B781A018A
:105780007B6E134403F204433B663B6E00221A8097
:10579000FB681B687B67BB685B78002B2BD1FB68C1
:1057A0001B68FB66FB681B68B3F850309BB21A4657
:1057B000FB6E1344FB66BB681B781A01FB6E134437
:1057C00003F20C43C7F88030D7F880301B889BB2B7
:1057D000C3F309039AB2D7F880301A80D7F8803023
:1057E0001B889BB26FEA43436FEA53439AB2D7F8E0
:1057F00080301A8017E0BB685B78012B13D1FB68FF
:105800001B68B3F850309BB21A467B6F13447B671A
:10581000BB681B781A017B6F134403F20C433B6790
:105820003B6F00221A80BB681B781946F86807F0A6
:1058300082FEFB8803F48043002B40F01A81FB6852
:105840001B681A46BB681B789B0013441B889BB2DD
:1058500023F4E04323F07003A7F88830FB681B684B
:105860001A46BB681B789B001A44B7F8883043F08F
:105870007F4343F47F0343F4404343F080039BB2F0
:105880001380F6E0FB8803F48043002B21D1FB68F2
:105890001B681A46BB681B789B0013441B889BB28D
:1058A00023F4E04323F07003A7F84E30FB681B6835
:1058B0001A46BB681B789B001A44B7F84E3043F079
:1058C0007F4343F47F0343F4404343F080039BB2A0
:1058D0001380BB6893F82430012B40F0CA80BB686A
:1058E0005A69B7F886301A44BB685A61BB68DA69EE
:1058F000B7F886301A44BB68DA61BB681A6ABB68BD
:105900001B699A420BD3BB681B69C7F88C30BB6814
:105910001A6AD7F88C30D21ABB681A6217E0BB68D3
:105920001B6A002B08D1B7F88630C7F88C30BB68EB
:10593000002283F824200AE0BB681B6AC7F88C3079
:10594000BB6800221A62BB68002283F82420FB682F
:105950001B687B65BB685B78002B65D1FB681B68A7
:10596000FB65FB681B68B3F850309BB21A46FB6DB1
:105970001344FB65BB681B781A01FB6D134403F2EB
:105980000C43BB65BB6D1B889BB2C3F309039AB282
:10599000BB6D1A80D7F88C303E2B1DD9D7F88C30D0
:1059A0005B09BB66D7F88C3003F01F03002B02D1D4
:1059B000BB6E013BBB66BB6D1B889AB2BB6E9BB2D4
:1059C0009B029BB213439BB26FEA43436FEA53437C
:1059D0009AB2BB6D1A8041E0D7F88C30002B0AD107
:1059E000BB6D1B889BB26FEA43436FEA53439AB285
:1059F000BB6D1A8032E0D7F88C305B08BB66D7F8F5
:105A00008C3003F00103002B02D0BB6E0133BB6668
:105A1000BB6D1B889AB2BB6E9BB29B029BB21343B9
:105A20009AB2BB6D1A8019E0BB685B78012B15D167
:105A3000FB681B68B3F850309BB21A467B6D134469
:105A40007B65BB681B781A017B6D134403F20C4322
:105A50003B65D7F88C309AB23B6D1A80FB681868AA
:105A6000BB685969BB685A89D7F88C309BB204F07F
:105A70006CF8FB681B681A46BB681B789B001344D4
:105A80001B889BB223F4E04323F04003BB82BB8A14
:105A900083F01003BB82BB8A83F02003BB82FB68C8
:105AA0001B681A46BB681B789B001A44BB8A43F0EC
:105AB0007F4343F47F0343F4004343F080039BB2EE
:105AC0001380002318469037BD4680BD80B487B050
:105AD00000AFF8607B600B467B8113463B817B897E
