:020000040800F2
:10000000005000201D310008C5290008CD29000836
:10001000D5290008DD290008E529000800000000B6
:10002000000000000000000000000000ED290008B2
:10003000F929000800000000052A0008112A00081C
:100040006531000865310008653100086531000838
:100050006531000865310008653100086531000828
:100060006531000865310008452A0008653100083F
:100070006531000865310008653100086531000808
:1000800065310008653100086531000865310008F8
:10009000653100086531000865310008532A000801
:1000A00065310008653100086531000865310008D8
:1000B0001D2A0008312A0008653100086531000852
:1000C00065310008653100086531000865310008B8
:1000D00065310008653100086531000865310008A8
:1000E0006531000865310008653100080000000036
:1000F0000000000000000000000000000000000000
:0C01000000000000000000005FF808F1A3
:1001100010B5054C237833B9044B13B10448AFF341
:1001200000800123237010BD780000200000000033
:10013000446D000808B5034B1BB103490348AFF3F6
:10014000008008BD000000007C000020446D000815
:1001500081F0004102E000BF83F0004330B54FEA78
:1001600041044FEA430594EA050F08BF90EA020FE5
:100170001FBF54EA000C55EA020C7FEA645C7FEA78
:10018000655C00F0E2804FEA5454D4EB5555B8BF9B
:100190006D420CDD2C4480EA020281EA030382EA0C
:1001A000000083EA010180EA020281EA0303362D9E
:1001B00088BF30BD11F0004F4FEA01314FF4801C71
:1001C0004CEA113102D0404261EB410113F0004F83
:1001D0004FEA03334CEA133302D0524263EB43033A
:1001E00094EA050F00F0A780A4F10104D5F1200ED8
:1001F0000DDB02FA0EFC22FA05F2801841F1000133
:1002000003FA0EF2801843FA05F359410EE0A5F106
:1002100020050EF1200E012A03FA0EFC28BF4CF037
:10022000020C43FA05F3C01851EBE37101F00045ED
:1002300007D54FF0000EDCF1000C7EEB00006EEBFA
:100240000101B1F5801F1BD3B1F5001F0CD3490884
:100250005FEA30004FEA3C0C04F101044FEA4452DB
:1002600012F5800F80F09A80BCF1004F08BF5FEA62
:10027000500C50F1000041EB045141EA050130BD42
:100280005FEA4C0C404141EB0101013C28BFB1F554
:10029000801FE9D291F0000F04BF01460020B1FA9F
:1002A00081F308BF2033A3F10B03B3F120020CDA72
:1002B0000C3208DD02F1140CC2F10C0201FA0CF050
:1002C00021FA02F10CE002F11402D8BFC2F1200CB5
:1002D00001FA02F120FA0CFCDCBF41EA0C0190406B
:1002E000E41AA2BF01EB0451294330BD6FEA0404B4
:1002F0001F3C1CDA0C340EDC04F11404C4F120029F
:1003000020FA04F001FA02F340EA030021FA04F3B0
:1003100045EA030130BDC4F10C04C4F1200220FA07
:1003200002F001FA04F340EA0300294630BD21FA45
:1003300004F0294630BD94F0000F83F4801306BF0B
:1003400081F480110134013D4EE77FEA645C18BFFF
:100350007FEA655C29D094EA050F08BF90EA020F96
:1003600005D054EA000C04BF1946104630BD91EA8E
:10037000030F1EBF0021002030BD5FEA545C05D191
:100380004000494128BF41F0004130BD14F58004D0
:100390003CBF01F5801130BD01F0004545F0FE4144
:1003A00041F470014FF0000030BD7FEA645C1ABF79
:1003B000194610467FEA655C1CBF0B46024650EAB0
:1003C000013406BF52EA033591EA030F41F40021DC
:1003D00030BD00BF90F0000F04BF0021704730B562
:1003E0004FF4806404F132044FF000054FF0000137
:1003F00050E700BF90F0000F04BF0021704730B5F8
:100400004FF4806404F1320410F0004548BF4042CC
:100410004FF000013EE700BF42004FEAE2014FEA21
:1004200031014FEA02701FBF12F07F4393F07F4FFC
:1004300081F06051704732F07F4208BF704793F0FF
:100440007F4F04BF41F40021704730B54FF4607412
:1004500001F0004521F000411CE700BF50EA010215
:1004600008BF704730B54FF000050AE050EA0102BE
:1004700008BF704730B511F0004502D5404261EB2E
:1004800041014FF4806404F132045FEA915C3FF46F
:10049000D8AE4FF003025FEADC0C18BF03325FEA0C
:1004A000DC0C18BF033202EBDC02C2F1200300FABD
:1004B00003FC20FA02F001FA03FE40EA0E0021FAE2
:1004C00002F11444BDE600BF70B54FF0FF0C4CF4D0
:1004D000E06C1CEA11541DBF1CEA135594EA0C0F82
:1004E00095EA0C0F00F0DEF82C4481EA030621EABD
:1004F0004C5123EA4C5350EA013518BF52EA0335F8
:1005000041F4801143F4801338D0A0FB02CE4FF0A9
:100510000005E1FB02E506F00042E0FB03E54FF0D9
:100520000006E1FB03569CF0000F18BF4EF0010ED1
:10053000A4F1FF04B6F5007F64F5407404D25FEACD
:100540004E0E6D4146EB060642EAC62141EA555180
:100550004FEAC52040EA5E504FEACE2EB4F1FD0CC2
:1005600088BFBCF5E06F1ED8BEF1004F08BF5FEA40
:10057000500E50F1000041EB045170BD06F00046F2
:1005800046EA010140EA020081EA0301B4EB5C049F
:10059000C2BFD4EB0C0541EA045170BD41F4801197
:1005A0004FF0000E013C00F3AB8014F1360FDEBFBC
:1005B000002001F0004170BDC4F10004203C35DA98
:1005C0000C341BDC04F11404C4F1200500FA05F31B
:1005D00020FA04F001FA05F240EA020001F00042BC
:1005E00021F0004110EBD37021FA04F642EB060132
:1005F0005EEA430E08BF20EAD37070BDC4F10C045C
:10060000C4F1200500FA04F320FA05F001FA04F21F
:1006100040EA020001F0004110EBD37041F100010B
:100620005EEA430E08BF20EAD37070BDC4F1200516
:1006300000FA05F24EEA020E20FA04F301FA05F27E
:1006400043EA020321FA04F001F0004121FA04F226
:1006500020EA020000EBD3705EEA430E08BF20EAF6
:10066000D37070BD94F0000F0FD101F00046400030
:1006700041EB010111F4801F08BF013CF7D041EAB2
:10068000060195F0000F18BF704703F000465200B6
:1006900043EB030313F4801F08BF013DF7D043EA87
:1006A0000603704794EA0C0F0CEA135518BF95EA3D
:1006B0000C0F0CD050EA410618BF52EA4306D1D1C4
:1006C00081EA030101F000414FF0000070BD50EAE3
:1006D000410606BF1046194652EA430619D094EA6D
:1006E0000C0F02D150EA013613D195EA0C0F05D157
:1006F00052EA03361CBF104619460AD181EA0301AB
:1007000001F0004141F0FE4141F470014FF0000062
:1007100070BD41F0FE4141F4780170BD70B54FF0FD
:10072000FF0C4CF4E06C1CEA11541DBF1CEA13557D
:1007300094EA0C0F95EA0C0F00F0A7F8A4EB05045F
:1007400081EA030E52EA03354FEA013100F0888056
:100750004FEA03334FF0805545EA131343EA12631F
:100760004FEA022245EA111545EA10654FEA0026D4
:100770000EF000419D4208BF964244F1FD0404F58D
:10078000407402D25B084FEA3202B61A65EB0305E9
:100790005B084FEA32024FF480104FF4002CB6EBA6
:1007A000020E75EB030E22BFB61A754640EA0C0026
:1007B0005B084FEA3202B6EB020E75EB030E22BF66
:1007C000B61A754640EA5C005B084FEA3202B6EBA7
:1007D000020E75EB030E22BFB61A754640EA9C0066
:1007E0005B084FEA3202B6EB020E75EB030E22BF36
:1007F000B61A754640EADC0055EA060E18D04FEAF4
:10080000051545EA16754FEA06164FEAC30343EA93
:1008100052734FEAC2025FEA1C1CC0D111F4801F60
:100820000BD141EA00014FF000004FF0004CB6E759
:1008300011F4801F04BF01430020B4F1FD0C88BFF8
:10084000BCF5E06F3FF6AFAEB5EB030C04BFB6EB03
:10085000020C5FEA500C50F1000041EB045170BDF6
:100860000EF0004E4EEA113114EB5C04C2BFD4EB23
:100870000C0541EA045170BD41F480114FF0000EA7
:10088000013C90E645EA060E8DE60CEA135594EA23
:100890000C0F08BF95EA0C0F3FF43BAF94EA0C0F26
:1008A0000AD150EA01347FF434AF95EA0C0F7FF49B
:1008B00025AF104619462CE795EA0C0F06D152EAEF
:1008C00003353FF4FDAE1046194622E750EA4106D3
:1008D00018BF52EA43067FF4C5AE50EA41047FF4E4
:1008E0000DAF52EA43057FF4EBAE12E74FF0FF3C49
:1008F00006E000BF4FF0010C02E000BF4FF0010C1A
:100900004DF804CD4FEA410C7FEA6C5C4FEA430C92
:1009100018BF7FEA6C5C1BD001B050EA410C0CBFE1
:1009200052EA430C91EA030F02BF90EA020F002043
:10093000704710F1000F91EA030F58BF994208BFAA
:1009400090422CBFD8176FEAE37040F00100704767
:100950004FEA410C7FEA6C5C02D150EA013C07D1BE
:100960004FEA430C7FEA6C5CD6D152EA033CD3D009
:100970005DF8040B704700BF8446104662468C4603
:100980001946634600E000BF01B5FFF7B7FF002836
:1009900048BF10F1000F01BD4DF808EDFFF7F4FF5F
:1009A0000CBF012000205DF808FB00BF4DF808EDEA
:1009B000FFF7EAFF34BF012000205DF808FB00BF0D
:1009C0004DF808EDFFF7E0FF94BF012000205DF82F
:1009D00008FB00BF4DF808EDFFF7CEFF94BF0120E4
:1009E00000205DF808FB00BF4DF808EDFFF7C4FFDD
:1009F00034BF012000205DF808FB00BF4FEA410C26
:100A00007FEA6C5C02D150EA013C0AD14FEA430C08
:100A10007FEA6C5C02D152EA033C02D14FF0000045
:100A200070474FF0010070474FEA4102B2F1E043D6
:100A300024BFB3F5001CDCF1FE5C0DD901F0004CC5
:100A40004FEAC0024CEA5070B2F1004F40EB830015
:100A500008BF20F00100704711F0804F21D113F141
:100A60003872BCBF01F00040704741F480114FEA7A
:100A70005252C2F11802C2F1200C10FA0CF320FA03
:100A800002F018BF40F001004FEAC1234FEAD32320
:100A900003FA0CFC40EA0C0023FA02F34FEA43038A
:100AA000CCE77FEA625307D150EA01331EBF4FF013
:100AB000FE4040F44000704701F0004040F0FE402E
:100AC00040F40000704700BF80F0004002E000BF2B
:100AD00081F0004142001FBF5FEA410392EA030F29
:100AE0007FEA226C7FEA236C6AD04FEA1262D2EB73
:100AF0001363C1BFD218414048404140B8BF5B4278
:100B0000192B88BF704710F0004F40F4000020F010
:100B10007F4018BF404211F0004F41F4000121F026
:100B20007F4118BF494292EA030F3FD0A2F1010270
:100B300041FA03FC10EB0C00C3F1200301FA03F1AE
:100B400000F0004302D5494260EB4000B0F5000FD1
:100B500013D3B0F1807F06D340084FEA310102F190
:100B60000102FE2A51D2B1F1004F40EBC25008BF42
:100B700020F0010040EA03007047490040EB00000C
:100B8000013A28BFB0F5000FEDD2B0FA80FCACF10D
:100B9000080CB2EB0C0200FA0CF0AABF00EBC2503A
:100BA00052421843BCBFD0401843704792F0000F28
:100BB00081F4000106BF80F400000132013BB5E77B
:100BC0004FEA41037FEA226C18BF7FEA236C21D0F1
:100BD00092EA030F04D092F0000F08BF0846704756
:100BE00090EA010F1CBF0020704712F07F4F04D124
:100BF000400028BF40F00040704712F100723CBF37
:100C000000F50000704700F0004343F0FE4040F460
:100C1000000070477FEA226216BF08467FEA23631E
:100C20000146420206BF5FEA412390EA010F40F409
:100C3000800070474FF0000304E000BF10F0004355
:100C400048BF40425FEA000C08BF704743F096433C
:100C500001464FF000001CE050EA010208BF704757
:100C60004FF000030AE000BF50EA010208BF7047DE
:100C700011F0004302D5404261EB41015FEA010CF3
:100C800002BF84460146002043F0B64308BFA3F1EB
:100C90008053A3F50003BCFA8CF2083AA3EBC253CD
:100CA00010DB01FA02FC634400FA02FCC2F12002EC
:100CB000BCF1004F20FA02F243EB020008BF20F023
:100CC0000100704702F1200201FA02FCC2F1200289
:100CD00050EA4C0021FA02F243EB020008BF20EA7E
:100CE000DC7070474FF0FF0C1CEAD0521EBF1CEAAC
:100CF000D15392EA0C0F93EA0C0F6FD01A4480EA9A
:100D0000010C400218BF5FEA41211ED04FF0006382
:100D100043EA501043EA5111A0FB01310CF00040AE
:100D2000B1F5000F3EBF490041EAD3715B0040EAD4
:100D3000010062F17F02FD2A1DD8B3F1004F40EBA4
:100D4000C25008BF20F00100704790F0000F0CF077
:100D5000004C08BF49024CEA502040EA51207F3A3B
:100D6000C2BFD2F1FF0340EAC250704740F4000016
:100D70004FF00003013A5DDC12F1190FDCBF00F007
:100D800000407047C2F10002410021FA02F1C2F1B5
:100D9000200200FA02FC5FEA310040F1000053EA51
:100DA0004C0308BF20EADC70704792F0000F00F09F
:100DB000004C02BF400010F4000F013AF9D040EAA5
:100DC0000C0093F0000F01F0004C02BF490011F439
:100DD000000F013BF9D041EA0C018FE70CEAD15337
:100DE00092EA0C0F18BF93EA0C0F0AD030F0004CB7
:100DF00018BF31F0004CD8D180EA010000F000406B
:100E0000704790F0000F17BF90F0004F084691F028
:100E1000000F91F0004F14D092EA0C0F01D1420262
:100E20000FD193EA0C0F03D14B0218BF084608D12B
:100E300080EA010000F0004040F0FE4040F4000075
:100E4000704740F0FE4040F4400070474FF0FF0C08
:100E50001CEAD0521EBF1CEAD15392EA0C0F93EA4F
:100E60000C0F69D0A2EB030280EA010C49024FEAA1
:100E7000402037D04FF0805343EA111143EA10135A
:100E80000CF000408B4238BF5B0042F17D024FF412
:100E9000000C8B4224BF5B1A40EA0C00B3EB510FED
:100EA00024BFA3EB510340EA5C00B3EB910F24BFD6
:100EB000A3EB910340EA9C00B3EBD10F24BFA3EB5B
:100EC000D10340EADC001B0118BF5FEA1C1CE0D123
:100ED000FD2A3FF650AF8B4240EBC25008BF20F0D6
:100EE000010070470CF0004C4CEA50207F32C2BF2A
:100EF000D2F1FF0340EAC250704740F400004FF0C7
:100F00000003013A37E792F0000F00F0004C02BFF7
:100F1000400010F4000F013AF9D040EA0C0093F0C1
:100F2000000F01F0004C02BF490011F4000F013B1B
:100F3000F9D041EA0C0195E70CEAD15392EA0C0F83
:100F400008D142027FF47DAF93EA0C0F7FF470AFBB
:100F5000084676E793EA0C0F04D14B023FF44CAFFE
:100F600008466EE730F0004C18BF31F0004CCAD193
:100F700030F000427FF45CAF31F000437FF43CAFCF
:100F80005FE700BF4FF0FF3C06E000BF4FF0010CF1
:100F900002E000BF4FF0010C4DF804CD4FEA4002D3
:100FA0004FEA41037FEA226C18BF7FEA236C11D01D
:100FB00001B052EA530C18BF90EA010F58BFB2EBD0
:100FC000030088BFC81738BF6FEAE17018BF40F050
:100FD000010070477FEA226C02D15FEA402C05D104
:100FE0007FEA236CE4D15FEA412CE1D05DF8040B89
:100FF000704700BF844608466146FFE70FB5FFF71C
:10100000C9FF002848BF10F1000F0FBD4DF808EDD3
:10101000FFF7F4FF0CBF012000205DF808FB00BFC4
:101020004DF808EDFFF7EAFF34BF012000205DF81E
:1010300008FB00BF4DF808EDFFF7E0FF94BF01206B
:1010400000205DF808FB00BF4DF808EDFFF7D2FF68
:1010500094BF012000205DF808FB00BF4DF808EDAB
:10106000FFF7C8FF34BF012000205DF808FB00BF78
:101070004FEA4002B2F1FE4F0FD34FF09E03B3EBA5
:1010800012620DD94FEA002343F0004310F0004FE5
:1010900023FA02F018BF404270474FF0000070473B
:1010A00012F1610F01D1420205D110F0004008BFDA
:1010B0006FF0004070474FF00000704742000ED2C2
:1010C000B2F1FE4F0BD34FF09E03B3EB126209D483
:1010D0004FEA002343F0004323FA02F070474FF039
:1010E0000000704712F1610F01D1420202D14FF0AE
:1010F000FF3070474FF00000704700BF84B080B5EC
:1011000082B000AF786007F1140080E80E007B68C1
:1011100000221A637B6800221A607B684FF000028D
:101120005A607B684FF07E529A607B684FF00002F5
:10113000DA607B684FF07E521A617B6800225A6148
:101140007B6800229A617B680022DA617B684FF03D
:1011500000021A627B684FF000025A627B684FF00F
:101160007E529A627B68002283F82C20386EFFF74B
:1011700061FD03461946786800F03CF8786EFFF789
:1011800059FD03461946786800F086F8B7F85C20E8
:101190007B681A637B681A6B7B681A60786800F05A
:1011A000EBF8786800F0F0F97B6893F85030012B89
:1011B00008D17B68DA6C07F114031146184604F075
:1011C0006DFB07E07B68DA6C07F1140311461846E3
:1011D00003F026FD7B68186C7B68B3F8463001226B
:1011E000194602F0F0FA00BF0837BD46BDE880405E
:1011F00004B0704790B583B000AF786039604FF0AD
:1012000000013868FFF70CFF0346002B03D03B6852
:1012100083F000433B607B689B6819463868FFF7A2
:10122000F5FE0346002B00D02DE07B683A689A60FB
:1012300039681748FFF70AFE03461A467B689A6228
:101240007B68DB69002B1EDD7B685A687B685B6806
:1012500019461046FFF746FD03461C467B68DB68CF
:1012600019461846FFF736FC034619462046FFF795
:10127000EDFD03461846FFF7FBFE02467B68DA6188
:10128000786800F079F800BF0C37BD4690BD00BF0C
:10129000002474490000000090B583B000AF78606E
:1012A00039604FF000013868FFF7B0FE0346002BAD
:1012B00056D14FF000013868FFF7B2FE0346002B0D
:1012C00003D03B6883F000433B607B68DB681946D2
:1012D0003868FFF79BFE0346002B42D17B68DB6931
:1012E0001846FFF7ABFC04467B68DB683968184694
:1012F000FFF7ACFD034619462046FFF7F3FC034613
:101300001846FFF7B5FE02467B68DA6139684FF090
:101310008040FFF79BFD03461846FFF77DF8024625
:101320000B461046194605F017FC0FA3D3E900231E
:10133000FFF7CAF802460B46104619460CA3D3E93C
:101340000023FFF7C1F802460B4610461946FFF787
:101350006BFB02467B681A627B683A68DA6000E0E1
:1013600000BF0C37BD4690BD000000C0CAA1E53FDC
:101370000000000080842E41B0B584B000AF7860DA
:10138000786800F0F3F8F8607B685A687B685B68FF
:1013900019461046FFF7A6FC03461C467B68DB682F
:1013A00019461846FFF796FB034619462046FFF7F5
:1013B0004DFD03461846FFF75BFE0346BB60FB6826
:1013C000002B0DD1BB68012B0ADC7B6800225A611F
:1013D0007B684FF000025A607B680022DA61C0E04F
:1013E000FB68002B24DD7B68DB69002B0DDDBA6810
:1013F000FB689A4204DA7B6893F82C30002B40D1CA
:10140000BB685A427B68DA613BE07B68DB69002B92
:1014100037DABA68FB689A4233DA7B6893F82C3083
:10142000012B2ED17B68DB695A427B68DA6128E0A8
:10143000FB68002B25DA7B68DB69002B0EDDFB687F
:101440005B42BA689A4204DA7B6893F82C30012B2D
:1014500017D1BB685A427B68DA6112E07B68DB69AE
:10146000002B0EDAFB685B42BA689A4209DA7B68A5
:1014700093F82C30002B04D17B68DB695A427B68DF
:10148000DA617B68DB69002B0ED17B681A6A7B68A6
:101490005A62FB68002BCCBF01230023DBB21A4643
:1014A0007B6883F82C203AE07B685C6A7B685B6A27
:1014B00019461846FFF70EFB03461D467B68DB699D
:1014C0001846FFF7BBFB03464FF081411846FFF774
:1014D00009FC03464FF07E511846FFF7FBFA03461E
:1014E00019462846FFF7B2FC034619462046FFF787
:1014F000EFFA03461A467B685A627B685A6A7B6831
:101500009B6A19461046FFF7A9FD0346002B02D03F
:101510007B685B6A01E07B689B6A7A6853627B68E0
:10152000DB695A1C7B68DA617B685B6A1846FFF7E7
:10153000C5FD02467B685A617B685B6A19460A48AA
:10154000FFF784FC03461A467B685A607B6893F871
:101550002C30002B05D17B685B6883F000427B68F0
:101560005A601037BD46B0BD0024744980B483B0C2
:1015700000AF78607B681A687B681B6BD31A1846CB
:101580000C37BD4680BC704780B582B000AF786034
:101590007B6893F83730002B37D07B68DB6C0C2BE3
:1015A00000F2CD8001A252F823F000BFE11500083F
:1015B0003F1700083F1700083F170008EB15000809
:1015C0003F1700083F1700083F170008F5150008EF
:1015D0003F1700083F1700083F170008FF150008D5
:1015E0007B689B6C00225A630EE07B689B6C002238
:1015F0009A6309E07B689B6C0022DA6304E07B68F5
:101600009B6C00221A6400BF99E0786800F09CF897
:101610000346002B43D07868FFF7AEFE7B685B691A
:10162000002B35D17B68DB6C0C2B00F2898001A28A
:1016300052F823F069160008411700084117000806
:1016400041170008731600084117000841170008E9
:10165000411700087D1600084117000841170008CF
:1016600041170008871600087B689B6C00225A63AC
:1016700066E07B689B6C00229A6361E07B689B6CF0
:101680000022DA635CE07B689B6C00221A6457E0FE
:101690007B685B699AB27B689B6CDA6250E0786821
:1016A000FFF764FF0346002B05DC7868FFF75EFF59
:1016B0000346002B44DA7868FFF75EFE7B685B69BF
:1016C000002B35D17B68DB6C0C2B39D801A252F88A
:1016D00023F000BF09170008411700084117000850
:1016E00041170008131700084117000841170008A8
:1016F000411700081D17000841170008411700088E
:1017000041170008271700087B689B6C00225A636A
:1017100016E07B689B6C00229A6311E07B689B6CEF
:101720000022DA630CE07B689B6C00221A6407E0FD
:101730007B685B699AB27B689B6CDA6200E000BFF1
:101740000837BD4680BD00BF80B582B000AF78606D
:101750007B685B69002B37D17B68DB6C0C2B31D845
:1017600001A252F823F000BF9D170008C51700081A
:10177000C5170008C5170008A7170008C5170008F7
:10178000C5170008C5170008B1170008C5170008DD
:10179000C5170008C5170008BB1700087B689B6CBD
:1017A00000225A630EE07B689B6C00229A6309E07A
:1017B0007B689B6C0022DA6304E07B689B6C0022F0
:1017C0001A6400BF002313E07B6893F82C30012BD0
:1017D00005D17B681B6B5A1C7B681A6304E07B682D
:1017E0001B6B5A1E7B681A63786800F005F80123AA
:1017F00018460837BD4680BD80B582B000AF78601E
:101800007B6893F82C30002B09D07B68D86B7B6801
:10181000B3F844300022194601F0D5FF08E07B6898
:10182000D86B7B68B3F844300122194601F0CBFF36
:101830007B6893F83830012B08D17B68186C7B6883
:10184000B3F846300122194601F0BDFF7B68DB6C1E
:101850000C2B31D801A252F823F000BF91180008D8
:10186000B9180008B9180008B91800089B18000832
:10187000B9180008B9180008B9180008A518000818
:10188000B9180008B9180008B9180008AF180008FE
:101890007B689B6C1E225A630EE07B689B6C1E2249
:1018A0009A6309E07B689B6C1E22DA6304E07B6824
:1018B0009B6C1E221A6400BF00BF0837BD4680BD66
:1018C00080B582B000AF78607B685B684FF0000144
:1018D0001846FFF79BFB0346002B05D07B681A6870
:1018E0007B681B6B9A4201D0012300E00023DBB22E
:1018F00018460837BD4680BD80B582B000AF78601D
:1019000039607B68002283F837207B681B683A685F
:101910009A4205D07B683A681A607868FFF72CFD18
:1019200000BF0837BD4680BD80B582B000AF78608B
:101930000B46FB70FB78002B09D17B68186C7B6829
:10194000B3F846300122194601F03DFF08E07B68FC
:10195000186C7B68B3F846300022194601F033FF5B
:1019600000BF0837BD4680BD80B582B002AF002001
:1019700004F0F2F901230193292300932A230A4A50
:1019800000212B2004F098FB2A21032004F02EFBD9
:10199000064B012200920ECB054804F001FB04F037
:1019A000F3F900BFBD4680BDB86E00080C8D00087D
:1019B000D86D000880B584B002AF002004F0CCF9E7
:1019C00001230193292300932A23794A002100202F
:1019D00004F072FB0021552004F008FB754B012236
:1019E00000920ECB5E2004F049FA2021552004F02D
:1019F000FDFA704B012200920ECB762004F03EFAE5
:101A00000B21342004F0F2FA6B4B012200920ECB32
:101A10006A4804F0C5FA3621002004F0E7FA654B65
:101A2000012200920ECB664804F0BAFA04F0ACF939
:101A30004FF47A7001F0FAFB0023FB7180216148BA
:101A400001F0AAFE0346002B12D15F4B93F9003040
:101A5000DBB20133DBB25AB25B4B1A705A4B93F9CB
:101A60000030022B02DD584B00221A700123FB715B
:101A70004FF40041534801F08FFE0346002B12D172
:101A8000514B93F90030DBB2013BDBB25AB24E4B03
:101A90001A704D4B93F90030002B02DA4A4B0222A8
:101AA0001A700123FB711021464801F075FE0346B0
:101AB000002B01D1012377E02021424801F06CFE88
:101AC0000346002B01D102236EE0FB79002BB3D03B
:101AD0003D4B93F90030022B42D0022B5EDC002BF1
:101AE00002D0012B1ED059E00023009329232A2283
:101AF0000021002004F092FA01230193292300938E
:101B00002A23324A0021002004F0D6FA0B21342087
:101B100004F06CFA284B012200920ECB2C4804F002
:101B20003FFA3BE00023009329232A2200210020D2
:101B300004F074FA01230193292300932A231C4AF9
:101B40000021002004F0B8FA0B21342004F04EFAF2
:101B5000194B012200920ECB184804F021FA1DE027
:101B60000023009329232A220021002004F056FAA2
:101B700001230193292300932A23164A00210020E0
:101B800004F09AFA0B21342004F030FA0A4B0122B7
:101B900000920ECB104804F003FA00BF04F0F4F8F2
:101BA000642001F043FB47E718460837BD4680BD77
:101BB000B06F0008008D00080C8D0008E46D00086F
:101BC000EC6D0008000C014019000020A87000080E
:101BD000006E0008B86E0008086E000880B586B078
:101BE00002AF0346FB71002004F0B6F80021192073
:101BF00004F0FCF91C4B012200920ECB1B4804F0B0
:101C0000CFF91B21042004F0F1F9FB79184A52F8AE
:101C10002300184B012200920ECB04F0C1F90123DE
:101C20000093402380223121002004F0F7F9FB7952
:101C3000042B13D8FB791A46920013441A469100DC
:101C40001A460B461344DBB20233FB73F87B0023C6
:101C500000933D237E22332104F0E0F904F094F850
:101C600000BF1037BD4680BD0C8D0008106E000807
:101C700000000020008D000880B582B002AF002077
:101C800004F06AF801230193292300932A23104AC0
:101C900000212B2004F010FA3221012004F0A6F9D3
:101CA0000C4B012200920ECB0B4804F079F904F0A2
:101CB0006BF802E0642001F0B9FA0821074801F04E
:101CC0006BFD0346002BF5D000BF00BFBD4680BDB5
:101CD000B86E0008008D0008186E0008000801406A
:101CE00080B586B002AF0123FB73002004F034F806
:101CF0000021192004F07AF9544B012200920ECBF6
:101D0000534804F04DF91421002004F06FF94F4BB3
:101D1000012200920ECB3C2004F0B0F81421742074
:101D200004F064F9494B012200920ECB3E2004F0EE
:101D3000A5F81421352004F059F9464B1B78381DBD
:101D4000454A0A2104F044FA404B381D0122009212
:101D50000ECB04F025F93521002004F047F93F4B64
:101D6000012200920ECB3E4804F01AF904F00CF860
:101D70004FF4FA7001F05AFA80213A4801F00CFD54
:101D80000346002B0ED1334B1B780133DAB2314BB3
:101D90001A70304B1B78122B02D92E4B01221A706D
:101DA0000123FB734FF400412E4801F0F5FC03467C
:101DB000002B0ED1274B1B78013BDAB2254B1A7052
:101DC000244B1B78012B02D8224B12221A700123BC
:101DD000FB731021234801F0DFFC0346002B2FD0BA
:101DE0002021204801F0D8FC0346002B2AD0FB7BA1
:101DF000002BC1D00023FB731421352004F0F6F82A
:101E0000144B1B78092B07D9124B1B78381D164A27
:101E10000A2104F0DDF906E00E4B1B78381D134A49
:101E20000A2104F0D5F9094B381D012200920ECB8E
:101E300004F0B6F803F0A8FF642001F0F7F99BE77F
:101E400000BF00E000BF1037BD4680BD0C8D00080C
:101E50002C6E000818000020346E0008008D000869
:101E6000386E0008000C01404C6E0008506E0008EF
:101E700080B584B002AF0346FB71002003F06CFF15
:101E8000012301931C2300931F23374A0021302094
:101E900004F012F91E210E2004F0A8F8FB79002BA3
:101EA00012D1324B012200920ECB314804F078F867
:101EB0003221042004F09AF82E4B012200920ECB1E
:101EC0002D4804F06DF82AE0FB79012B12D1274B45
:101ED000012200920ECB294804F062F8322104203E
:101EE00004F084F8234B012200920ECB244804F026
:101EF00057F814E0FB79022B11D11C4B0122009200
:101F00000ECB204804F04CF83221042004F06EF887
:101F1000184B012200920ECB1B4804F041F83821E7
:101F2000002004F063F8194B012200920ECB1848F0
:101F300004F036F803F028FF4FF47A7001F076F9D8
:101F40001021144801F028FC0346002B07D0202163
:101F5000104801F021FC0346002B00D0F0E700BF41
:101F60000837BD4680BD00BFA07100080C8D000879
:101F7000546E0008F48C0008606E0008746E00084F
:101F8000806E0008946E0008A06E0008008D0008A6
:101F9000B46E0008000C014080B588B000AF07F1B6
:101FA000100300221A605A609A60DA60444B9B6901
:101FB000434A43F010039361414B9B6903F01003C4
:101FC000FB60FB683E4B9B693D4A43F020039361F5
:101FD0003B4B9B6903F02003BB60BB68384B9B699C
:101FE000374A43F004039361354B9B6903F00403C4
:101FF0007B607B68324B9B69314A43F008039361F5
:102000002F4B9B6903F008033B603B6800224FF4B1
:1020100000512C4801F0D7FB0022A6212A4801F0EC
:10202000D2FB00224FF4C041284801F0CCFB4FF412
:1020300000533B6101237B610023BB610223FB61F1
:1020400007F1100319461F4801F022FAA6233B614D
:1020500001237B610023BB610223FB6107F11003B5
:102060001946194801F014FA18233B6100237B61DB
:102070000123BB6107F110031946134801F008FA68
:1020800048F2B3033B6100237B610123BB6107F18D
:10209000100319460D4801F0FBF94FF4C0433B61B2
:1020A00001237B610023BB610223FB6107F1100365
:1020B0001946064801F0ECF900BF2037BD4680BD47
:1020C000001002400010014000080140000C0140D7
:1020D00080B500AF124B134A1A60114B124A5A6076
:1020E0000F4B00229A600E4B0022DA600C4B4FF42B
:1020F00080421A610A4B00225A61094B00229A6100
:10210000074B0022DA61064B00221A62044801F0F4
:1021100095FB0346002B01D000F01BFC00BF80BDE7
:102120009400002000540040A086010080B500AF5C
:10213000124B134A1A60114B124A5A600F4B00227D
:102140009A600E4B0022DA600C4B4FF480421A6109
:102150000A4B00225A61094B00229A61074B002268
:10216000DA61064B00221A62044801F067FB03465D
:10217000002B01D000F0EDFB00BF80BDE800002087
:1021800000580040A086010080B58CB000AF786098
:1021900007F11C0300221A605A609A60DA607B68BB
:1021A0001B68324A934233D1314B9B69304A43F02A
:1021B000080393612E4B9B6903F00803BB61BB6965
:1021C0004FF44073FB6112233B620323BB6207F1B0
:1021D0001C031946274801F05BF9274B5B68FB623B
:1021E000FB6A43F0E063FB62FB6A43F00203FB62BD
:1021F000214AFB6A53601E4BDB691D4A43F40013FE
:10220000D3611B4BDB6903F400137B617B6929E01D
:102210007B681B68194A934224D1154B9B69144A69
:1022200043F008039361124B9B6903F008033B6181
:102230003B694FF44063FB6112233B620323BB62A3
:1022400007F11C0319460B4801F022F9084BDB6922
:10225000074A43F48003D361054BDB6903F4800331
:10226000FB60FB6800BF3037BD4680BD00540040B6
:1022700000100240000C01400000014000580040E6
:1022800080B582B000AF78607B681B68B3F1804F87
:1022900017D1124B1B78DBB2002B0FD00121104855
:1022A00001F07AFA0346002B08D10E4B00221A6384
:1022B0000C4B00221A60094B00221A700948FFF7E4
:1022C00063F97B681B68084A934202D10748FFF70D
:1022D0005BF900BF0837BD4680BD00BFE4010020A8
:1022E000000C01403C01002000040040900100204F
:1022F00080B500AF0021134802F0F0FB0421114823
:1023000002F0ECFB08210F4802F0E8FB0E4B4FF403
:102310007A725A630C4B4FF4FA629A630A4B40F29A
:102320002672DA634FF4FA6000F080FF064B002259
:102330005A63054B00229A63034B0022DA6300BF05
:1023400080BD00BFEC010020002C014080B500AF33
:102350000021044802F0C2FB034B00225A6300BF75
:1023600080BD00BFC40200200008004080B500AF5F
:10237000174B4FF416725A6301224FF4005115485F
:1023800001F021FA144B93F90030022B10D0022BEC
:1023900013DC002B02D0012B05D00EE04FF4FA50D5
:1023A00000F044FF09E043F2C82000F03FFF04E0E2
:1023B00044F2506000F03AFF00BF054B00225A6320
:1023C00000224FF40051034801F0FDF900BF80BD29
:1023D00000080040000C01401900002080B500AF4B
:1023E000044B4FF41672DA6340F2A46000F01EFF53
:1023F00000BF80BD002C014080B500AF064B40F609
:102400009802DA6340F2DC5000F010FF024B002229
:10241000DA6300BF80BD00BF002C014080B500AF73
:10242000064B40F69802DA634FF47A7000F0FEFE35
:10243000024B0022DA6300BF80BD00BF002C0140C8
:1024400080B500AF044B40F22672DA634FF4FA70A5
:1024500000F0ECFE00BF80BD002C014080B500AF55
:10246000084B40F6FC025A634FF4617000F0DEFE48
:10247000044B4FF47A725A634FF4617000F0D6FE49
:1024800000BF80BD002C014080B500AF154B4FF45C
:10249000FA629A634FF4FA7000F0C8FE114B4FF4E1
:1024A000AF629A634FF4FA7000F0C0FEFFF7D6FFF8
:1024B0000C4B4FF461729A634FF4FA7000F0B6FE61
:1024C000FFF7CCFF074B4FF4FA629A634FF4FA70B0
:1024D00000F0ACFE034B00225A63024B00229A63C9
:1024E00000BF80BD002C014080B582B000AF786095
:1024F00001210D48FFF718FA79680B48FFF7FCF93E
:102500000948FFF741F800E000BF0748FFF7D8F996
:102510000346002BF8D100210348FFF705FA00BF5E
:102520000837BD4680BD00BF3C01002080B582B0A9
:1025300000AF786001210D48FFF7F6F979680B4884
:10254000FFF7DAF90948FFF71FF800E000BF074876
:10255000FFF7B6F90346002BF8D100210348FFF737
:10256000E3F900BF0837BD4680BD00BF90010020E1
:1025700080B582B000AF13491348FEF73BFE124B03
:102580001B6B3B6000237B6014E0104B4FF4167212
:10259000DA633B6846331846FFF7A6FF0B4B4FF450
:1025A0004872DA633B68463B1846FFF79DFF7B683D
:1025B00001337B607B68132BE7DD00BF00BF08376A
:1025C000BD4680BD00803B463C010020002C014000
:1025D000F0B593B012AF204B0222A3F844201E4B5B
:1025E0001E4ADA631C4B1D4A1A641B4B0422A3F8D3
:1025F0004620194B4FF080429A64174B0022DA6450
:10260000154B002283F83720154E4CF250331193AE
:1026100042F6E063109300230F936D4606F10C041D
:102620000FCC0FC50FCC0FC50FCC0FC594E807001A
:1026300085E8070096E80E000748FEF75FFD0021D9
:10264000074802F0EDFA00210348FFF76DF900BFDB
:102650000437BD46F0BD00BF3C010020000801402A
:1026600034020020F0B593B012AF1F4B2022A3F824
:1026700044201D4B1D4ADA631B4B1C4A1A641A4B3B
:102680008022A3F84620184B194A9A64164B002260
:10269000DA64154B002283F83720164E44F6206387
:1026A000119343F69823109300230F936D4606F180
:1026B0000C040FCC0FC50FCC0FC50FCC0FC594E881
:1026C000070085E8070096E80E000748FEF716FDAC
:1026D0000021084802F0A4FA00210348FFF724F97A
:1026E00000BF0437BD46F0BD900100200008014046
:1026F000000400407C02002080B500AF054B0122A1
:102700001A7005490548FEF775FD0548FFF7ECFE10
:1027100000BF80BDE40100200000FA443C0100201D
:10272000009CFFFF80B582B000AF00237B6011E00A
:1027300049F64040FFF7FAFE4FF4FA7000F076FDDC
:102740000020FFF7F3FE4FF4FA7000F06FFD7B6896
:1027500001337B607B68072BEADD4FF47A7000F071
:1027600065FD00BF0837BD4680BD000080B582B062
:1027700000AF0020FFF732FAFFF762FEFFF7BCFF61
:10278000224B1B78C3F112037B607B68002B39DB83
:102790007B68112B36DC40F235527B6802FB03F379
:1027A0004FF4BE7213443B6019491A48FEF722FDEC
:1027B0003868FFF799FE4FF4967000F037FD01205E
:1027C000FFF70CFAFFF72AFEFFF75EFE0220FFF785
:1027D00005FAFFF703FEFFF7CBFEFFF70DFEFFF74D
:1027E0002FFE0320FFF7FAF9FFF7C0FD0420FFF7E3
:1027F000F5F9FFF797FF054B1B78013BDAB2034B66
:102800001A7000E000BF0837BD4680BD18000020E8
:1028100000803B463C01002080B582B000AF00F054
:10282000A3FC00F051F8FFF7B7FBFFF751FCFFF7EF
:102830007DFC00F059F900F089FA00F011FA00F07F
:10284000FBFA03F01FFAFFF78FF8FFF751FDFFF7D0
:10285000BFFEFFF707FFFFF779FDFFF7ABF87860E2
:102860007B68012B22D11021154800F095FF03460B
:10287000012B03D00020FFF7FBFA1CE008211048D1
:1028800000F08AFF0346002B03D00120FFF7F0FA87
:1028900011E00C4B1B78002B03D10220FFF7E8FA64
:1028A00009E0FFF763FFFFF7E7F904E07B68022B1D
:1028B00001D1FFF715FA012000F0B8FCCDE700BF09
:1028C000000801401800002080B590B000AF07F16B
:1028D000180328220021184603F0CAFC3B1D0022E1
:1028E0001A605A609A60DA601A610123BB614FF482
:1028F0008033FB6100233B620123BB6202237B63C5
:102900004FF48033BB634FF4E013FB6307F118030C
:10291000184601F03FFC0346002B01D000F019F8E7
:102920000F237B600223BB600023FB604FF48063B6
:102930003B6100237B613B1D0221184601F0ACFE88
:102940000346002B01D000F004F800BF4037BD461D
:1029500080BD80B400AF72B600BF00BFFDE70000CD
:1029600080B485B000AF154B9B69144A43F0010356
:102970009361124B9B6903F00103BB60BB680F4B73
:10298000DB690E4A43F08053D3610C4BDB6903F0E3
:1029900080537B607B680A4B5B68FB60FB6823F0BD
:1029A000E063FB60FB6843F00073FB60044AFB6874
:1029B000536000BF1437BD4680BC70470010024012
:1029C0000000014080B400AF00BFFDE780B400AF5D
:1029D00000BFFDE780B400AF00BFFDE780B400AFEB
:1029E00000BFFDE780B400AF00BFFDE780B400AFDB
:1029F00000BFBD4680BC704780B400AF00BFBD467D
:102A000080BC704780B400AF00BFBD4680BC70473B
:102A100080B500AF00F0EEFB00BF80BD80B500AF19
:102A2000024802F0EDF900BF80BD00BF3402002073
:102A300080B500AF024802F0E3F900BF80BD00BFDF
:102A40007C02002080B500AF102000F0D5FE00BF52
:102A500080BD80B500AF202000F0CEFE4FF40040D6
:102A600000F0CAFE802000F0C7FE00BF80BD00005D
:102A700080B586B000AF7860144A154BD31A7B61DD
:102A80007B693B61134B1B68002B02D1114B124A2F
:102A90001A60104B1A687B6813443A699A4207D24D
:102AA00003F0EEFB03460C221A604FF0FF3309E0FF
:102AB000084B1B68FB60074B1A687B681344054A88
:102AC0001360FB6818461837BD4680BD00500020D3
:102AD00000040000E80100206008002080B400AF7E
:102AE00000BFBD4680BC704780B596B000AF07F10F
:102AF000480300221A605A609A60DA6007F14003C6
:102B000000221A605A6007F1240300221A605A60FA
:102B10009A60DA601A615A619A613B1D2022002195
:102B2000184603F0A5FB4C4B4C4A1A604A4B47220F
:102B30005A60494B00229A60474B44F61F62DA60A4
:102B4000454B00221A61444B00225A61424B00223D
:102B50009A61414801F01AFF0346002B01D0FFF7AC
:102B6000F8FE4FF48053BB6407F1480319463A4816
:102B700002F0F8FA0346002B01D0FFF7EAFE3648D0
:102B800001F053FF0346002B01D0FFF7E2FE0023C4
:102B90003B6400237B6407F1400319462E4802F092
:102BA00053FF0346002B01D0FFF7D3FE60237B6267
:102BB0004FF47A73BB620023FB6200233B63002364
:102BC0007B630023BB630023FB6307F12403002224
:102BD0001946214802F004FA0346002B01D0FFF702
:102BE000B8FE07F12403042219461B4802F0F8F945
:102BF0000346002B01D0FFF7ACFE0023BB6207F1B8
:102C0000240308221946144802F0EAF90346002B6F
:102C100001D0FFF79EFE00237B600023BB600023F2
:102C2000FB6000233B6100237B614FF40053BB61D9
:102C300000233B623B1D1946074802F063FF034631
:102C4000002B01D0FFF785FE034800F0D3F900BF49
:102C50005837BD4680BD00BFEC010020002C01406C
:102C600080B58EB000AF07F1280300221A605A60C9
:102C70009A60DA6007F1200300221A605A603B1D57
:102C800000221A605A609A60DA601A615A619A6189
:102C90002D4B4FF080421A602B4B47225A602A4B33
:102CA00000229A60284B4FF47A72DA60264B002299
:102CB0001A61254B80229A61234801F067FE034682
:102CC000002B01D0FFF745FE4FF48053BB6207F1A4
:102CD000280319461C4802F045FA0346002B01D090
:102CE000FFF737FE184801F0A0FE0346002B01D085
:102CF000FFF72FFE00233B6200237B6207F12003D6
:102D00001946114802F0A0FE0346002B01D0FFF740
:102D100020FE60237B600223BB600023FB60002356
:102D20007B613B1D00221946074802F059F9034612
:102D3000002B01D0FFF70DFE034800F05BF900BF48
:102D40003837BD4680BD00BF3402002080B58EB04C
:102D500000AF07F1280300221A605A609A60DA6017
:102D600007F1200300221A605A603B1D00221A60FE
:102D70005A609A60DA601A615A619A612C4B2D4A46
:102D80001A602B4B47225A60294B00229A60284B2D
:102D90004FF47A72DA60264B00221A61244B8022AB
:102DA0009A61234801F0F2FD0346002B01D0FFF7A2
:102DB000D0FD4FF48053BB6207F1280319461C482D
:102DC00002F0D0F90346002B01D0FFF7C2FD1848EE
:102DD00001F02BFE0346002B01D0FFF7BAFD0023C4
:102DE0003B6200237B6207F120031946104802F082
:102DF0002BFE0346002B01D0FFF7ABFD60237B6069
:102E00000223BB600023FB6000237B613B1D00228B
:102E10001946074802F0E4F80346002B01D0FFF7FB
:102E200098FD034800F0E6F800BF3837BD4680BD86
:102E30007C0200200004004080B58EB000AF07F196
:102E4000280300221A605A609A60DA6007F12003B2
:102E500000221A605A603B1D00221A605A609A6074
:102E6000DA601A615A619A612C4B2D4A1A602B4B19
:102E700047225A60294B00229A60284B4FF4FA628D
:102E8000DA60264B00221A61244B00229A61234803
:102E900001F07CFD0346002B01D0FFF75AFD4FF4F3
:102EA0008053BB6207F1280319461C4802F05AF907
:102EB0000346002B01D0FFF74CFD184801F0B5FD8B
:102EC0000346002B01D0FFF744FD00233B620023A3
:102ED0007B6207F120031946104802F0B5FD034656
:102EE000002B01D0FFF735FD60237B600023BB6022
:102EF0000023FB6000237B613B1D0022194607482D
:102F000002F06EF80346002B01D0FFF722FD0348C4
:102F100000F070F800BF3837BD4680BDC402002005
:102F20000008004080B586B000AF78607B681B6801
:102F30002C4A93420CD12C4B9B692B4A43F40063DF
:102F40009361294B9B6903F400637B617B6944E0D7
:102F50007B681B68B3F1804F14D1234BDB69224A95
:102F600043F00103D361204BDB6903F001033B61B4
:102F70003B69002200211C2000F053FA1C2000F0C5
:102F80006CFA2AE07B681B68184A934214D1164BEE
:102F9000DB69154A43F00203D361134BDB6903F08D
:102FA0000203FB60FB68002200211D2000F039FABB
:102FB0001D2000F052FA10E07B681B680C4A934217
:102FC0000BD1094BDB69084A43F00403D361064B7C
:102FD000DB6903F00403BB60BB6800BF1837BD4664
:102FE00080BD00BF002C01400010024000040040E2
:102FF0000008004080B58AB000AF786007F1180380
:1030000000221A605A609A60DA607B681B683D4A49
:10301000934219D13C4B9B693B4A43F004039361B3
:10302000394B9B6903F004037B617B694FF4E063D8
:10303000BB610223FB6102237B6207F1180319467F
:10304000324800F025FA58E07B681B68B3F1804FE6
:1030500018D12D4B9B692C4A43F0040393612A4BF2
:103060009B6903F004033B613B690123BB610223BD
:10307000FB6102237B6207F118031946234800F025
:1030800007FA3AE07B681B68214A934218D11E4B2D
:103090009B691D4A43F0040393611B4B9B6903F03A
:1030A0000403FB60FB684023BB610223FB61022336
:1030B0007B6207F118031946144800F0E9F91CE097
:1030C0007B681B68134A934217D10F4B9B690E4ACA
:1030D00043F0080393610C4B9B6903F00803BB604A
:1030E000BB684023BB610223FB6102237B6207F1C3
:1030F00018031946084800F0CBF900BF2837BD4631
:1031000080BD00BF002C01400010024000080140BB
:103110000004004000080040000C0140FFF7DEFC06
:103120000B480C490C4A002302E0D458C450043325
:10313000C4188C42F9D3094A094C002301E01360FA
:103140000432A242FBD303F0A1F8FFF765FB7047FE
:103150000000002078000020688D00087800002022
:1031600060080020FEE7000080B500AF084B1B6838
:10317000074A43F010031360032000F047F90F20C3
:1031800000F008F8FFF7ECFB0023184680BD00BFF5
:103190000020024080B582B000AF7860124B1A6800
:1031A000124B1B7819464FF47A73B3FBF1F3B2FB61
:1031B000F3F3184600F05FF90346002B01D001231A
:1031C0000EE07B680F2B0AD8002279684FF0FF30A1
:1031D00000F027F9064A7B681360002300E0012312
:1031E00018460837BD4680BD1C0000202400002082
:1031F0002000002080B400AF054B1B781A46054B19
:103200001B681344034A136000BFBD4680BC70476F
:10321000240000200C03002080B400AF024B1B6888
:103220001846BD4680BC70470C03002080B584B0B2
:1032300000AF7860FFF7F0FFB8607B68FB60FB6869
:10324000B3F1FF3F05D00A4B1B781A46FB681344C5
:10325000FB6000BFFFF7E0FF0246BB68D31AFA68C5
:103260009A42F7D800BF00BF1037BD4680BD00BFEF
:103270002400002080B485B000AF78607B6803F044
:103280000703FB600C4BDB68BB60BA684FF6FF03BB
:103290001340BB60FB681A02BB68134343F0BF6373
:1032A00043F40033BB60044ABB68D36000BF1437EB
:1032B000BD4680BC704700BF00ED00E080B400AFA9
:1032C000044BDB681B0A03F007031846BD4680BCAD
:1032D000704700BF00ED00E080B483B000AF03464C
:1032E000FB7197F90730002B0BDBFB7903F01F0212
:1032F000064997F907305B09012000FA02F241F80C
:10330000232000BF0C37BD4680BC704700E100E0C1
:1033100080B483B000AF03463960FB7197F9073082
:10332000002B0ADB3B68DAB20C4997F9073012012F
:10333000D2B20B4483F800230AE03B68DAB20849B2
:10334000FB7903F00F03043B1201D2B20B441A764F
:1033500000BF0C37BD4680BC704700BF00E100E0F5
:1033600000ED00E080B489B000AFF860B9607A6029
:10337000FB6803F00703FB61FB69C3F10703042B40
:1033800028BF0423BB61FB690433062B02D9FB6908
:10339000033B00E000237B614FF0FF32BB6902FA80
:1033A00003F3DA43BB681A407B699A404FF0FF3160
:1033B0007B6901FA03F3D9437B680B40134318463A
:1033C0002437BD4680BC704780B582B000AF7860BE
:1033D0007B68013BB3F1807F01D301230FE00A4AF0
:1033E0007B68013B53600F214FF0FF30FFF790FFE8
:1033F000054B00229A60044B07221A6000231846EE
:103400000837BD4680BD00BF10E000E080B582B047
:1034100000AF78607868FFF72DFF00BF0837BD4622
:1034200080BD80B586B000AF0346B9607A60FB739B
:1034300000237B61FFF742FF78617A68B968786999
:10344000FFF790FF024697F90F3011461846FFF735
:103450005FFF00BF1837BD4680BD80B582B000AFAA
:103460000346FB7197F907301846FFF735FF00BF99
:103470000837BD4680BD80B582B000AF78607868FF
:10348000FFF7A2FF034618460837BD4680BD00007F
:1034900080B48BB000AF7860396000237B6200237A
:1034A0003B6269E101227B6A02FA03F3FB613B683C
:1034B0001B68FA691340BB61BA69FB699A4240F024
:1034C00058813B685B689A4A93425ED0984A93421F
:1034D00075D8984A934258D0964A93426FD8964AE4
:1034E000934252D0944A934269D8944A93424CD022
:1034F000924A934263D8924A934246D0904A93426A
:103500005DD8122B2AD8122B59D801A252F823F0D9
:103510008B3500086535000877350008B935000897
:10352000BF350008BF350008BF350008BF350008AB
:10353000BF350008BF350008BF350008BF3500089B
:10354000BF350008BF350008BF350008BF3500088B
:10355000BF3500086D35000881350008794A93426F
:1035600013D02CE03B68DB683B6229E03B68DB68FA
:1035700004333B6224E03B68DB6808333B621FE0B6
:103580003B68DB680C333B621AE03B689B68002BAE
:1035900002D104233B6213E03B689B68012B05D1F9
:1035A00008233B627B68FA691A6109E008233B62E1
:1035B0007B68FA695A6103E000233B6200E000BFC8
:1035C000BB69FF2B01D87B6801E07B6804337B611A
:1035D000BB69FF2B02D87B6A9B0002E07B6A083B39
:1035E0009B003B617B691A680F213B6901FA03F379
:1035F000DB431A40396A3B6901FA03F31A437B69DA
:103600001A603B685B6803F08053002B00F0B180C8
:103610004D4B9B694C4A43F0010393614A4B9B69B4
:1036200003F00103BB60BB68484A7B6A9B08023316
:1036300052F82330FB607B6A03F003039B000F22E8
:1036400002FA03F3DB43FA681340FB607B68404AED
:10365000934213D07B683F4A93420DD07B683E4A29
:10366000934207D07B683D4A934201D1032306E091
:10367000042304E0022302E0012300E000237A6A2D
:1036800002F0030292009340FA681343FB602F4953
:103690007B6A9B080233FA6841F823203B685B6829
:1036A00003F48013002B06D02D4B9A682C49BB697C
:1036B00013438B6006E02A4B9A68BB69DB432849B9
:1036C00013408B603B685B6803F40013002B06D04B
:1036D000234BDA682249BB691343CB6006E0204BD9
:1036E000DA68BB69DB431E491340CB603B685B680B
:1036F00003F40033002B06D0194B5A681849BB69F4
:1037000013434B6006E0164B5A68BB69DB43144910
:1037100013404B603B685B6803F48033002B21D07F
:103720000F4B1A680E49BB6913430B6021E000BFC1
:1037300000003210000031100000221000002110A3
:1037400000001210000011100010024000000140A3
:1037500000080140000C014000100140001401402D
:10376000000401400B4B1A68BB69DB430949134055
:103770000B607B6A01337B623B681A687B6A22FAC2
:1037800003F3002B7FF48EAE00BF00BF2C37BD4685
:1037900080BC70470004014080B485B000AF786001
:1037A0000B467B807B689A687B881340002B02D095
:1037B0000123FB7301E00023FB73FB7B18461437E6
:1037C000BD4680BC704780B483B000AF78600B46C4
:1037D0007B8013467B707B78002B03D07A887B68D4
:1037E0001A6103E07B881A047B681A6100BF0C37FA
:1037F000BD4680BC7047000080B582B000AF034674
:10380000FB80084B5A69FB881340002B06D0054A01
:10381000FB885361FB88184600F006F800BF0837A4
:10382000BD4680BD0004014080B483B000AF0346B4
:10383000FB8000BF0C37BD4680BC704780B584B0AC
:1038400000AF78607B68002B01D101232BE17B68FE
:1038500093F83D30DBB2002B06D17B68002283F861
:103860003C207868FEF790FC7B68242283F83D209A
:103870007B681B681A687B681B6822F001021A606B
:103880007B681B681A687B681B6842F400421A60F8
:103890007B681B681A687B681B6822F400421A6008
:1038A00001F042F8F8607B685B68814A934207D870
:1038B000FB68804A934294BF01230023DBB206E0F9
:1038C000FB687D4A934294BF01230023DBB2002BA7
:1038D00001D00123E7E0FB68784AA2FB03239B0C9D
:1038E000BB607B681B685B6823F03F017B681B68DB
:1038F000BA680A435A607B681B681B6A23F03F0161
:103900007B685B686A4A934202D8BB68013309E06E
:10391000BB684FF4967202FB03F3694AA2FB0323D0
:103920009B0901337A6812680B4313627B681B683A
:10393000DB6923F44F4222F0FF027B685B685C493D
:103940008B4219D8FB68591E7B685B685B00B1FB32
:10395000F3F3591C40F6FC730B40002B0AD0FB68B4
:10396000591E7B685B685B00B1FBF3F30133C3F363
:103970000B0351E004234FE07B689B68002B11D1BF
:10398000FB68581E7B6859680B465B000B44B0FB14
:10399000F3F30133C3F30B03002B0CBF012300230C
:1039A000DBB212E0FB68581E7B6859680B469B002F
:1039B0000B4499000B44B0FBF3F30133C3F30B0347
:1039C000002B0CBF01230023DBB2002B01D001230D
:1039D00022E07B689B68002B0ED1FB68581E7B6839
:1039E00059680B465B000B44B0FBF3F30133C3F3A0
:1039F0000B0343F400430FE0FB68581E7B685968D3
:103A00000B469B000B4499000B44B0FBF3F30133CE
:103A1000C3F30B0343F44043796809681343CB6154
:103A20007B681B681B6823F0C0017B68DA697B68D0
:103A30001B6A1A437B681B680A431A607B681B6811
:103A40009B6823F4034323F0FF037A6811697A68C3
:103A5000D26811437A6812680B4393607B681B68D5
:103A6000DB6823F0FF017B685A697B689B691A4316
:103A70007B681B680A43DA607B681B681A687B688E
:103A80001B6842F001021A607B6800221A647B689E
:103A9000202283F83D207B6800221A637B68002285
:103AA00083F83E20002318461037BD4680BD00BF76
:103AB000A08601007F841E00FF083D0083DE1B43BB
:103AC000D34D621080B588B002AFF8600846114649
:103AD0001A4603467B810B463B811346FB80FFF76A
:103AE0009BFB7861FB6893F83D30DBB2202B40F004
:103AF000D9807B690093192301226D49F86800F091
:103B000071F90346002B01D00223CCE0FB6893F847
:103B10003C30012B01D10223C5E0FB68012283F870
:103B20003C20FB681B681B6803F00103012B07D0D6
:103B3000FB681B681A68FB681B6842F001021A6088
:103B4000FB681B681A68FB681B6822F400621A6035
:103B5000FB68212283F83D20FB68402283F83E2049
:103B6000FB6800221A64FB683A6A5A62FB68BA8CE6
:103B70005A85FB685B8D9AB2FB681A85FB684D4AD3
:103B8000DA62F8883A8979897B690193BB6A009384
:103B90000346F86800F090F80346002B52D001234A
:103BA00081E07A69B96AF86800F036FA0346002BBA
:103BB0000DD0FB681B6C042B07D1FB681B681A68CF
:103BC000FB681B6842F400721A6001236BE0FB681B
:103BD0005B6A1A78FB681B681A61FB685B6A5A1C8F
:103BE000FB685A62FB681B8D013B9AB2FB681A8521
:103BF000FB685B8D9BB2013B9AB2FB685A85FB6800
:103C00001B685B6903F00403042B1BD1FB681B8D4D
:103C1000002B17D0FB685B6A1A78FB681B681A6177
:103C2000FB685B6A5A1CFB685A62FB681B8D013B90
:103C30009AB2FB681A85FB685B8D9BB2013B9AB216
:103C4000FB685A85FB681B8D002BAAD17A69B96A7B
:103C5000F86800F029FA0346002B0DD0FB681B6CB6
:103C6000042B07D1FB681B681A68FB681B6842F4C9
:103C700000721A60012316E0FB681B681A68FB6873
:103C80001B6842F400721A60FB68202283F83D2012
:103C9000FB68002283F83E20FB68002283F83C206A
:103CA000002300E0022318461837BD4680BD00BF40
:103CB000020010000000FFFF80B588B002AFF8607E
:103CC000084611461A4603467B810B463B81134644
:103CD000FB80FB681B681A68FB681B6842F48072F3
:103CE0001A607B6A00933B6A00224FF00111F8686A
:103CF00000F078F80346002B0DD0FB681B681B68AA
:103D000003F48073B3F5807F03D1FB684FF4007236
:103D10001A6403235FE07B89DBB21A46FB681B68E9
:103D200002F0FE021A617B6A3A6A2D49F86800F0D7
:103D3000D3F80346002B01D001234CE000237B6124
:103D4000FB681B685B697B61FB681B689B697B6127
:103D50007B697A6A396AF86800F05EF90346002BDD
:103D60000DD0FB681B6C042B07D1FB681B681A681D
:103D7000FB681B6842F400721A6001232BE0FB8889
:103D8000012B05D13B89DAB2FB681B681A6121E07F
:103D90003B891B0A9BB2DAB2FB681B681A617A6A1C
:103DA000396AF86800F038F90346002B0DD0FB683B
:103DB0001B6C042B07D1FB681B681A68FB681B6827
:103DC00042F400721A60012305E03B89DAB2FB6815
:103DD0001B681A61002318461837BD4680BD00BF16
:103DE0000200010080B584B000AFF860B9603B60AC
:103DF0001346FB7148E03B68B3F1FF3F44D0FFF747
:103E00000BFA0246BB69D31A3A689A4202D33B685E
:103E1000002B39D1BB681B0CDBB2012B0DD1FB6829
:103E20001B685B69DA43BB6813409BB2002B0CBF75
:103E300001230023DBB21A460CE0FB681B689B6978
:103E4000DA43BB6813409BB2002B0CBF0123002355
:103E5000DBB21A46FB799A4216D1FB6800221A633C
:103E6000FB68202283F83D20FB68002283F83E2077
:103E7000FB681B6C43F02002FB681A64FB6800229D
:103E800083F83C20012323E0BB681B0CDBB2012B31
:103E90000DD1FB681B685B69DA43BB6813409BB2BA
:103EA000002B0CBF01230023DBB21A460CE0FB6899
:103EB0001B689B69DA43BB6813409BB2002B0CBFA5
:103EC00001230023DBB21A46FB799A4293D00023E8
:103ED00018461037BD4680BD80B584B000AFF8608D
:103EE000B9607A603B6071E0FB681B685B6903F452
:103EF0008063B3F5806F23D1FB681B681A68FB6889
:103F00001B6842F400721A60FB681B686FF48062E1
:103F10005A61FB6800221A63FB68202283F83D2067
:103F2000FB68002283F83E20FB681B6C43F0040210
:103F3000FB681A64FB68002283F83C20012367E0D9
:103F40007B68B3F1FF3F41D0FFF766F902463B685B
:103F5000D31A7A689A4202D37B68002B36D1BB68A9
:103F60001B0CDBB2012B0CD1FB681B685B69DA43CD
:103F7000BB6813409BB2002B14BF01230023DBB2AC
:103F80000BE0FB681B689B69DA43BB6813409BB27C
:103F9000002B14BF01230023DBB2002B16D0FB68DB
:103FA00000221A63FB68202283F83D20FB68002270
:103FB00083F83E20FB681B6C43F02002FB681A6408
:103FC000FB68002283F83C20012321E0BB681B0C26
:103FD000DBB2012B0CD1FB681B685B69DA43BB6861
:103FE00013409BB2002B14BF01230023DBB20BE074
:103FF000FB681B689B69DA43BB6813409BB2002BCC
:1040000014BF01230023DBB2002B7FF46DAF00232C
:1040100018461037BD4680BD80B584B000AFF8604B
:10402000B9607A6034E0F86800F086F80346002B47
:1040300001D0012334E0BB68B3F1FF3F28D0FFF784
:10404000EBF802467B68D31ABA689A4202D3BB687F
:10405000002B1DD1FB681B685B6903F08003802B7C
:1040600016D0FB6800221A63FB68202283F83D20EB
:10407000FB68002283F83E20FB681B6C43F02002A3
:10408000FB681A64FB68002283F83C20012307E0E8
:10409000FB681B685B6903F08003802BC3D100239E
:1040A00018461037BD4680BD80B584B000AFF860BB
:1040B000B9607A6034E0F86800F03EF80346002BFF
:1040C00001D0012334E0BB68B3F1FF3F28D0FFF7F4
:1040D000A3F802467B68D31ABA689A4202D3BB6837
:1040E000002B1DD1FB681B685B6903F00403042BE4
:1040F00016D0FB6800221A63FB68202283F83D205B
:10410000FB68002283F83E20FB681B6C43F0200212
:10411000FB681A64FB68002283F83C20012307E057
:10412000FB681B685B6903F00403042BC3D1002305
:1041300018461037BD4680BD80B483B000AF7860AC
:104140007B681B685B6903F48063B3F5806F1BD1E8
:104150007B681B686FF480625A617B6800221A6377
:104160007B68202283F83D207B68002283F83E2074
:104170007B681B6C43F004027B681A647B68002236
:1041800083F83C20012300E0002318460C37BD468D
:1041900080BC704780B586B000AF78607B68002B2C
:1041A00001D1012372E27B681B6803F00103002B3D
:1041B00000F08780924B5B6803F00C03042B0CD05B
:1041C0008F4B5B6803F00C03082B12D18C4B5B68A0
:1041D00003F48033B3F5803F0BD1894B1B6803F4A4
:1041E0000033002B6CD07B685B68002B68D1012307
:1041F0004CE27B685B68B3F5803F06D1804B1B685F
:104200007F4A43F4803313602EE07B685B68002BA9
:104210000CD17B4B1B687A4A23F480331360784BB4
:104220001B68774A23F4802313601DE07B685B687A
:10423000B3F5A02F0CD1724B1B68714A43F4802355
:1042400013606F4B1B686E4A43F4803313600BE0BE
:104250006B4B1B686A4A23F480331360684B1B68FE
:10426000674A23F4802313607B685B68002B13D0BC
:10427000FEF7D2FF386108E0FEF7CEFF02463B6949
:10428000D31A642B01D9032300E25D4B1B6803F4AE
:104290000033002BF0D014E0FEF7BEFF386108E0D9
:1042A000FEF7BAFF02463B69D31A642B01D90323F8
:1042B000ECE1534B1B6803F40033002BF0D100E01A
:1042C00000BF7B681B6803F00203002B63D04C4BDC
:1042D0005B6803F00C03002B0BD0494B5B6803F0C9
:1042E0000C03082B1CD1464B5B6803F48033002B76
:1042F00016D1434B1B6803F00203002B05D07B68EB
:104300001B69012B01D00123C0E13D4B1B6823F049
:10431000F8027B685B69DB00394913430B603AE0C4
:104320007B681B69002B20D0364B01221A60FEF7F8
:1043300073FF386108E0FEF76FFF02463B69D31A4E
:10434000022B01D90323A1E12D4B1B6803F00203CB
:10435000002BF0D02A4B1B6823F0F8027B685B69C6
:10436000DB00274913430B6015E0264B00221A603F
:10437000FEF752FF386108E0FEF74EFF02463B6948
:10438000D31A022B01D9032380E11D4B1B6803F0D4
:104390000203002BF0D17B681B6803F00803002B9D
:1043A0003AD07B689B69002B19D0174B01221A6009
:1043B000FEF732FF386108E0FEF72EFF02463B6948
:1043C000D31A022B01D9032360E10D4B5B6A03F082
:1043D0000203002BF0D0012000F0BAFA1CE00A4BD7
:1043E00000221A60FEF718FF38610FE0FEF714FF95
:1043F00002463B69D31A022B08D9032346E100BFCA
:10440000001002400000424280044242924B5B6A2C
:1044100003F00203002BE9D17B681B6803F004035F
:10442000002B00F0A6800023FB758B4BDB6903F0AB
:104430008053002B0DD1884BDB69874A43F08053B2
:10444000D361854BDB6903F08053BB60BB680123FC
:10445000FB75824B1B6803F48073002B18D17F4BD4
:104460001B687E4A43F480731360FEF7D5FE386103
:1044700008E0FEF7D1FE02463B69D31A642B01D94E
:10448000032303E1754B1B6803F48073002BF0D00A
:104490007B68DB68012B06D16F4B1B6A6E4A43F0C9
:1044A000010313622DE07B68DB68002B0CD16A4BA3
:1044B0001B6A694A23F001031362674B1B6A664A51
:1044C00023F0040313621CE07B68DB68052B0CD12E
:1044D000614B1B6A604A43F0040313625E4B1B6A24
:1044E0005D4A43F0010313620BE05B4B1B6A5A4ABF
:1044F00023F001031362584B1B6A574A23F004034D
:1045000013627B68DB68002B15D0FEF785FE3861EF
:104510000AE0FEF781FE02463B69D31A41F2883277
:10452000934201D90323B1E04B4B1B6A03F0020312
:10453000002BEED014E0FEF76FFE38610AE0FEF7C4
:104540006BFE02463B69D31A41F28832934201D98D
:1045500003239BE0404B1B6A03F00203002BEED1C8
:10456000FB7D012B05D13C4BDB693B4A23F080539B
:10457000D3617B68DB69002B00F08780364B5B687A
:1045800003F00C03082B61D07B68DB69022B46D15A
:10459000334B00221A60FEF73FFE386108E0FEF759
:1045A0003BFE02463B69D31A022B01D903236DE07F
:1045B000294B1B6803F00073002BF0D17B681B6A4A
:1045C000B3F5803F08D1244B5B6823F400327B684D
:1045D0009B68214913434B601F4B5B6823F47412A3
:1045E0007B68196A7B685B6A0B431B4913434B600A
:1045F0001B4B01221A60FEF70FFE386108E0FEF740
:104600000BFE02463B69D31A022B01D903233DE07E
:10461000114B1B6803F00073002BF0D035E0104BFA
:1046200000221A60FEF7F8FD386108E0FEF7F4FD9D
:1046300002463B69D31A022B01D9032326E0064B1D
:104640001B6803F00073002BF0D11EE07B68DB6970
:10465000012B07D1012319E0001002400070004037
:10466000600042420B4B5B68FB60FB6803F48032E6
:104670007B681B6A9A4206D1FB6803F470127B6860
:104680005B6A9A4201D0012300E0002318461837E4
:10469000BD4680BD0010024080B584B000AF786098
:1046A00039607B68002B01D10123D0E06A4B1B6885
:1046B00003F007033A689A4210D9674B1B6823F04E
:1046C000070265493B6813430B60634B1B6803F0AB
:1046D00007033A689A4201D00123B8E07B681B685F
:1046E00003F00203002B20D07B681B6803F0040357
:1046F000002B05D0594B5B68584A43F4E063536084
:104700007B681B6803F00803002B05D0534B5B68E4
:10471000524A43F460535360504B5B6823F0F002FD
:104720007B689B684D4913434B607B681B6803F0B3
:104730000103002B40D07B685B68012B07D1474BFE
:104740001B6803F40033002B15D101237FE07B6845
:104750005B68022B07D1414B1B6803F00073002BF1
:1047600009D1012373E03D4B1B6803F00203002BCA
:1047700001D101236BE0394B5B6823F003027B68B6
:104780005B68364913434B60FEF746FDF8600AE06C
:10479000FEF742FD0246FB68D31A41F2883293428B
:1047A00001D9032353E02D4B5B6803F00C027B68B7
:1047B0005B689B009A42EBD1274B1B6803F0070311
:1047C0003A689A4210D2244B1B6823F00702224910
:1047D0003B6813430B60204B1B6803F007033A68E8
:1047E0009A4201D0012332E07B681B6803F0040386
:1047F000002B08D0194B5B6823F4E0627B68DB6810
:10480000164913434B607B681B6803F00803002BB9
:1048100009D0124B5B6823F460527B681B69DB0094
:104820000E4913434B6000F021F802460B4B5B68C6
:104830001B0903F00F030A49CB5C22FA03F3094A70
:104840001360094B1B681846FEF7A4FC00231846AA
:104850001037BD4680BD00BF00200240001002405E
:10486000107200081C0000202000002080B487B0D7
:1048700000AF0023FB600023BB6000237B610023AB
:104880007B6000233B611E4B5B68FB60FB6803F0B1
:104890000C03042B02D0082B03D027E0194B3B61FB
:1048A00027E0FB689B0C03F00F03174AD35C7B6087
:1048B000FB6803F48033002B10D0114B5B685B0C5A
:1048C00003F00103114AD35CBB607B680D4A03FB14
:1048D00002F2BB68B2FBF3F37B6104E07B680C4A35
:1048E00002FB03F37B617B693B6102E0054B3B61AB
:1048F00000BF3B6918461C37BD4680BC704700BFEF
:104900000010024000127A00287200083872000875
:1049100000093D0080B400AF024B1B681846BD463D
:1049200080BC70471C00002080B500AFFFF7F2FF8D
:104930000246054B5B681B0A03F007030349CB5C87
:1049400022FA03F3184680BD0010024020720008CE
:1049500080B485B000AF78600A4B1B680A4AA2FB9E
:1049600003235B0A7A6802FB03F3FB6000BFFB686A
:104970005A1EFA60002BF9D100BF00BF1437BD46A4
:1049800080BC70471C000020D34D621080B582B0FF
:1049900000AF78607B68002B01D1012341E07B6888
:1049A00093F83D30DBB2002B06D17B68002283F800
:1049B0003C207868FEF7B6FA7B68022283F83D2037
:1049C0007B681A687B6804331946104600F0B6FC11
:1049D0007B68012283F846207B68012283F83E2011
:1049E0007B68012283F83F207B68012283F8402006
:1049F0007B68012283F841207B68012283F84220F2
:104A00007B68012283F843207B68012283F84420DD
:104A10007B68012283F845207B68012283F83D20D2
:104A2000002318460837BD4680BD80B582B000AF70
:104A300078607B68002B01D1012341E07B6893F80B
:104A40003D30DBB2002B06D17B68002283F83C208E
:104A5000786800F039F87B68022283F83D207B6893
:104A60001A687B6804331946104600F067FC7B68BF
:104A7000012283F846207B68012283F83E207B6870
:104A8000012283F83F207B68012283F840207B6865
:104A9000012283F841207B68012283F842207B6851
:104AA000012283F843207B68012283F844207B683D
:104AB000012283F845207B68012283F83D200023F2
:104AC00018460837BD4680BD80B483B000AF78601B
:104AD00000BF0C37BD4680BC7047000080B584B075
:104AE00000AF786039603B68002B09D17B6893F890
:104AF0003E30DBB2012B14BF01230023DBB222E0E6
:104B00003B68042B09D17B6893F83F30DBB2012B63
:104B100014BF01230023DBB215E03B68082B09D149
:104B20007B6893F84030DBB2012B14BF01230023D4
:104B3000DBB208E07B6893F84130DBB2012B14BF95
:104B400001230023DBB2002B01D001235EE03B6890
:104B5000002B04D17B68022283F83E2013E03B68DF
:104B6000042B04D17B68022283F83F200BE03B68D2
:104B7000082B04D17B68022283F8402003E07B6885
:104B8000022283F841207B681B680122396818469D
:104B900000F060FE7B681B681E4A934207D17B6869
:104BA0001B685A6C7B681B6842F400425A647B683D
:104BB0001B68184A93420ED07B681B68B3F1804F84
:104BC00009D07B681B68144A934204D07B681B6839
:104BD000124A934211D17B681B689B6803F007035C
:104BE000FB60FB68062B10D07B681B681A687B682B
:104BF0001B6842F001021A6007E07B681B681A68B4
:104C00007B681B6842F001021A60002318461037C7
:104C1000BD4680BD002C014000040040000800405B
:104C200080B584B000AF786039600023FB733B68C7
:104C3000002B09D17B6893F83E30DBB2012B14BF07
:104C400001230023DBB222E03B68042B09D17B68FF
:104C500093F83F30DBB2012B14BF01230023DBB2FA
:104C600015E03B68082B09D17B6893F84030DBB234
:104C7000012B14BF01230023DBB208E07B6893F80B
:104C80004130DBB2012B14BF01230023DBB2002B28
:104C900001D00123A9E03B68002B04D17B680222EC
:104CA00083F83E2013E03B68042B04D17B6802228A
:104CB00083F83F200BE03B68082B04D17B6802227D
:104CC00083F8402003E07B68022283F841203B68A0
:104CD0000C2B41D801A252F823F000BF114D00085F
:104CE000594D0008594D0008594D0008234D000842
:104CF000594D0008594D0008594D0008354D000820
:104D0000594D0008594D0008594D0008474D0008FD
:104D10007B681B68DA687B681B6842F00202DA6015
:104D20001DE07B681B68DA687B681B6842F0040240
:104D3000DA6014E07B681B68DA687B681B6842F005
:104D40000802DA600BE07B681B68DA687B681B6826
:104D500042F01002DA6002E00123FB7300BFFB7B2C
:104D6000002B41D17B681B6801223968184600F08E
:104D700071FD7B681B681F4A934207D17B681B68E3
:104D80005A6C7B681B6842F400425A647B681B685B
:104D9000184A93420ED07B681B68B3F1804F09D04C
:104DA0007B681B68144A934204D07B681B68134AD3
:104DB000934211D17B681B689B6803F00703BB60BB
:104DC000BB68062B10D07B681B681A687B681B6861
:104DD00042F001021A6007E07B681B681A687B6872
:104DE0001B6842F001021A60FB7B18461037BD4673
:104DF00080BD00BF002C01400004004000080040BE
:104E000080B584B000AF78607B681B68DB68FB60AE
:104E10007B681B681B69BB60BB6803F00203002B47
:104E200020D0FB6803F00203002B1BD07B681B68BB
:104E30006FF002021A617B6801221A777B681B6897
:104E40009B6903F00303002B03D0786800F063FA3A
:104E500005E0786800F056FA7868FDF711FA7B688B
:104E600000221A77BB6803F00403002B20D0FB68F4
:104E700003F00403002B1BD07B681B686FF0040257
:104E80001A617B6802221A777B681B689B6903F4AE
:104E90004073002B03D0786800F03DFA05E0786895
:104EA00000F030FA7868FDF7EBF97B6800221A779A
:104EB000BB6803F00803002B20D0FB6803F0080355
:104EC000002B1BD07B681B686FF008021A617B689F
:104ED00004221A777B681B68DB6903F00303002B4D
:104EE00003D0786800F017FA05E0786800F00AFA55
:104EF0007868FDF7C5F97B6800221A77BB6803F074
:104F00001003002B20D0FB6803F01003002B1BD0F4
:104F10007B681B686FF010021A617B6808221A77A1
:104F20007B681B68DB6903F44073002B03D078684F
:104F300000F0F1F905E0786800F0E4F97868FDF731
:104F40009FF97B6800221A77BB6803F00103002BEE
:104F50000CD0FB6803F00103002B07D07B681B68B3
:104F60006FF001021A61786800F0C3F9BB6803F0C2
:104F70008003002B0CD0FB6803F08003002B07D0CC
:104F80007B681B686FF080021A61786800F014FE7D
:104F9000BB6803F04003002B0CD0FB6803F0400318
:104FA000002B07D07B681B686FF040021A6178689D
:104FB00000F0BAF9BB6803F02003002B0CD0FB68AB
:104FC00003F02003002B07D07B681B686FF02002E2
:104FD0001A61786800F0E7FD00BF1037BD4680BD5C
:104FE00080B586B000AFF860B9607A600023FB75C9
:104FF000FB6893F83C30012B01D10223AEE0FB6843
:10500000012283F83C207B680C2B00F29F8001A2D8
:1050100052F823F0495000084D5100084D51000846
:105020004D510008895000084D5100084D510008AD
:105030004D510008CB5000084D5100084D5100085B
:105040004D5100080B510008FB681B68B9681846F1
:1050500000F0E2F9FB681B689A69FB681B6842F084
:1050600008029A61FB681B689A69FB681B6822F05A
:1050700004029A61FB681B689969BB681A69FB683E
:105080001B680A439A6164E0FB681B68B9681846AC
:1050900000F028FAFB681B689A69FB681B6842F4F9
:1050A00000629A61FB681B689A69FB681B6822F4BE
:1050B00080629A61FB681B689969BB681B691A0268
:1050C000FB681B680A439A6143E0FB681B68B96888
:1050D000184600F071FAFB681B68DA69FB681B6808
:1050E00042F00802DA61FB681B68DA69FB681B683A
:1050F00022F00402DA61FB681B68D969BB681A698F
:10510000FB681B680A43DA6123E0FB681B68B96827
:10511000184600F0BBFAFB681B68DA69FB681B687D
:1051200042F40062DA61FB681B68DA69FB681B689D
:1051300022F48062DA61FB681B68D969BB681B696D
:105140001A02FB681B680A43DA6102E00123FB755F
:1051500000BFFB68002283F83C20FB7D184618370F
:10516000BD4680BD80B584B000AF78603960002353
:10517000FB737B6893F83C30012B01D10223B4E030
:105180007B68012283F83C207B68022283F83D2063
:105190007B681B689B68BB60BB6823F07703BB60C0
:1051A000BB6823F47F43BB607B681B68BA689A6066
:1051B0003B681B68B3F5005F3ED0B3F5005F00F2BB
:1051C0008780B3F5805F00F08680B3F5805F7FD87D
:1051D000702B1AD0702B7BD8602B50D0602B77D8D7
:1051E000502B3CD0502B73D8402B58D0402B6FD82D
:1051F000302B64D0302B6BD8202B60D0202B67D87D
:10520000002B5CD0102B5AD062E07B6818683B689A
:1052100099683B685A683B68DB6800F0FCFA7B6879
:105220001B689B68BB60BB6843F07703BB607B680F
:105230001B68BA689A604FE07B6818683B68996899
:105240003B685A683B68DB6800F0E5FA7B681B68DE
:105250009A687B681B6842F480429A603CE07B68F5
:1052600018683B6859683B68DB681A4600F05CFACE
:105270007B681B685021184600F0B3FA2CE07B686D
:1052800018683B6859683B68DB681A4600F07AFA90
:105290007B681B686021184600F0A3FA1CE07B685D
:1052A00018683B6859683B68DB681A4600F03CFAAE
:1052B0007B681B684021184600F093FA0CE07B687D
:1052C0001A683B681B681946104600F08AFA03E02A
:1052D0000123FB7300E000BF7B68012283F83D20BF
:1052E0007B68002283F83C20FB7B18461037BD46C4
:1052F00080BD80B483B000AF786000BF0C37BD467E
:1053000080BC704780B483B000AF786000BF0C37BA
:10531000BD4680BC704780B483B000AF786000BFEA
:105320000C37BD4680BC704780B483B000AF786056
:1053300000BF0C37BD4680BC7047000080B485B00C
:1053400000AF786039607B681B68FB607B682F4A20
:1053500093420BD07B68B3F1804F07D07B682C4A17
:10536000934203D07B682B4A934208D1FB6823F019
:105370007003FB603B685B68FA681343FB607B6803
:10538000224A93420BD07B68B3F1804F07D07B68F1
:105390001F4A934203D07B681E4A934208D1FB68A0
:1053A00023F44073FB603B68DB68FA681343FB60DF
:1053B000FB6823F080023B685B691343FB607B68FA
:1053C000FA681A603B689A687B68DA623B681A6818
:1053D0007B689A627B680D4A934203D13B681A69E5
:1053E0007B681A637B6801225A617B681B6903F042
:1053F0000103002B05D07B681B6923F001027B6849
:105400001A6100BF1437BD4680BC7047002C0140B4
:10541000000400400008004080B487B000AF78600E
:1054200039607B681B6A7B617B681B6A23F0010221
:105430007B681A627B685B683B617B689B69FB6089
:10544000FB6823F07003FB60FB6823F00303FB6041
:105450003B681B68FA681343FB607B6923F0020317
:105460007B613B689B687A6913437B617B681C4A5C
:1054700093420CD17B6923F008037B613B68DB68B6
:105480007A6913437B617B6923F004037B617B684A
:10549000134A934211D13B6923F480733B613B690A
:1054A00023F400733B613B685B693A6913433B61DA
:1054B0003B689B693A6913433B617B683A695A6070
:1054C0007B68FA689A613B685A687B685A637B68B4
:1054D0007A691A6200BF1C37BD4680BC704700BFA6
:1054E000002C014080B487B000AF786039607B68E1
:1054F0001B6A7B617B681B6A23F010027B681A625F
:105500007B685B683B617B689B69FB60FB6823F49D
:10551000E043FB60FB6823F44073FB603B681B685F
:105520001B02FA681343FB607B6923F020037B6155
:105530003B689B681B017A6913437B617B681D4A4A
:1055400093420DD17B6923F080037B613B68DB686C
:105550001B017A6913437B617B6923F040037B6104
:105560007B68144A934213D13B6923F480633B6107
:105570003B6923F400633B613B685B699B003A69CC
:1055800013433B613B689B699B003A6913433B6152
:105590007B683A695A607B68FA689A613B685A6826
:1055A0007B689A637B687A691A6200BF1C37BD46C4
:1055B00080BC7047002C014080B487B000AF786099
:1055C00039607B681B6A7B617B681B6A23F480728D
:1055D0007B681A627B685B683B617B68DB69FB60A8
:1055E000FB6823F07003FB60FB6823F00303FB60A0
:1055F0003B681B68FA681343FB607B6923F4007304
:105600007B613B689B681B027A6913437B617B6803
:105610001D4A93420DD17B6923F400637B613B6893
:10562000DB681B027A6913437B617B6923F4806327
:105630007B617B68144A934213D13B6923F4805306
:105640003B613B6923F400533B613B685B691B0191
:105650003A6913433B613B689B691B013A691343F9
:105660003B617B683A695A607B68FA68DA613B683B
:105670005A687B68DA637B687A691A6200BF1C37F4
:10568000BD4680BC704700BF002C014080B487B08D
:1056900000AF786039607B681B6A3B617B681B6A7E
:1056A00023F480527B681A627B685B687B617B684D
:1056B000DB69FB60FB6823F4E043FB60FB6823F4D9
:1056C0004073FB603B681B681B02FA681343FB6076
:1056D0003B6923F400533B613B689B681B033A69B9
:1056E00013433B617B680F4A934209D17B6923F4E2
:1056F00080437B613B685B699B017A6913437B61F3
:105700007B687A695A607B68FA68DA613B685A6834
:105710007B681A647B683A691A6200BF1C37BD4611
:1057200080BC7047002C014080B487B000AFF860A7
:10573000B9607A60FB681B6A7B61FB681B6A23F0B7
:105740000102FB681A62FB689B693B613B6923F0BD
:10575000F0033B617B681B013A6913433B617B6942
:1057600023F00A037B617A69BB6813437B61FB68A2
:105770003A699A61FB687A691A6200BF1C37BD46B4
:1057800080BC704780B487B000AFF860B9607A60C1
:10579000FB681B6A7B61FB681B6A23F01002FB68D5
:1057A0001A62FB689B693B613B6923F470433B6170
:1057B0007B681B033A6913433B617B6923F0A003B9
:1057C0007B61BB681B017A6913437B61FB683A69A3
:1057D0009A61FB687A691A6200BF1C37BD4680BCBB
:1057E000704780B485B000AF786039607B689B6893
:1057F000FB60FB6823F07003FB603A68FB681343AF
:1058000043F00703FB607B68FA689A6000BF1437B7
:10581000BD4680BC704780B487B000AFF860B96007
:105820007A603B60FB689B687B617B6923F47F4304
:105830007B613B681A027B681A43BB6813437A6931
:1058400013437B61FB687A699A6000BF1C37BD46D1
:1058500080BC704780B487B000AFF860B9607A60F0
:10586000BB6803F01F03012202FA03F37B61FB68AC
:105870001A6A7B69DB431A40FB681A62FB681A6A82
:10588000BB6803F01F03796801FA03F31A43FB684E
:105890001A6200BF1C37BD4680BC704780B584B01B
:1058A00000AF786039600023FB733B68002B09D19F
:1058B0007B6893F84230DBB2012B14BF0123002335
:1058C000DBB222E03B68042B09D17B6893F84330BC
:1058D000DBB2012B14BF01230023DBB215E03B68D0
:1058E000082B09D17B6893F84430DBB2012B14BF3D
:1058F00001230023DBB208E07B6893F84530DBB27C
:10590000012B14BF01230023DBB2002B01D00123A4
:105910008FE03B68002B04D17B68022283F8422091
:1059200013E03B68042B04D17B68022283F84320F8
:105930000BE03B68082B04D17B68022283F84420EB
:1059400003E07B68022283F845203B68082B1BD0CC
:105950003B68082B21D83B68002B03D03B68042B05
:1059600009D01AE07B681B68DA687B681B6842F024
:105970000202DA6014E07B681B68DA687B681B68E7
:1059800042F00402DA600BE07B681B68DA687B682F
:105990001B6842F00802DA6002E00123FB7300BFDB
:1059A000FB7B002B44D17B681B68DA687B681B6833
:1059B00042F08002DA607B681B680422396818466E
:1059C00000F003F97B681B685A6C7B681B6842F423
:1059D00000425A647B681B68184A93420ED07B6869
:1059E0001B68B3F1804F09D07B681B68144A93424F
:1059F00004D07B681B68134A934211D17B681B68F3
:105A00009B6803F00703BB60BB68062B10D07B6864
:105A10001B681A687B681B6842F001021A6007E085
:105A20007B681B681A687B681B6842F001021A6079
:105A3000FB7B18461037BD4680BD00BF002C0140DF
:105A4000000400400008004080B485B000AF7860DA
:105A500039607B6893F83C30012B01D1022346E08A
:105A60007B68012283F83C207B68022283F83D207A
:105A70007B681B685B68FB607B681B689B68BB601E
:105A8000FB6823F07003FB603B681B68FA681343F4
:105A9000FB607B681B68FA685A607B681B68164A63
:105AA00093420ED07B681B68B3F1804F09D07B68AE
:105AB0001B68124A934204D07B681B68104A9342C9
:105AC0000CD1BB6823F08003BB603B685B68BA689D
:105AD0001343BB607B681B68BA689A607B680122CD
